:100000000C9417030C9434030C9434030C943403B1
:100010000C9434030C9434030C9434030C94340384
:100020000C9434030C9434030C94BC130C94F81209
:100030000C941D170C9434030C9434030C94340367
:100040000C9434030C9434030C9434030C94340354
:100050000C9434030C94AB160C9434030C943403BA
:100060000C9434030C9434030C9434030C94340334
:100070000C9434030C9434030C9434030C94340324
:100080000C9434030C9434030C9434030C94340314
:100090000C9434030C9434030C9434030C94340304
:1000A0000C9434030C9434030C943403320534055B
:1000B0003F05360538053A053C053E054105430533
:1000C00045055005470549054B054D054F055205AA
:1000D000F405F405320632066E068E066008B9088D
:1000E000D006B908BD07BD07CA07CA07CA07CA07AD
:1000F000CA07CA07CA07CA07CA07CA07CA07CA0778
:10010000CA07CA07CA07CA07DB07030808080F0897
:1001100027087E098109840987098A098D099009C0
:1001200009113011D0123011D01278119B11D01258
:100130009912AC124A194F1959194D1952195719D8
:1001400055195F1D5F1D721D721D681D721D721D88
:10015000721D5F1D5F1D6D1D721D721D6D1D2900BD
:100160002B003500E100015100001E0014000400C6
:100170001D64E00003511F001A0016001B00E2007E
:10018000060120000800070006005000E3002100DF
:100190001500090019004F003508220017000A0059
:1001A00005000000500805532F0200002F0000003A
:1001B000E0042E0030020000300000004B0023005D
:1001C0001C000B00110000004F08240018000D0057
:1001D000100052004E0025000C000E0036005100A9
:1001E0002C00260012000F00370023022A002700EF
:1001F000130033003874210226022D003100340030
:100200002800025100002900010001000100010046
:100210000000010001005000010004510100010034
:1002200052005100010003512C00010001004F0059
:100230000601500CE30001000100090119014F0CF7
:100240004D0001000100010001000000B6000100A6
:1002500001000000010000004A00010002530000FC
:10026000010000004B00010001000100010000003E
:10027000B7000100240021001E0027004E002E00C0
:10028000250022001F0001002C005400260023003E
:10029000200037002A0055005600570001000100D9
:1002A00028002E00300230000A0201000000A600E3
:1002B0000100FF00FE00FD0000003A00FA00F2001D
:1002C00001000100F6003B00F000F1000100010018
:1002D000F5003C00F900F30001000100F4003D00CE
:1002E000010001000100010001003E0001000100C9
:1002F0000100000001003F000100000001000000BB
:10030000010040000100000001000000A9004100C0
:100310000100010001000000010042002400210052
:100320001E002700AA004300250022001F003700FE
:10033000B70044002600230020005800B600450006
:100340005500570031002E00A800010001000100F7
:100350000351010000000100010001000100010043
:100360000000010007050805500D01000100010013
:10037000180550050D050100350801005205060558
:1003800051050100280501000C054F050E0501006F
:10039000010001000A0517054F0D000001000100D2
:1003A0000100000001000000010001000100000048
:1003B00001000000010001000100500001000000E8
:1003C00001000100010051000100010001000100D5
:1003D00001005200010001001A08010001004F0055
:1003E0000100010001000100010001000100010005
:1003F0000100005C01000100010001000000070095
:1004000001000100010001000000010001000100E5
:10041000010001002D0001000100010001000100A8
:10042000240201000100010001000100050101009A
:1004300001000100010001000100010001000100B4
:1004400001000000010001000100000001000000A7
:100450000100170001000000010000000100010080
:1004600009001400010000000100010013002F0228
:100470000100010001000100110030020100010033
:10048000120001001A003402010001001B000100EB
:1004900036002202380201002E02010006001D0073
:1004A00033020100000005010902A10185020901D2
:1004B000A1000509190129051500250195057501FA
:1004C000810295017503810105010930093115810A
:1004D000257F95027508810609381581257F9501CC
:1004E00075088106050C0A38021581257F9501756E
:1004F000088106C0C005010980A10185031601001D
:100500002603001A81002A8300751095018100C01E
:10051000050C0901A1018504160100269C021A019F
:10052000002A9C02751095018100C005010906A1F1
:10053000018505050719E029E715002501950875CE
:10054000018102050819012905950575019102959A
:1005500001750391010507190029EF150025019583
:10056000F075018102C005010906A101050719E026
:1005700029E7150025019508750181029501750887
:10058000810105081901290595057501910295015B
:10059000750391010507190029FF150026FF009535
:1005A0000675088100C009023B00020100A0FA099B
:1005B0000400000103010100092111010001224092
:1005C000000705810308000A090401000103000077
:1005D0000009211101000122C0000705820320004B
:1005E0000A1201100100000008EDFE0713010001CE
:1005F0000203010403300000001603450072006787
:10060000006F0044006F007800200045005A000091
:100610000016034500720067006F0044006F007809
:1006200000200045005A00000004030904001124C2
:100630001FBECFEFDAE0DEBFCDBF11E0A0E0B1E03A
:10064000ECE6F5E402C005900D92AC3BB107D9F79A
:1006500022E0ACEBB1E001C01D92A03FB207E1F790
:100660000E94CF1A0C94B4220C9400008F929F9297
:10067000AF92BF92CF92DF92EF92FF920F931F93B0
:10068000CF93DF93CDB7DEB728970FB6F894DEBFD0
:100690000FBECDBFFC01F080118183819481892B35
:1006A00009F49EC51F3F21F40FEFF01609F498C519
:1006B0006F0185E0DE01119601900D928A95E1F7B8
:1006C000F601228189819A81222349F00E944718EC
:1006D000082F682F89819A810E94C01803C00E9448
:1006E0009318082F26E0129FF001112434E5039F90
:1006F000E00DF11D1124EF0DF11DEE0FFF1FE25A69
:10070000FE4F05911491F6018281063FFCE51F071B
:10071000A1F5882309F464C51CC01092BD01F6013F
:1007200092810531FCE51F0708F40CC10C3DECE596
:100730001E0709F465C108F413C10D3D3CE513071C
:1007400009F464C10E3D1C4509F005C2992309F462
:1007500047C528960FB6F894DEBF0FBECDBFDF9118
:10076000CF911F910F91FF90EF90DF90CF90BF90AE
:10077000AF909F908F900C94A917882319F1033E96
:100780002CE51207C1F050F4013E8CE5180781F00A
:10079000023E9CE51907B1F481E010C0043EECE58F
:1007A0001E0759F0053EFCE51F0761F484E006C012
:1007B0001092AB0205C082E001C083E08093AB02DF
:1007C0000E94680B17FF73C0F6018281882309F429
:1007D0006EC08091DA018093BC011092DA018091A1
:1007E000AB02813071F048F08230D1F08430F1F406
:1007F00086EE0E94EA1F88E117C082EE0E94FD1F6C
:1008000015C086E399E00E94E10F88E10E94FD1F78
:1008100088E10E94831F86E299E00E94E10F06C0F2
:1008200082EE0E94FD1F87E50E94EA1F8FE39CE98C
:100830000197F1F700C000007801E894F7F85CE058
:10084000A52EB12CC7010A2C02C0969587950A9453
:10085000E2F7282F2F7041F0822F90E02A3010F419
:100860004D9604C0069702C087E290E00E94EA1FFE
:1008700094E0A91AB108ECEFAE16EFEFBE0611F73F
:100880008091AB02813039F040F0823031F0843019
:1008900051F488E206C08CE204C082EE0E94831FFD
:1008A00002C00E94EA1F8091BC018093DA01003FE0
:1008B000FCE51F07C1F188F4083D3CE51307D9F0BA
:1008C000093D8CE51807D9F1073D9CE5190709F0AA
:1008D00024CF26E241EE61EE11C0023FECE51E0797
:1008E00051F128F1033F2CE5120709F016CF27E25A
:1008F00046EE66EE03C027E245EE65EEC601289699
:100900000FB6F894DEBF0FBECDBFDF91CF911F9120
:100910000F91FF90EF90DF90CF90BF90AF909F909E
:100920008F900C94FB0A26E240EE60EEE7CF27E2C0
:1009300044EE64EEE3CF26E242EE62EEDFCF28E241
:1009400041E0DBCF02302CE5120708F066C001154C
:100950003CE5130751F001301C4509F448C0FBC0C9
:1009600006311C4509F4C3C0F6C0992309F438C404
:100970001092DA010E945B1F9FEFE4E3FCE09150CC
:10098000E040F040E1F700C00000F89481E080937F
:10099000E00080E28093D8001092C9008FE19EE4CD
:1009A0000197F1F700C000001DBA109268001CBC4E
:1009B00010BE1FBA10927A0010926E0010926F0053
:1009C00010927100109272001092C9001092BC0037
:1009D00014B817B81AB81DB810BA1092BC0015B8E0
:1009E00018B81BB81EB811BA0C94003FF9C399236C
:1009F00009F4F6C38091DA0281608093DA02F0C3D1
:100A0000992309F4EDC31092E902EAC3992309F48A
:100A1000E7C382E08093E902E3C3992309F49BC012
:100A200080E090E00E941F218D3E9E4F11F00E94B9
:100A3000A91784E090E00E94172190E09093BE02F5
:100A40008093BD02F801E350FC45E231F10530F43A
:100A5000EA5AFF4F8091BD020C9481218091BD0222
:100A6000816027C0826025C0846023C0806121C06E
:100A700080621FC080641DC080681BC08460886065
:100A800018C08E7F16C08D7F14C08B7F12C08F7EE2
:100A900010C08F7D0EC08F7B0CC08F770AC08B7FFC
:100AA000877F07C087FB222720F991E0922790FBE0
:100AB00087F98093BD026091BD0284E090E00E94BE
:100AC00025211092DA0128960FB6F894DEBF0FBEEA
:100AD000CDBFDF91CF911F910F91FF90EF90DF90ED
:100AE000CF90BF90AF909F908F900C945B1F8091A0
:100AF000DA01992389F0982F9A7A81E009F480E04D
:100B00008093BE01811102C069E201C065E389E002
:100B100092E00E9471170BC08091BE01811102C04A
:100B200069E201C065E389E092E00E9446172896D9
:100B30000FB6F894DEBF0FBECDBFDF91CF911F91EE
:100B40000F91FF90EF90DF90CF90BF90AF909F906C
:100B50008F900C940118F60100811181992349F0BE
:100B6000C8010E944718F82E682FC8010E94C018BB
:100B700004C0C8010E949318F82EB8018F2D0E945E
:100B80006E0B182F382FF601258122952F700281C8
:100B9000011110929E0280919C028770A9F000239F
:100BA00099F080E2810F883078F082E02F833887D7
:100BB0009E830E948C1980919C028770EE24E3949E
:100BC0002F8138859E818111E12CA92EA2944FE0BE
:100BD000A422B12CFCE0AF16B10408F0CAC2F501A2
:100BE000E859FF4F0C948121892F807F9F70F92E47
:100BF000882319F0F29480EFF8220023B9F0FF2047
:100C000009F448C280E2810F883010F0311106C02B
:100C10009091DA01F92AF092DA0105C090919E02D2
:100C2000F92AF0929E020E94011834C2812F38875F
:100C30000E94831F3885FF2009F49BC2105EF09448
:100C4000183010F0311106C09091DA01F922F092BB
:100C5000DA0105C090919E02F922F0929E020E9454
:100C6000011887C2492F407F892F8F70403211F0C1
:100C70008295807F332319F03130E9F025C00023BD
:100C800081F030919F02222351F0213041F4982FBE
:100C9000932B391709F46DC290939F026AC2832B7C
:100CA00081C1222319F0213009F463C28E830E948E
:100CB000FB178E817DC1002321F0223008F059C23C
:100CC00071C1211156C274C1002321F0222309F4FD
:100CD00069C1E0C1222309F46BC1EEC1292F269519
:100CE0002695237030E02115310521F021303105A2
:100CF00059F03FC2002319F0812F937002C080E0A9
:100D000090E00E94D90A43C2002319F0812F93700A
:100D100002C080E090E00E94C30A39C20023F9F0CB
:100D2000153F51F0163F71F0143FA9F48091BF01B7
:100D30009091C00181600BC08091BF019091C00172
:100D4000826005C08091BF019091C0018460909342
:100D5000C0018093BF01812F0E9443161EC0153F22
:100D600051F0163F71F0143FA9F48091BF019091AA
:100D7000C0018E7F0BC08091BF019091C0018D7F1B
:100D800005C08091BF019091C0018B7F9093C001FD
:100D90008093BF01812F0E947D150E940717F7C124
:100DA000892F837009F071C00111EFC1812F8295E5
:100DB00086958770880F880F412F4F7050E060E054
:100DC00070E04A015B01082E04C0880C991CAA1C23
:100DD000BB1C0A94D2F714FF12C00FE010E020E011
:100DE00030E004C0000F111F221F331F8A95D2F775
:100DF000B901A801409550956095709503C040E0F9
:100E000050E0BA01969596959370892F90E08230C4
:100E10009105E9F08330910579F10091A0021091DC
:100E2000A1022091A2023091A302019759F0482912
:100E300059296A297B29CB01BA01602371238223B6
:100E4000932320C0802A912AA22AB32A15C04829B8
:100E500059296A297B298091A0029091A102A09131
:100E6000A202B091A3028A019B01082719272A2711
:100E70003B27C901B80106C0CB01BA01682979290D
:100E80008A299B290E94C61980C1002319F0892F45
:100E9000817001C08695882309F477C1812F8295DE
:100EA00086958770880F880F412F4F7050E060E063
:100EB00070E04A015B01082E04C0880C991CAA1C32
:100EC000BB1C0A94D2F714FF12C00FE010E020E020
:100ED00030E004C0000F111F221F331F8A95D2F784
:100EE000B901A801409550956095709503C040E008
:100EF00050E0BA01969596959370892F90E08230D4
:100F00009105E9F08330910579F1009198021091F3
:100F1000990220919A0230919B02019759F0482939
:100F200059296A297B29CB01BA01602371238223C5
:100F3000932320C0802A912AA22AB32A15C04829C7
:100F400059296A297B298091980290919902A09150
:100F50009A02B0919B028A019B01082719272A2730
:100F60003B27C901B80106C0CB01BA01682979291C
:100F70008A299B290E94F01808C1412F50E0FA01EC
:100F8000E05EF109E531F10508F07FC0EC58FF4F54
:100F90000C9481211F70892F8F71002331F00E94E2
:100FA000A519812F0E94791FE4C00E946719812F23
:100FB0000E946E1FDEC0002311F12111DAC0292F1B
:100FC0002F7181E090E0A0E0B0E0AC01BD0104C071
:100FD000440F551F661F771F2A95D2F780919802FC
:100FE00090919902A0919A02B0919B028A019B0173
:100FF000082719272A273B27C901B80125C0223015
:1010000008F0B7C0DCCF002329F0892F8F712EC0E4
:101010000023D9F3892F8F710E946719AAC000237A
:1010200081F0292F2F7181E090E0A0E0B0E0BC01B9
:10103000CD0104C0660F771F881F991F2A95D2F72C
:1010400003C060E070E0CB010E94F01892C0002362
:1010500081F0192F1F71812F0E94A51928E0129F7E
:10106000C0011124836080939C02812F0E94A519E6
:1010700080C081E02F830E948C192F81223008F4D8
:1010800078C082E00E948C1974C0002339F02223BA
:1010900009F4BBCF812F0E94FD1F6BC0222309F4EE
:1010A000B9CF193349F43FEF83EC99E031508040D8
:1010B0009040E1F700C00000812F0E94831F59C0BB
:1010C000323FB1F028F4303F49F0313FF9F028C009
:1010D000343FB9F058F0353F71F022C0002309F4D5
:1010E00056C09091EB0281E0892708C081E0082773
:1010F0000093EB024CC001114AC081E08093EB02E7
:1011000046C0011144C01092EB0241C0002329F0F7
:101110008091EA02882329F329C0222311F337C0E2
:101120008091EA022223C1F0882341F09091EB02E2
:1011300081E089278093EB021092EA02812F00233D
:1011400019F00E94FD1F23C00E94831F86E0F60154
:1011500011928A95E9F71BC08823C9F0011117C0C5
:101160009091EB0281E089278093EB021092EA02D2
:101170000EC0F8E0AF16B10441F04CF01AE0A11A2D
:10118000B10822E0A216B10410F40E94EF0AEE208A
:1011900039F180919C0280FD23C0F6011282859571
:1011A000859585950E94A519C6010E9436038091F8
:1011B0009C0285958595859528960FB6F894DEBF97
:1011C0000FBECDBFDF91CF911F910F91FF90EF9098
:1011D000DF90CF90BF90AF909F908F900C94671945
:1011E00028960FB6F894DEBF0FBECDBFDF91CF912A
:1011F0001F910F91FF90EF90DF90CF90BF90AF9035
:101200009F908F9008959091BD0292FF0DC0282F5E
:101210002871283019F4877F846006C0282F247134
:10122000243011F48B7F886093FF0DC0282F287124
:10123000283119F4877E846106C0282F2471243157
:1012400011F48B7E886194FD877E0895282F277086
:1012500081E090E001C0880F2A95EAF7809590918F
:101260009E02892380939E020C940118282F2770D8
:1012700081E090E001C0880F2A95EAF790919E02E4
:10128000892B80939E020C940118CF93E82F87300E
:1012900058F58091070190910801892B09F042C00F
:1012A000CE2F80E40E94970F90930801809307014E
:1012B000892BB1F482E10E94700F90930801809312
:1012C0000701892B69F481E090E001C0880FCA957D
:1012D000EAF780950E94700F9093080180930701B0
:1012E00084E98093BC001EC090E0FC013797E73092
:1012F000F105C0F4E757FF4F0C948121209A2898FC
:1013000011C0219A29980EC0229A2A980BC0239ABC
:101310002B9808C0529A5A9805C0539A5B9802C0FD
:101320003E9A4698CF910895CF93DF93873008F087
:1013300047C08091070190910801892B09F049C0AD
:1013400080E40E94970F9093080180930701892BF6
:1013500011F080E031C083E10E94700F909308018A
:1013600080930701892BA9F781E40E94970F90933E
:10137000080180930701892B61F784E88093BC0002
:101380000E94FB16EC019091BC0097FD0EC00E94DC
:10139000FB168C1B9D0B84369105A8F38EEF9FEFF7
:1013A0009093080180930701D4CF8091BB00809572
:1013B000109208011092070194E99093BC000AC0B2
:1013C0009FB18FB1807F869586959370892B80958C
:1013D00001C080E0DF91CF910895EF92FF920F93CB
:1013E0001F93CF93DF93CDB7DEB767970FB6F8940F
:1013F000DEBF0FBECDBF4B8B5C8B6D8B7E8B8F8B1F
:101400000E891F8901151105C1F15F3F11F44F3F8E
:10141000A1F1E42EF12CA1E0B0E0042E01C0AA0F4E
:101420000A94EAF7852F90E0662319F02091EB02E9
:1014300006C09C0125533E4FF90120812A23222317
:10144000A9F046E0489F9001499F300D1124F70113
:10145000E20FF31FEE0FFF1FED5EFE4F4081518143
:10146000FC01E553FE4F9081A92B06C0FC01E5531A
:10147000FE4FA0958081A823A08386E0FE013D96C3
:10148000DF01982F1D929A95E9F74D875E876F8748
:10149000198B088BDE01179601900D928A95E1F762
:1014A000CE0107960E94761D811137C086E0FE01AD
:1014B0003796DE01119601900D928A95E1F7FF8132
:1014C000E8856A857B856115710539F1EF3F11F477
:1014D000FF3F19F120912F0230E0C901019687707A
:1014E00099274091600250E08417950779F1F983BC
:1014F000EA837D836C8396E0929FD001939FB00D29
:101500001124A05DBD4FFE01319601900D929A9578
:10151000E1F780932F020E94D01916E080916002BB
:1015200090912F02891711F1189FC0011124805D3D
:101530009D4F0E94761D8823C9F08091600290E043
:1015400001968770992780936002E8CF1092DA01A4
:101550000E945B1F10922F0210926002E9E2F2E0FB
:1015600086E0DF011D928A95E9F7D7CF67960FB61F
:10157000F894DEBF0FBECDBFDF91CF911F910F91C9
:10158000FF90EF9008952091C9013091CA01821710
:10159000930771F09093CA018093C901E091BF0253
:1015A000F091C002309721F00084F185E02D09947C
:1015B00008952091C7013091C8018217930771F0F7
:1015C0009093C8018093C701E091BF02F091C002DF
:1015D000309721F00680F781E02D09940895E0917D
:1015E000BF02F091C002309721F00190F081E02D10
:1015F000099480E008950F931F93CF93DF93C62F34
:10160000D42F022FFC0182818823C9F06093BD0191
:101610000E94FB169093C6018093C50180E28C0F57
:10162000883008F050C0C77081E001C0880FCA95AB
:10163000EAF7DF91CF911F910F910C94791F1091D0
:10164000BD01161330C08091C5019091C6010E9462
:10165000D116883C910538F5C0E2CD0F1D17B9F0C1
:1016600080E2810F883040F4177081E001C0880F5C
:101670001A95EAF70E946E1FC83048F481E09D2F4A
:10168000977001C0880F9A95EAF70E94791F802F02
:101690000E94EA1FC830B8F4D77081E001C0880FFB
:1016A000DA95EAF70AC080E28C0F883060F4C770E0
:1016B00081E001C0880FCA95EAF7DF91CF911F91B1
:1016C0000F910C946E1FDF91CF911F910F91089590
:1016D0006091AB028CE090E00C942521CF93DF93D6
:1016E00026E0729FF001112434E5839FE00DF11D87
:1016F0001124E60FF11DEE0FFF1FE25AFE4FC591B8
:10170000D491CE01C238D10549F1B0F4C133D1052D
:1017100009F464C048F4C932D10509F458C0CA328A
:10172000D10509F462C068C0C533D10509F448C0C9
:10173000C933D10599F060C0C33ED10541F138F4F9
:10174000C03ED10591F0C23ED105B1F055C0C63EB4
:10175000D10521F1C73ED10561F14EC02091BD02F6
:1017600020FD14C221FD12C213C22091BD0220FF30
:101770000FC289E390E00CC22091BD0222FF08C293
:101780008091BD0284FDB4C183EE90E001C28091DE
:10179000BD0282FFF5CF82EE90E0FAC12091BD023A
:1017A00023FFF6C18091BD0284FDA2C187EE90E0C7
:1017B000EFC18091BD0283FFF5CF86EE90E0E8C1D6
:1017C0002091BD0225FFE4C189E290E0E1C12091B2
:1017D000BD0225FFDDC185E390E0DAC12091BD02A5
:1017E00026FFD6C18AE290E0D3C12091BD0226FF38
:1017F000CFC181E390E0CCC1C11520E5D20708F04C
:1018000047C0C11530E4D30708F034C1C83ED10544
:1018100018F5C03ED10508F0BBC1C83AD10570F437
:10182000C53AD10508F0B0C0C130D10509F4B0C146
:1018300008F45EC1249708F45BC1AAC1CF3BD1056F
:1018400008F4ADC0C03CD10508F452C1FE01EE0F52
:10185000FF1FEA5DFC4F02C1C11520E2D20760F410
:10186000C11531E0D30708F093C1C03FD10508F49A
:101870003FC1CE0190658CC1C11580E3D80708F047
:10188000F0C0FE01FF70EE0FFF1FEA55FB4FE6C0F0
:10189000C11595E5D90708F044C0C11524E5D20764
:1018A00008F000C1C11532E5D30710F5C11581E577
:1018B000D80708F0E3C02C2F237081E090E002C02D
:1018C000880F991F2A95E2F79C689E0174E036956F
:1018D00027957A95E1F72370922BEC2FEF70E69520
:1018E000E69530E2E39FF00111248E2B9F2B50C12F
:1018F0008C2F86958695AE0143705527C115D3452B
:1019000008F0C1C090E2899F9001112481E090E02D
:1019100002C0880F991F4A95E2F7822B932B9C688F
:1019200037C1C1152AE5D207A0F4C11539E5D3079F
:1019300008F0C6C0C11586E5D80708F4B8C0C115BF
:1019400098E5D90708F4D4C09C2F8827806F906A47
:101950001FC1C1152BE5D20708F4CAC0CE01C115BD
:101960003CE5D30708F4C1C090568115904208F0B9
:10197000BFC08D2F8F710E940309FE01FF27F06207
:101980008F719F01382BAFC0C53AD10509F4B3C0A0
:10199000C63AD10509F0B2C082E890E4F9C0C83A6D
:1019A000D10509F4AEC0C93AD10509F4ADC0CA3AAF
:1019B000D10509F4ACC0CB3AD10509F4ABC0CC3A9F
:1019C000D10509F4AAC0CB3BD10509F4A9C0CC3B91
:1019D000D10509F4A8C0CD3AD10509F4A7C0C03B90
:1019E000D10509F4A6C0CE3AD10509F4A5C0CF3A75
:1019F000D10509F4A4C0C13BD10509F4A3C0C23B81
:101A0000D10509F4A2C0C33BD10509F4A1C0C43B70
:101A1000D10509F4A0C0C53BD10509F49FC0C63B60
:101A2000D10509F49EC0C73BD10509F49DC0C83B50
:101A3000D10509F49CC0C93BD10509F49BC0CD3B3D
:101A4000D10509F49AC0CE3BD10509F499C0CA3B2F
:101A5000D10509F498C080E094E49AC085919491EE
:101A600097C09E013327C901D3FF02C0986C90C074
:101A7000906C8EC0CE019F70906A8AC09C2F882780
:101A8000816F906A85C090E2899F9001112481E066
:101A900090E002C0880F991F4A95E2F7822B932BA2
:101AA0009A6876C09C2F8827846F906A71C08C2FAB
:101AB0000E9403098F7190E0982F8827906268C078
:101AC0008C2F8F700E940309FE0194E0F695E79534
:101AD0009A95E1F7EF70F0E0FE2FEE27F06A8F7035
:101AE000806E9F01282BC90153C09927906650C072
:101AF00080E090E04DC081E890E44AC083E890E443
:101B000047C082EE94E444C089EE94E441C08AEE7A
:101B100094E43EC085EB94E43BC086EB94E438C08B
:101B200083EB94E435C084EB94E432C087EB94E417
:101B30002FC08CEC94E42CC08DEC94E429C083E895
:101B400095E426C08AE895E423C082E995E420C0A4
:101B500084E995E41DC081E296E41AC083E296E42C
:101B600017C084E296E414C085E296E411C086E2D0
:101B700096E40EC087E296E40BC08FE694E408C0BA
:101B800080E794E405C08AE296E402C080EE90E02B
:101B9000DF91CF91089580E290E0909308018093C7
:101BA00007018091C401811111C01092B9008CE02D
:101BB0008093B80081E08093C4012FEF83ED90E320
:101BC000215080409040E1F700C0000080E40E9476
:101BD000970F9093080180930701892B09F040C06B
:101BE00080E00E94700F9093080180930701892B79
:101BF000B9F580E00E94700F90930801809307016F
:101C0000892B71F58FE30E94700F909308018093E8
:101C10000701892B29F584E98093BC0080E40E94A8
:101C2000970F9093080180930701892BC9F48CE0EA
:101C30000E94700F9093080180930701892B81F413
:101C400080E00E94700F9093080180930701892B18
:101C500039F48FE30E94700F90930801809307017D
:101C600084E98093BC0080910701089556985E989E
:101C700025982D9826982E9827982F988FEF90E0EA
:101C8000909389008093880090938B0080938A00C2
:101C900090938D0080938C00259A2D9A2FEF80E7EA
:101CA00092E0215080409040E1F700C00000269A69
:101CB0002E9A2FEF80E792E0215080409040E1F78C
:101CC00000C00000279A2F9A2FEF80E792E0215062
:101CD00080409040E1F700C0000025982D982FEF3C
:101CE00080E792E0215080409040E1F700C0000082
:101CF00026982E982FEF80E792E021508040904068
:101D0000E1F700C0000027982F9856985E98259814
:101D10002D9826982E9827982F98089584B1807F23
:101D200084B985B1807F85B98AB1837F8AB98BB147
:101D3000837F8BB93E984698089580B38C7080BBA2
:101D400081B3836F81BB08959F92AF92BF92CF9270
:101D5000DF92EF92FF920F931F93CF93DF938091C7
:101D6000070190910801892B91F08091C3018F5F49
:101D70008093C30181110BC00E94CB0D90E0909322
:101D8000080180930701892B11F40E94360E0FEA97
:101D900012E026EBE22E22E0F22E6801C0E0912C48
:101DA00097E0A92EAC0E8C2F0E9445098A2D0E9427
:101DB00045098C2F0E949409F6019081981721F013
:101DC0008083BB24B39401C0B12C8A2D0E94940956
:101DD000F7019081981719F0808381E001C080E0BD
:101DE000B82A9B280E948E0ECF5FFFEFCF1ADF0A22
:101DF0008FEFE81AF80AC73099F60E94FB166AEFCF
:101E000070E00E9459219C01682F8091C2018823B3
:101E1000E9F11092C201E091A902F091AA02DF015A
:101E20001E9690E07BEF8AEFE82EF12C80818B3FAD
:101E3000A9F0482F50E0681728F0E901C41BD50B22
:101E4000AE0106C06701C41AD50AA601420F531F8E
:101E50004A30510514F0708301C091E03196EA17C1
:101E6000FB0721F79093C201911002C0911110C09D
:101E70001092C101A091A902B091AA029091C20151
:101E8000E2ECF2E080E03EE03E0F07C09110F0CFC0
:101E90008091C1018111ECCF16C0E80129918E011A
:101EA0004081421741F04C914B3F21F46C932083C9
:101EB00091E001C081E0119631963E13EECF9093F0
:101EC000C2018093C101892DDF91CF911F910F91A4
:101ED000FF90EF90DF90CF90BF90AF909F900895CC
:101EE000CF93DF938093BB0084E88093BC000E9473
:101EF000FB16EC019091BC0097FD0AC00E94FB16F6
:101F00008C1B9D0B84369105A8F38EEF9FEF0CC0C0
:101F10002091B900287F81E090E0283211F480E020
:101F200090E0919581959109DF91CF9108950F935C
:101F30001F93CF93DF93C82F1092BC0084EA809345
:101F4000BC000E94FB168C019091BC0097FD0AC05A
:101F50000E94FB16801B910B84369105A8F38EEF2F
:101F60009FEF2AC09091B900987F983041F09091EE
:101F7000B900987F903119F08FEF9FEF1DC0C0938B
:101F8000BB0084E88093BC000E94FB16EC0190919A
:101F9000BC0097FD08C00E94FB168C1B9D0B84366D
:101FA0009105A8F3DCCF8091B900887F883111F0CA
:101FB000803411F780E090E0DF91CF911F910F9175
:101FC0000895CF93DF93EC0180EEFE01099581EE39
:101FD000FE01DF91CF910994CF92DF92FF920F9390
:101FE0001F93CF93DF931F92CDB7DEB7F82E8B01EF
:101FF00099830E94DA19998181111CC0CF2CD92EA6
:1020000001151105B1F08091E80085FD0AC08091AD
:10201000E8008E778093E8000E94DA19882381F324
:1020200009C0F60181916F018093F10001501109FF
:10203000E7CF80E00F90DF91CF911F910F91FF903C
:10204000DF90CF9008951F93CF93DF93CDB7DEB786
:10205000AA970FB6F894DEBF0FBECDBFE1E0F2E065
:1020600088E08E0F9091F10091938E13FBCF8091B9
:102070000202833009F460C030F4813071F08230A4
:1020800009F49CC0B3C08A3009F488C08B3009F4CD
:102090006BC0893009F0AAC020C080910102813A4A
:1020A00009F0A4C08091E800877F8093E8008091C8
:1020B000050290910602892B21F460E28DED91E0FA
:1020C00003C060E080E090E070E00E94601A8091C0
:1020D000E8008B778093E80089C08091010281320B
:1020E00009F084C08091050290910602029708F0E1
:1020F0007DC08091E800877F8093E8008091E800B0
:1021000082FD05C08091FF018111F8CF6FC0209141
:10211000F3008091F20090E0922B029729F48091D5
:10212000F1008B7F813021F48091F1008093DC01FC
:102130008091E8008B7756C080910102813A09F0C6
:1021400055C08091050290910602892B09F04EC07E
:102150008091E800877F8093E8008091E80080FF0D
:10216000FCCF8091060139C0809101028132F1F5E6
:102170008091050290910602892BC1F58091E800BB
:10218000877F8093E8000E940C1A8091030280935D
:1021900006011092DA010E945B1F28C080910102A3
:1021A000813221F58091E800877F8093E8000E94CA
:1021B0000C1A809104028093DB0118C08091010207
:1021C000813AA1F48091E800877F8093E8008091B4
:1021D000E80080FFFCCF8091DB018093F1008091CB
:1021E000E8008E778093E8000E940C1A8091E80046
:1021F00083FFD6C18091010290910202492F50E0E5
:102200004A30510508F0CCC1FA01E057FF4F0C9459
:102210008121803821F0823809F0C2C108C0809144
:10222000FD019091FE01992389F082600FC0809199
:1022300005028F70873008F0B3C18093E900809168
:10224000EB0085FB882780F91092E9009091E80067
:10225000977F9093E8008093F1001092F10074C191
:10226000282F2D7F09F09CC1882319F0823061F05E
:1022700097C180910302813009F092C1933009F037
:1022800080E08093FE012EC08091030281112AC05C
:10229000809105028F702FEF280F263008F080C143
:1022A0008093E9002091EB0020FF1CC0933021F4C3
:1022B0008091EB00806214C09091EB00906190934C
:1022C000EB0021E030E0A90102C0440F551F8A95C0
:1022D000E2F74093EA001092EA008091EB008860F8
:1022E0008093EB001092E9008091E800877F2FC176
:1022F000811156C1109103021F778091E30080780D
:10230000812B8093E3008091E800877F8093E80031
:102310000E940C1A8091E80080FFFCCF8091E300BE
:1023200080688093E300111102C082E001C083E065
:102330008093FF0135C18058823008F031C180910F
:102340000302909104028C3D53E0950779F583E0F8
:102350008A838AE289834FB7F894DE01139620E0DE
:102360003EE051E2E32FF0E050935700E49120FF6C
:1023700003C0E295EF703F5FEF708E2F90E0EA3080
:1023800010F0C79601C0C0968D939D932F5F2431A6
:1023900049F74FBF8091E800877F8093E8006AE2A9
:1023A00070E0CE0101960E94601ABDC04091050206
:1023B00050910602292F332723303105B9F06CF4F0
:1023C0002130310509F4FBC02230310509F0E8C0A5
:1023D0008BE390E0E6EAF5E054C02132310509F4E0
:1023E00033C02232310509F43CC0DAC0992781306C
:1023F0009105D1F05CF4892B09F0D2C0E9E2F6E056
:10240000E4918E2F90E0E9E2F6E038C08230910549
:1024100099F0039709F0C4C0E3EFF5E0E4918E2F43
:1024200090E0E3EFF5E02AC0E1E1F6E0E4918E2FE1
:1024300090E0E1E1F6E022C0E9EFF5E0E4918E2FD3
:1024400090E0E9EFF5E01AC04115510509F4BCC070
:102450004130510509F0A4C089E090E0E1EDF5E0DC
:1024600010C04115510509F4B4C04130510509F0BF
:1024700097C080EC90E0E6EAF4E003C0009709F42E
:102480008FC02091E800277F2093E8002091070269
:10249000309108022817390708F4C90140E0009775
:1024A00089F12091FF01222309F43DC02530D9F1A3
:1024B0002091E80023FD37C02091E80022FD2FC0C5
:1024C0002091E80020FFEBCF4091F3002091F20033
:1024D00030E0342B009759F02830310540F4449116
:1024E0004093F100319601972F5F3F4FF3CF41E0CA
:1024F0002830310509F040E02091E8002E77209344
:10250000E800CDCF4111CDCF0AC08091FF018823D3
:1025100051F0853041F08091E80083FD04C0809146
:10252000E80082FFF2CF8091E8008B778093E8008B
:1025300037C08038A9F58091E800877F8093E80054
:10254000809100028093F1008091E8008E77809363
:10255000E8000E940C1A24C0811122C010910302CD
:102560001230F0F48091E800877F8093E8001093A8
:1025700000020E940C1A111106C08091E30087FD31
:1025800002C081E001C084E08093FF0142E061EC81
:1025900081E00E942B1A42E261EC82E00E942B1A39
:1025A0008091E80083FF1AC08091E800877F8093C4
:1025B000E8008091EB0080628093EB000FC082E125
:1025C00090E0E1EEF5E05DCF89E090E0E8EBF5E04A
:1025D00058CF80E490E0E6E6F5E053CFAA960FB638
:1025E000F894DEBF0FBECDBFDF91CF911F9108954C
:1025F0001F920F920FB60F9211242F933F934F9378
:102600005F936F937F938F939F93AF93BF93CF937A
:10261000DF93EF93FF93C091E900CF708091EC00BE
:10262000D82FD17080FDD0E81092E9008091F000A1
:10263000877F8093F00078940E9423101092E90025
:102640008091F00088608093F000CD2BCF70C09314
:10265000E900FF91EF91DF91CF91BF91AF919F91F1
:102660008F917F916F915F914F913F912F910F903B
:102670000FBE0F901F901895E8EDF0E080818E7FDF
:1026800080831092E2001092DA001092E100A0EE36
:10269000B0E08C9181608C9380818F77808319BCAE
:1026A000A7EDB0E08C918E7F8C9380818F7E8083AC
:1026B0001092D9010895CF92DF92EF92FF920F937B
:1026C0001F93CF93DF93C8EDD0E088818F7E8883FE
:1026D000E7EDF0E080818160808384E082BF81E06B
:1026E0008093D90188818E7F888302EE10E0F80103
:1026F00010821092DA0081EEC82ED12CF6011082E1
:1027000088818F77888388818068888388818F7D9E
:10271000888319BC1092FF01109200021092FE01F2
:102720001092FD0190EEE92EF12CF70180818B7F54
:10273000808388818160888342E060E080E00E943D
:102740002B1AF60180818E7F8083F8018081816061
:102750008083808188608083F70180818E7F808381
:10276000888180618883DF91CF911F910F91FF90C5
:10277000EF90DF90CF9008951F920F920FB60F92B7
:1027800011242F933F934F935F936F937F938F9376
:102790009F93AF93BF93EF93FF938091E10082FFEC
:1027A00009C08091E20082FF05C08091E1008B7F2B
:1027B0008093E1008091DA0080FF2AC08091D800E8
:1027C00080FF26C08091DA008E7F8093DA008091AE
:1027D000D90080FF18C080E189BD82E189BD09B4BC
:1027E00000FEFDCF81E08093FF018091D90181112E
:1027F0000FC00E943C130E945B138091E200846032
:102800008093E20005C019BC1092FF011092D9011B
:102810008091E10080FF17C08091E20080FF13C02B
:102820008091E2008E7F8093E2008091E2008061DF
:102830008093E2008091D80080628093D80019BC18
:1028400085E08093FF018091E10084FF34C0809196
:10285000E20084FF30C080E189BD82E189BD09B416
:1028600000FEFDCF8091D8008F7D8093D8008091AD
:10287000E1008F7E8093E1008091E2008F7E809363
:10288000E2008091E20081608093E200809100028A
:10289000882311F084E007C08091E30087FD02C027
:1028A00081E001C083E08093FF011092DA010E9471
:1028B0005B1F0E94EF0A8091E10083FF27C0809197
:1028C000E20083FF23C08091E100877F8093E100D5
:1028D00082E08093FF01109200028091E1008E7FE0
:1028E0008093E1008091E2008E7F8093E2008091EE
:1028F000E20080618093E20042E060E080E00E94BC
:102900002B1A8091F00088608093F000FF91EF9186
:10291000BF91AF919F918F917F916F915F914F91F7
:102920003F912F910F900FBE0F901F90189580919F
:10293000DC010895CF93DF9300D01F92CDB7DEB7AF
:102940002091FF01243031F523E02983805891093B
:102950009B838A8382E08093E9008FEF9091E80067
:10296000815095FD06C095ED9A95F1F70000811113
:10297000F5CF8091E80085FF0DC040E050E063E0B6
:1029800070E0CE0101960E94EC0F8091E8008E77F6
:102990008093E8000F900F900F90DF91CF910895F2
:1029A0000F931F93CF93DF9300D01F92CDB7DEB765
:1029B0008C010E94C31A823011F0843021F584E02A
:1029C00089831B830A8382E08093E9008FEF9091D3
:1029D000E800815095FD06C095ED9A95F1F700004D
:1029E0008111F5CF8091E80085FF0DC040E050E0F7
:1029F00063E070E0CE0101960E94EC0F8091E80048
:102A00008E778093E8000F900F900F90DF91CF9119
:102A10001F910F910895CF93DF93EC010E94C31A89
:102A2000823011F08430F9F482E08093E9009FEF66
:102A30008091E800915085FD06C085ED8A95F1F7FB
:102A400000009111F5CF8091E80085FF0CC040E0B7
:102A500050E066E070E0CE010E94EC0F8091E8004B
:102A60008E778093E800DF91CF910895CF93DF9325
:102A7000EC010E94C31A823011F08430D9F58091A4
:102A80000601882339F08091BD0287FF03C060E210
:102A900082E002C068E081E08093E9008FEF9091CE
:102AA000E800815095FD06C095ED9A95F1F700007C
:102AB0008111F5CF8091E80085FF1CC0809106014F
:102AC000811105C040E050E068E070E003C070E0B4
:102AD00040E050E0CE010E94EC0F8091E8008E773C
:102AE0008093E80080E2FE01ADEDB1E001900D922F
:102AF0008A95E1F7DF91CF910895803F39F4809175
:102B0000D30287FF6CC01092D30269C0813F29F4C1
:102B10008091D3021816BCF362C09091D202823F1A
:102B200029F497FF5CC01092D20259C0833F19F478
:102B30001916CCF354C0893F41F48091D402181681
:102B40000CF04DC01092D4024AC08A3F29F4809103
:102B5000D40287FF44C0F6CF8B3F39F48091D50271
:102B600087FF3DC01092D5023AC08C3F29F4809176
:102B7000D5021816BCF333C0843F21F48091D102F2
:102B80008E7F17C0853F21F48091D1028D7F11C0C7
:102B9000863F21F48091D1028B7F0BC0873F21F4C7
:102BA0008091D102877F05C0883F31F48091D102A6
:102BB0008F7E8093D10213C08D3F21F48091A802B3
:102BC0008E7F0BC08E3F21F48091A8028D7F05C0BF
:102BD0008F3F29F48091A8028B7F8093A802809177
:102BE000D20281110EC08091D30281110AC080915E
:102BF000D402811106C08091D502811102C01092C9
:102C0000D60208958091A80280FD18C081FD14C0ED
:102C100082FD16C08091D602882381F0883280F42C
:102C200024E0829FC001112468E270E00E946D21BF
:102C3000862F672B19F005C082E0089581E0089582
:102C400084E008958091A80280FD19C081FD15C01F
:102C500082FD17C08091D602882389F0893188F4DB
:102C600024E1829FC001112469E170E00E946D217E
:102C7000862F672B39F481E008958AE0089585E076
:102C8000089584E10895803F21F40E9422168195E1
:102C900004C0813F29F40E9422168093D302089534
:102CA000823F21F40E942216819504C0833F29F4BB
:102CB0000E9422168093D2020895893F19F40E943F
:102CC000021605C08A3F31F40E9402168195809356
:102CD000D40208958B3F21F40E940216819504C00E
:102CE0008C3F29F40E9402168093D5020895843FF8
:102CF00021F48091D102816017C0853F21F4809139
:102D0000D102826011C0863F21F48091D10284609B
:102D10000BC0873F21F48091D102886005C0883FB5
:102D200031F48091D10280618093D10208958D3F6A
:102D300021F48091A80281600BC08E3F21F4809124
:102D4000A802826005C08F3F29F48091A8028460A8
:102D50008093A802089578941F920F920FB60F9255
:102D600011248F939F93AF93BF938091A40290916E
:102D7000A502A091A602B091A7020196A11DB11DC6
:102D80008093A4029093A502A093A602B093A702F9
:102D9000BF91AF919F918F910F900FBE0F901F9099
:102DA0001895CF92DF92EF92FF920F931F932FB758
:102DB000F8944091A4025091A5026091A6027091EE
:102DC000A7022FBF6A017B01EE24FF248C0120E0C3
:102DD00030E0C016D106E206F30610F44150510966
:102DE0009A01281B390BC9011F910F91FF90EF9099
:102DF000DF90CF9008952FB7F8948091A40290911E
:102E0000A502A091A602B091A7022FBF0895E0915C
:102E1000BF02F091C002309749F082E08093D00267
:102E20000480F581E02D80ED92E009950E94FB166B
:102E30009093D8028093D70208951F920F920FB6F5
:102E40000F9211248F939F93AF93BF938091C102F0
:102E5000811113C08091A4029091A502A091A602B5
:102E6000B091A7024196A11DB11D8093A402909339
:102E7000A502A093A602B093A702BF91AF919F9124
:102E80008F910F900FBE0F901F9018952091060103
:102E9000222321F02091BD0227FD04C0FC013296BF
:102EA000089619C0262F2695269526952E31C0F412
:102EB000FC01E20FF11D677081E090E001C0880F16
:102EC0006A95EAF7809592818923828308953196E5
:102ED000E817F90729F020812613F9CF1082F7CFE0
:102EE000089520910601222321F02091BD0227FDA3
:102EF00005C0FC0132962FEF30E019C0262F269531
:102F0000269526952E3120F5FC01E20FF11D677004
:102F100081E090E001C0880F6A95EAF79281892BE1
:102F2000828308952F3F39F03F5F363041F0419161
:102F30004613F8CF0DC04111F7CF232FF5CF2F3F08
:102F400039F0FC01E20FF11D27FDFA956283089527
:102F500008956DEE7EEF80E090E00E94432160E0F6
:102F600082E090E00E94252160E083E090E00E94F2
:102F700025211092A0021092A1021092A20210929A
:102F8000A30260E084E090E00E94252160E085E0FB
:102F900090E00E94252160E086E090E00E942521DB
:102FA0006FEF87E090E00E94252140E050E0BA01F9
:102FB00088E090E00E94372160E08DE090E00E9480
:102FC000252140E050E0BA0188E190E00E943721DD
:102FD00060E087E190E00E94252140E050E0BA01E6
:102FE0008FE090E00E94372140E050E0BA0183E199
:102FF00090E00C94372180919F02811110929F02E2
:10300000089590919E028091DA01892B20919D0272
:10301000982F922B9093090280919F028823D9F0D8
:10302000892B8093090280910601882331F08091D9
:10303000BD0287FF02C08EE101C086E0EBE0F2E056
:1030400090E0815028F021912223D9F39F5FF9CF9E
:1030500091110E94FB17E091BF02F091C0023097DE
:10306000A9F080910601882359F08091BD0287FF65
:1030700007C08091090280930A0285E080930902CB
:103080000280F381E02D89E092E009940895BF92D7
:10309000CF92DF92EF92FF920F931F93CF93DF9324
:1030A0008C01C090A002D090A102E090A202F0900A
:1030B000A3028091980290919902A0919A02B091F6
:1030C0009B02C82AD92AEA2AFB2ACFE1D0E0D701FD
:1030D000C6010C2E04C0B695A795979587950A94BE
:1030E000D2F780FF07C0BC2EB8018C2F0E946E0B58
:1030F000019719F4219758F7B12C8B2DDF91CF91BF
:103100001F910F91FF90EF90DF90CF90BF900895A7
:10311000CF93DF93EC010E944718BE010E946E0B13
:10312000DF91CF910895292F220F920F990F890FC8
:10313000682F669566956695982F977085E0689FCD
:10314000B001112440E050E080E0FA01E60FF71FE3
:10315000EF59FD4F208130E0092E02C036952795AA
:103160000A94E2F721703327042E01C0220F0A943B
:10317000EAF7822B4F5F5F4F4530510531F70895D5
:10318000292F220F920F990F890FA82FA695A69588
:10319000A695877051E001C0550F8A95EAF785E042
:1031A000A89FD001112420E030E070E0F901EA0F7F
:1031B000FB1FEF59FD4F4081CB01022E02C09695B7
:1031C00087950A94E2F78170992781958427852352
:1031D000842780832F5F3F4F2530310539F70895CD
:1031E0000F931F93AB01BC01CB01AA27BB2700970C
:1031F000A105B10511F0E0E103C0DB01CA01E0E087
:10320000092F1A2F2B2F3327011511052105310501
:1032100019F0E85FD901C8018C019D01F4E03695F1
:10322000279517950795FA95D1F7011511052105F1
:10323000310519F0EC5FD901C8018C019D01F2E064
:103240003695279517950795FA95D1F7011511052C
:103250002105310519F0EE5FD901C801B695A79592
:1032600097958795892B8A2B8B2B09F0EF5F5698C2
:103270005E9825982D9826982E9827982F988E2F0F
:1032800090E0FC013197E730F105A8F4E656FF4FD6
:103290000C948121259A2D9A0EC0259A2D9A269A52
:1032A0002E9A09C0259A2D9A04C0259A2D9A269AFD
:1032B0002E9A279A2F9A40939802509399026093DE
:1032C0009A0270939B021F910F910C94401F0F93D1
:1032D0001F9341E050E060E070E004C0440F551FD0
:1032E000661F771F8A95D2F7409550956095709527
:1032F0008091980290919902A0919A02B0919B02BC
:103300008A019B01082319232A233B23C901B80101
:103310001F910F910C94F01820919C0280958223AC
:1033200080939C02982F977079F430E0482F082EF4
:10333000000C550B2417350739F085958595859533
:103340000E94671910929C0208950F931F9341E009
:1033500050E060E070E004C0440F551F661F771F07
:103360008A95D2F78091980290919902A0919A0241
:10337000B0919B028A019B01082B192B2A2B3B2B16
:10338000C901B8011F910F910C94F0186093A0022D
:103390007093A1028093A2029093A3020C94401F09
:1033A0008091600290912F02891719F08F5F8770CA
:1033B000FBCF08952091E4003091E50095E640911F
:1033C000EC00842F817040FF22C08091E80080FDD6
:1033D0001CC08091FF01882391F0853091F080918D
:1033E000EB0085FD10C04091E4005091E5004217CC
:1033F000530729F39A01915011F784E0089582E070
:10340000089583E0089581E0089580E00895409153
:10341000E80042FFDECF08958091010287FF11C0CE
:103420008091E80082FD05C08091FF018111F8CFF5
:1034300011C08091E8008B770BC08091FF01882339
:1034400049F08091E80080FFF8CF8091E8008E7706
:103450008093E8000895982F973058F59093E900ED
:10346000981739F07091EC002091ED005091F00028
:1034700003C0242F762F50E021FF19C03091EB00BC
:103480003E7F3093EB003091ED003D7F3093ED00B7
:103490003091EB0031603093EB007093EC0020939F
:1034A000ED005093F0002091EE0027FF07C09F5FD2
:1034B000D3CF8F708093E90081E0089580E0089574
:1034C00020910702309108022617370748F061154E
:1034D000710539F42091E8002E772093E80001C0AF
:1034E000B90140E061157105A9F12091FF01222386
:1034F00009F443C0253009F442C02091E80023FDBF
:1035000040C02091E80022FD32C02091E80020FF59
:10351000E9CF4091F3002091F20030E0342BFC0120
:10352000CF016115710559F02830310540F48191C2
:103530008093F100615071092F5F3F4FF1CF41E05F
:103540002830310509F040E02091E8002E772093E3
:10355000E800C8CF4111C9CF0AC08091FF0188237C
:1035600061F0853061F08091E80083FD0AC08091B0
:10357000E80082FFF2CF80E0089582E0089583E0C2
:10358000089581E008958091E902811107C080913A
:10359000FF01843011F081E0089582E00895CF9317
:1035A000DF93CDB7DEB72A970FB6F894DEBF0FBE14
:1035B000CDBF84B7877F84BF0FB6F894A89580915C
:1035C0006000886180936000109260000FBE80E808
:1035D000809361001092610085B7806885BF85B7D0
:1035E000806885BF0E943C130E945B138091E200BB
:1035F00084608093E20078948091FF018823A1F099
:103600001091E9001F709091EC00892F817090FD5E
:1036100080E8182B1092E9008091E80083FD0E9459
:1036200023101F701093E90082E084BD93E095BDE4
:103630009AEF97BD80936E000E94CB0D90E090931F
:103640000801809307010E948E0E0E949D0EAFEA32
:10365000B2E0E2ECF2E01EE0F12EFE0E11921D92BD
:10366000FE12FCCF8EE090E00E9487218093A90299
:103670009093AA02FC010E962BEF2193E817F9070D
:10368000E1F780E090E00E941F218D3E9E4F11F0F7
:103690000E94A9178CE090E00E94172190E0A0E022
:1036A000B0E08093AB029093AC02A093AD02B093D4
:1036B000AE0289EA8093800089E08093810024989B
:1036C0002C983F988AB18F7C8AB96E98479A8BB1B3
:1036D00080638BB9769A0E94360E80E090E00E945B
:1036E0001F218D3E9E4F11F00E94A91782E090E0AD
:1036F0000E9417218093DA0284E090E00E94172153
:1037000090E09093BE028093BD0283E090E00E941F
:103710001721682F70E080E090E00E94C61989E0D0
:1037200091E09093C0028093BF0299249394EE2479
:10373000EA94CC24C394D12C50E1452E62E1562E5C
:1037400078E1A72EB12CE0E48E2E8091FF01853028
:1037500009F043C08091FF01843009F11092C10249
:103760000FB6F894A895A09260000FBE80926000FA
:1037700083B7817F846083BF83B7816083BF789480
:10378000889583B78E7F83BF0FB6F894A8958091F4
:103790006000886180936000109260000FBE80918D
:1037A000FE01882391F20E94CB0D90E090930801D6
:1037B000809307010E948E0E0E949D0EE2ECF2E0C3
:1037C0001192FE12FDCF0E94A40EE2ECF2E0819174
:1037D0008111F2C0FE12FBCFB8CF0E94A40EEBED18
:1037E000F2E0A2ECB2E000E010E0702F6D912191C8
:1037F0002627B1F180E090E030E0782EA901082E74
:1038000002C0559547950A94E2F740FF25C0898389
:103810007A83C60102C0880F991F7A94E2F73C01AF
:10382000862F90E08621972121E0892B09F420E062
:103830002B830E94FB168160782F9D838C834981A6
:103840005A816B818D810E94ED09F801E552FD4F8F
:1038500080816826608219C001968630910569F6DC
:103860000F5F1F4F0E30110509F0BFCFEE82EF82C0
:1038700018860E94FB168160782F9A8789874E816F
:103880005F8168858A850E94ED098091D7029091B9
:10389000D8020E94D1169C019091D602992321F062
:1038A0002431310508F47CC08091D2021091D302FA
:1038B00081110BC0111194C02091D402211190C02C
:1038C0002091D50221118CC06BC09F3F19F09F5FE2
:1038D0009093D602181624F40E9422168093D202E6
:1038E0008091D20287FF05C00E94221681958093A5
:1038F000D202111624F40E9422168093D3028091E2
:10390000D30287FF05C00E94221681958093D302BF
:103910003091D202332301F12091D3022223E1F02E
:1039200045EB3403C0011124892F990F990B00979F
:1039300019F08093D20202C09092D20235EB230399
:10394000C0011124892F990F990B009719F08093CA
:10395000D30202C09092D3028091D402181624F4AC
:103960000E9402168093D4028091D40287FF05C082
:103970000E94021681958093D4028091D502181678
:1039800024F40E9402168093D5028091D50287FF0D
:1039900005C00E94021681958093D5020E940717E8
:1039A0001091D9020E94EF0A181709F4CECE0E9496
:1039B000EF0A8093D902C9CE49BC59BC09B400FEB4
:1039C000FDCF8091D8008F7D8093D8008091E0005A
:1039D00082608093E0008091E00081FDFCCFB5CE55
:1039E0009F3F09F074CF7CCF80912E0282958F701B
:1039F00009F054C080912B02882309F44FC08091B4
:103A00006002A0912F026091290270912A024091D8
:103A10002C0250912D02B6E08A1709F43FC090E0C5
:103A200041155105C1F17F3F11F46F3FA1F1B89FDE
:103A3000F001B99FF00D1124E05DFD4F218172135B
:103A40002AC02081621327C02281211124C0238132
:103A500034812417350710F421503109241B350B0C
:103A6000283C3105C0F420912E022F702061209354
:103A70002E0226E0289FF001299FF00D1124EB5C17
:103A8000FD4F80818F708061808389E292E00E9487
:103A900036030C94D01901968770BECF08950E940A
:103AA0008818292F2F7092959F70E92FF0E0329798
:103AB000EE30F105B8F4EF55FF4F0C948121803FB3
:103AC00099F018F4803E70F40FC0843F59F40CC094
:103AD000803E50F0813F31F407C0822F8695869555
:103AE0008695089580E0089581E00895BF92CF9271
:103AF000DF92EF92FF920F931F93CF93DF93CDB797
:103B0000DEB761970FB6F894DEBF0FBECDBF8C0154
:103B100085E0F801DE011D9601900D928A95E1F78E
:103B2000D8013C9111962C9111971296EC90129716
:103B30001396CD90DC9014975091290260912A023F
:103B400080912C0290912D02009709F44FC16F3F94
:103B500019F45F3F09F44AC1B0902B02BB2009F46D
:103B6000ECC040912E02C816D90628F0F601E81BD9
:103B7000F90BCF0104C0809590958C0D9D1DFF24FD
:103B8000F394883C910548F0F12C407F09F09FC0E8
:103B900089E292E00E94360321C1842F807F09F0E0
:103BA00044C0621312C0531310C0E1100EC04F7016
:103BB000406140932E0289E292E00E943603809198
:103BC0002E02D80115968C932EC0CD2819F12F3FC7
:103BD00011F43F3FF9F0FE2CE1101CC0809160020F
:103BE00040912F0256E0841709F458C090E0589F86
:103BF000F001599FF00D1124E05DFD4F6181261306
:103C000006C06081361303C06281611103C0019652
:103C10008770E9CFFE2CEE2009F421C180912E029D
:103C2000816080932E02F12C1AC162130AC05313D3
:103C300008C0E11006C080912E02D80115968C9321
:103C4000B0C03D872E878D859E850E944F1D88239D
:103C5000D1F1EE20C1F120912E02822F82958F703A
:103C600090E0029774F08091290290912A0298873F
:103C70008F831986DB86CA862C87CE0107960E9421
:103C8000360386E0F801A9E2B2E001900D928A9530
:103C9000E1F70E94F41CFF24F394E1C03D872E87D6
:103CA0008D859E850E948818292F22952F7030E0DF
:103CB000223031050CF0C7C09F7009F0C1C0805E92
:103CC000883008F4CCC0C8010E943603E4CF6213E8
:103CD00014C0531312C0E11010C080912E02F801DD
:103CE0008583C8010E94360386E0E9E2F2E0DF0145
:103CF0001D928A95E9F7FB2CB2C03D872E878D85F2
:103D00009E850E944F1D8823F1F2EE20E1F2209162
:103D10002E02822F82958F7090E002970CF4B1CF23
:103D20008091290290912A029A8389831B82DD82E5
:103D3000CC822E83CE010196A2CFC816D90638F0C8
:103D4000C81AD90AB8ECCB16D10450F007C0809538
:103D500090958C0D9D1D883C910510F0F12C3EC076
:103D6000FE2CEE2009F4AFCF621327C0531325C0F9
:103D700020912E0220FD18C0822F82958F70482F2F
:103D800050E04115510581F0F80125834F30510570
:103D900041F08F5F982F9295907F822F8F70892BA3
:103DA0008583C8010E94360386E0F801A9E2B2E0EB
:103DB00001900D928A95E1F752C03D872E878D853F
:103DC0009E850E944F1D81115CCF80912E028160E3
:103DD00080932E02C8010E94360341C0E9E2F2E05E
:103DE00086E0DF011D928A95E9F739C0EE2009F4DB
:103DF0006ACF3D872E878D859E850E944F1DF82EA8
:103E0000882309F460CF86E0F801A9E2B2E00190CE
:103E10000D928A95E1F78091290290912A020E94E1
:103E2000881892959F70963041F48091EB0291E052
:103E300089278093EB029093EA020E94F41C0FC042
:103E400081113DCF0CC0243031050CF03CCF9F7068
:103E500009F435CFF8019581907F09F030CF8F2D8F
:103E600061960FB6F894DEBF0FBECDBFDF91CF9144
:103E70001F910F91FF90EF90DF90CF90BF9008952A
:103E800010929E0210929D020E940118E0EDF2E055
:103E900086E0DF011D928A95E9F71092D602109212
:103EA000A8020E94071780E090E00E94D90A80E0F3
:103EB00090E00C94C30A80910601882331F0809130
:103EC000BD0287FF02C08EE101C086E0EBE0F2E0B8
:103ED000DF011D928A95E9F70C94401F882341F079
:103EE00080959091DA0189238093DA010C9401186E
:103EF0000895882339F09091DA01892B8093DA01B3
:103F00000C9401180895882309F463C0823869F479
:103F10000E94EF0A81FF5DC069E389E092E00E94A0
:103F200071170E94011869E30EC0833891F40E9452
:103F3000EF0A80FF4EC063E589E092E00E947117AE
:103F40000E94011863E589E092E00E9446170C94F4
:103F50000118843869F40E94EF0A82FF3AC067E4CE
:103F600089E092E00E9471170E94011867E4EBCF8C
:103F70009CEF980F913A10F4682FE5CF90E2980FDC
:103F8000983088F4877021E030E0A90102C0440F26
:103F9000551F8A95E2F7CA0180959091DA0189232D
:103FA0008093DA01D4CF9BE5980F933020F480E022
:103FB00090E00C94D90A98E5980F973120F480E0AE
:103FC00090E00C94C30A803F20F00E947D150C9471
:103FD00007170895CF93C82F0E94FD1FC93349F4D6
:103FE0002FEF83EC99E0215080409040E1F700C032
:103FF00000008C2FCF910C94831F882309F416C1E5
:104000008238B1F40E94EF0A81FD10C169E389E0B2
:1040100092E00E9471170E9401182FEF41EE54E0C8
:10402000215040405040E1F700C0000069E317C054
:104030008338D9F40E94EF0A80FDF8C063E589E077
:1040400092E00E9471170E9401188FEF91EE24E018
:10405000815090402040E1F700C0000063E589E016
:1040600092E00E9446170C9401188438B1F40E9423
:10407000EF0A82FDDBC067E489E092E00E947117DD
:104080000E9401184FEF51EE84E0415050408040B3
:10409000E1F700C0000067E4E2CF9CEF980F913A8F
:1040A00030F4682F89E092E00E947117DCCF90E233
:1040B000980F983080F4877021E030E0A90102C0A9
:1040C000440F551F8A95E2F7CA019091DA01892BB6
:1040D0008093DA01C8CF9BE5980F933070F4853A4E
:1040E00029F0863A31F083E890E005C081E890E05D
:1040F00002C082E890E00C94D90A98E5980F9731B5
:1041000008F08EC0883A09F445C0893A09F445C0E0
:104110008A3A09F445C08B3A09F445C08C3A09F44F
:1041200045C08B3B09F445C08C3B09F445C08D3A32
:1041300009F445C0803B09F445C08E3A09F445C0F6
:104140008F3A09F445C0813B09F445C0823B09F42C
:1041500045C0833B09F445C0843B09F445C0853B19
:1041600009F445C0863B09F445C0873B09F445C0C6
:10417000883B09F445C0893B09F445C08D3B09F4EF
:1041800045C08E3B09F445C08A3B09F445C080E038
:1041900090E044C082EE90E041C089EE90E03EC0E5
:1041A0008AEE90E03BC085EB90E038C086EB90E073
:1041B00035C083EB90E032C084EB90E02FC087EBFA
:1041C00090E02CC08CEC90E029C08DEC90E026C0F3
:1041D00083E891E023C08AE891E020C082E991E081
:1041E0001DC084E991E01AC081E292E017C083E229
:1041F00092E014C084E292E011C085E292E00EC029
:1042000086E292E00BC087E292E008C08FE690E081
:1042100005C080E790E002C08AE292E00C94C30AF5
:10422000803F20F00E9443160C9407170895F999D7
:10423000FECF92BD81BDF89A992780B50895A8E177
:10424000B0E042E050E00C944B21262FF999FECFCC
:1042500092BD81BDF89A019700B4021639F01FBAD9
:1042600020BD0FB6F894FA9AF99A0FBE08950396F6
:10427000272F0E9426210E942521252F0E942621DA
:10428000242F0C9426210196272F0E9426210C947E
:104290002521DC01CB01FC01F999FECF06C0F2BD5E
:1042A000E1BDF89A319600B40D9241505040B8F7F4
:1042B0000895AA1BBB1B51E107C0AA1FBB1FA6176D
:1042C000B70710F0A61BB70B881F991F5A95A9F7BF
:1042D00080959095BC01CD01089597FB072E16F4AB
:1042E000009407D077FD09D00E94592107FC05D022
:1042F0003EF4909581959F4F0895709561957F4FFD
:104300000895EE0FFF1F0590F491E02D0994CF93CF
:10431000DF938230910510F482E090E0E091EE02AC
:10432000F091EF0220E030E0C0E0D0E0309711F1F2
:104330004081518148175907C0F04817590761F467
:1043400082819381209719F09B838A832BC090935D
:10435000EF028093EE0226C02115310519F04217B5
:10436000530718F49A01BE01DF01EF010280F381C7
:10437000E02DDCCF2115310509F1281B390B243044
:10438000310590F412968D919C91139761157105EA
:1043900021F0FB019383828304C09093EF0280930A
:1043A000EE02FD01329644C0FD01E20FF31F81933E
:1043B0009193225031092D933C933AC02091EC0205
:1043C0003091ED02232B41F4209102013091030141
:1043D0003093ED022093EC02209100013091010115
:1043E0002115310541F42DB73EB74091040150919C
:1043F0000501241B350BE091EC02F091ED02E21770
:10440000F307A0F42E1B3F0B2817390778F0AC01F7
:104410004E5F5F4F2417350748F04E0F5F1F5093D4
:10442000ED024093EC028193919302C0E0E0F0E052
:10443000CF01DF91CF9108950F931F93CF93DF9317
:10444000009709F48CC0FC0132971382128200910C
:10445000EE021091EF020115110581F420813181E6
:10446000820F931F2091EC023091ED02281739073B
:1044700079F5F093ED02E093EC0271C0D80140E0D1
:1044800050E0AE17BF0750F412962D913C91139750
:10449000AD012115310509F1D901F3CF9D01DA01F3
:1044A0003383228360817181860F971F8217930760
:1044B00069F4EC0128813981260F371F2E5F3F4FA9
:1044C000318320838A819B8193838283452B29F4C6
:1044D000F093EF02E093EE0242C01396FC93EE934A
:1044E0001297ED01499159919E01240F351FE21752
:1044F000F30771F480819181840F951F02961196C4
:104500009C938E938281938113969C938E931297A2
:10451000E0E0F0E0D80112968D919C9113970097FE
:1045200019F0F8018C01F6CF8D919C9198012E5FC6
:104530003F4F820F931F2091EC023091ED0228171C
:10454000390769F4309729F41092EF021092EE02C5
:1045500002C0138212821093ED020093EC02DF91ED
:0C456000CF911F910F910895F894FFCFA8
:10456C000000F0022000012000971436150B159A5C
:10457C0014D014000D010D020D030D040D050D00DA
:10458C000C010C020C030C040C050C000B010B02AF
:10459C000B030B040B050B000A010A020A030A04A5
:1045AC000A050A00090109020903090409050900A1
:1045BC00080108020803080408050800070107029F
:1045CC000703070407050700060106020603060495
:1045DC000605060005010502050305040505050091
:1045EC00040104020403040404050400030103028F
:1045FC000303030403050300020102020203020485
:10460C000205020001010102010301040105010080
:0C461C0000010002000300040005000083
:00000001FF
