:100000000C946E030C948B030C948B030C948B0355
:100010000C948B030C948B030C948B030C948B0328
:100020000C948B030C948B030C94EA170C946C15B2
:100030000C948B290C948B030C948B030C948B03E2
:100040000C948B030C948B030C948B030C948B03F8
:100050000C948B030C9427120C948B030C948B033D
:100060000C948B030C948B030C948B030C948B03D8
:100070000C948B030C948B030C948B030C948B03C8
:100080000C948B030C948B030C948B030C948B03B8
:100090000C948B030C948B030C948B030C948B03A8
:1000A0000C948B030C948B030C948B0300010101C3
:1000B0000101010101010202020202020202020325
:1000C00003030303030303040404040404040505F5
:1000D00005050506060606060707070707080808B8
:1000E00008090909090A0A0A0B0B0B0C0C0C0D0D67
:1000F0000D0E0E0E0F0F0F101011111112121313FF
:100100001414151516161717181819191A1A1B1B77
:100110001C1D1D1E1E1F20202122222324242526D3
:1001200026272829292A2B2C2D2D2E2F303132320B
:10013000333435363738393A3B3C3D3E3F40414217
:10014000434445464748494A4C4D4E4F50515354FD
:10015000555658595A5B5D5E5F61626465666869B1
:100160006B6C6D6F7072737577787A7B7D7E808231
:10017000838587888A8C8E8F91939596989A9C9E7A
:10018000A0A2A3A5A7A9ABADAFB1B3B5B7BABCBE8A
:10019000C0C2C4C6C9CBCDCFD1D4D6D8DBDDDFE257
:1001A000E4E7E9EBEEF0F3F5F8FAFDFFFFAA7F557F
:1001B000402223252628292A2C2D2F30323335366C
:1001C000383A3B3D3E4042434547494A4C4E5051E8
:1001D000535557595A5C5E6062646668696B6D6F0F
:1001E00071737577797B7D7F81838587898A8C8E12
:1001F00090929496989A9C9E9FA1A3A5A7A8AAAC1A
:10020000AEAFB1B3B4B6B8B9BBBCBEBFC1C2C3C553
:10021000C6C7C9CACBCCCDCED0D1D2D2D3D4D5D6F5
:10022000D7D7D8D9D9DADADBDBDBDCDCDCDCDCDD28
:10023000DDDDDDDCDCDCDCDCDBDBDBDADAD9D9D80C
:10024000D7D7D6D5D4D3D2D2D1D0CECDCCCBCAC9A4
:10025000C7C6C5C3C2C1BFBEBCBBB9B8B6B4B3B1D3
:10026000AFAEACAAA8A7A5A3A19F9E9C9A9896946E
:1002700092908E8C8A89878583817F7D7B79777543
:1002800073716F6D6B6968666462605E5C5A595722
:10029000555351504E4C4A4947454342403E3D3BE1
:1002A0003A3836353332302F2D2C2A29282625236B
:1002B0002229002B003500E100015100001E00142E
:1002C0000004001D64E00003511F001A0016001B0B
:1002D00000E200060120000800070006005000E3CD
:1002E0000021001500090019004F003508220017F1
:1002F000000A0005000000500826022F0200002F0F
:10030000000000E004270230020000300000004B33
:100310000023001C000B00110000004F08240018EF
:10032000000D00100051004E0025000C000E00369C
:100330000052002C00260012000F00370023022A72
:10034000002700130033003874210226022D0031EB
:1003500000340028000251000029000100010001C2
:1003600000010000000100010050000100045101E3
:1003700000010052005100010003512C0001000156
:10038000004F000601500CE30001000100090119B3
:10039000014F0C4D0001000100010001000000B6FA
:1003A00000010001000000010000004A00010002FD
:1003B000530000010000004B00010001000100019A
:1003C000000000B7000100240021001E0027004E9D
:1003D000002E00250022001F0001002C00540026E2
:1003E000002300200037002A005500560057000166
:1003F00000010028002E00300230000A0201000037
:1004000000A6000100FF00FE00FD0000003A00FA17
:1004100000F20001000100F6003B00F000F10001D5
:10042000000100F5003C00F900F30001000100F4B8
:10043000003D00010001000100010001003E00013B
:100440000001000100000001003F00010000000168
:10045000000000010040000100000001000000A9B0
:1004600000410001000100010000000100420024E1
:100470000021001E002700AA004300250022001FC3
:10048000003700B70044002600230020005800B6C3
:100490000045005500570031002E00A80001000162
:1004A00000010003510100000001000100010001F2
:1004B0000001000000010007050805500D010001C2
:1004C000000100180550050D050100350801005216
:1004D00005060551050100280501000C054F050E14
:1004E000050100010001000A0517054F0D0000017C
:1004F00000010001000000010000000100010001F6
:100500000000000100000001000100010050000196
:100510000000000100010001005100010001000184
:1005200000010001005200010001001A0801000151
:10053000004F000100010001000100010001000165
:100540000001000100005C01000100010001000049
:100550000000047F3F1F643214643214783C1E1E76
:10056000140A0505010902A10185020901A100057E
:1005700009190129051500250195057501810295C7
:1005800001750381010501093009311581257F9528
:10059000027508810609381581257F950175088146
:1005A00006050C0A38021581257F9501750881061C
:1005B000C0C005010980A10185031A81002A8300BA
:1005C000160100260300950175108100C0050C0975
:1005D00001A10185041A01002A9C02160100269C33
:1005E00002950175108100C005010906A10185056C
:1005F000050719E029E71500250195087501810215
:100600000507190029EF1500250195F075018102F4
:1006100005081901290595057501910295017503D4
:100620009101C005010906A101050719E029E71597
:100630000025019508750181029501750881010564
:1006400007190029FF150026FF009506750881008F
:100650000508190129059505750191029501750394
:100660009101C009023B00020100A0FA0904000048
:1006700001030101000921110100012240000705C9
:10068000810308000A090401000103000000092198
:100690001101000122C0000705820320000A120197
:1006A000100100000008EDFE071301000102030124
:1006B00004033000000016034500720067006F005D
:1006C00064006F007800200045005A000000080315
:1006D0005A005300410000000403090411241FBE06
:1006E000CFEFDAE0DEBFCDBF11E0A0E0B1E0E0EC9B
:1006F000F8E502C005900D92AE3EB107D9F723E0B0
:10070000AEEEB1E001C01D92A637B207E1F70E943C
:1007100055260C94332C0C940000E8EDF0E0808119
:100720008E7F80831092E2001092DA001092E10036
:10073000A0EEB0E08C9181608C9380818F77808374
:1007400019BCA7EDB0E08C918E7F8C9380818F7E59
:1007500080831092410308952091E4003091E500D8
:1007600095E6A9012091EC00822F817020FF06C040
:100770008091E80080FF06C080E008952091E800A5
:1007800022FD1AC080916803882389F0853089F0A2
:100790008091EB0085FD0FC02091E4003091E500D1
:1007A00042175307F9F29150E1F684E0089582E090
:1007B000089583E0089581E00895EF92FF920F93EA
:1007C0001F93CF937C018B010E94AC03C82F811132
:1007D00017C08091E80085FD0BC08091E8008E77FE
:1007E0008093E8000E94AC03882399F3C82F08C0C7
:1007F000F70181917F018093F1000150110949F7C0
:100800008C2FCF911F910F91FF90EF9008958091C1
:100810006A0387FF13C08091E80082FF06C08091C1
:10082000E8008B778093E80004C080916803811111
:10083000F2CF0895809168038823D9F38091E8006E
:1008400080FFF8CF8091E8008E77ECCF982F9093BF
:10085000E900242F762F50E0891731F07091EC00D9
:100860002091ED005091F00021FD07C09F5F97306F
:1008700071F78093E90081E008953091EB003E7FAD
:100880003093EB003091ED003D7F3093ED003091DF
:10089000EB0031603093EB007093EC002093ED009F
:1008A0005093F0002091EE0027FDE0CF80E0089506
:1008B000CF92DF92EF92FF920F931F93CF93DF932C
:1008C000C8EDD0E088818F7E8883E7EDF0E08081FD
:1008D0008160808384E082BF81E0809341038881CE
:1008E0008E7F888302EE10E0F80110821092DA0009
:1008F00081EEC82ED12CF601108288818F778883F3
:1009000088818068888388818F7D888319BC109254
:10091000680310926903109267031092660390EEC9
:10092000E92EF12CF70180818B7F808388818160A3
:10093000888342E060E080E00E942604F601808126
:100940008E7F8083F80180818160808380818860D0
:100950008083F70180818E7F808388818061888396
:10096000DF91CF911F910F91FF90EF90DF90CF908B
:100970000895FC0180917003909171038617970789
:10098000A0F06115710529F49091E8009E7790938D
:10099000E80090E06115710551F4911108C0809153
:1009A000E80082FF34C080E00895BC01F2CF80915E
:1009B00068038823C1F18530C1F18091E80083FD8F
:1009C00030C08091E80082FDEACF8091E80080FF8E
:1009D000E1CF8091F3002091F200382F611571056D
:1009E00019F02830310558F091E02830310509F030
:1009F00090E02091E8002E772093E800CBCF819102
:100A00008093F100615071092F5F3F4FE7CF8091D4
:100A10006803882341F0853041F08091E80083FF2E
:100A2000BECF81E0089582E0089583E0089580912B
:100A30004003811107C080916803843011F482E083
:100A4000089581E008950895809145030895909157
:100A50001C03803F41F480911D0387FD10921D030C
:100A6000992371F00895813F29F480911D03181690
:100A7000ACF3F6CF823F81F497FFF2CF10921C03C4
:100A800080911D0390911E03892B90911F03892B48
:100A900049F7109220030895833F19F4191674F34F
:100AA000DFCF893F39F480911E031816CCF61092DF
:100AB0001E03D6CF8A3F29F480911E0387FFD0CF33
:100AC000F6CF8B3F39F480911F0387FFC9CF109277
:100AD0001F03C6CF8C3F29F480911F031816BCF367
:100AE000BFCF843F31F480911B038E7F80931B0323
:100AF000B7CF853F21F480911B038D7FF7CF863FD1
:100B000021F480911B038B7FF1CF873F21F48091EB
:100B10001B03877FEBCF883F21F480911B038F7EDF
:100B2000E5CF8D3F31F48091E9028E7F8093E90219
:100B300097CF8E3F21F48091E9028D7FF7CF8F3FD1
:100B400009F08ECF8091E9028B7FF0CF8091E9028E
:100B500080FD1AC081FD14C082FD14C08091200365
:100B6000882391F0883270F424E0829FC001112420
:100B700068E270E00E948D2A862F672B29F0089585
:100B800082E0089584E0089581E008958091E9026B
:100B900080FD18C081FD14C082FD16C08091200325
:100BA000882381F0893180F424E1829FC0011124DF
:100BB00069E170E00E948D2A862F672B39F0089535
:100BC0008AE0089585E0089584E1089581E008951C
:100BD000803F31F40E94C605819580931D030895DE
:100BE000813F19F40E94C605F8CF823F31F40E947C
:100BF000C605819580931C030895833F19F40E94D4
:100C0000C605F8CF893F29F40E94A60580931E03EC
:100C100008958A3F21F40E94A6058195F7CF8B3F66
:100C200031F40E94A605819580931F0308958C3F9F
:100C300019F40E94A605F8CF843F31F480911B037C
:100C4000816080931B030895853F21F480911B03ED
:100C50008260F7CF863F21F480911B038460F1CF3F
:100C6000873F21F480911B038860EBCF883F21F4FC
:100C700080911B038061E5CF8D3F31F48091E902C3
:100C800081608093E90208958E3F21F48091E9020A
:100C90008260F7CF8F3FB9F78091E9028460F1CF8E
:100CA000CF92DF92EF92FF920F931F932FB7F8949A
:100CB0004091E5025091E6026091E7027091E802EE
:100CC0002FBF6A017B01EE24FF248C0130E020E07D
:100CD000C016D106E206F30650F0481B590BCA01B4
:100CE0001F910F91FF90EF90DF90CF9008954150AA
:100CF0005109F3CF8091E00281111092E002089532
:100D00008091DF029091DE02892B9091DD02892B88
:100D10008093EE019091E0029923A1F0892B8093BA
:100D2000EE0180911F01882341F18091020387FF2A
:100D300024C08EE1E0EFF1E090E0815000F59111E8
:100D40000E947A06E0910903F0910A033097E1F0DE
:100D500080911F01882359F08091020387FF07C00B
:100D60008091EE018093EF0185E08093EE01028097
:100D7000F381E02D8EEE91E0099486E0DBCF2191A6
:100D80002223D9F29F5FD9CF089590911F01992313
:100D9000D1F09091020397FF16C0E82FE695E695F3
:100DA000E695EE31E0F4F0E0E251FE4F282F277097
:100DB00081E090E001C0880F2A95EAF78095928142
:100DC000892382830895E0EFF1E09191891303C0B4
:100DD000DF0111971C9291E0E63FF907B1F7089502
:100DE00090911F019923C1F09091020397FF14C0C5
:100DF000E82FE695E695E695EE31F8F4F0E0E2515D
:100E0000FE4F877021E030E001C0220F8A95EAF79B
:100E10008281822B82830895A0EFB1E0EFEF90E012
:100E20002D91821751F0EF3F19F4211101C0E92FE4
:100E30009F5F9630A9F7EF3F09F408950E2E000C3E
:100E4000FF0BE251FE4FE6CFE92FEE0FE90FEE0F59
:100E50008E0F982F977086958695869525E0829FB0
:100E6000F0011124EB55FD4F50E040E080E021916E
:100E700030E0092E02C0369527950A94E2F72170DA
:100E80003327042E01C0220F0A94EAF7822B4F5F0A
:100E90005F4F4530510559F70895E92FEE0FE90FDF
:100EA000EE0F8E0F982F977041E001C0440F9A9576
:100EB000EAF786958695869595E0899FF00111243D
:100EC000EB55FD4F30E020E070E05191DF011197CC
:100ED000CB01022E02C0969587950A94E2F78170A5
:100EE00081958527842385278C932F5F3F4F25305D
:100EF000310559F708958091A402909173029813D7
:100F000001C008958F5F8770FACF882341F08095E4
:100F10009091DE0289238093DE020C94800608956E
:100F2000882339F09091DE02982B9093DE020C9486
:100F300080060895882341F080959091DF028923EF
:100F40008093DF020C9480060895882339F09091F5
:100F5000DF02982B9093DF020C9480060895209175
:100F60005502309156022817390771F090935602B6
:100F700080935502E0910903F0910A03309721F024
:100F80000084F185E02D0994089520915302309159
:100F900054022817390771F090935402809353023A
:100FA000E0910903F0910A03309721F00680F78160
:100FB000E02D09940895E0910903F0910A03309718
:100FC00021F00190F081E02D099480E00895809156
:100FD000390380FF02C08695089580E008958091CE
:100FE0003903982F9E7F29F48170826080933903A2
:100FF00008958A34E8F381708864F8CFAF92BF9285
:10100000DF92EF92FF920F931F93CF93DF93082FFE
:10101000162FE901E42FF0E0E455FF4F611110C0F5
:10102000E4915E2F4E2F4983E8835A83DF91CF915D
:101030001F910F91FF90EF90DF90BF90AF900895B8
:10104000E62EF12C4491D42EE42FF0E026E0829F8E
:10105000C00111242FEF30E0B9010E94792A802FBE
:1010600090E0880F991F55E5569FD001579FB00D0E
:1010700011248A1B9B0B982F990F890F5901AE18C9
:10108000BF08AE9ED001AF9EB00DBE9EB00D112424
:101090005B2F189F80011124012F11275901A01ADD
:1010A000B10AAE9E8001AF9E100DBE9E100D1124A0
:1010B0005901A81AB108AE9CC001AF9C900DBE9C0E
:1010C000900D1124892F9927281B390B2E9FC001C1
:1010D0002F9F900D3E9F900D1124E92F62307105D6
:1010E000A1F050F46115710509F49DCF61307105CF
:1010F00081F0EB2F512F97CF6430710569F080F0AC
:101100006630710509F48FCFF4CFE42F4B2F592FA0
:101110008ACFE42F412F87CFEB2F542F492F83CF36
:101120004B2F5D2DE12F7FCF9091020392FF06C0E0
:10113000282F28712830F9F4877F846093FF06C038
:10114000282F28712831F1F4877E846120910303D0
:1011500020FF06C0382F38713830D9F4877F81607E
:1011600021FF06C0282F28712831D1F4877E8161A4
:1011700094FD877E0895282F24712430F9F68B7F03
:101180008860DCCF282F2471243101F78B7E8861A1
:10119000DDCF382F3171313019F78E7F8860E0CF85
:1011A000282F2171213121F78E7E8861E1CFCF93E5
:1011B000DF93972F70E026E0929F600D711D112440
:1011C000FB0134E5839FE00DF11D1124EE0FFF1F9D
:1011D000EF54FD4FC591D491CE01C238D105B9F17C
:1011E000E8F5C133D10509F499C050F5C932D105EC
:1011F00009F48DC0CA32D10509F497C0C11540E584
:10120000D40708F0C3C0C11550E4D50708F0C2C127
:10121000C83ED10508F0A2C0C13ED10568F5C83A64
:10122000D10508F089C0C53AD10508F00FC1C13019
:10123000D10511F1209709F443C02497E8F440C088
:10124000C533D10509F45CC0C933D105B9F6209185
:101250000203237089F080EE90E00EC0C33ED105FA
:1012600091F168F4C03ED105F9F0C23ED10531F6E6
:101270002091020322FD20C0DF91CF910895C63E48
:10128000D10561F1C73ED10581F1C43ED10509F018
:10129000B5CF2091030321FFEFCF8091020384FD9E
:1012A0000FC087EE90E0E8CF2091020320FDC2C17D
:1012B0003091030330FFE0CF83EE90E024FFDCCFDA
:1012C00090E080E0D9CF2091020322FDB6C1309199
:1012D000030330FDC0CF24FFCFCFF2CF2091020314
:1012E00023FFCACF24FDECCFDCCF2091020323FDE6
:1012F000A7C13091030331FFEECF84EE90E0BCCF65
:101300002091020325FFB8CF89E290E0B5CF20916C
:10131000020325FFB1CF85E390E0AECF2091020319
:1013200026FFAACF8AE290E0A7CF2091020326FFF2
:10133000A3CF81E390E0A0CFCF3BD10508F495C0C7
:10134000FE01E05CF109E032F10508F0B9CFEE0FE3
:10135000FF1FE455FF4F859194918ECFC11520E278
:10136000D20760F4C11531E0D30708F085CFCE0174
:101370009065C03FD10508F07FCFA2CFC11540E3F3
:10138000D40708F0FFC0FE01FF70E1CFC11555E59D
:10139000D50748F5C11584E5D80708F02CC1C1155B
:1013A00092E5D90750F4C11521E5D20708F4F6C03B
:1013B0009C2F8827816F906A5FCF9C2F969596957A
:1013C000AE0143705527C115D34508F005C121E092
:1013D00030E002C0220F331F4A95E2F750E2959F9A
:1013E000C0011124F5C0C1154AE5D407A0F4C11508
:1013F00059E5D50708F00EC1C11586E5D80708F4F0
:10140000FFC0C11598E5D90708F45ACF9C2F88274B
:10141000806F906A31CFC1152BE5D20708F450CF09
:10142000CE01C1153CE5D30708F401C190568115E2
:10143000904208F045CF8D2F8F710E94940890E064
:10144000982F882788279F718C2BE2C081E890E431
:10145000C53AD10509F410CF82E890E4C63AD10527
:1014600009F40ACF83E890E407CF82EE94E4C83A07
:10147000D10509F401CF89EE94E4C93AD10509F404
:10148000FBCE8AEE94E4CA3AD10509F4F5CE85EB99
:1014900094E4CB3AD10509F4EFCE86EB94E4CC3A50
:1014A000D10509F4E9CE83EB94E4CB3BD10509F4F3
:1014B000E3CE84EB94E4CC3BD10509F4DDCE87EB9D
:1014C00094E4CD3AD10509F4D7CE8CEC94E4C03B3A
:1014D000D10509F4D1CE8DEC94E4CE3AD10509F4CE
:1014E000CBCE83E895E4CF3AD10509F4C5CE8AE89E
:1014F00095E4C13BD10509F4BFCE82E995E4C23B36
:10150000D10509F4B9CE84E995E4C33BD10509F4CA
:10151000B3CE81E296E4C43BD10509F4ADCE83E2BB
:1015200096E4C53BD10509F4A7CE84E296E4C63B18
:10153000D10509F4A1CE85E296E4C73BD10509F4B3
:101540009BCE86E296E4C83BD10509F495CE87E2AE
:1015500096E4C93BD10509F48FCE8FE694E4CD3BE8
:10156000D10509F489CE80E794E4CE3BD10509F496
:1015700083CE80E094E4CA3BD10509F07DCE8AE2B7
:1015800096E47ACECE019927D3FF02C0986C74CE30
:10159000906C72CECE019F70906A6ECE9E01E4E098
:1015A00036952795EA95E1F723708C2F86958695D9
:1015B000837050E2859FC0011124AC01522B9A0127
:1015C000C37081E090E002C0880F991FCA95E2F7CE
:1015D000822B932B9C6850CE21E030E002C0220F7A
:1015E000331F4A95E2F740E2949FC0011124822BF9
:1015F000932B9A6841CE9C2F8827846F906A3CCEAB
:101600008C2F0E94940890E0982F882788279F713C
:10161000906232CE8C2F8F700E94940834E0D69561
:10162000C7953A95E1F7CF709C2F906925CE992701
:10163000906622CE89E390E01FCE82EE90E01CCE31
:1016400086EE90E019CEBF92CF92DF92EF92FF929A
:101650000F931F93CF93DF938C01C0900503D0901D
:101660000603E0900703F09008038091E102909157
:10167000E202A091E302B091E402C82AD92AEA2A40
:10168000FB2ACFE1D0E0BC2ED701C6010C2E04C04E
:10169000B695A795979587950A94D2F780FD0EC0C9
:1016A000219788F7B12C8B2DDF91CF911F910F914E
:1016B000FF90EF90DF90CF90BF900895B8018C2FEE
:1016C0000E94D708019761F3EECFCF93DF93EC012F
:1016D0000E94230BBE01DF91CF910C94D7080E948A
:1016E000650B292F2F7092959F7092509E3078F441
:1016F000E92FF0E0EB5CF34D0C94A12A803F19F048
:1017000020F4883E20F481E00895843FE1F380E0F6
:101710000895883EC0F3813FD1F7F5CF822F86959B
:1017200086958695089527982F98089526982E983F
:10173000089525982D98089556985E980895279AAB
:101740002F9A0895269A2E9A0895259A2D9A0895EB
:1017500084B1807F84B985B1807F85B98AB1837F68
:101760008AB98BB1837F8BB93E984698089580B330
:101770008C7080BB81B3836F81BB08950F931F93DF
:10178000CF93DF9300D00F92CDB7DEB78C010E94CC
:101790001705823011F0843021F584E089831B83A2
:1017A0000A8382E08093E9008FEF9091E8008150F6
:1017B00095FD06C095ED9A95F1F700008111F5CFE2
:1017C0008091E80085FF0DC050E040E063E070E0EC
:1017D000CE0101960E94DD038091E8008E77809310
:1017E000E8000F900F900F90DF91CF911F910F9114
:1017F0000895CF93DF9300D00F92CDB7DEB720913D
:101800006803243031F523E02983805891099B83B4
:101810008A8382E08093E9008FEF9091E800815005
:1018200095FD06C095ED9A95F1F700008111F5CF71
:101830008091E80085FF0DC050E040E063E070E07B
:10184000CE0101960E94DD038091E8008E7780939F
:10185000E8000F900F900F90DF91CF910895CF93F4
:10186000DF93EC010E941705823011F08430F9F407
:1018700082E08093E9008FEF9091E800815095FD20
:1018800006C095ED9A95F1F700008111F5CF809192
:10189000E80085FF0CC050E040E066E070E0CE015B
:1018A0000E94DD038091E8008E778093E800DF914D
:1018B000CF910895CF93DF93EC010E9417058230FA
:1018C00011F08430B9F580911F018823B1F1809126
:1018D000020387FF32C060E282E08093E9008FEF6D
:1018E0009091E800815095FD06C095ED9A95F1F72D
:1018F00000008111F5CF8091E80085FF1BC0809129
:101900001F0170E050E040E0811104C050E040E071
:1019100068E070E0CE010E94DD038091E8008E77E0
:101920008093E80080E2FE01A6E4B3E001900D920E
:101930008A95E1F7DF91CF91089568E081E0CDCFFE
:101940008823B9F05198599A5098589A95E09A95E9
:10195000F1F70000509A589895E09A95F1F7000039
:10196000882311F0519A599885E08A95F1F7000083
:101970000895519A5998E8CFCF93DF93D82FC8E0B4
:101980008D2F80780E94A00CDD0FC150C9F780E038
:101990000E94A00C85E08A95F1F7000085E08A9509
:1019A000F1F7000080E0DF91CF9108950F931F932E
:1019B000CF93DF938091390380FD0AC0E5E1F2E027
:1019C000118210821282349652E0E135F507C1F798
:1019D0000FB71091BC00F8948091BC008B7F80936E
:1019E000BC008BB18C7F8BB95098589A5198599AFA
:1019F00085E08A95F1F700008AB18C7F8AB9E5E02D
:101A0000EA95F1F70000519A5998F5E0FA95F1F747
:101A10000000509A589855E05A95F1F7000084E874
:101A20000E94BC0CC5E1D2E089910E94BC0C82E00E
:101A3000C135D807C9F75098589AE5E0EA95F1F70B
:101A400000005198599AF5E0FA95F1F700000FBFA0
:101A50001093BC00579A3BB13F772BB120684FB72A
:101A6000F89485E192E0FC015191CF0168E02BB937
:101A7000000000C057FF3BB9550F000000C000C078
:101A800000C03BB900C06A9591F7F2E081359F072D
:101A900051F74FBFDF91CF911F910F910895EF92B2
:101AA000FF920F931F93CF93DF938C01C5E1D2E098
:101AB000F12CE12CF801948160913B0380913A0371
:101AC000F7E0EF16F104FCF49923F9F09E01409140
:101AD0003C030E94FE072FEFE21AF20A24968FE0E1
:101AE000E816F10439F70E94D60CF801848190E0E1
:101AF0000196817099278483DF91CF911F910F9177
:101B0000FF90EF900895992309F39E0140E0E1CF03
:101B1000EF92FF921F93CF93DF93EC0185E1E82EC4
:101B200082E0F82E10E08C81970140913C03609197
:101B30003B03810F0E94FE071F5E84E0E80EF11C4C
:101B40001F3F89F70E94D60C9A818C8190FF08C0B4
:101B50008F5F8C83DF91CF911F91FF90EF9008955D
:101B60008150F7CFBF92CF92DF92EF92FF920F9307
:101B70001F93CF93DF93FC018281DD24DA9480FDF3
:101B800002C0DD24D39405E112E0D0E0C0E02FE0F4
:101B9000B22EF80111821082128294E0E92EF12C0B
:101BA000C12C809112028C0D80310CF43DC06B2D44
:101BB0000E946B2A892F082E000C990B8C179D0709
:101BC00091F480913C038E9DA0018F9D500D1124B6
:101BD0005595479555954795980160913B038091A0
:101BE0003A030E94FE07CD0CF1E0EF1AF108C9F6A6
:101BF00021960C5F1F4FCF30D10559F60E94D60CAD
:101C00008091120291E0D91215C0811111C08EE0AD
:101C100080931202DF91CF911F910F91FF90EF906F
:101C2000DF90CF90BF90089587FFC5CF815FC3CF6E
:101C30008150EECF90E00196BE010E948D2AE8CF40
:101C40000F931F93CF93DF93C5E1D2E0FE01118282
:101C500010821282349682E0E135F807C1F710E075
:101C600000E080911302082E000C990B0817190749
:101C70008CF180911201082E000C990B80179107AE
:101C80004CF19E0140913C0360913B0380913A03EB
:101C90000E94FE070F5F1F4F24960F30110509F7B2
:101CA0000E94D60C8091110190911302980F90938D
:101CB000130220911201280F20931201121614F41E
:101CC0009E301CF0819580931101DF91CF911F917F
:101CD0000F910895198218821A82DCCFEF92FF9239
:101CE0000F931F93CF93DF93EC018C819D8101961D
:101CF000817099279D838C8385E1E82E82E0F82E00
:101D000010E005E5812F86952C813D81820F932F70
:101D1000911D8170970140913C0360913B03809F2E
:101D2000802D11240E94FE071F5F84E0E80EF11C45
:101D30001F3041F7DF91CF911F910F91FF90EF90EE
:101D40000C94D60C9091390390FF0CC0E5E1F2E0C1
:101D5000818360834283349692E0E135F907C1F7CD
:101D60000C94D60C08950F931F93CF93DF9300D05C
:101D700000D0CDB7DEB78C018091140281110AC06A
:101D80009E012F5F3F4F4FEF6FEF0E94FE078A814A
:101D900080931402F8016481613069F0809114022B
:101DA00040E0662361F040E0623011F4409114029B
:101DB00080E060E004C06091140240E080E00E9496
:101DC000A20EF801848190E0019663E070E00E9429
:101DD0008D2A84830F900F900F900F90DF91CF91F9
:101DE0001F910F910895CF93DF9300D000D0CDB70E
:101DF000DEB79091390390FF0AC09E012F5F3F4FDD
:101E00000E94FE074B8169818A810E94A20E0F9079
:101E10000F900F900F90DF91CF910895CF93DF93A4
:101E2000EC01EC81F0E0EF54FE4F4491E9E3F3E084
:101E3000628181810E94F30E8C818F5F8C83DF91A0
:101E4000CF910895CF93DF93EC01E9E3F3E0438171
:101E500062818C810E94F30E8C818F5F8C83DF9175
:101E6000CF910895EF92FF920F931F93CF93DF933B
:101E70000E949C0B0E94990B0E94960B0E94930B50
:101E800088E8E82EF12C8FEF90E0F70191838083B2
:101E90000AE810E0F80191838083CCE8D0E09983D0
:101EA00088830E94A50BFFEF20E782E0F1502040DD
:101EB0008040E1F700C000000E94A20B9FEFE0E726
:101EC000F2E09150E040F040E1F700C000000E94D5
:101ED0009F0B2FEF80E792E0215080409040E1F788
:101EE00000C000000E94990BEFEFF0E722E0E15004
:101EF000F0402040E1F700C000000E94960B8FEFF9
:101F000090E7E2E081509040E040E1F700C000003F
:101F10000E94930B8091F0028770FFEF8F9FC001AA
:101F2000112495958795959587959927F701918324
:101F30008083F80191838083998388830E949C0B1E
:101F40000E94990B0E94960BDF91CF911F910F91E8
:101F5000FF90EF900C94930BCF9384E090E00E945D
:101F6000B32AC82F81E290E00E94B32A982F8C2FC9
:101F7000CF91089590E080E00E94C12A21E08F3E39
:101F80009E4F09F020E0822F08956091EC028CE0D2
:101F900090E00C94C72ACF92DF92EF92FF926B01F0
:101FA0007C010E94EF07B701A60188E090E0FF9056
:101FB000EF90DF90CF900C94D92A5F926F927F922E
:101FC0008F929F92AF92BF92CF92DF92EF92FF9249
:101FD0000F931F93CF93DF9300D000D0CDB7DEB720
:101FE000182F762E042F622E9091390390FF29C06E
:101FF000E92FE695AE2FB0E0A05EBE4F8C918093A6
:102000003E039E7F923089F59E012F5F3F4F812FC7
:102010000E94FE074B8169818A810E94A20E109363
:102020003A0370923B0300933C03662051F06091A9
:10203000390370913A0380913B0390913C030E94D5
:10204000CB0F0F900F900F900F90DF91CF911F91BA
:102050000F91FF90EF90DF90CF90BF90AF909F9047
:102060008F907F906F905F900895823019F4009167
:102070003C03D5CF863019F410913A03D0CF893084
:10208000D9F3893161F6E9518E2F8170582EE6958A
:10209000F0E0E455FE4FA590B490BB2485E1E82E16
:1020A00082E0F82ED12CC12C9FE0892E912CC60104
:1020B000B4010E94792A812F511013C0860F970115
:1020C000402F672D0E94FE07CA0CDB1C84E0E80E3F
:1020D000F11C81E5E81682E0F80649F70E94D60C6B
:1020E0009ECF861BECCFE9E3F3E080818E7F808377
:1020F00060817181828193810E94CB0F10923F0396
:102100002FEF80E792E0215080409040E1F700C03F
:1021100000000C94D60CE9E3F3E083E080831182A5
:102120008FEF8283838314826081718182819381A6
:102130000C94CB0F6FEE7EEF90E080E00E94E52ADA
:1021400060E082E090E00E94C72A60E083E090E0D7
:102150000E94C72A1092E1021092E2021092E3025A
:102160001092E40260E084E090E00E94C72A60E000
:1021700081E290E00E94C72A60E085E090E00E9442
:10218000C72A60E086E090E00E94C72A6FEF87E0F0
:1021900090E00E94C72A40E050E0BA0188E090E059
:1021A0000E94D92A60E08DE090E00E94C72A40E0BA
:1021B00050E0BA0188E190E00E94D92A60E087E10E
:1021C00090E00E94C72A40E050E0BA018CE190E024
:1021D0000E94D92A60E080E290E00E94C72A109213
:1021E000F0021092F1021092F2021092F30284E0D7
:1021F00080618093F0024091F0025091F102609171
:10220000F2027091F3028FE090E00E94D92A40E040
:1022100050E0BA0183E190E00C94D92ACF93C82F03
:10222000873070F58091130190911401892B89F505
:1022300064E670E080E40E94B829909314018093D2
:102240001301892BD1F464E670E082E10E94142A24
:102250009093140180931301892B79F481E090E02D
:1022600001C0880FCA95EAF764E670E080950E9485
:10227000142A9093140180931301CF910C94672A30
:102280008A30B9F040F4883071F0893079F0209AC2
:102290002898CF9108958C3091F070F08D30B9F777
:1022A0003E9A4698F6CF219A2998F3CF229A2A98F7
:1022B000F0CF239A2B98EDCF529A5A98EACF539A9F
:1022C0005B98E7CF80E290E0909314018093130134
:1022D0008091110281110EC00E94B22981E0809389
:1022E00011022FEF83ED90E3215080409040E1F701
:1022F00000C0000064E670E080E40E94B82990937A
:10230000140180931301892B09F04EC064E670E03C
:1023100080E00E94142A9093140180931301892B6A
:1023200009F042C064E670E080E00E94142A9093B5
:10233000140180931301892BB9F564E670E08FE3F3
:102340000E94142A9093140180931301892B61F544
:102350000E94672A64E670E080E40E94B8299093A6
:10236000140180931301892BF9F464E670E08CE08A
:102370000E94142A9093140180931301892BA1F4D5
:1023800064E670E080E00E94142A90931401809328
:102390001301892B49F464E670E08FE30E94142A4C
:1023A00090931401809313010E94672A8091130176
:1023B0000895CF93873008F040C080911301909129
:1023C0001401C0E0892B71F464E670E080E40E949F
:1023D000B8299093140180931301892B31F0C0E048
:1023E0000E94672A8C2FCF91089564E670E083E104
:1023F0000E94142A9093140180931301892B79F77A
:1024000064E670E081E40E94B829909314018093FF
:102410001301892B21F784E690E00E94432A97FF5D
:1024200005C09093140180931301D9CFC82FC09594
:102430001092140110921301D3CFCFB18FB18695B2
:1024400086958C73C3708C2BC82FC095CBCF789496
:102450001F921FB61F9211248F939F93AF93BF9328
:102460008091E5029091E602A091E702B091E80226
:102470000196A11DB11D8093E5029093E602A09301
:10248000E702B093E802BF91AF919F918F911F90A7
:102490001FBE1F9018952FB7F8948091E502909178
:1024A000E602A091E702B091E8022FBF0895E09103
:1024B0000903F0910A03309749F082E080931A03F0
:1024C0000480F581E02D8AE193E009950E944B128A
:1024D000909322038093210308951092DE021092BC
:1024E000DD020E94800686E0EAE1F3E0DF011D9252
:1024F0008A95E9F7109220031092E9020E94571280
:1025000090E080E00E94C50790E080E00C94AF0767
:102510006093E1027093E2028093E3029093E402FD
:102520000C946D121092DF0280911F01E0EFF1E038
:10253000882359F08091020387FF07C08EE1DF01F5
:102540001D928A95E9F70C946D1286E0F8CF1F93DF
:10255000CF93DF93CDB7DEB7AA970FB6F894DEBF5F
:102560000FBECDBF8AE693E02091F100FC012193DC
:10257000CF01F3E082379F07B9F780916B03833077
:1025800009F46FC0B8F4813009F446C0823009F410
:10259000B0C08091E80083FF87C280916A03909168
:1025A0006B039A3008F080C2E92FF0E0ED5BF34D49
:1025B0000C94A12A8A3009F48BC08B3009F46EC0C8
:1025C000893039F780916A03813219F780916E035F
:1025D00090916F030297E8F68091E800877F8093DF
:1025E000E8008091E80082FF37C09091F30080916D
:1025F000F200029729F48091F1008B7F813021F461
:102600008091F100809345038091E8008B7780935F
:10261000E8000E940704BDCF80916A03813A09F067
:10262000B8CF8091E800877F8093E80080916E03A7
:1026300090916F03892B61F460E286E493E070E08F
:102640000E94B9048091E8008B778093E800A1CFC5
:1026500060E090E080E0F3CF809168038111C1CF0A
:1026600098CF80916A03813A09F093CF80916E03ED
:1026700090916F03892B09F08CCF8091E800877FC0
:102680008093E8008091E80080FFFCCF80911F01DB
:102690008093F1008091E8008E77B9CF80916A0332
:1026A000813209F076CF80916E0390916F03892B70
:1026B00009F06FCF8091E800877F8093E8000E9447
:1026C000070480916C0380931F010E94921261CFD6
:1026D00080916A03813209F05CCF8091E800877FA6
:1026E0008093E8000E94070480916D038093440367
:1026F00050CF80916A03813A09F04BCF8091E80076
:10270000877F8093E8008091E80080FFFCCF809174
:102710004403BECF803899F0823809F0C5C180915A
:102720006E038F70873008F0BFC18093E9008091FD
:10273000EB0085FB882780F91092E90006C08091A4
:10274000660390916703911182609091E800977FF2
:102750009093E8008093F1001092F1008091E800DE
:102760008E779EC1882309F48CC1823009F09CC108
:1027700080916C0381118FC180916E038F702FEF58
:10278000280F263008F090C18093E9002091EB00DB
:1027900020FF81C1933031F48091EB0080628093FF
:1027A000EB0079C19091EB0090619093EB0021E0F8
:1027B00030E001C0220F8A95EAF72093EA001092D8
:1027C000EA008091EB008860EACF81116DC1109121
:1027D0006C031F778091E3008078812B8093E30066
:1027E0008091E800877F8093E8000E940704809131
:1027F000E80080FFFCCF8091E30080688093E300D5
:1028000082E0111183E0809368034EC180588230CA
:1028100008F04AC180916C0390916D038C3D23E0D8
:102820009207A1F583E08A838AE289834FB7F894FF
:10283000DE01139620E03EE051E2E32FF0E05093FA
:102840005700E49120FF03C0E295EF703F5FEF7007
:102850008E2F90E0EA30C0F0C7968D939D932F5F46
:10286000243159F74FBF8091E800877F8093E800BB
:102870006AE270E0CE0101960E94B9048091E800FE
:102880008B778093E80010C1C096E7CF40916E032C
:1028900050916F03292F33272330310509F445C0A8
:1028A00078F52130310509F47BC08BE390E0E3E655
:1028B000F6E02230310509F0F7C02091E800277FCB
:1028C0002093E800209170033091710382179307E1
:1028D00008F49C0140E02115310509F070C0411158
:1028E0006EC08091E80082FDC9CF80916803882383
:1028F00029F2853019F28091E80083FFF2CFBECF34
:102900002132310509F440C02232310509F0CCC032
:102910004115510509F44EC04130510509F0C4C0BC
:1029200080EC90E0E3E6F5E0C8CF9927813091058F
:10293000D9F0009771F082309105F1F0039709F01A
:10294000B3C0E0EBF6E0E4918E2F90E0E0EBF6E030
:1029500007C0E8EDF6E0E4918E2F90E0E8EDF6E0B8
:10296000009709F4A1C0A9CFEEECF6E0E4918E2F18
:1029700090E0EEECF6E0F4CFE6EBF6E0E4918E2F9B
:1029800090E0E6EBF6E0ECCF4115510571F04130F7
:10299000510509F089C089E090E0EEE8F6E08DCFBE
:1029A00082E190E0EEE9F6E088CF89E090E0E5E7AB
:1029B000F6E083CF80E490E0E3E2F6E07ECF809122
:1029C0006803882309F45ACF853009F457CF8091E2
:1029D000E80083FD53CF8091E80082FD82CF809193
:1029E000E80080FF78CF9091F3008091F2002115EC
:1029F000310519F08830910550F041E0089709F051
:102A000040E08091E8008E778093E80064CF4491A5
:102A10004093F1003196215031090196E8CF80387A
:102A200009F042C08091E800877F8093E8008091A0
:102A300069038093F10092CE811136C010916C032E
:102A4000123090F58091E800877F8093E800109322
:102A500069030E940704112311F084E005C08091EE
:102A6000E30087FDFACF81E08093680342E061ECE8
:102A700081E00E94260442E261EC82E00E9426048A
:102A800013C080916C03813079F481E0933009F0B8
:102A900080E0809367031092E9008091E800877FCF
:102AA0008093E8000E9407048091E80083FF0AC039
:102AB0008091E800877F8093E8008091EB0080623E
:102AC0008093EB00AA960FB6F894DEBF0FBECDBF81
:102AD000DF91CF911F9108951F920F920FB60F9221
:102AE00011242F933F934F935F936F937F938F9313
:102AF0009F93AF93BF93CF93DF93EF93FF93D091C7
:102B0000E900DF708091EC00C82FC17080FDC0E843
:102B10001092E9008091F000877F8093F000789414
:102B20000E94A7121092E9008091F00088608093C3
:102B3000F000CD2BCF70C093E900FF91EF91DF91B2
:102B4000CF91BF91AF919F918F917F916F915F9145
:102B50004F913F912F910F900FBE0F901F9018959E
:102B6000882309F459C0823871F40E94DB0781FF81
:102B700053C089E30E94F0060E94800689E30E9408
:102B8000C5060C948006833859F40E94DB0780FF49
:102B900043C083E50E94F0060E94800683E5EFCFE4
:102BA000843859F40E94DB0782FF36C087E40E9414
:102BB000F0060E94800687E4E2CF9CEF980F913ADE
:102BC000F0F290E2980F983088F4877021E030E0BE
:102BD000A90102C0440F551F8A95E2F7CA018095EA
:102BE0009091DF0289238093DF02CBCF9BE5980F82
:102BF000933020F490E080E00C94C50798E5980F9E
:102C0000973120F490E080E00C94AF07803F20F0F3
:102C10000E9427050C9457120895882309F408C1CF
:102C20008238B9F40E94DB0781FD02C189E30E946A
:102C3000F0060E9480062FEF81EE94E02150804044
:102C40009040E1F700C0000089E30E94C5060C94A3
:102C500080068338A1F40E94DB0780FDE9C083E58C
:102C60000E94F0060E9480062FEF81EE94E0215032
:102C700080409040E1F700C0000083E5E6CF843853
:102C8000A1F40E94DB0782FDD3C087E40E94F00616
:102C90000E9480062FEF81EE94E02150804090400A
:102CA000E1F700C0000087E4D0CF9CEF980F913A85
:102CB00018F40E94F006CBCF90E2980F983068F499
:102CC000877021E030E001C0220F8A95EAF78091F9
:102CD000DF02822B8093DF02BACF9BE5980F9330FF
:102CE00070F4853A31F0863A39F083E890E00C943C
:102CF000C50781E890E0FBCF82E890E0F8CF98E547
:102D0000980F973108F08EC0883A09F446C0893A86
:102D100009F446C08A3A09F446C08B3A09F446C021
:102D20008C3A09F446C08B3B09F446C08C3B09F44D
:102D300046C08D3A09F446C0803B09F446C08E3A3D
:102D400009F446C08F3A09F446C0813B09F446C0F5
:102D5000823B09F446C0833B09F446C0843B09F436
:102D600046C0853B09F446C0863B09F446C0873B14
:102D700009F446C0883B09F446C0893B09F446C0C3
:102D80008D3B09F446C08E3B09F446C08A3B09F4EA
:102D900046C090E080E00C94AF0782EE90E0FBCF5D
:102DA00089EE90E0F8CF8AEE90E0F5CF85EB90E0E9
:102DB000F2CF86EB90E0EFCF83EB90E0ECCF84EBAB
:102DC00090E0E9CF87EB90E0E6CF8CEC90E0E3CFAA
:102DD0008DEC90E0E0CF83E891E0DDCF8AE891E0F0
:102DE000DACF82E991E0D7CF84E991E0D4CF81E2D4
:102DF00092E0D1CF83E292E0CECF84E292E0CBCFDB
:102E000085E292E0C8CF86E292E0C5CF87E292E009
:102E1000C2CF8FE690E0BFCF80E790E0BCCF8AE2E0
:102E200092E0B9CF803F20F00E94E8050C94571241
:102E30000895CF93C82F0E940D16C93349F42FEF80
:102E400087EE93E0215080409040E1F700C0000001
:102E50008C2FCF910C94B0150F931F93CF93DF93CA
:102E6000C62FD42F022FFC0182818823A1F060930A
:102E700067020E944B129093520280935102C770D6
:102E800081E001C0880FCA95EAF7DF91CF911F91C9
:102E90000F910C94A50710916702161335C080910D
:102EA0005102909152020E945006883C910560F5B3
:102EB000C0E2CD0F1D17B9F080E2810F883040F4D9
:102EC000177081E001C0880F1A95EAF70E949A07EF
:102ED000C83048F481E09D2F977001C0880F9A9503
:102EE000EAF70E94A507802F0E941917C83098F4AE
:102EF000D77081E001C0880FDA95EAF7DF91CF91B2
:102F00001F910F910C949A07C77081E001C0880F40
:102F1000CA95EAF7F3CFDF91CF911F910F910895F2
:102F200060913903669570E04BE050E086E091E0F7
:102F30000E94262C892B19F481E080933F030E9484
:102F40004B12909334038093330308959091390387
:102F500090FF36C09170811129C09260909339031F
:102F6000662351F06091390370913A0380913B03DD
:102F700090913C030E94CB0F60913903669570E0FD
:102F80004BE050E086E091E00E94262C892BA9F0CE
:102F900010923F0381E08093360320E040913C0390
:102FA00060913B0380913A030C94DD0F853210F061
:102FB0009864D4CF880F982BD1CF0E949017EACF76
:102FC0000895E9E3F3E080818160808360E0869585
:102FD0000C94A6171F920F920FB60F9211242F93E5
:102FE0003F934F935F936F937F938F939F93AF9391
:102FF000BF93EF93FF938091E10082FF09C080911E
:10300000E20082FF05C08091E1008B7F8093E100A8
:103010008091DA0080FF24C08091D80080FF20C01A
:103020008091DA008E7F8093DA008091D90080FF52
:10303000A8C080E189BD82E189BD09B400FEFDCF51
:1030400081E08093680380914103811109C00E944F
:103050008D030E9458048091E20084608093E20016
:103060008091E10080FF17C08091E20080FF13C0D3
:103070008091E2008E7F8093E2008091E200806187
:103080008093E2008091D80080628093D80019BCC0
:1030900085E0809368038091E10084FF36C08091D1
:1030A000E20084FF32C080E189BD82E189BD89B53B
:1030B000982F917080FFFBCF8091D8008F7D8093F7
:1030C000D8008091E1008F7E8093E1008091E20042
:1030D0008F7E8093E2008091E20081608093E20025
:1030E00080916903882309F452C084E080936803C7
:1030F0000E9492120E94DB071092430380914203C8
:1031000081110E94E1170E9490178091E10083FFD6
:1031100027C08091E20083FF23C08091E100877F78
:103120008093E10082E080936803109269038091AC
:10313000E1008E7F8093E1008091E2008E7F80939A
:10314000E2008091E20080618093E20042E060E072
:1031500080E00E9426048091F00088608093F00057
:10316000FF91EF91BF91AF919F918F917F916F915F
:103170005F914F913F912F910F900FBE0F901F9035
:10318000189519BC109268031092410369CF809181
:10319000E30087FD93E090936803AACF61E00C946D
:1031A000A617809139038695815009F484E261E085
:1031B0000C94A6178091390386958F5F853208F0AD
:1031C00081E061E00C94A617CF92DF92EF92FF921C
:1031D000CF93DF936B017C01C701AA27BB27C0E116
:1031E0000097A105B10519F4D701CB01C0E0492F23
:1031F0005A2F6B2F7727411551056105710519F07D
:10320000C85FDB01CA01AC01BD01E4E076956795BA
:1032100057954795EA95D1F7411551056105710517
:1032200019F0CC5FDB01CA01AC01BD0132E076953B
:103230006795579547953A95D1F741155105610521
:10324000710519F0CE5FDB01CA01B695A795979578
:103250008795892B8A2B8B2B09F0CF5F0E949C0BC3
:103260000E94990B0E94960B0E94930BD0916502CD
:10327000EFEFEC0FE73008F064C0F0E0E35BF34DF4
:103280000C94A12A0E94A50BD11175C00E94E117D0
:1032900060E081E00E94A61720E04AED6EEE86E530
:1032A00068C00E94A20BD11166C00E94E11760E0C5
:1032B00081E00E94A61720E040EE6FEE88ED59C035
:1032C0000E949F0BD11157C00E94E11760E081E07E
:1032D0000E94A61720E047EF66EF81E84AC00E94EF
:1032E000A50B0E94A20BD11146C088E090E00E947D
:1032F000BB2A6093390370933A0380933B03909306
:103300003C0360FF41C0862F81608093390386951E
:103310000E94CE188091390386950E94CE1821E034
:1033200040913C0360913B0380913A0322C00E948C
:10333000A50B0E949F0BD7CF0E94A50B0E94A20B4A
:10334000F8CFC13009F4A0CFCC2339F0C23009F452
:10335000AACFC33009F4B6CFC6CFD1110CC00E949A
:10336000E11760E081E00E94A61720E04EEE65EED6
:1033700080E00E94DD0FC701B601DF91CF91FF9081
:10338000EF90DF90CF9008950E947310F4CF0E94C9
:10339000E4186093050370930603809307039093EA
:1033A00008030C946D120F931F9341E050E060E00E
:1033B00070E004C0440F551F661F771F8A95D2F72F
:1033C000CB01BA01609570958095909500910503A9
:1033D00010910603209107033091080360237123A5
:1033E000822393231F910F910C94C7199091DC02B3
:1033F000809589238093DC02282F277071F4282F71
:10340000082E000C330B9217130639F0859585951D
:1034100085950E94D3191092DC0208950F931F9393
:1034200041E050E060E070E004C0440F551F661FAB
:10343000771F8A95D2F78091050390910603A0919A
:103440000703B09108038A019B01082B192B2A2B33
:103450003B2BC901B8011F910F910C94C7194F92D2
:103460005F926F927F928F929F92AF92BF92CF9214
:10347000DF92EF92FF920F931F93CF93DF9300D0D1
:1034800000D00F92CDB7DEB76C01FC01838194812F
:10349000892B41F01081F180812F8F218F3F11F016
:1034A0000C9441220F900F900F900F900F90DF918E
:1034B000CF911F910F91FF90EF90DF90CF90BF9031
:1034C000AF909F908F907F906F905F904F900895F6
:1034D0000E94230B082F682F89819A810E944D0733
:1034E000E12FF0E026E0F29EE00DF11D112434E51D
:1034F000039FE00DF11D1124EE0FFF1FEF54FD4F50
:1035000005911491F60182810230FDE51F0709F053
:10351000FAC08823C9F18091F00291E0980F97706A
:10352000887F953008F4892B8093F0028091F00217
:1035300087702FEF829FC0011124959587959595EF
:1035400087959927909389008093880090938B00AA
:1035500080938A0090938D0080938C004091F002BC
:103560005091F1026091F2027091F3028FE090E0CD
:103570000E94D92A60910503709106038091070388
:10358000909108030E94E418F60182818111E9C03C
:1035900017FF36C1F6018281882309F44DC080915E
:1035A000DF02809366021092DF028091EC0281308C
:1035B00009F401C1882309F4FAC0823009F408C172
:1035C000843009F40CC18FE39CE90197F1F700C046
:1035D00000005801E894B7F84CE0E42EF12C950176
:1035E0000E2C02C0369527950A94E2F72F7087E2D9
:1035F00090E031F0822F90E02A3008F0F5C04D962F
:103600000E94191794E0E91AF108ECEFEE16EFEFBB
:10361000FE0629F78091EC02813009F4EBC0882383
:1036200009F4E4C0823009F4E1C0843009F4E6C052
:10363000809166028093DF02F6018281882309F47B
:1036400033C7109267020B3CFCE51F0709F4E3C285
:1036500008F06CC1033C3CE5130709F46AC208F0AA
:1036600041C10631ECE51E0708F018C10230FCE547
:103670001F0708F0A8C101152CE5120709F4F7C1CE
:1036800001301C4509F430C2F60100811181882304
:1036900009F418C4C8010E94230BF82E682FC80132
:1036A0000E944D07B8018F2D0E94D7088C01B82EBB
:1036B000F601E580E2943FE0E322F280F1101092FF
:1036C000DE028091DC02877079F0FF2069F080E2F1
:1036D000800F883048F082E00E94F6198091DC0269
:1036E0008770AA24A3948111A12C912E92942FE08B
:1036F0009222FBE0F91508F41FC4E92DF0E0EC5A22
:10370000F34D0C94A12A03303DE5130701F1043079
:103710009DE5190709F038CF882309F4C3CE81E06D
:103720000F900F900F900F900F90DF91CF911F91FE
:103730000F91FF90EF90DF90CF90BF90AF909F9050
:103740008F907F906F905F904F900C94CE1888234D
:1037500009F4A8CE8091650291E0892780936502E3
:10376000A1CE033EFCE51F07F1F058F4013E3CE515
:103770001307A1F0023E8CE5180709F009CF81E09C
:103780000AC0043E9CE5190781F084E0053EECE5A3
:103790001E0709F0FDCE8093EC0202C01092EC02ED
:1037A0000E94C50FF5CE82E0F6CF83E0F4CF82EE23
:1037B0000E940D1608CF83E00E94900788E10E94C6
:1037C0000D1688E10E94B01583E00E948507FBCEAC
:1037D00082EE0E940D1687E50E941917F4CE86EE40
:1037E0000E94191788E1F8CF06970ACF82EE0E944F
:1037F000B0151ECF8CE20E9419171ACF88E2FBCFBA
:10380000033FFCE51F07D9F140F5083D3CE51307F0
:1038100091F1093D8CE51807F1F1073D9CE5190789
:1038200009F00ACF26E241EE61EEC6010F900F903B
:103830000F900F900F90DF91CF911F910F91FF90FC
:10384000EF90DF90CF90BF90AF909F908F907F9040
:103850006F905F904F900C942C17053FECE51E077E
:10386000B1F088F0063F2CE5120709F0E5CE27E21B
:1038700045EE66EEDACF27E245EE65EED6CF26E2DC
:1038800041EE60EED2CF27E245EE64EECECF26E2E7
:1038900041EE62EECACF28E241E0EFCF06319CE56F
:1038A000190709F4DFC2023C1C4509F0EDCE8091F6
:1038B000390380FF39C10F900F900F900F900F9038
:1038C000DF91CF911F910F91FF90EF90DF90CF90FC
:1038D000BF90AF909F908F907F906F905F904F9030
:1038E0000C947310073CFCE51F0709F477C180F4C2
:1038F000053C3CE5130709F452C108F435C1809139
:103900003A0321E040913C0360913B038C504FC14E
:10391000093C9CE5190709F474C108F46BC1409196
:103920003C032CE0421B08F440E071C1033DFCE580
:103930001F0709F4B4C120F50F3C3CE5130709F457
:1039400096C178F40D3C9CE5190709F4E8CE08F41B
:1039500088C10E94E7078250833008F409C182E0E1
:10396000DFCE013DFCE51F0709F491C108F487C1D2
:103970000E94E7078551823008F4FAC085E1D0CE75
:103980000D3D3CE5130709F496C188F4053DECE5CF
:103990001E0709F48EC108F484C10C3D1C4509F0D2
:1039A00073CE882309F47ECD109240037BCD0E3D6B
:1039B0003CE5130709F4A1C098012A5F3C45273074
:1039C000310508F061CE882309F45ECE0E94BA0F5B
:1039D000811102C00E949A100E94AC0F90930303C1
:1039E000809302030F309CE5190709F41CC208F00C
:1039F0009DC10830FCE51F0709F4FFC108F070C144
:103A000004303CE5130709F4ECC108F058C102305A
:103A10009CE5190709F4E1C180910203826003303B
:103A20001C4509F46FC1609102031091030384E007
:103A300090E00E94C72A612F81E290E00E94C72A8D
:103A40000F900F900F900F900F90DF91CF911F91DB
:103A50000F91FF90EF90DF90CF90BF90AF909F902D
:103A60008F907F906F905F904F900C9492120E9475
:103A700092128FEF94E3ECE081509040E040E1F748
:103A800000C00000F89481E08093E00080E2809321
:103A9000D8001092C9008FE19EE40197F1F700C0B1
:103AA00000001DBA109268001CBC10BE1FBA109214
:103AB0007A0010926E0010926F00109271001092B6
:103AC00072001092C9001092BC0014B817B81AB84E
:103AD0001DB810BA1092BC0015B818B81BB81EB8A3
:103AE00011BA0C94003FDECC90912403892F8E7F75
:103AF00090FF816080932403D5CC0F900F900F909E
:103B00000F900F90DF91CF911F910F91FF90EF9049
:103B1000DF90CF90BF90AF909F908F907F906F90ED
:103B20005F904F900C949A10816080933903869532
:103B3000F7CD8091DF028272D9F00F900F900F9035
:103B40000F900F90DF91CF911F910F91FF90EF9009
:103B5000DF90CF90BF90AF909F908F907F906F90AD
:103B60005F904F900C94D1188091DF02827229F3FC
:103B70000F900F900F900F900F90DF91CF911F91AA
:103B80000F91FF90EF90DF90CF90BF90AF909F90FC
:103B90008F907F906F905F904F900C94DA18809187
:103BA0003A0321E040913C0360913B03845F0F9016
:103BB0000F900F900F900F90DF91CF911F910F9169
:103BC000FF90EF90DF90CF90BF90AF909F908F903D
:103BD0007F906F905F904F900C94DD0F60913B034E
:103BE0002FEF620F08F46FEF21E040913C038091CA
:103BF0003A03DDCF60913B032FEF621B08F460E0D6
:103C0000F3CF40913C032CE0420F08F44FEF21E04A
:103C100060913B03ECCF80913D03833018F48F5FBC
:103C200080933D036091390370913A0380913B0387
:103C300090913C030F900F900F900F900F90DF9199
:103C4000CF911F910F91FF90EF90DF90CF90BF9099
:103C5000AF909F908F907F906F905F904F900C945B
:103C6000CB0F80913D038823E9F28150D9CF0E9488
:103C7000E7078650823008F47BCF86E051CD0E9462
:103C8000E7078950853008F473CF89E049CD0E9459
:103C9000E7078F50853008F46BCF8FE041CD88E186
:103CA0003FCD0E94E7078951893008F461CF89E14F
:103CB00037CD83E235CD82E080934003F3CB809112
:103CC000020380610630FCE51F07E1F080910203EA
:103CD000886007301C45B0F080910203806212C0FA
:103CE0000B303CE5130709F496C078F409309CE5E5
:103CF000190709F486C0809102038C600A301C45C4
:103D000009F091CE809302038ECE809102038B7FC7
:103D10000D30FCE51F07B1F3809102038D7F0E305B
:103D20001C4580F380910203877FECCF0A3F3CE57E
:103D3000130709F45AC048F502319CE5190709F444
:103D40007AC060F40031FCE51F0709F470C080916F
:103D500002038F7B01311C45A9F265CE04313CE59D
:103D6000130709F476C008F46CC005311C4509F04E
:103D70005ACE8091020382FB992790F921E0922785
:103D800090FB82F990FB83F9BDCF0D3FECE51E0758
:103D900009F445C070F40B3F2CE5120751F18091F6
:103DA00003038E7F0C3F1C4509F03DCE8093030337
:103DB0003ACE0F3F8CE5180709F447C040F10115D2
:103DC0001D4509F030CE80910303982F9095917096
:103DD0008E7F892B90FB81F9E9CF8091020381606E
:103DE00091CF8091020384608DCF80910303816025
:103DF000DDCF809103038260D9CF8091020380647C
:103E000081CF0E9492128091020380687BCF8091C3
:103E100003038360CBCF809102038E7F73CF8091A9
:103E200003038D7FC3CF809102038F7E6BCF809180
:103E300002038F7D67CF0E949212809102038F77D9
:103E400061CF80910203837F5DCF809103038C7FDC
:103E5000ADCF0E94921290910203892F97FB87F9B0
:103E6000805850CF8091DF028A7A91E009F490E087
:103E70009093680281111AC089E20E94F0060F90A7
:103E80000F900F900F900F90DF91CF911F910F9196
:103E9000FF90EF90DF90CF90BF90AF909F908F906A
:103EA0007F906F905F904F900C94800685E3E5CFF4
:103EB00080916802811104C089E20E94C506DFCFAB
:103EC00085E3FBCFC8010E942407F82EEBCB212FFE
:103ED0002F70E22E107F19F0E29490EFE922FF207C
:103EE000C9F0EE2069F080E2800F883010F0B11048
:103EF0000BC08091DF02E82AE092DF020E94800678
:103F0000802F0E940D1618C08091DE02E82AE092F0
:103F1000DE02F4CF802F0E94B015EE2069F0E0940D
:103F2000005E083010F0B1103CC08091DF02E82242
:103F3000E092DF020E948006292D2850330B2430A6
:103F4000310510F40E94DB07AA2009F4ABCA809166
:103F5000DC0280FDA7CAF6011282859585958595BC
:103F60000E940E1AC6010E942F1A8091DC028595CC
:103F7000859585950F900F900F900F900F90DF9182
:103F8000CF911F910F91FF90EF90DF90CF90BF9056
:103F9000AF909F908F907F906F905F904F900C9418
:103FA000D3198091DE02E822E092DE02C3CF312FE6
:103FB0003F70832E107F103219F0829480EF882298
:103FC000802FBB2041F091E0B91631F1FF2079F14B
:103FD000EE2041F195CFFF2091F09091E002892FE2
:103FE0008829E11003C00E94A507A6CFE1E0EE12E8
:103FF000FACF981709F4A0CF8093E0029DCFE1108B
:1040000006C00E947A06882D0E949A0795CFF1E09B
:10401000EF1609F491CFF5CFFF2031F021E02E15F6
:1040200008F48ACF882DDFCFE11086CFECCFEE20C9
:1040300051F3893349F43FEF87EE93E031508040EC
:104040009040E1F700C00000802F0E94B01574CFAF
:10405000812F86958695837061F0813009F06CCF51
:10406000C8019370F11002C090E080E00E94AF0799
:1040700063CFC8019370F11002C090E080E00E940D
:10408000C5075ACFFF2009F1053F99F0063FB9F067
:10409000043F49F48091690290916A028160909393
:1040A0006A0280936902802F0E94E8050E945712DD
:1040B00043CF8091690290916A028260F0CF809133
:1040C000690290916A028460EACF053F89F0063F59
:1040D000A9F0043F49F48091690290916A028E7FB1
:1040E00090936A0280936902802F0E942705DECF99
:1040F0008091690290916A028D7FF2CF809169026E
:1041000090916A028B7FECCF812F837009F066C09B
:10411000F11012CF802F829586958770880F880FB7
:10412000602F6F70462E512C712C612C082E04C00C
:10413000440C551C661C771C0A94D2F740E050E0F2
:10414000BA0104FF0FC04FE050E060E070E004C02F
:10415000440F551F661F771F8A95D2F740955095DB
:1041600060957095812F869586958370823019F1C0
:10417000D8F40091E1021091E2022091E302309123
:10418000E402813069F04429552966297729CB0159
:10419000BA0160237123822393230E948812CCCE1C
:1041A000402A512A622A732ACB01BA01642975294F
:1041B00086299729F2CF4429552966297729009124
:1041C000E1021091E2022091E3023091E402CB017E
:1041D000BA016027712782279327DFCF8695FF20BA
:1041E00011F0812F8170882309F4A6CE802F82954B
:1041F00086958770880F880F602F6F70462E512C20
:10420000712C612C082E04C0440C551C661C771CB4
:104210000A94D2F740E050E0BA0104FF0FC04FE02B
:1042200050E060E070E004C0440F551F661F771F28
:104230008A95D2F74095509560957095812F869517
:1042400086958370823019F1D8F40091050310919E
:1042500006032091070330910803813069F0442957
:10426000552966297729CB01BA016023712382235E
:1042700093230E94C71960CE402A512A622A732ACA
:10428000CB01BA016429752986299729F2CF4429DF
:10429000552966297729009105031091060320917D
:1042A000070330910803CB01BA01602771278227E9
:1042B0009327DFCF1F70FF2029F0812F0E940E1A55
:1042C000802F91CE802F0E949A07812F0E94D319B0
:1042D00033CE802FE2EFBE1609F44EC0EB1578F016
:1042E000F0EFBF1619F121EFB21609F43DC0FF201F
:1042F00009F465C0E11004CE812F8F713AC033EF0D
:10430000B31609F43EC094EFB912F1CFFF2009F4BF
:104310004BC01F71812F0E940E1AF8E01F9FC00131
:10432000112483608093DC02812F23C0FF20B9F029
:10433000E11002CE1F7161E070E080E090E004C007
:10434000660F771F881F991F1A95D2F700910503F2
:10435000109106032091070330910803A6CFE1E0F6
:10436000EE1508F4E9CDE6CF812F8F71FF2009F417
:10437000ADCF0E940E1AE0CD812F8F71FF20C9F3BF
:10438000A5CF60E070E0CB01FF2009F472CF1F7170
:1043900061E070E080E090E004C0660F771F881F46
:1043A000991F1A95D2F765CF81E00E94F61921E096
:1043B0002E1508F0C1CD82E00E94F619BDCDE110A6
:1043C00038CE812F8F7182CFE2EFBE16D1F1EB157F
:1043D00000F1F0EFBF1649F121EFB216D1F1809153
:1043E0006B02EE2009F441C0882341F080916C02F9
:1043F00091E0892780936C0210926B02802FF1105C
:1044000080CD0E94B01586E0F60111928A95E9F7F9
:1044100093CD34EFB316C1F0B31688F085EFB81220
:10442000DECFF11089CD81E007C0FF2009F484CDF3
:1044300080916C0291E0892780936C027DCD81E0B0
:10444000F826F0926C0278CDF11076CD10926C02C5
:1044500073CDFF2039F080916B02882349F31092CD
:104460006B026ACDEE2021F367CD882309F464CD79
:10447000F11062CD80916C0291E0892780936C02EB
:10448000EECF85E0DE01119601900D928A95E1F75D
:10449000F601228189819A8121110C94681A0E9467
:1044A0002407082F0C94701A0B3CFCE51F0711F42D
:1044B0000C94521A48F5033C3CE5130711F40C9494
:1044C000521A10F00C94521A0631ECE51E0788F4CB
:1044D0000230FCE51F0708F0D7C801152CE51207CC
:1044E00011F40C94521A01301C4511F40C94521A18
:1044F000CBC806319CE5190709F4DACC023C1C450F
:1045000011F40C94521AC0C8033DFCE51F0711F4C6
:104510000C94521A10F40C94521A0D3D3CE51307FA
:1045200011F40C94521A78F4053DECE51E0711F4D1
:104530000C94521A10F40C94521A0C3D1C4511F4B0
:104540000C94521AA1C80E3D1C4511F40C94521A39
:104550009BC81F93CF93DF9380917202807FC1F439
:1045600080916F028823A1F08091A402C091730210
:1045700060916D0270916E024091700250917102D3
:10458000D62FD723DA01A095B09516E0C81304C042
:10459000DF91CF911F91089590E04115510511F0E1
:1045A000DF3F31F401968770F1CF2A0F3B1F17C010
:1045B000189FF001199FF00D1124EC58FD4F218137
:1045C0002713F0CF20812613EDCF22812111EACFCE
:1045D000238134812417350740F3241B350B283CF5
:1045E000310500F7209172022F7020612093720232
:1045F00026E0289FF001299FF00D1124E758FD4F78
:1046000080818F70806180838DE692E00E942F1AF6
:10461000DF91CF911F910C947B07BF92CF92DF92D5
:10462000EF92FF920F931F93CF93DF93CDB7DEB737
:1046300061970FB6F894DEBF0FBECDBF8C0185E049
:10464000F801DE011D9601900D928A95E1F7D801DF
:104650002C9111963C9111971296EC9012978091A3
:10466000700290917102009709F463C140916D024C
:1046700050916E02642F65236F3F09F45AC113965F
:10468000CD90DC90B0906F02BB2009F413C1C81626
:10469000D906C0F1F601E81BF90BCF01FF24F39412
:1046A000883C910508F0F12C80917202982F907F40
:1046B000FF2009F4C1C091117DC0FE2C531327C007
:1046C000421325C0E11023C08F7080618093720275
:1046D0008DE692E00E942F1A80917202D801159601
:1046E0008C938F2D61960FB6F894DEBF0FBECDBFB1
:1046F000DF91CF911F910F91FF90EF90DF90CF90BE
:10470000BF900895809590958C0D9D1DC7CFCD28A5
:1047100029F0822F83238F3F09F035C180E0B82F25
:10472000B170DB2E80FF3CC08091A40240917302E7
:1047300056E0841315C02D873E878D859E850E9487
:10474000650B292F22952F702230F0F0243018F5B8
:104750009F70F1F0F8019581907FD1F4D12C1EC0AB
:1047600090E0589FF001599FF00D1124EC58FD4F37
:104770006181361306C06081261303C06281E61290
:104780000FC001968770D5CF9F7011F0882331F349
:10479000805E883018F3C8010E942F1AFD2CA1CF2B
:1047A000EE2009F49ECF80917202816080937202A4
:1047B000F12C97CF531313C0421311C0E1100FC057
:1047C000D80115968C93C8010E942F1A86E0F80133
:1047D000ADE6B2E001900D928A95E1F782CF2D8788
:1047E0003E878D859E850E946F0B882309F1EE2000
:1047F000F9F080917202803270F020916D02309158
:104800006E0238872F831986DB86CA868C87CE0195
:1048100007960E942F1A86E0F801ADE6B2E00190FB
:104820000D928A95E1F70E94A922FF24F39459CFB3
:10483000C8010E942F1AF9CF91110CC08DE692E0A9
:104840000E942F1A86E0EDE6F2E0DF011D928A95C4
:10485000E9F747CF531312C0421310C0E1100EC046
:10486000F8018583C8010E942F1AEDE6F2E086E088
:10487000DF011D928A95E9F7FB2C33CF2D873E8708
:104880008D859E850E946F0B882391F2EE2081F228
:1048900080917202803208F4BECF20916D02309177
:1048A0006E023A8329831B82DD82CC828E83CE0105
:1048B0000196AFCFC816D90640F0C81AD90AB8EC8D
:1048C000CB16D10448F0F12CBDCF809590958C0D7E
:1048D0009D1D883C9105B8F7FE2CEE2009F4A8CF69
:1048E000531316C0421314C08091720280FD6ECF24
:1048F000982F907F09F46ACFF8018583903F09F4DF
:1049000062CF982F907F905F8F70892B85835BCFCC
:104910002D873E878D859E850E946F0B81117BCFF1
:1049200080917202816080937202C8010E942F1AE6
:10493000D8CEEE2009F47CCF2D873E878D859E85CD
:104940000E946F0BF82E882309F472CF86E0F801DD
:10495000ADE6B2E001900D928A95E1F780916D028B
:1049600090916E020E94650B92959F70963041F473
:1049700080916C0291E0892780936C0290936B0286
:104980000E94A922AECE81E08E25C9CE1F93CF937F
:10499000DF93CDB7DEB767970FB6F894DEBF0FBED3
:1049A000CDBF6D8B7E8B8F8B8E899F89892BE1F09C
:1049B000852F84238F3F09F098C05FEF4FEF14C01D
:1049C00030916C02332309F44EC0E42FF0E036E05E
:1049D000539FE00DF11D1124EE0FFF1FEB5BFE4F07
:1049E00040815181822B8C931A8A198A4B8B5C8B64
:1049F00085E0FE017396DE011D9601900D928A9569
:104A0000E1F786E0FE013D96DE01179601900D92DA
:104A10008A95E1F7CE0107960E940D23811112C0FD
:104A200086E0FE013796DE01119601900D928A957F
:104A3000E1F78A859B85892B29F08F8198858923C9
:104A40008F3FC9F516E08091A402909173028913FB
:104A500020C067960FB6F894DEBF0FBECDBFDF91C2
:104A6000CF911F91089580958223BDCF96E0929FAC
:104A7000D001939FB00D1124AC58BD4FFE0131966B
:104A800001900D929A95E1F7809373020E947B0743
:104A9000D9CF819FC00111248C589D4F0E940D23B6
:104AA0008823B9F28091A40290E00196877099273B
:104AB0008093A402C8CF2091730230E0C90101960F
:104AC000877099274091A4024817190679F60E9429
:104AD0009212109273021092A40286E0EDE6F2E0C8
:104AE000DF011D928A95E9F7ADCF81E090E0042EB9
:104AF00001C0880F0A94EAF7A52FB0E0A95ABD4F6C
:104B00002C913D8931115CCF322F38235BCF8F92AE
:104B10009F92AF92BF92CF92DF92EF92FF920F934C
:104B20001F93CF93DF938091130190911401892BF0
:104B300091F0809110028F5F8093100281110BC061
:104B40000E94621190E09093140180931301892BCD
:104B500011F40E94320F04EF12E07801C0E0912CB2
:104B600037E0C32ECC0E8C2F0E940E118C2D0E948C
:104B70000E118C2F0E94D911D7019D917D01D12C4E
:104B8000891729F0FD0131978083DD24D3948C2D82
:104B90000E94D911F7019681891709F466C08683AE
:104BA00081E08D29982A0E94A80BCF5FC730C1F6FB
:104BB0000E944B126AEF70E00E94792A882ED091F1
:104BC0000F02DD2309F45DC010920F02E091EA02AA
:104BD000F091EB027F012EE0E20EF11C40E0CBEF02
:104BE0002AEFC22ED12C51915B3F81F0652F70E0EE
:104BF000282D392F8517D8F1261B370B2A30310580
:104C0000E4F19F0121503109D901CC93EE16FF0642
:104C100051F740930F02911002C0411134C010921D
:104C20000E02A091EA02B091EB0220910F02ECE09B
:104C3000F3E04AE153E090E06191E80139918E019F
:104C4000631751F06C916B3FD1F48C93BF016150AD
:104C50007109EB01388321E011964E175F0761F768
:104C600020930F0290930E0212C080E09ACFD601DB
:104C7000A61BB70B2A0F3B1FC1CF4D2FC7CF91E00B
:104C8000EBCF9110CCCF90910E029111C8CF892D0E
:104C9000DF91CF911F910F91FF90EF90DF90CF9018
:104CA000BF90AF909F908F900895CDB7DEB72A97B1
:104CB0000FB6F894DEBF0FBECDBF84B7877F84BF29
:104CC0000FB6F894A8958091600088618093600089
:104CD000109260000FBE80E8809361001092610026
:104CE00085B7806885BF85B7806885BF0E948D03C2
:104CF0000E9458048091E20084608093E2007894DE
:104D0000809168038823A1F01091E9001F709091B1
:104D1000EC00892F817090FD80E8182B1092E9003B
:104D20008091E80083FD0E94A7121F701093E90094
:104D300082E084BD93E095BD9AEF97BD80936E00AD
:104D40000E94621190E090931401809313010E94DD
:104D5000A80B0E94B70BA4EFB2E0ECE0F3E01192D5
:104D60001D9223E0EA31F207D1F78EE090E00E9435
:104D7000FB2A8093EA029093EB02FC010E962BEF44
:104D800021938E179F07E1F70E94BA0F811102C08D
:104D90000E949A108CE090E00E94B32A90E0B0E06C
:104DA000A0E08093EC029093ED02A093EE02B0930A
:104DB000EF0289EA8093800089E080938100249843
:104DC0002C983F988AB18F7C8AB96E98479A8BB19C
:104DD00080638BB9769A8FE090E00E94BB2A609343
:104DE000F0027093F1028093F2029093F3026770E5
:104DF0004FEF649FB0011124759567957595679580
:104E00007727709389006093880070938B0060937C
:104E10008A0070938D0060938C000E94320F0E9474
:104E2000BA0F811102C00E949A1082E090E00E94A5
:104E3000B32A809324030E94AC0F909303038093C2
:104E4000020383E090E00E94B32A682F70E090E0B4
:104E500080E00E94881280910403811138C0809103
:104E600024038160809324030E94BA0F811104C03F
:104E70000E949A100E948B1088E090E00E94BB2A4A
:104E80006093390370933A0380933B0390933C0300
:104E90006E7F71F40E948B1088E090E00E94BB2A24
:104EA0006093390370933A0380933B0390933C03E0
:104EB0000E94EF0710923F038091390380FF04C0E6
:104EC00060E086950E94A61781E0809304036091BC
:104ED00005037091060380910703909108030E94D7
:104EE000E41885E191E090930A0380930903F1E5CA
:104EF000EF2EF5E0FF2E80916803853009F4AEC0F7
:104F00000E948725E5E2F3E0ACE0B3E010E000E0CA
:104F1000902F8D914191481709F40FC130E020E0A6
:104F2000482750E0622F6A01022E02C0D594C79430
:104F30000A94E2F7C0FEFBC029839A8321E030E0A7
:104F4000690102C0CC0CDD1C6A95E2F790E08C216F
:104F50009D21892B09F420E02B830E944B12816054
:104F6000782F9D838C8349815A816B818D810E942A
:104F7000C624F801EB5DFC4F8081C826C082809179
:104F80002103909122030E9450069C0190912003DE
:104F9000992319F02431310578F020911C03D09029
:104FA0001D0310911E0300911F032111DDC0812FED
:104FB0008D29802B09F0ABC10E94DB079091230360
:104FC000891721F00E94DB078093230380913F0320
:104FD000882309F490CF80913E03E0913903E69550
:104FE000E81BE0933503823009F022C1F0E0E15A7A
:104FF000FA4FE4910E2F10E0EEE0CE2EEFE0DE2E21
:1050000080913603882389F0109236030E944B1258
:10501000980120953095820F931F909334038093CD
:105020003303109238031092370380913303909129
:1050300034030E9450068017910708F45CCFE0917A
:105040003303F09134030E0F1F1F109334030093AA
:10505000330383E393E0F60109954DCF8091680314
:10506000843009F441C010920B0388E190E020E401
:105070000FB6F894A895809360000FBE209360004F
:1050800010923F0380914303811117C081E0809308
:10509000430380913903982F9170909342038E7F40
:1050A000809339038FEF90E7E2E081509040E04039
:1050B000E1F700C000000E94D60C83B7817F8460B6
:1050C00083BF83B7816083BF7894889583B78E7FD1
:1050D00083BF0FB6F894A895809160008861809393
:1050E0006000109260000FBE80916703882309F46E
:1050F00002CF0E94621190E09093140180931301FB
:105100000E94A80B0E94B70BECE0F3E0119223E0A1
:10511000EA31F207D9F70E948725ECE0F3E08191AC
:105120008111DFC043E0EA31F407C9F7E4CE2F5F15
:105130003F4F2630310509F0F5CE0F5F1F4F0E307F
:10514000110509F0E5CE8FEF8E838F8318860E94BC
:105150004B128160782F9A8789874E815F8168859D
:105160008A850E94C6240BCF9F3F19F09F5F9093C2
:105170002003121624F40E94C60580931C0380911C
:105180001C0387FF05C00E94C605819580931C0300
:105190001D1424F40E94C60580931D0380911D03F5
:1051A00087FF05C00E94C605819580931D0330913D
:1051B0001C033323A1F020911D03222381F045EB32
:1051C0003403C0011124992359F190931C0345EB3A
:1051D000240390011124332339F130931D03111658
:1051E00024F40E94A60580931E0380911E0387FF6E
:1051F00005C00E94A605819580931E03101624F415
:105200000E94A60580931F0380911F0387FF05C09E
:105210000E94A605819580931F030E945712CCCE51
:1052200081E080931C03D3CF81E080931D03D7CF0F
:10523000863059F4F0E0E45AFA4FE4910E2F10E072
:1052400072E2C72E7FE0D72EDBCE893061F4E6957F
:10525000F0E0E75AFA4FE4910E2F10E068E8C62E0E
:105260006DE0D62ECDCE8F3061F4E695F0E0EA5AAF
:10527000FA4FE4910E2F10E052EBC52E5DE0D52ED3
:10528000BFCE853159F4F0E0ED5AFA4FE4910E2F7C
:1052900010E040E2C42E4EE0D42EB2CE08EE13E071
:1052A0009EE6C92E9EE0D92E883109F4A9CE83321C
:1052B00041F4F7010591149133EBC32E3EE0D32E58
:1052C0009FCE04EF11E02FE4C22E2DE0D22E8432C7
:1052D00009F496CE00ED17E083E2C82E85E0D82EC3
:1052E0008FCE80E189BD82E189BD09B400FEFDCF8A
:1052F0008091D8008F7D8093D8008091E0008260FB
:105300008093E0008091E00081FDFCCFF4CD9F3FD1
:1053100009F02CCF3DCF1F921FB61F9211248F93FF
:105320009F93AF93BF9380910B03811113C0809122
:10533000E5029091E602A091E702B091E802419661
:10534000A11DB11D8093E5029093E602A093E702B0
:10535000B093E802BF91AF919F918F911F901FBEB4
:105360001F9018951092B9008CE08093B8000895B2
:10537000EF92FF920F931F93CF93DF93182FEB01C0
:105380001092BC0084EA8093BC000E944B127C0106
:105390008091BC0087FF27C08091B900887F88304A
:1053A00029F08091B900887F8031D9F51093BB0036
:1053B00084E88093BC000E944B128C018091BC0059
:1053C00087FF24C02091B900287F90E080E0283139
:1053D000B1F081E090E0203411F490E080E091950C
:1053E000819591090CC0CF3FDC0791F20E944B12CE
:1053F0008E199F098C179D0758F28EEF9FEFDF9152
:10540000CF911F910F91FF90EF900895CF3FDC0750
:10541000A9F20E944B12801B910B8C179D0770F212
:10542000ECCF8FEF9FEFEBCF0F931F93CF93DF93D3
:10543000EB018093BB0084E88093BC000E944B1278
:105440008C018091BC0087FF11C02091B900287F9A
:1054500081E090E0283211F490E080E09195819510
:105460009109DF91CF911F910F910895CF3FDC07F4
:1054700041F30E944B12801B910B8C179D0708F380
:105480008EEF9FEFEECF0F931F93CF93DF93EC013F
:1054900084E88093BC000E944B128C018091BC0078
:1054A00087FF08C08091BB0090E0DF91CF911F91F2
:1054B0000F910895CF3FDC0789F30E944B12801BA8
:1054C000910B8C179D0750F38EEF9FEFEECF84E981
:1054D0008093BC00089587FB082E062687FD8195E2
:1054E00067FD61950E94A72A0EF4919507FC8195AE
:1054F0000895AA1BBB1B51E107C0AA1FBB1FA6171B
:10550000B70710F0A61BB70B881F991F5A95A9F76C
:1055100080959095BC01CD01089597FB072E16F458
:10552000009407D077FD09D00E94792A07FC05D0A6
:105530003EF4909581959F4F0895709561957F4FAA
:105540000895EE0FFF1F0590F491E02D0994991B2B
:1055500079E004C0991F961708F0961B881F7A956A
:10556000C9F780950895F999FECF92BD81BDF89A4B
:10557000992780B50895A6E1B0E044E050E00C948E
:10558000ED2AA8E1B0E042E050E00C94ED2A262F8D
:10559000F999FECF92BD81BDF89A019700B4021629
:1055A00039F01FBA20BD0FB6F894FA9AF99A0FBED7
:1055B00008950396272F0E94C82A0E94C72A252FE4
:1055C0000E94C82A242F0C94C82A0196272F0E94D3
:1055D000C82A0C94C72ADC01CB01FC01F999FECF43
:1055E00006C0F2BDE1BDF89A319600B40D9241506B
:1055F0005040B8F708950F931F93CF93DF938230F5
:10560000910510F482E090E0E0917403F09175034D
:1056100030E020E0B0E0A0E0309799F421153105AA
:1056200009F447C0281B390B24303105C0F58A81A5
:105630009B816115710571F1FB0193838283FE01EA
:1056400011C0408151810281138148175907F8F038
:105650004817590799F4109761F012960C93129716
:1056600013961C933296CF01DF91CF911F910F912A
:1056700008950093740310937503F4CF2115310539
:1056800019F04217530718F49A01BD01EF01DF0129
:10569000F801C2CF9093750380937403D0CFFE01BD
:1056A000E20FF31F819391932250310939832883AC
:1056B000DACF2091720330917303232B41F42091B0
:1056C0000201309103013093730320937203209100
:1056D0000001309101012115310541F42DB73EB78C
:1056E0004091040150910501241B350B4091720338
:1056F000509173034217530708F0B5CF241B350BA5
:105700002817390708F4AFCFBC016E5F7F4F26170B
:10571000370708F4A8CF640F751F70937303609365
:105720007203FA01819391939ECFCF93DF930097F9
:10573000E9F0FC01329713821282C0917403D09178
:105740007503DE0130E020E02097A1F42081318153
:10575000820F931F2091720330917303281739072A
:1057600009F067C0F0937303E0937203DF91CF9168
:105770000895DA01AE17BF0708F040C012964D91A8
:105780005C9113979D014115510599F7D901139625
:10579000FC93EE9312974D915D91A40FB51FEA17FC
:1057A000FB0779F4808191810296840F951FD901BE
:1057B00011969C938E938281938113969C938E93E2
:1057C0001297B0E0A0E08A819B810097B9F5FE01B5
:1057D00081919191E80FF91F809172039091730369
:1057E0008E179F0719F6109761F5109275031092A6
:1057F0007403D0937303C0937203B8CFB383A283AF
:1058000040815181840F951FA817B90771F44E5F2D
:105810005F4F8D919C911197480F591F5183408381
:1058200012968D919C91938382832115310509F005
:10583000ADCFF0937503E093740398CFDE01EC01D4
:10584000C2CF13961C921E921297D3CFFC014150E7
:10585000504030F001900616D1F73197CF010895EE
:10586000882799270895F894FFCF7E0B7E0B870B2E
:10587000870B890B870B870B870B7E0B7E0B8E0BA1
:10588000870B870B8E0B8A13B2135415B213541562
:10589000E513061454150F151C15421951196019FA
:1058A0006F1997199E199C19671F671FD71FD71F5C
:1058B00028204220E4219C1F84205A21692169214B
:1058C00000007603200001191A1B1C1D1E1F202139
:1058D000220102200024055A0C2F0CF90BBE0B01EB
:1058E0000001020202020606060909090909090F58
:1058F0000F0F0F0F0F151515181919191919191957
:105900001919192324000D010D020D030D040D05B5
:105910000D000C010C020C030C040C050C000B0117
:105920000B020B030B040B050B000A010A020A030E
:105930000A040A050A000901090209030904090504
:105940000900080108020803080408050800070107
:1059500007020703070407050700060106020603FE
:1059600006040605060005010502050305040505F4
:1059700005000401040204030404040504000301F7
:1059800003020303030403050300020102020203EE
:1059900002040205020001010102010301040105E4
:0E59A0000100000100020003000400050000E9
:00000001FF
