:100000000C9421040C943E040C943E040C943E0485
:100010000C943E040C943E040C943E040C943E0458
:100020000C943E040C943E040C948B0E0C94CD0D59
:100030000C945B250C943E040C943E040C943E04FA
:100040000C943E040C943E040C943E040C943E0428
:100050000C943E040C941A250C943E040C943E041B
:100060000C943E040C943E040C943E040C943E0408
:100070000C943E040C943E040C943E040C943E04F8
:100080000C943E040C943E040C943E040C943E04E8
:100090000C943E040C943E040C943E040C943E04D8
:1000A0000C943E040C943E040C943E048D078D0782
:1000B000BF07BF0729084508D909D90950082E09E3
:1000C0003F093F09E00B070CB50D070CB50D530CAC
:1000D000760CB50D6B0D7B0D7215751578157B15AE
:1000E0008015851583153317361739173C173F17B9
:1000F0004217451705010980A101850319012AB797
:1001000000150126B700950175108100C0050C0986
:1001100001A101850419012AA002150126A002955A
:100120000175108100C005010906A10185060507BA
:1001300019E029E7150025019508750181020507D9
:10014000190029EF1500250195F0750181020508B8
:100150001901290595057501910295017503910114
:10016000C005010902A1010901A100050919012920
:10017000081500250195087501810205010930095E
:10018000311581257F95027508810609381581256D
:100190007F950175088106050C0A38021581257FB7
:1001A000950175088106C0C00660FF0961A10109BB
:1001B00062150026FF00952075088102096315006D
:1001C00026FF00952075089102C005010906A101CE
:1001D000050719E029E71500250195087501810239
:1001E0009501750881010507190029FF150026FFF3
:1001F0000095067508810005081901290595057502
:10020000019102950175039101C009027400040176
:1002100000A0FA09040000010301010009211101F5
:1002200000012240000705810308000109040100C4
:10023000020300000009211101000122220007052C
:1002400083032000010705040320000109040200C4
:1002500001030102000921110100012247000705E5
:1002600082030800010904030001030000000921C2
:1002700011010001226D0007058503200001120114
:1002800000020000000897327549010001020001D8
:1002900022034500720067006F0044006F00780081
:1002A000200045005A0020005300680069006E00DD
:1002B0006500000028035A0053004100200054004C
:1002C0006500630068006E006F006C006F006700DF
:1002D000790020004C0061006200730000000403FC
:1002E000090400047F3F1F643214643214783C1EFA
:1002F0001E140A0529002B003500E1000151000001
:100300001E00140004001D64E00022021F001A00F9
:1003100016001B00E200060120000800070006008E
:100320005000E30021001500090019004F003508B6
:10033000220017000A0005000000900026022F028C
:1003400000002F000000145027023002000030008F
:100350000000000723001C000B00110000009100AA
:10036000240018000D00100051004B0025000C0067
:100370000E00360052002C00260012000F0037003D
:1003800023022A00270013003300387421024E0094
:100390002D0031003400280002510000010001004E
:1003A00001000100010000000100045D5000010097
:1003B00002510100075D520051000100035101008C
:1003C0000100065D4F000601500C01000100010014
:1003D000090119014F0C4D0001000100010001004D
:1003E0000000B600010001000000010000004A000A
:1003F00001000100000001000000010001000100F7
:10040000010001000000B7000100240021001E00CF
:10041000270001002E00250022001F00010001001E
:10042000540026002300200037000100550056002C
:1004300057000100010001002E00300230000A02C6
:1004400001000000A6000100FF000100FD00000007
:100450003A00FC00EF0001000100F3003B00ED005A
:10046000EE0001000100F2003C00FC00F000010081
:100470000100F1003D00F900FA0001000100010057
:100480003E00010001000100000001003F000100EA
:100490000000010000000100400001000000010018
:1004A0000000A9004100010001000100000001005E
:1004B0004200010001000100AA00AA00430001005F
:1004C00001000100A900B700440001000100010083
:1004D000A800B60045000100010031000100A8009D
:1004E00001000100010003510100000001000100B2
:1004F0000100010001000000900007050805500DF3
:10050000010001009100180550050D050100350896
:1005100092005205060551050100280593000C05BF
:100520004F050E050100010094000A0517054F0D47
:1005300000000100010001000000010000000100B6
:100540000100010000000100000001009500010011
:100550005000010000000100960001005100010060
:1005600001000100970001005200010001001A087B
:10057000980001004F00010001000100010001008E
:100580000100010001000100005C01000100010008
:10059000010000000100010001000100E000000076
:1005A0000100010001001D00E200E1000100010066
:1005B00001000100E3000100010001000100010051
:1005C00001002C00010001000100010001000100F8
:1005D0000100010001000100000001003A000100DB
:1005E000000001000000010001004A0000004C0072
:1005F0000000105001000100010001000000010096
:1006000001000100010001000100010001000100E2
:1006100001000100010001000100010001000100D2
:100620000100010001000100010038000100E300A9
:1006300001000100010001000100000000010101B2
:10064000010101010101020202020202020202038F
:10065000030303030303030404040404040405055F
:100660000505050606060606070707070708080822
:1006700008090909090A0A0A0B0B0B0C0C0C0D0DD1
:100680000D0E0E0E0F0F0F10101111111212131369
:100690001414151516161717181819191A1A1B1BE2
:1006A0001C1D1D1E1E1F202021222223242425263E
:1006B00026272829292A2B2C2D2D2E2F3031323276
:1006C000333435363738393A3B3C3D3E3F40414282
:1006D000434445464748494A4C4D4E4F5051535468
:1006E000555658595A5B5D5E5F616264656668691C
:1006F0006B6C6D6F7072737577787A7B7D7E80829C
:10070000838587888A8C8E8F91939596989A9C9EE4
:10071000A0A2A3A5A7A9ABADAFB1B3B5B7BABCBEF4
:10072000C0C2C4C6C9CBCDCFD1D4D6D8DBDDDFE2C1
:10073000E4E7E9EBEEF0F3F5F8FAFDFFFFAA7F55E9
:10074000402223252628292A2C2D2F3032333536D6
:10075000383A3B3D3E4042434547494A4C4E505152
:10076000535557595A5C5E6062646668696B6D6F79
:1007700071737577797B7D7F81838587898A8C8E7C
:1007800090929496989A9C9E9FA1A3A5A7A8AAAC84
:10079000AEAFB1B3B4B6B8B9BBBCBEBFC1C2C3C5BE
:1007A000C6C7C9CACBCCCDCED0D1D2D2D3D4D5D660
:1007B000D7D7D8D9D9DADADBDBDBDCDCDCDCDCDD93
:1007C000DDDDDDDCDCDCDCDCDBDBDBDADAD9D9D877
:1007D000D7D7D6D5D4D3D2D2D1D0CECDCCCBCAC90F
:1007E000C7C6C5C3C2C1BFBEBCBBB9B8B6B4B3B13E
:1007F000AFAEACAAA8A7A5A3A19F9E9C9A989694D9
:1008000092908E8C8A89878583817F7D7B797775AD
:1008100073716F6D6B6968666462605E5C5A59578C
:10082000555351504E4C4A4947454342403E3D3B4B
:100830003A3836353332302F2D2C2A2928262523D5
:10084000220011241FBECFEFDAE0DEBFCDBF11E0E2
:10085000A0E0B1E0EEE8F8E502C005900D92A23A02
:10086000B107D9F726E0A2EAB1E001C01D92AD348C
:10087000B207E1F70E94EB0F0C94452C0C9400009A
:10088000A5E2B0E0E6E4F4E00C947F29FC0180816D
:10089000918123813481232B31F09F3F31F491E00A
:1008A0008F3F19F403C091E001C090E090FDBFC5F7
:1008B0007F0185E0DE01919601900D928A95E1F726
:1008C000D70112962C9189A19AA1222349F00E9466
:1008D000C017182F682F89A19AA10E94E51903C09B
:1008E0000E94B019182F69A17AA1812F0E94FD1BC7
:1008F0008C018091A404811147C0F701828181118C
:10090000B3C00530FDE51F0729F198F404303DE53B
:10091000130709F0A9C00E949C170E94B71A0E94F1
:10092000A61A84EA91E09093D6048093D50481E0DE
:100930001EC007308DE51807E9F008309DE519075E
:1009400009F092C060910A0170910B014FEF8EE99E
:1009500094E017C00E949C170E94B71A0E94A61A22
:100960008EE994E09093D6048093D50482E080933E
:10097000A4044DC560910C0170910D0141E084EA21
:1009800091E00E94E52543C5980124503D45233060
:10099000310508F052C091E00630ADE51A0709F4C0
:1009A00090E0F7012281291709F431C58130A1F0C7
:1009B000823009F03FC00091D5041091D604109206
:1009C000D705609135067091360680913706909173
:1009D00038060E94571526C00091D5041091D60400
:1009E0001092D705609135067091360680913706D2
:1009F000909138060E945715F1E0043A1F0739F02C
:100A0000F80136978281882311F08F01F5CF10937A
:100A10000D0100930C010EC0F801369682818823E7
:100A200029F08F0124E00E391207B1F710930B0162
:100A300000930A011092A404EAC4813059F0823074
:100A400099F460910C0170910D0197014FEF8EE9BF
:100A500094E008C060910A0170910B01970141E098
:100A600084EA91E00E94D80A9091D704D7011296A7
:100A70008C91992309F44DC08111C9C4E091A5045A
:100A8000E330A0F481E08E0F8093A504F0E0EE0F38
:100A9000FF1FE25FFA4FD7018D919C919183808374
:100AA00082E08983CE0101960E94BF0FBFEFE3ED84
:100AB000F0E3B150E040F040E1F700C00000809169
:100AC000A504833009F0A3C41092A504E4E1F5E085
:100AD000AEE0B5E08AE195E0318111962C91119755
:100AE00032132EC030812C9132132AC032961296C6
:100AF0008E179F0789F784E0898381E08093D8046B
:100B00008EEF8A831092D704CE0101960E94BF0F08
:100B10007EC49091D8049923C1F0882311F086E017
:100B200001C087E08983D7018C918A8311968C91CB
:100B30008B838EEF8C83CE0101960E94BF0F05C080
:100B400083E089831092D804DBCFF70182810F3ACA
:100B5000FDE51F0709F040C0882309F453C09091B8
:100B6000DC0481E0890F8770987F853020F4892B21
:100B70008093DC0402C09093DC048091DC048770D5
:100B8000BFEF8B9FC001112495958795959587950B
:100B90009927909389008093880090938B0080938D
:100BA0008A0090938D0080938C004091DC045091DA
:100BB000DD046091DE047091DF048FE090E00E941C
:100BC000522A6091350670913606809137069091D1
:100BD00038060E94571516C0003BEDE51E0741F090
:100BE000013BFDE51F0771F4882309F410C426C0FA
:100BF000882309F40CC49091A60481E0892780938E
:100C0000A60405C4D70112968C918111CEC08091A3
:100C1000CB0582720D3C2CE5120709F4ACC0B8F08C
:100C2000023D3CE5130709F4B3C008F062C00F3C75
:100C30009CE5190709F4A6C008F04EC081E004C085
:100C400081608093300686950E94DD22E0C3073CD8
:100C50009CE5190709F47BC0D8F4043CBCE51B07EC
:100C600009F46BC030F4033CFCE51F0709F45EC0D7
:100C700008C1053C2CE5120709F464C0063C3CE5BC
:100C8000130709F0FEC047E452E261E572E277C063
:100C90000A3C9CE5190709F464C078F4083CBCE5FB
:100CA0001B0709F459C0093CECE51E0709F0E9C02F
:100CB0004AE352E26DE272E262C00B3CFCE51F07C0
:100CC00009F454C00C3C2CE5120709F0DAC046E9DF
:100CD00050E268EA70E253C0003DBCE51B0709F42E
:100CE00054C0013DECE51E0709F0CBC06EE089E081
:100CF00057C0053DFCE51F0709F450C060F4033DF3
:100D00003CE5130709F447C0043D8CE5180709F0DA
:100D1000B8C088E199CF063D9CE5190709F443C0A6
:100D20000F35ADE51A0709F472C3ABC080913006E8
:100D300080FF86CF0E94DC206AC341EE52E26BEE58
:100D400072E21DC04BEE52E261EE72E218C041E564
:100D500052E267E472E213C04DE252E26AE372E2E9
:100D60000EC043E152E260E272E209C040E252E2A8
:100D700063E172E204C048EA50E266E970E20E9470
:100D80004F2645C365E082E00BC068E086E008C0FE
:100D900064E18FE005C067E185E102C062E289E1BC
:100DA0000E943C2634C383E24FCF0C35BDE51B07C0
:100DB00009F462C060F40115FCE51F07A9F00F3DBE
:100DC0002CE5120709F05DC00E94B01D4AC00E3527
:100DD0003DE5130709F448C008F450C0093A9DE501
:100DE000190709F43EC04DC00E94B71AAFEFB4E333
:100DF000ECE0A150B040E040E1F700C00000F89402
:100E000081E08093E00080E28093D8001092C900D6
:100E10008FE19EE40197F1F700C000001DBA109227
:100E200068001CBC10BE1FBA10927A0010926E00AF
:100E300010926F0010927100109272001092C9000F
:100E40001092BC0014B817B81AB81DB810BA109296
:100E5000BC0015B818B81BB81EB811BA0C94003FE6
:100E6000D6C20E944115D3C28091450682FB8827D5
:100E700080F991E0892703C081E001C080E00E94F1
:100E8000AB1EF701828100811181882349F0C801DE
:100E90000E94C017D82E682FC8010E94E51904C00F
:100EA000C8010E94B019D82EB8018D2D0E94FD1BDB
:100EB0000E94161C8C01982EF701D280A580A29466
:100EC0009FE0A9228091A9058770B9F0DD20A9F0E3
:100ED000812F807F803421F080E2800F883068F09D
:100EE0008091450682FF09C082E00E948E1E80919B
:100EF000A9058770CC24C3948111C12CB12EB29462
:100F00008FE0B8228B2D90E08C30910508F051C213
:100F1000FC01EA5AFF4F0C94E92A812F807F1F7051
:100F2000882311F01295107FDD20B9F0112309F408
:100F30002DC280E2800F883010F0911006C08091A1
:100F4000CB05182B1093CB0505C08091CA05182B33
:100F50001093CA050E94391E19C2802F0E94DE1A02
:100F6000112309F426C2005E083078F1992069F156
:100F700010958091CA0518231093CA0529C0812FA6
:100F8000807F1F70803211F01295107F992021F020
:100F9000F1E09F16D9F147C08091450682FD1BC044
:100FA000DD2069F0112339F08091CB05182B1093C7
:100FB000CB050E94391E80E00E94131BFAC180E01D
:100FC0000E94DE1A112309F4F4C1812F0E94321EFF
:100FD0000E94391EEEC1DD2081F08091CC05AA204F
:100FE00051F001E0A01207C0182B181709F4E1C155
:100FF0001093CC05DEC1812B10C0AA2021F021E086
:10100000A21609F4D6C10E942C1E1FC0DD2041F09B
:1010100031E03A1508F4CDC1812F0E94D41AC9C11C
:10102000A110C7C112C0DD2019F0AA20A9F3AEC1DA
:10103000AA2059F0093309F0B9C18FEF97EEA3E068
:1010400081509040A040E1F7AFC1812F0E94CD1A9E
:10105000B0C1812F86958695837019F0813059F043
:10106000A8C1DD2019F0C801937002C080E090E0B3
:101070000E94C225A4C1DD2019F0C801937002C0EE
:1010800080E090E00E94AC259AC1802FDD2019F00D
:101090000E94AB2302C00E94F6220E9406248FC148
:1010A000812F837009F069C0D11087C1902F92956C
:1010B00096959770990F990F802F8F70882E912C8D
:1010C000A12CB12C092E04C0880C991CAA1CBB1C95
:1010D0000A94D2F704FF12C04FE050E060E070E0E5
:1010E00004C0440F551F661F771F9A95D2F7DB0186
:1010F000CA0180959095A095B09503C080E090E0DE
:10110000DC0116951695412F4370423019F1C8F451
:101110000091CD051091CE052091CF053091D005DD
:10112000413059F088299929AA29BB29BC01CD0150
:1011300060237123822393230AC0802A912AA22A42
:10114000B32ABC01CD01682979298A299B290E94EB
:10115000AC1A33C188299929AA29BB290091CD0548
:101160001091CE052091CF053091D005BC01CD0165
:101170006027712782279327EACFDD2019F0812F7E
:10118000817001C08695882309F417C1902F92952C
:1011900096959770990F990F802F8F70882E912CAC
:1011A000A12CB12C092E04C0880C991CAA1CBB1CB4
:1011B0000A94D2F704FF12C04FE050E060E070E004
:1011C00004C0440F551F661F771F9A95D2F7DB01A5
:1011D000CA0180959095A095B09503C080E090E0FD
:1011E000DC0116951695412F43704230D9F068F511
:1011F0000091350610913606209137063091380659
:10120000413059F088299929AA29BB29BC01CD016F
:1012100060237123822393231EC0802A912AA22A4D
:10122000B32A13C088299929AA29BB290091350618
:10123000109136062091370630913806BC01CD0159
:10124000602771278227932706C0BC01CD0168293A
:1012500079298A299B290E941B1AAFC01F70DD20A3
:1012600039F0812F0E94841A802F0E94D41AA5C0C1
:10127000802F0E94CD1A812F0E945E1A9EC0802F5F
:10128000B2EF9B1609F441C0B91538F0E0EF9E1695
:1012900059F0F1EF9F16A1F174C023EF9216E1F11E
:1012A00034EF931649F16DC0DD2009F1A11081C022
:1012B0001F7181E090E0A0E0B0E0AC01BD0104C08E
:1012C000440F551F661F771F1A95D2F78091350678
:1012D00090913606A0913706B09138068A019B019D
:1012E000082719272A273B27C901B80125C021E073
:1012F0002A1508F45EC0DCCF8091450682FD22C02D
:10130000DD2029F0812F8F712FC0DD20D9F3812FAF
:101310008F710E945E1A4DC0DD2089F01F7181E03F
:1013200090E0A0E0B0E0BC01CD0104C0660F771FE3
:10133000881F991F1A95D2F70E941B1A3AC00E9463
:10134000A61A37C0DD2099F01F71812F0E94841AE0
:101350008091450682FF07C038E0139FC001112429
:1013600083608093A905812F0E94841A22C081E0A6
:101370000E948E1E81E08A15E0F482E00E948E1E9B
:1013800018C0DD2029F0AA2009F4BCCF802F14CE8C
:10139000AA2009F4BCCF893349F49FEFA7EEB3E04C
:1013A0009150A040B040E1F700C00000802F0E94A3
:1013B000DE1A88EF8B0D843010F40E94D825CC20E3
:1013C000A9F08091A90580FD11C0F70112828595D1
:1013D000859585950E94841AC7010E9440048091DA
:1013E000A9058595859585950E945E1A85E0F7018A
:1013F000DE01119601900D928A95E1F709811A811B
:10140000C8010E94B019B8010E94FD1B10C0809154
:10141000A905877061F0D70112968C91882339F065
:101420008091450682FF03C082E00E948E1EA59631
:10143000ECE00C949B298091CD0487FF11C0809132
:10144000E80082FD05C08091D9048111F8CF11C058
:101450008091E8008B770BC08091D904882349F0F4
:101460008091E80080FFF8CF8091E8008E7780932C
:10147000E8000895982F973068F59093E900981741
:1014800039F07091EC002091ED005091F00003C014
:10149000242F762F50E021FD02C09F5FECCF3091CA
:1014A000EB003E7F3093EB003091ED003D7F3093B9
:1014B000ED003091EB0031603093EB007093EC0065
:1014C0002093ED005093F0002091EE0027FDE5CF32
:1014D00080E008958F708093E90081E00895209165
:1014E000D3043091D4042617370748F061157105ED
:1014F00039F42091E8002E772093E80001C0B9016B
:10150000FC0120E06115710579F18091D9048823EF
:10151000F1F18530F1F18091E80083FD3CC08091CC
:10152000E80082FD2EC08091E80080FFEBCF209183
:10153000F3008091F20090E0922B6115710551F05B
:101540008830910538F421912093F10061507109A0
:101550000196F3CF21E0089709F020E08091E800A0
:101560008E778093E800CECF2111CFCF0AC0809133
:10157000D904882361F0853061F08091E80083FD13
:101580000AC08091E80082FFF2CF80E0089582E0F7
:10159000089583E0089581E008950895BC0184E0F2
:1015A0000E94EF240895BC0183E00E94EF24089577
:1015B000F9012281A091D504B091D604211103C074
:1015C000A817B907C9F086E04802A0011124CD018F
:1015D000841B950B6817790779F086E001900D92CE
:1015E0008A95E1F78091D5049091D604480F591F50
:1015F0005093D6044093D5040895AAE2B0E0E3E006
:10160000FBE00C948829EDECF4E085ED94E020916A
:10161000F10021938E179F07D1F78091CE0483307C
:1016200009F463C030F4813071F0823009F49DC058
:10163000B4C08A3009F489C08B3009F46EC0893097
:1016400009F0ABC020C08091CD04813A09F0A5C05B
:101650008091E800877F8093E8008091D104909189
:10166000D204892B21F460E28AEA94E003C060E0AE
:1016700080E090E070E00E946F0A8091E8008B7734
:101680008093E8008AC08091CD04813209F085C042
:101690008091D1049091D204009719F0039709F03A
:1016A0007CC08091E800877F8093E8008091E8000B
:1016B00082FD05C08091D9048111F8CF6EC02091C0
:1016C000F3008091F20090E0922B029731F4809128
:1016D000F100813011F0863021F48091F100809387
:1016E000A9048091E8008B7754C08091CD04813AA1
:1016F00009F053C08091D1049091D204892B09F054
:101700004CC08091E800877F8093E8008091E800DA
:1017100080FFFCCF80910E0137C08091CD048132D3
:10172000E1F58091D1049091D204892BB1F580919B
:10173000E800877F8093E8000E941B0A8091CF0415
:1017400080930E010E94B71A28C08091CD04813287
:1017500021F58091E800877F8093E8000E941B0AB2
:101760008091D0048093A80418C08091CD04813A60
:10177000A1F48091E800877F8093E8008091E800E1
:1017800080FFFCCF8091A8048093F1008091E80055
:101790008E778093E8000E941B0A8091E80083FF07
:1017A000E4C18091CD049091CE04492F50E04A309D
:1017B000510508F0DAC1FA01EE59FF4F0C94E92AFD
:1017C000803821F0823809F0D0C108C08091CA0465
:1017D0009091CB04992389F082600FC08091D1044D
:1017E0008F70873008F0C1C18093E9008091EB00D1
:1017F00085FB882780F91092E9009091E800977F97
:101800009093E8008093F1001092F10070C1282FAE
:101810002D7F09F0AAC1882319F0823061F0A5C19B
:101820008091CF04813009F0A0C1933009F080E0AD
:101830008093CB042EC08091CF0481112AC0809167
:10184000D1048F702FEF280F263008F08EC18093BF
:10185000E9002091EB0020FF1CC0933021F480911F
:10186000EB00806214C09091EB0090619093EB00CC
:1018700021E030E0A90102C0440F551F8A95E2F72C
:101880004093EA001092EA008091EB008860809318
:10189000EB001092E9008091E800877F8093E800D8
:1018A0000E941B0A62C1811160C11091CF041F7791
:1018B0008091E3008078812B8093E3008091E800A1
:1018C000877F8093E8000E941B0A8091E80080FFD8
:1018D000FCCF8091E30080688093E300111102C087
:1018E00082E001C083E08093D9043FC180588230F8
:1018F00008F03BC12091CF043091D0042C3D53E03F
:10190000350779F583E08A838AE289834FB7F894B3
:10191000DE01139620E03EE051E2E32FF0E0509329
:101920005700E49120FF03C0E295EF703F5FEF7036
:101930008E2F90E0EA3010F0C79601C0C0968D93CC
:101940009D932F5F243149F74FBF8091E800877F37
:101950008093E8006AE270E0CE0101960E946F0A6F
:10196000B4C08091D1049091D204432F55274330C5
:101970005105A9F068F44130510509F405C1423020
:10198000510509F0F2C084E790E0EAE0F2E04BC0D4
:101990004132510529F14232510589F1E6C0C901B0
:1019A000992781309105A1F058F0029709F0DDC028
:1019B000E0E9F2E0E4918E2F90E0E0E9F2E030C05F
:1019C000EEEDF2E0E4918E2F90E0EEEDF2E028C033
:1019D000E4EBF2E0E4918E2F90E0E4EBF2E020C043
:1019E0008430910508F0C1C0880F991FFC01E85CA4
:1019F000FE4F0190F081E02D89E090E014C084302A
:101A0000910508F0B2C0FC01EE0FFF1FE05DFE4F34
:101A10000190F081E02DDC01A45DBE4F8C9190E03F
:101A2000009709F4A2C02091E800277F2093E800E6
:101A30002091D3043091D4042817390708F4C90140
:101A400040E0009789F12091D904222309F43DC098
:101A50002530D9F12091E80023FD37C02091E8001E
:101A600022FD2FC02091E80020FFEBCF4091F30032
:101A70002091F20030E0342B009759F028303105E6
:101A800040F444914093F100319601972F5F3F4F0E
:101A9000F3CF41E02830310509F040E02091E80023
:101AA0002E772093E800CDCF4111CDCF0AC0809191
:101AB000D904882351F0853041F08091E80083FDFE
:101AC00004C08091E80082FFF2CF8091E8008B771C
:101AD0008093E8004AC0803809F047C08091E80050
:101AE000877F8093E8008091CC048093F1008091FF
:101AF000E8008E77D3CE811138C08091CF049091C9
:101B0000D004992702978CF58091E800877F809315
:101B1000E8001091CF041093CC040E941B0A11110D
:101B200006C08091E30087FD02C081E001C084E02F
:101B30008093D90442E061EC81E00E943A0A42E0DD
:101B400061EC82E00E943A0A42E261EC85E00E9488
:101B50003A0A42E261EC83E00E943A0A42E260EC17
:101B600084E00E943A0A8091D9048091E80083FFC2
:101B700010C08091E800877F8093E8008091EB009F
:101B800080628093EB0005C082E190E0EEE7F2E036
:101B90004ACFAA96E3E00C94A4291F920F920FB6A5
:101BA0000F9211242F933F934F935F936F937F93E3
:101BB0008F939F93AF93BF93CF93DF93EF93FF9355
:101BC000C091E900CF708091EC00D82FD17080FDDA
:101BD000D0E81092E9008091F000877F8093F000B8
:101BE00078940E94FD0A1092E9008091F0008860CC
:101BF0008093F000CD2BCF70C093E900FF91EF915F
:101C0000DF91CF91BF91AF919F918F917F916F9114
:101C10005F914F913F912F910F900FBE0F901F90AA
:101C20001895E8EDF0E080818E7F80831092E200CD
:101C30001092DA001092E100A0EEB0E08C91816089
:101C40008C9380818F77808319BCA7EDB0E08C9155
:101C50008E7F8C9380818F7E80831092A70408955D
:101C6000A0E0B0E0E6E3FEE00C948329C8EDD0E00C
:101C700088818F7E8883E7EDF0E0808181608083BA
:101C800084E082BF81E08093A70488818E7F88836F
:101C900002EE10E0F80110821092DA0081EEC82EF8
:101CA000D12CF601108288818F77888388818068A3
:101CB000888388818F7D888319BC1092D904109203
:101CC000CC041092CB041092CA0490EEE92EF12CB1
:101CD000F70180818B7F808388818160888342E0E7
:101CE00060E080E00E943A0AF60180818E7F808366
:101CF000F801808181608083808188608083F70122
:101D000080818E7F8083888180618883CDB7DEB7B4
:101D1000E8E00C949F291F920F920FB60F921124A6
:101D20002F933F934F935F936F937F938F939F93E3
:101D3000AF93BF93EF93FF938091E10082FF09C0BF
:101D40008091E20082FF05C08091E1008B7F80934B
:101D5000E1008091DA0080FF2AC08091D80080FFE6
:101D600026C08091DA008E7F8093DA008091D900BE
:101D700080FF18C080E189BD82E189BD09B400FE01
:101D8000FDCF81E08093D9048091A70481110FC019
:101D90000E94110E0E94300E8091E20084608093B8
:101DA000E20005C019BC1092D9041092A7048091DA
:101DB000E10080FF17C08091E20080FF13C0809196
:101DC000E2008E7F8093E2008091E2008061809348
:101DD000E2008091D80080628093D80019BC85E031
:101DE0008093D9048091E10084FF30C08091E200AB
:101DF00084FF2CC080E189BD82E189BD09B400FE69
:101E0000FDCF8091D8008F7D8093D8008091E10034
:101E10008F7E8093E1008091E2008F7E8093E200CC
:101E20008091E20081608093E2008091CC0488235D
:101E300011F084E007C08091E30087FD02C081E0DB
:101E400001C083E08093D9048091D9048091E1009E
:101E500083FF27C08091E20083FF23C08091E100CF
:101E6000877F8093E10082E08093D9041092CC04B4
:101E70008091E1008E7F8093E1008091E2008E7F6F
:101E80008093E2008091E20080618093E20042E072
:101E900060E080E00E943A0A8091F00088608093C0
:101EA000F000FF91EF91BF91AF919F918F917F9142
:101EB0006F915F914F913F912F910F900FBE0F90B7
:101EC0001F9018952091E4003091E50095E640912F
:101ED000EC00842F817040FF23C08091E80080FDDA
:101EE0001DC08091D904882399F0853099F08091A4
:101EF000EB0085FD11C04091E4005091E5002417EE
:101F0000350729F3915011F09A01E1CF84E008954B
:101F100082E0089583E0089581E0089580E00895C7
:101F20004091E80042FFDDCF0895EF92FF920F93BA
:101F30001F93CF93DF937C018B010E94620F81116D
:101F400019C0E70101151105A1F08091E80085FD98
:101F50000AC08091E8008E778093E8000E94620FAB
:101F6000882381F307C089918093F1000150110902
:101F7000E9CF80E0CDB7DEB7E6E00C94A129CF939E
:101F80002091D904243029F5C091E900CF70309117
:101F9000EC00232F217030FD20E8C22B23E020939A
:101FA000E9002091E80020FF11C040E050E060E22D
:101FB00070E00E94950F882321F01092D7041092B0
:101FC000D8048091E8008E778093E800CF70C093AA
:101FD000E900CF910895CF93DF93CDB7DEB7CC550D
:101FE000D1090FB6F894DEBF0FBECDBF85B78068AC
:101FF00085BF85B7806885BF84B7877F84BF0FB6EC
:10200000F894A89580916000886180936000109298
:1020100060000FBE90E080E80FB6F89480936100F6
:10202000909361000FBE88EB9BE19093A301809396
:10203000A2010E94110E0E94300E8091E200846085
:102040008093E20078948091D9048823A1F01091C4
:10205000E9001F709091EC00892F817090FD80E85D
:10206000182B1092E9008091E80083FD0E94FD0A80
:102070001F701093E90082E084BD93E095BD9AEF54
:1020800097BD80936E000E940E1690E090931D0104
:1020900080931C010E9449170E948F17E0EEF4E024
:1020A000A0EFB4E011921D9224E0EE3EF207D1F7CA
:1020B0008EE090E00E940A2B8093DA049093DB0478
:1020C000FC010E961192E817F907E1F789EA80936F
:1020D000800089E08093810024982C983F988AB1F1
:1020E0008F7C8AB96E98479A8BB180638BB9769A48
:1020F0008FE090E00E94242A6093DC047093DD045A
:102100008093DE049093DF0467703FEF639FB0011C
:102110001124759567957595679577277093890054
:102120006093880070938B0060938A0070938D0099
:1021300060938C000E94851680E090E00E942A2A1D
:10214000883E9E4F11F00E94B01D82E090E00E94F8
:102150001C2A8093FE0484E090E00E941C2A182F21
:1021600082E290E00E941C2A212F30E0382B30932D
:1021700045062093440683E090E00E941C2A682FC5
:1021800070E080E090E00E94AC1A6091350670919A
:10219000360680913706909138060E9457150E94A6
:1021A000A322609135067091360680913706909192
:1021B00038060E9457158FE091E090933C0680937B
:1021C0003B06A8E1EA2EF12CB0E4DB2E8091D90485
:1021D000853009F07BC0BB24B39400E112E180910B
:1021E000D904853009F065C08091D904843009F4A0
:1021F0003DC01092F0058091EF04811116C0B0929D
:10220000EF0480913006982F91709093EE048E7FAA
:10221000809330068FEF90E7E2E081509040E040FD
:10222000E1F700C000000E946C2610923F060FB636
:10223000F894A895E09260000FBED092600083B73A
:10224000817F846083BF83B7816083BF78948895E2
:1022500083B78E7F83BF0FB6F894A89580916000F6
:10226000886180936000109260000FBE8091CB0463
:10227000882309F4B4CF0E940E1690E090931D01BC
:1022800080931C010E9449170E948F17E0EFF4E031
:10229000119224E0EE3FF207D9F70E943A1FE0EFD7
:1022A000F4E081918111E1C234E0EE3FF307C9F718
:1022B00096CF0E94B71A0E94D8251092EF04809101
:1022C000EE0481110E949A220E9456260E943A1F13
:1022D000882359F08FB7F8944091400650914106F9
:1022E00060914206709143068FBFEFEFF4E0A0EFDC
:1022F000B4E000E010E0302F2D9191919227A1F1F0
:1023000080E0BB24B394492F4B2151F164968FAFE9
:10231000649765963FAF65972B2181E009F480E0D3
:1023200066968FAF66970E944F258160782F6896DA
:102330009FAF8EAF689764964FAD649765965FAD1B
:10234000659766966FAD669768968FAD68970E94A1
:102350005414F801E150FB4F8081B826B0822AC0A6
:102360008F5FBB0C863079F60F5F1F4F0E30110563
:1023700009F0C1CF8FEF69968FAF69976A968FAFDB
:102380006A976B961FAE6B970E944F258160782FDE
:102390006D969FAF8EAF6D9769964FAD69976A96B0
:1023A0005FAD6A976B966FAD6B976D968FAD6D97BE
:1023B0000E9454148091F005882309F493C0809101
:1023C000EF05E0913006E695E81BE093EB058230DF
:1023D00059F4F0E0E051FD4FE4910E2F10E0FBEDD9
:1023E000AF2EF4E2BF2E59C0863059F4F0E0E3512D
:1023F000FD4FE4910E2F10E0EBECAE2EE4E2BE2E8A
:102400004CC0893061F4E695F0E0E651FD4FE4916F
:102410000E2F10E077E6A72E78E2B72E3EC08F3061
:1024200061F4E695F0E0E951FD4FE4910E2F10E0E4
:1024300061E0A62E68E2B62E30C0853159F4F0E096
:10244000EC51FD4FE4910E2F10E051EBA52E57E219
:10245000B52E23C08831A1F0833249F4E2EEF2E0D8
:102460000591149141E9A42E44E2B42E16C08432A1
:1024700071F404EF11E03EEFA32E36E2B32E0DC04F
:1024800008E210E026E3A22E27E2B22E06C000EDFD
:1024900017E090E3A92E94E2B92E8091EC058823F1
:1024A00061F01092EC050E944F259093EA0580930D
:1024B000E9051092EE051092ED050E944F25E0917E
:1024C000E905F091EA058E1B9F0B8F3F9F4750F463
:1024D0000E0F1F1F1093EA050093E90589EE95E0A2
:1024E000F501099585E0E2EEF5E0DE011196019037
:1024F0000D928A95E1F71092E3051092E40510928F
:10250000E5051092E6051A81111104C08B8188231C
:1025100009F452C08091E0059091E1050E944025A8
:102520009C019091DC05992309F4B5C12531310551
:1025300008F442C09F3F19F09F5F9093DC05112380
:1025400061F00E948D23111614F09FEF01C091E0FD
:10255000899F802D11248093E3051B81112361F055
:102560000E948D23111614F09FEF01C091E0899F06
:10257000802D11248093E4053091E3053323E1F0AD
:102580002091E4052223C1F045EB3403C00111245E
:10259000992319F09093E30503C081E08093E3054C
:1025A00035EB2303C0011124992319F09093E4051E
:1025B00003C081E08093E4051C81111104C08D816A
:1025C000882309F452C08091DE059091DF050E94B6
:1025D00040259C019091DB05992309F460C12531C8
:1025E000310508F442C09F3F19F09F5F9093DB05CF
:1025F000112361F00E946D23111614F09FEF01C0AA
:1026000091E0899F802D11248093E5051D81112380
:1026100061F00E946D23111614F09FEF01C091E04C
:10262000899F802D11248093E6053091E5053323A1
:10263000E1F02091E6052223C1F045EB3403C0010F
:102640001124992319F09093E50503C081E080934C
:10265000E50535EB2303C0011124992319F090936C
:10266000E60503C081E08093E60545E050E0BE0149
:102670006F5F7F4F82EE95E00E94382C892BA9F482
:102680008091E30581110FC08091E40581110BC099
:102690008091E505811107C081E09091E6059111D7
:1026A00003C080E001C081E080FD0E94062485E037
:1026B000FE013196A2EEB5E001900D928A95E1F708
:1026C0000E94D82590910D05891380930D05809166
:1026D000D904843009F07ACD8093E9008091E80034
:1026E00082FF74CD8091E80085FF22C00E94620FB6
:1026F00081111CC000E210E05E0141E2A40EB11C99
:1027000008C08091F100F50181935F01015011092A
:1027100069F08091E80085FDF4CF8091E8008B7727
:102720008093E8000E94620F882399F391E001C032
:1027300090E08091E8008B778093E800992309F47A
:1027400045CD89A18130E9F158F1823021F0843002
:1027500009F480C03BCD8BA19AA190930E05809384
:102760000F058DA19CA190931005809311058FA159
:102770009EA1909312058093130542E150E063E21D
:1027800070E0CE018F5B9F4F0E940C2A84E089830A
:1027900081E08093D8048EEF8A831092D7040CC016
:1027A00019828CE0E0E4F1E0DE01129601900D92D6
:1027B0008A95E1F78EEF8D87CE0101960E94BF0FBB
:1027C00005CD04E115E08AE1A82E85E0B82E0E942F
:1027D0001C26F801819391938F01AE16BF06B9F7BD
:1027E00081E08983909114059A83909115059B83CC
:1027F000909116059C83909117059D8390911805E3
:102800009E83909119059F839EEF98878093D704AC
:10281000CE0101960E94BF0F42E150E063E270E0FA
:10282000CE0101960E940C2AFE01319682E183308E
:102830001CF09189928B01C0128A815031978F3F91
:10284000B1F742E150E063E270E0CE0101960E94F0
:10285000302ABCCC8091D804882309F4B7CC0E94DC
:10286000A61A8AA10E94841AB1CC09BD19BD09B467
:1028700000FEFDCF8091D8008F7D8093D80080919D
:10288000E00082608093E0008091E00081FDFCCF59
:102890000E94B71AA4CC232B09F04ECE8DCE21393D
:1028A000314008F0A2CEE1CEA7E1B0E0EAE5F4E1E4
:1028B0000C9488294B8B5C8B6D8B7E8B8F8B61117D
:1028C0001092CA0586E09E01235F3F4FD901E82F91
:1028D0001D92EA95E9F795E0FE017396D901019002
:1028E0000D929A95E1F79C894E895F897B897D8756
:1028F0009E876F87598B488BF901DE0117960190EF
:102900000D928A95E1F7CE0107960E942918811150
:102910003EC086E0FE013796DE01119601900D92D1
:102920008A95E1F7FF81E8856A857B8561157105E8
:1029300031F0EF3F31F481E0FF3F19F403C081E053
:1029400001C080E080FD23C02091770530E0C901FF
:102950000196877099274091A80550E08417950744
:1029600079F1F983EA837D836C8396E0929FD001AD
:10297000939FB00D1124A858BA4FFE0131960190D3
:102980000D929A95E1F7809377050E94C71E16E095
:102990008091A805909177058917F9F0189FC001DB
:1029A000112488589A4F0E9429188823B1F08091E9
:1029B000A80590E00196877099278093A805E8CF35
:1029C0000E94B71A109277051092A805E1E7F5E08A
:1029D00086E0DF011D928A95E9F76796E3E00C94A3
:1029E000A429CF92DF92EF92FF926C01EE24FF2494
:1029F000C114D104E104F10421F0C701B60120E1C2
:102A000001C020E0C72ED82EE92EFF24C114D10426
:102A1000E104F10419F0285FC701B6016B017C01E4
:102A200054E0F694E794D794C7945A95D1F7C1141B
:102A3000D104E104F10419F02C5FC701B6016B0168
:102A40007C0142E0F694E794D794C7944A95D1F775
:102A5000C114D104E104F10419F02E5FC701B601DD
:102A6000DC01CB01B695A79597958795892B8A2B85
:102A70008B2B09F02F5F822FFF90EF90DF90CF908C
:102A800008950E94B71A2FEF84E39CE02150804004
:102A90009040E1F700C000009AE088E10FB6F8949A
:102AA000A895809360000FBE90936000FFCFCF92F7
:102AB000DF92EF92FF926B017C010E94F114569815
:102AC0005E9825982D9826982E9827982F98482F0D
:102AD00050E0FA013197E730F105E0F4E459FF4F97
:102AE0000C94E92A259A2D9A30C0269A2E9A3BC03A
:102AF000279A2F9A46C0259A2D9A269A2E9A4FC029
:102B0000259A2D9A04C0259A2D9A269A2E9A279AAC
:102B10002F9A55C0823039F128F4882341F0813052
:102B2000A1F04DC0833069F18430C9F148C0809173
:102B3000A60481116CC00E949A2281E00E94962214
:102B400020E048EE65EE8EEA37C08091A604811140
:102B50005EC00E949A2281E00E94962220E040EF0F
:102B60006EED84E629C08091A604811150C00E94B8
:102B70009A2281E00E94962220E045ED69EE8BE2E8
:102B80001BC08091A604811142C00E949A2281E05C
:102B90000E94962220E048EA61EF87ED0DC0809107
:102BA000A604811134C00E949A2281E00E949622DC
:102BB00020E046EC6AEE87E90E949A2128C08091C5
:102BC000A604811124C088E090E00E94242A60932A
:102BD0003006709331068093320690933306862F29
:102BE00060FF13C081608093300686950E94DD22CD
:102BF0008091300686950E94DD2221E040913306C7
:102C00006091320680913106D7CF0E94DC20C70147
:102C1000B601FF90EF90DF90CF90089580E290E0B2
:102C200090931D0180931C018091E80581110EC0D5
:102C30000E94912881E08093E8052FEF83ED90E3D7
:102C4000215080409040E1F700C0000064E670E051
:102C500080E40E94972890931D0180931C01892B8A
:102C600009F04EC064E670E080E00E940C29909369
:102C70001D0180931C01892B09F042C064E670E0BD
:102C800080E00E940C2990931D0180931C01892BE8
:102C9000B9F564E670E08FE30E940C2990931D0162
:102CA00080931C01892B61F50E94612964E670E024
:102CB00080E40E94972890931D0180931C01892B2A
:102CC000F9F464E670E08CE00E940C2990931D01F9
:102CD00080931C01892BA1F464E670E080E00E94DF
:102CE0000C2990931D0180931C01892B49F464E603
:102CF00070E08FE30E940C2990931D0180931C01CA
:102D00000E94612980911C010895CF93DF9356980A
:102D10005E9825982D9826982E9827982F98C8E881
:102D2000D0E08FEF90E099838883AAE8B0E0119615
:102D30009C938E93ECE8F0E091838083259A2D9A02
:102D40002FEF80E792E0215080409040E1F700C0F3
:102D50000000269A2E9A2FEF80E792E021508040C3
:102D60009040E1F700C00000279A2F9A2FEF80E7EC
:102D700092E0215080409040E1F700C0000025988B
:102D80002D982FEF80E792E0215080409040E1F7AE
:102D900000C0000026982E982FEF80E792E0215087
:102DA00080409040E1F700C0000027982F98809164
:102DB000DC0487702FEF829FC001112495958795C1
:102DC0009595879599279983888311969C938E93DF
:102DD0009183808356985E9825982D9826982E98F2
:102DE00027982F98DF91CF910895CF93E82F8730C0
:102DF00080F580911C0190911D01892B09F047C03D
:102E0000CE2F64E670E080E40E94972890931D0125
:102E100080931C01892BD1F464E670E082E10E946A
:102E20000C2990931D0180931C01892B79F481E07A
:102E300090E001C0880FCA95EAF764E670E08095DB
:102E40000E940C2990931D0180931C010E9461290E
:102E50001EC090E0FC013797E730F105C0F4ED5853
:102E6000FF4F0C94E92A209A289811C0219A29989A
:102E70000EC0229A2A980BC0239A2B9808C0529A07
:102E80005A9805C0539A5B9802C03E9A4698CF91D3
:102E90000895209828982198299822982A9823986C
:102EA0002B9852985A9853985B983E984698089554
:102EB000CF93873040F580911C0190911D01892BA3
:102EC00059F564E670E081E40E94972890931D0113
:102ED00080931C01892B11F0C0E011C084E690E0C2
:102EE0000E943C2997FF05C090931D0180931C010F
:102EF000F3CFC82FC09510921D0110921C010E94A3
:102F000061298C2F0AC09FB18FB1807F86958695ED
:102F10009370892B809501C080E0CF9108958098AF
:102F2000889A8198899A84988C9A85988D9A86989F
:102F30008E9A87988F9A089581E08093D7050E9492
:102F40004F25259A2D9A089580E090E00E94C22591
:102F500080E090E00E94AC251092CA050E94391EC4
:102F6000E2EEF5E085E0DF011D928A95E9F7109227
:102F7000DC051092DB051092DD050E940624089501
:102F8000A0E0B0E0E6ECF7E10C9482298C01C0905F
:102F90003506D0903606E0903706F09038068091DE
:102FA000CD059091CE05A091CF05B091D005C82A4E
:102FB000D92AEA2AFB2ACFE1D0E0D701C6010C2E9C
:102FC00004C0B695A795979587950A94D2F780FD8A
:102FD00004C0219790F7B12C09C0BC2EB8018C2FEA
:102FE0000E94FD1B0E94161C019799F38B2DCDB7F3
:102FF000DEB7E9E00C949E29CF93DF93EC010E94A9
:10300000C017BE010E94FD1B0E94161CDF91CF91CC
:103010000895FC01808191810E94FC1792959F7018
:10302000963079F010F4925001C09A50923068F4C2
:10303000803F69F018F4883E40F409C0843F29F4C9
:1030400006C0883E20F0813F11F080E0089581E0C5
:103050000895A1E1B0E0EFE2F8E10C9480298C0141
:1030600085E0F801DE011D9601900D928A95E1F749
:10307000F801E280909171056091720540917405AC
:10308000509175054115510531F06F3F31F481E0E4
:103090009F3F19F403C081E001C080E0F82FF17078
:1030A0009F2E80FD1BC1F80130812181C380D48017
:1030B00081E7A82E85E0B82EF0907305F601E41B99
:1030C000F50BFF2009F4C7C080917605E03CF105BF
:1030D00008F092C0482F407F09F051C0621311C020
:1030E00093130FC0FE2CE1100CC08F708061809391
:1030F0007605C5010E94400480917605F80185831C
:103100002AC1C114D10431F02F3F31F481E03F3F97
:1031100019F403C081E001C080E080FD03C081E0BC
:103120008E2502C080E090E0F82FF170FF2E80FF26
:103130001CC08091A8054091770556E0841709F4DA
:10314000E8C090E0589FF001599FF00D1124E85815
:10315000FA4F6181261306C06081631303C0628148
:10316000E61203C001968770E9CFFE2CEE2009F429
:10317000F2C08091760581608093760549C0621324
:1031800006C0931304C0E11002C0F80186C0C80154
:103190000E940918882351F1EE2041F12091760513
:1031A000822F82958F7090E0029774F08091710564
:1031B0009091720598878F831986DB86CA862C8743
:1031C000CE0107960E94400486E0F801A1E7B5E031
:1031D00001900D928A95E1F70E94D11E0AC06217F4
:1031E000C9F0C8010E94091881111EC0C8010E94BF
:1031F0004004FF24F394AFC0482F407F81F781E75C
:1032000095E00E94400486E0F50111928A95E9F765
:10321000F12CA1C09313E5CFE110E3CFF801858332
:10322000C8010E94400454C0EE2001F320917605AD
:10323000822F82958F7090E0029734F28091710511
:10324000909172059A8389831B82DD82CC822E83C2
:10325000CE010196B7CFE03CF105D0F5FE2CEE2073
:1032600029F2621327C0931325C02091760520FD13
:1032700018C0822F82958F70482F50E0411551055C
:1032800081F0F80125834F30510541F08F5F982F71
:103290009295907F822F8F70892B8583C8010E9421
:1032A000400486E0F801A1E7B5E001900D928A950F
:1032B000E1F751C0C8010E940918811185CF8091A2
:1032C0007605816080937605C8010E94400443C062
:1032D00086E0F50111928A95E9F73DC0EE2009F4E8
:1032E00085CFC8010E940918F82E882309F47ECFE3
:1032F00086E0F801A1E7B5E001900D928A95E1F72B
:1033000080917105909172050E94FC170E94D11E58
:1033100022C03D872E878D859E850E94FC17292F10
:1033200022952F70223028F49F7039F0811105C04A
:103330000BC0243028F49F7049F4805E883020F060
:10334000C8010E9440049F2CF92C05C0F80195810A
:10335000907F99F7F9CF8F2D6196EBE00C949C2923
:10336000292F9E3080F5863070F590E036E0239F5F
:10337000800D911D1124682F677023E09695879525
:103380002A95E1F725E0289FF001299FF00D1124EF
:10339000E65EFA4F40E050E080E0219130E0062EFA
:1033A00002C0369527950A94E2F721703327042E40
:1033B00001C0220F0A94EAF7822B4F5F5F4F45301E
:1033C000510559F7089580E00895292F9E3090F512
:1033D000863080F590E036E0239F800D911D11240A
:1033E000282F277051E001C0550F2A95EAF723E0F6
:1033F000969587952A95E1F725E0289FF001299F6A
:10340000F00D1124E65EFA4F20E030E070E04081DC
:10341000CB01022E02C0969587950A94E2F781703F
:10342000819584278523842781932F5F3F4F253003
:10343000310569F70895CF92DF92EF92FF92CF9313
:10344000DF93CDB7DEB7A0970FB6F894DEBF0FBEFF
:10345000CDBF0E9457156B017C018091D804882351
:10346000B1F02FEF80E792E0215080409040E1F7EB
:1034700000C0000085E08983C701B6010E94F114F5
:103480008A838EEF8B83CE0101960E94BF0FC0927C
:103490003506D0923606E0923706F09238060E9442
:1034A000A417A0960FB6F894DEBF0FBECDBFDF9174
:1034B000CF91FF90EF90DF90CF9008950F931F93DF
:1034C00041E050E060E070E004C0440F551F661F0B
:1034D000771F8A95D2F740955095609570958091A9
:1034E000350690913606A0913706B09138068A01CC
:1034F0009B01082319232A233B23C901B8010E94F9
:103500001B1A1F910F9108950F931F9341E050E0F4
:1035100060E070E004C0440F551F661F771F8A9556
:10352000D2F78091350690913606A0913706B0917A
:1035300038068A019B01082B192B2A2B3B2BC9012A
:10354000B8010E941B1A1F910F91089560E070E06E
:10355000CB010E941B1A08956093CD057093CE0590
:103560008093CF059093D0050E94A41708951092E0
:10357000CB0580910E01882331F08091440687FFAE
:1035800002C08EE101C086E0E3E5F5E0DF011D92B7
:103590008A95E9F70E94A4170895882321F00E94D4
:1035A000321E0E94391E0895882339F09091CB0570
:1035B000892B8093CB050E94391E0895882391F1B1
:1035C0009CEF980F913A30F4682F81E595E00E94C6
:1035D00084250DC090E2980F983060F4877091E0D8
:1035E00001C0990F8A95EAF7892F0E94321E0E9426
:1035F000391E08959BE5980F933028F480E090E001
:103600000E94C225089598E5980F973128F480E02C
:1036100090E00E94AC2508958D3E20F00E94F62295
:103620000E9406240895CF93882309F49FC0C82FD1
:103630008CEF8C0F813A08F05BC080910E018823DB
:10364000E1F08091440687FF18C0EC2FE695E695DF
:10365000E695F0E0EF5AFA4F8281282F30E04C2FA8
:10366000477081E090E002C0880F991F4A95E2F709
:1036700082239323892B59F411C0E3E5F5E081916E
:10368000C81729F085E0E935F807C9F707C06C2F9E
:1036900081E595E00E9484250E94391E80910E01EB
:1036A0008823B1F08091440687FF12C0EC2FE69585
:1036B000E695E695F0E0EF5AFA4FC77081E090E0AA
:1036C00001C0880FCA95EAF79281892B828320C0B6
:1036D000A3E5B5E0EFEF80E09D91C917C9F0EF3F9A
:1036E00019F4911101C0E82F8F5F8630A9F735C01A
:1036F00080E28C0F883078F4C77081E090E001C0E0
:10370000880FCA95EAF79091CB05892B8093CB055A
:103710000E94391E2BC0EBE5EC0FE33040F4F0E0E3
:10372000E45BFE4F808190E00E94C2251FC0E8E567
:10373000EC0FE73150F4F0E0EE0FFF1FE15BFE4FBE
:10374000808191810E94AC2511C0CD3E78F08C2FF4
:103750000E94AB230E94062409C0EF3FC9F20E2E3F
:10376000000CFF0BEF5AFA4FC283D2CFCF910895CE
:1037700080E008959091440692FF0DC0282F287193
:10378000283019F4877F846006C0282F24712430E4
:1037900011F48B7F886093FF0DC0282F287128318A
:1037A00019F4877E846106C0282F2471243111F416
:1037B0008B7E88612091450620FF0DC0382F38711F
:1037C000383019F4877F816006C0382F317131306D
:1037D00011F48E7F886021FF0DC0282F28712831B9
:1037E00019F4877E816106C0282F2171213111F4DF
:1037F0008E7E886194FD877E08957E30A0F46630C9
:1038000090F494E5899FF001112486E0789FE00D03
:10381000F11D1124E60FF11DEE0FFF1FEC50FD4FBF
:1038200085919491089580E090E00895CF93DF937F
:103830008238910569F1B0F48133910509F46FC0C4
:1038400048F48932910509F465C08A32910509F47A
:103850006BC08AC08533910509F457C0893391053F
:10386000B9F082C0833E910571F138F4803E910534
:10387000B1F0823E910511F177C0863E9105B9F114
:10388000873E9105C9F1843E910509F06DC024C0C1
:103890002091440620FD53C021FD51C065C0809198
:1038A000440680FD46C08091450680FF48C0809157
:1038B000440684FD50C183EE90E04FC180914406E0
:1038C00082FF3AC0F4CF8091440682FD35C08091DA
:1038D000450680FD34C0EBCF8091450681FF35C0A1
:1038E0008091440684FD37C187EE90E036C1809117
:1038F000440683FF27C0F4CF8091440683FD22C095
:103900008091450681FD21C0EBCF8091440685FD65
:103910001FC021C08091440685FD1DC019C0809143
:10392000440686FD1BC01DC08091440686FD19C05B
:1039300015C089E390E011C182EE90E00EC180EEE7
:1039400090E00BC186EE90E008C184EE90E005C1E6
:1039500089E290E002C185E390E0FFC08AE290E056
:10396000FCC081E390E0F9C0811531E5930708F0D0
:1039700069C0811540E59407F0F09C0174E036952C
:1039800027957A95E1F7922F9370482F437021E0A5
:1039900030E002C0220F331F4A95E2F73C68392B12
:1039A000982F9F709695969540E2949FC0011124A0
:1039B000822B932BD2C0883E910568F5803E9105FD
:1039C00008F0CBC0883A9105B8F4853A910548F0E3
:1039D000855AE82FF0E0E45BFE4F808190E0906430
:1039E000BCC08130910509F4B3C008F4B4C0843080
:1039F000910508F4B0C0B1C08F3B910508F0ABC091
:103A0000885AE82FF0E0EE0FFF1FE15BFE4F808148
:103A100091819464A2C0811520E2920758F4811527
:103A200031E0930708F099C08D3E910508F493C0EA
:103A3000906593C0811540E4940708F48CC09F7092
:103A4000906A8BC0811525E5920708F042C0811568
:103A500034E5930728F0982F8827846F906A7DC0FB
:103A6000811543E59407B0F09C012370332741E0B2
:103A700050E002C0440F551F2A95E2F7282F2695E3
:103A8000269580E2289F90011124CA01822B932B56
:103A90009A6863C0811522E5920728F4982F882739
:103AA000816F906A5AC09C012370332741E050E037
:103AB00002C0440F551F2A95E2F7282F2695269518
:103AC00080E2289F90011124CA01822B932B9C68CD
:103AD00044C0EC01811539E59307A8F48115984598
:103AE00028F09C2F8827806F906A37C0C11586E523
:103AF000D80788F58C2F0E94BA1B8F7190E0982F01
:103B0000882790622AC081152AE5920790F48C2FAD
:103B10008F700E94BA1B94E0D695C7959A95E1F7ED
:103B2000CF70D0E0DC2FCC27D0699E01282BC901B3
:103B300014C090568115904270F48D2F8F710E94A1
:103B4000BA1B282F2F71CE0199279062922B05C0A6
:103B500081E090E002C080E090E0DF91CF91089595
:103B600068EE7EEF80E090E00E945E2A60E082E0F6
:103B700090E00E94402A60E083E090E00E94402AAA
:103B80001092CD051092CE051092CF051092D0055F
:103B900060E084E090E00E94402A64E082E290E0ED
:103BA0000E94402A60E085E090E00E94402A60E0A8
:103BB00086E090E00E94402A6FEF87E090E00E944C
:103BC000402A40E050E0BA0188E090E00E94522A8A
:103BD00060E08DE090E00E94402A40E050E0BA01B1
:103BE00088E190E00E94522A60E087E190E00E9424
:103BF000402A40E050E0BA018CE190E00E94522A55
:103C000060E070E080E290E00E945E2A40E050E0D8
:103C1000BA0188E190E00E94522A1092DC041092CE
:103C2000DD041092DE041092DF0484E08093DC0453
:103C30004091DC045091DD046091DE047091DF045A
:103C40008FE090E00E94522A40E050E0BA0183E108
:103C500090E00E94522A08958091CC058111109223
:103C6000CC05089580959091CB0589238093CB0551
:103C700008959091CB058091CA05982B909351059A
:103C80008091CC058823D9F0892B809351058091B0
:103C90000E01882331F08091440687FF02C08EE137
:103CA00001C086E0E3E5F5E090E0815028F0219145
:103CB0002223D9F39F5FF9CF91110E942C1E40E27D
:103CC00050E06AEA75E081E595E00E94382C892B86
:103CD00021F180E2E1E5F5E0AAEAB5E001900D927C
:103CE0008A95E1F7E0913B06F0913C063097A9F008
:103CF00080910E01882359F08091440687FF07C008
:103D0000809151058093520586E080935105028091
:103D1000F381E02D81E595E0099508952091A905AD
:103D2000809582238093A905982F977099F430E0AD
:103D3000482F082E000C550B2417350759F0909189
:103D4000450692FF07C08595859585950E945E1A68
:103D50001092A9050895CF93C0914506C2FB9927FB
:103D600090F9981791F080FBC2F9C09345066091D5
:103D7000440684E090E00E94402A6C2F82E290E0AA
:103D80000E94402A82E00E948E1ECF910895809169
:103D9000A80590917705891719F08F5F8770FBCF81
:103DA00008950F931F93CF93DF93809176058295AB
:103DB0008F7009F05AC080917305882309F455C0AB
:103DC0008091A80510917705609171057091720539
:103DD000C0917405D091750591E06F3F09F090E0B6
:103DE000292F06E0811709F440C0209721F07F3F7A
:103DF00021F030E003C031E001C0322F90E030FD0F
:103E000031C0089FF001099FF00D1124DF01A8586F
:103E1000BA4F11963C911197371324C03C91361339
:103E200021C012963C91129731111CC013964D91EE
:103E30005C9114974C1B5D0B403C510598F48091AC
:103E400076058F70806180937605E358FA4F808104
:103E50008F708061808381E795E00E9440040E941A
:103E6000C71E03C001968770BDCFDF91CF911F9110
:103E70000F910895A0E0B0E0E0E4FFE10C94822906
:103E800080911C0190911D01892BB9F08091D10581
:103E90008F5F8093D105811110C00E940E1690E0B3
:103EA00090931D0180931C01892B39F40E94851683
:103EB00081E080931B010E94A32200EE14E07801B0
:103EC000B12CC0E087E0C82ECC0E8C2F0E94F516D6
:103ED0008C2D0E94F5168C2F0E9458178F73F701B6
:103EE0009081891721F08083DD24D39401C0D12CE7
:103EF0008C2D0E9458178F73F7019781891719F03D
:103F0000878381E001C080E0D82ABD280E9449173C
:103F1000CF5FFFEFEF1AFF0AC730A1F6C091D505BA
:103F2000CC23C9F10E944F252091D3053091D405AF
:103F3000AC01421B530B9A019093D4058093D30597
:103F40004F3F510509F020F4452B09F4BFC002C0D2
:103F50002FEF30E01092D5051092D205E091DA04EF
:103F6000F091DB04AF01425F5F4F90E030E0808171
:103F7000882341F0281718F010829C2F03C0821B61
:103F800080833C2F3196E417F50789F73093D505E8
:103F90009093D2059BC0BB2009F48FC00E944F258F
:103FA0009093D4058093D305E091DA04F091DB047B
:103FB0008091D505A0EFB4E09F01225F3F4F4EE115
:103FC000E80199918E015C91591731F0508151119E
:103FD00003C040839C9381E031961196E217F3076A
:103FE00079F78093D5052091D7048091D9059091D8
:103FF000DA05222309F43FC0892B31F425982D9846
:1040000026982E9827982F988091D9059091DA05B7
:104010009170892B79F48091D805882319F026981E
:104020002E9802C0269A2E9A9091D80581E0892771
:104030008093D8058091D9059091DA058130984711
:1040400080F01092D7046091350670913606809109
:104050003706909138060E9457151092DA05109293
:10406000D9058091D9059091DA0501969093DA05EA
:104070008093D90510C0892B71F01092DA05109247
:10408000D90560913506709136068091370690917A
:1040900038060E9457158091D7058823D9F02598B6
:1040A0002D988091D6058F5F8093D605853610F0C8
:1040B000259A2D9A0E944F250DC080E09091D2053F
:1040C000992309F490CF81116FCF68CFB1106CCFD5
:1040D00081E0F4CF8B2DCDB7DEB7E9E00C949E29BB
:1040E00080913006282F269530E02115310519F4EE
:1040F0008170826005C02532310524F081708864AA
:10410000809330060895CF92DF92EF92FF926B0179
:104110007C010E947020B701A60188E090E00E9417
:10412000522AFF90EF90DF90CF900895809134064F
:10413000882319F081508093340660913006709185
:10414000310680913206909133060E9483200895B3
:1041500080913406833018F48F5F80933406609129
:1041600030067091310680913206909133060E949C
:1041700083200895E0E3F6E083E0808311828FEFEF
:1041800082838383148260817181828193810E9402
:10419000832008959091300690FF0DC0E4EFF5E084
:1041A0008183608342831382349696E0E033F9077B
:1041B000B9F70E946C260895E0E3F6E080818E7FD7
:1041C000808360817181828193810E94832010921B
:1041D000F0052FEF80E792E0215080409040E1F71A
:1041E00000C000000E946C260895A0E0B0E0EBEF54
:1041F000F0E20C948129E82EF62EE901E42FF0E09C
:10420000611106C0E45CF94FE4914E2F2E2F71C06E
:10421000062F10E0E45CF94F4491F42FC42ED12C0A
:1042200026E0829FC00111242FEF30E0B9010E94E7
:1042300065295BEA5603C001579F900D11248E0D2E
:10424000911D8E0D911D582F550F580FD901A01B90
:10425000B10BAC9DC001AD9D900DBC9D900D112486
:10426000E92FF59ED0011124AB2FBB277901EA1A63
:10427000FB0AEC9CD001ED9CB00DFC9CB00D112410
:104280005901A51AB108A09E7001A19EF00CB09E24
:10429000F00C1124EF2CFF242E193F092C9D8001D6
:1042A0002D9D100D3C9D100D1124212F62307105A4
:1042B00091F048F461157105E1F061307105B9F4D0
:1042C000242F4B2F16C06430710569F040F0663022
:1042D000710579F00CC0242F492FE12F0AC0492F16
:1042E000EF2F2B2F06C0292FE42F412F02C0292F9B
:1042F000EB2F49832883EA831B82CDB7DEB7EAE040
:104300000C949D29A4E0B0E0E8E8F1E20C9489293E
:104310009091300690FF0AC09E012F5F3F4F0E9490
:10432000F5204B8169818A810E94CA202496E2E0AF
:104330000C94A529A4E0B0E0E0EAF1E20C947C2919
:10434000F82E762EE42E622E9091300690FF67C0F4
:10435000E92FE695AE2FB0E0A358BE4F8C91809325
:10436000EF059E7F923061F49E012F5F3F4F8F2DAE
:104370000E94F5204B8169818A810E94CA203DC03C
:10438000823019F4E090330638C0863019F4F0908A
:10439000310633C08930D9F3893179F5E9518E2F4F
:1043A0008170582EE695F0E0E45CF84FE4910E2F12
:1043B00010E084EFC82E85E0D82EA12CB12C9FE010
:1043C000892E912CC501B4010E9465298F2D5110B1
:1043D00002C0860F01C0861B96014E2D672D0E94DC
:1043E000F520A00EB11E84E0C80ED11C80E3C816D3
:1043F00086E0D80639F70E946C26F092310670925A
:104400003206E0923306662051F0609130067091DA
:10441000310680913206909133060E9483202496C3
:10442000EFE00C949829E0E3F6E043812CE0421B96
:1044300008F440E021E0628181810E949A21089580
:10444000E0E3F6E043812CE0420F08F44FEF21E077
:10445000628181810E949A210895E0E3F6E0628101
:104460002FEF621B08F460E021E0438181810E940C
:104470009A210895E0E3F6E062812FEF620F08F4DD
:104480006FEF21E0438181810E949A210895E0E34A
:10449000F6E0818121E0438162818C500E949A2163
:1044A0000895E0E3F6E0818121E043816281845F49
:1044B0000E949A2108959091300690FF36C0917025
:1044C000811102C0926006C0853210F0986402C06B
:1044D000880F982B90933006662351F06091300638
:1044E0007091310680913206909133060E948320AC
:1044F00060913006669570E04BE050E08EE191E00F
:104500000E942B2C892B19F01092F00502C00E94FA
:10451000562681E08093EC0520E0409133066091BF
:104520003206809131060E949A21089560E00E942F
:104530005B220895E0E3F6E08081816080838695C8
:104540000E94962208958091E705811135C080E090
:1045500090E00E942A2A883E9E4F21F00E94B01DC2
:104560000E94BA2088E090E00E94242A60933006DE
:104570007093310680933206909333066E7F71F408
:104580000E94BA2088E090E00E94242A60933006BE
:104590007093310680933206909333060E94702008
:1045A0001092F0058091300680FF03C086950E942E
:1045B000962281E08093E705089561E00E945B22E6
:1045C0000895809130068695815009F484E261E077
:1045D0000E945B2208958091300686958F5F853218
:1045E00008F081E061E00E945B2208958D3E39F47D
:1045F0009091E40597FF35C01092E40559C08E3EB6
:1046000029F49091E4051916BCF32BC09091E305B1
:104610008F3E29F497FF25C01092E30549C0803FE3
:1046200019F41916CCF31DC09091E505893F29F4C2
:104630001916BCF41092E5053BC08A3F19F497FFA8
:1046400010C0F8CF8B3F39F49091E60597FF09C071
:104650001092E6052DC08C3F21F49091E6051916C5
:10466000BCF39FE0980F983080F421E030E0A9017E
:1046700002C0440F551F9A95E2F7CA0180959091A8
:10468000E20589238093E20513C08D3F21F48091D8
:10469000DD058E7F0BC08E3F21F48091DD058D7F7F
:1046A00005C08F3F29F48091DD058B7F8093DD0568
:1046B0008091E305811106C08091E405811102C05B
:1046C0001092DC058091E505811106C08091E60518
:1046D000811102C01092DB0508958091DD0580FDF7
:1046E00018C081FD14C082FD16C08091DB058823AF
:1046F00081F0893180F424E0829FC001112469E1B6
:1047000070E00E94D52A862F672B19F005C082E041
:10471000089581E0089584E008958091DD0580FD8D
:1047200016C081FD12C082FD14C08091DC05882373
:1047300071F0893170F420E2829FC001112469E197
:1047400070E00E94D52A862F089580E1089588E0C0
:10475000089580E208958D3E21F40E948D23819575
:1047600004C08E3E29F40E948D238093E4050895B1
:104770008F3E21F40E948D23819504C0803F29F44F
:104780000E948D238093E3050895893F19F40E94C8
:104790006D2305C08A3F31F40E946D23819580937B
:1047A000E50508958B3F21F40E946D23819504C097
:1047B0008C3F29F40E946D238093E60508959FE0C5
:1047C000980F983078F421E030E0A90102C0440F3E
:1047D000551F9A95E2F7CA019091E205892B8093C3
:1047E000E20508958D3F21F48091DD0581600BC0C5
:1047F0008E3F21F48091DD05826005C08F3F29F452
:104800008091DD0584608093DD0508950E944F2529
:104810002091E305211104C02091E405222321F019
:104820009093E1058093E0052091E505211104C0F6
:104830002091E605222321F09093DF058093DE0589
:10484000E0913B06F0913C06309731F00480F58111
:10485000E02D82EE95E0099508958091A9040895D0
:10486000089522E02093E9002FEF3091E8002150D5
:1048700035FD06C035ED3A95F1F700002111F5CF71
:104880002091E80025FF0BC040E050E065E070E0BB
:104890000E94950F8091E8008E778093E80008953C
:1048A000CF93DF9320910E01222339F0209144060B
:1048B00027FF03C060E225E002C068E021E020930A
:1048C000E9002FEF3091E800215035FD06C035EDAD
:1048D0003A95F1F700002111F5CF2091E80025FF6E
:1048E0001DC0EC0180910E01811105C040E050E037
:1048F00068E070E003C070E040E050E0CE010E944C
:10490000950F8091E8008E778093E80080E2FE01A9
:10491000AAEAB4E001900D928A95E1F7DF91CF9178
:104920000895A4E0B0E0E7E9F4E20C9487298C0153
:104930008091F30581110AC09E012F5F3F4F4FEF19
:104940006FEF0E94F5208A818093F305F80184813E
:10495000813051F028F0823061F44091F3050AC0B3
:104960008091F30540E007C06091F30540E080E0EE
:1049700003C040E080E060E00E94CA20F80184812A
:1049800090E0019663E070E00E94D52A848324962B
:10499000E4E00C94A329CF93DF93EC01E0E3F6E08D
:1049A000438162818C810E9482218C818F5F8C8304
:1049B000DF91CF910895CF93DF93EC01EC81F0E08C
:1049C000EF5BF84F4491E0E3F6E0628181810E9461
:1049D00082218C818F5F8C83DF91CF9108958093AA
:1049E000460670934806609347068091D904843048
:1049F00001F585E08093E9008FEF9091E800815008
:104A000095FD06C095ED9A95F1F700008111F5CF5F
:104A10008091E80085FF0DC040E050E063E070E069
:104A200086E496E00E94950F8091E8008E7780934F
:104A3000E800089578941F920F920FB60F921124F8
:104A40008F939F93AF93BF938091400690914106BF
:104A5000A0914206B09143060196A11DB11D80931D
:104A6000400690934106A0934206B0934306BF913F
:104A7000AF919F918F910F900FBE0F901F9018953F
:104A80009C014FB7F8948091400690914106A09107
:104A90004206B09143064FBF821B930B08952FB778
:104AA000F8948091400690914106A0914206B09101
:104AB00043062FBF08951F920F920FB60F92112435
:104AC0008F939F93AF93BF9380913F06811113C043
:104AD0008091400690914106A0914206B091430614
:104AE0004196A11DB11D8093400690934106A0936D
:104AF0004206B0934306BF91AF919F918F910F9063
:104B00000FBE0F901F90189520910E012223C9F01F
:104B10002091440627FF15C0262F26952695269519
:104B20002E31C8F4FC01E20FF11D677081E090E0C6
:104B300001C0880F6A95EAF7809592818923828364
:104B40000895FC0106962281621301C012823196FB
:104B5000E817F907C1F7089520913D0630913E0608
:104B60002817390771F090933E0680933D06E09137
:104B70003B06F0913C06309721F00084F185E02D52
:104B8000099508952091390630913A06281739077A
:104B900071F090933A0680933906E0913B06F091CC
:104BA0003C06309721F00680F781E02D09950895A5
:104BB000E0913B06F0913C06309729F00190F0819E
:104BC000E02D0995089580E008958F929F92AF920D
:104BD000BF92EF92FF920F931F93CF93DF93EC015D
:104BE0007B01042F8090350690903606A090370602
:104BF000B09038060E94B71A0E94A61A86E00802F2
:104C000080011124CE15DF0531F0CE010E94400451
:104C1000C00FD11FF7CF0E94B71AC501B4010E947F
:104C20001B1ADF91CF911F910F91FF90EF90BF90D2
:104C3000AF909F908F900895CF93DF930E94FC29AF
:104C400066E070E00E94D52AD82F0E94FC296EE011
:104C500070E00E94D52AC82F6D2F782F80E00E9427
:104C6000FD1B0497C59718F48D2F9C2F02C00E943E
:104C70001C26DF91CF9108959091300690FF04C0DB
:104C80009695981748F003C0811106C090E09617DA
:104C900018F40E94EB2208950E94DD2208958823D3
:104CA00011F0FA0101C0FB010995089560913006E9
:104CB000669570E04BE050E08EE191E00E942B2C75
:104CC000892B19F481E08093F0050E944F25909381
:104CD000EA058093E9050895EF92FF920F931F93E1
:104CE000CF93DF938091300680FF08C004EF15E07A
:104CF00080E3E82E86E0F82EF8011BC0E4EFF5E033
:104D000080E396E0118210821282138234968E170D
:104D10009F07C1F7EBCF381708F4832F8383381B25
:104D20003183281B2083981B92833496EE16FF064E
:104D300041F0928120813181892F291760F7822FDC
:104D4000EACF8091E805882381F180911C01909140
:104D50001D01892B51F580911B01882331F164E6F7
:104D600070E084E80E949728892B19F010921B01AB
:104D70001AC0C4EFD5E064E670E088810E940C2977
:104D800064E670E089810E940C2964E670E08A8103
:104D90000E940C2964E670E08B810E940C29249605
:104DA000EC16FD0641F70E946129579A8BB18F7767
:104DB0009BB190682FB7F894E016F10699F0F801CE
:104DC00031918F0148E09BB9000000C037FF8BB9DB
:104DD000330F000000C000C000C08BB900C04A956E
:104DE00091F7EACF2FBF8FE594E00197F1F700C06C
:104DF0000000CDB7DEB7E6E00C94A129EF92FF9258
:104E00000F931F93CF93DF938C01C4EFD5E0E12C78
:104E1000F12CF8018481F7E0EF16F1041CF48823EB
:104E200039F002C0811104C09E014091330602C0D6
:104E30009E0140E060913206809131060E94F5208B
:104E40008FEFE81AF80A24969FE0E916F10409F7B3
:104E50000E946C26F801848190E001968170992768
:104E60008483CDB7DEB7E6E00C94A129A0E0B0E0E2
:104E7000ECE3F7E20C947F29EC014C81042F10E065
:104E80009801D8010E94B82A9B01AC010E94832A94
:104E90006B017C01E0E2F0E0E01BF10BA5E5B0E086
:104EA0009B01AC010E94832A4B015C019F01DF0141
:104EB0000E94EF2A9B01AC010E948E2A9B01AC014B
:104EC0002C0D3D1D4E1D5F1DC501B4010E94962A8B
:104ED000822FF22E99E2921728F093E0299F9001F9
:104EE00011240DC025E530E0281B3109C901880FC8
:104EF000991F280F391F37FF02C02F5F3F4F35958D
:104F00002795122F109594EFC92E95E0D92E00E029
:104F100085E5E82EEF1801FD02C08E2D01C08F2D12
:104F20009601412F609132060E94F5200F5F84E0C8
:104F3000C80ED11C0F3079F70E946C268C8181112C
:104F400002C091E003C0803219F49FEF90932B01CF
:104F500090912B01890F8C83CDB7DEB7ECE00C94D8
:104F60009B290F931F93CF93DF93C4EFD5E0FE01EE
:104F70001182108212821382349686E0E033F807A1
:104F8000B9F700E010E08091F205082E000C990BB3
:104F90000817190794F080912A01082E000C990B2C
:104FA0008017910754F09E014091330660913206BC
:104FB000809131060E94F52004C0198218821A825D
:104FC0001B820F5F1F4F24960F301105E1F60E94E0
:104FD0006C26809129019091F205980F9093F2052B
:104FE00020912A01280F20932A01121614F49E30D2
:104FF0001CF0819580932901DF91CF911F910F9132
:105000000895A0E0B0E0E7E0F8E20C948229FC010A
:10501000828180FF03C0DD24DA9402C0DD24D394B2
:1050200004EF15E0C0E0D0E02FE0B22EF8011182CD
:1050300010821282138294E0E92EF12CC12C80910F
:10504000F1058C0D80312CF06B2D0E94C72A892F21
:1050500002C087FD815F082E000C990BC817D90785
:1050600091F4809133068E9DA0018F9D500D1124E7
:1050700055954795559547959801609132068091D1
:1050800031060E94F520CD0CF1E0EF1AF108B9F6D7
:1050900021960C5F1F4FCF30D10541F60E946C2640
:1050A0008091F10591E0D91206C0811102C08EE015
:1050B00007C0815005C090E00196BE010E94D52A2C
:1050C0008093F105CDB7DEB7E9E00C949E29EF920D
:1050D000FF921F93CF93DF93EC0184EFE82E85E0DE
:1050E000F82E10E08C8197014091330660913206D2
:1050F000810F0E94F5201F5E84E0E80EF11C1F3F27
:1051000089F70E946C269A818C8190FF02C08F5F84
:1051100001C081508C83DF91CF911F91FF90EF9060
:1051200008951092B9008CE08093B8000895A0E033
:10513000B0E0EDE9F8E20C948029B82EEB010E9472
:105140004F256C01C431D10558F0CF3F8FEFD80700
:1051500059F0CE0164E170E00E9465297B0107C02F
:10516000EE24E394F12C03C025E0E22EF12C84E838
:10517000A82E94EA992E1092BC009092BC000E9436
:105180004F258C018091BC0087FD08C00E944F25EF
:10519000801B910B8E159F05A8F32AC08091B90042
:1051A000887F883041F08091B900887F803119F084
:1051B0000FEF1FEF1FC0B092BB00A092BC000E9477
:1051C0004F258C018091BC0087FD08C00E944F25AF
:1051D000801B910B8E159F05A8F30AC08091B90022
:1051E000887F883111F0803419F700E010E00EC09C
:1051F0000EEF1FEFCF3F8FEFD80709F4BCCFC601EA
:105200000E9440258C179D0708F4B5CFC801CDB783
:10521000DEB7EBE00C949C290F931F93CF93DF93A1
:10522000EB018093BB0084E88093BC000E944F2573
:105230008C018091BC0087FD0EC0CF3F8FEFD80757
:10524000C1F30E944F25801B910B8C179D0788F39B
:105250008EEF9FEF0CC02091B900287F81E090E095
:10526000283211F480E090E0919581959109DF91C9
:10527000CF911F910F9108950F931F93CF93DF93B9
:10528000EC0184E88093BC000E944F258C01809142
:10529000BC0087FD0EC0CF3F8FEFD807C1F30E943F
:1052A0004F25801B910B8C179D0788F38EEF9FEF86
:1052B00003C08091BB0090E0DF91CF911F910F91CF
:1052C000089584E98093BC000895AA1BBB1B51E19B
:1052D00007C0AA1FBB1FA617B70710F0A61BB70B66
:1052E000881F991F5A95A9F780959095BC01CD010B
:1052F00008952F923F924F925F926F927F928F927A
:105300009F92AF92BF92CF92DF92EF92FF920F9354
:105310001F93CF93DF93CDB7DEB7CA1BDB0B0FB65E
:10532000F894DEBF0FBECDBF09942A88398848881B
:105330005F846E847D848C849B84AA84B984C884B1
:10534000DF80EE80FD800C811B81AA81B981CE0FA8
:10535000D11D0FB6F894DEBF0FBECDBFED0108958D
:105360008F929F92AF92BF92CF92DF92EF92FF9275
:10537000CF93DF93EC01688179818A819B816115EC
:1053800071058105910521F464E279ED8BE597E0E3
:105390002DE133EF41E050E00E94642A49015A01B7
:1053A0009B01AC01A7EAB1E40E94832A6B017C0156
:1053B000ACEEB4EFA50194010E94912ADC01CB016F
:1053C0008C0D9D1DAE1DBF1DB7FF03C00197A10928
:1053D000B04888839983AA83BB839F77DF91CF915D
:1053E000FF90EF90DF90CF90BF90AF909F908F9005
:1053F00008950E94B029089580E091E00E94B029AC
:105400000895A0E0B0E08093000190930101A09383
:105410000201B09303010895DC01CB01FC01F9996D
:10542000FECF06C0F2BDE1BDF89A319600B40D92F0
:1054300041505040B8F70895F999FECF92BD81BD13
:10544000F89A992780B50895A6E1B0E044E050E0CD
:105450000C940E2AA8E1B0E042E050E00C940E2A31
:10546000DC01A40FB51F4150504048F0CB01840F20
:10547000951F2E910E94412A41505040D0F7089527
:10548000262FF999FECF92BD81BDF89A019700B4FD
:10549000021639F01FBA20BD0FB6F894FA9AF99A9D
:1054A0000FBE08950396272F0E94412A0E94402A8A
:1054B000252F0E94412A242F0C94412A0196272F40
:1054C0000E94412A0C94402A052E97FB1EF400945A
:1054D0000E947B2A57FD07D00E94962A07FC03D022
:1054E0004EF40C947B2A50954095309521953F4F72
:1054F0004F4F5F4F089590958095709561957F4FC0
:105500008F4F9F4F08950E94B82AA59F900DB49F7A
:10551000900DA49F800D911D11240895B7FF0C9448
:10552000832A0E94832A821B930B0895A1E21A2EDC
:10553000AA1BBB1BFD010DC0AA1FBB1FEE1FFF1F37
:10554000A217B307E407F50720F0A21BB30BE40B87
:10555000F50B661F771F881F991F1A9469F76095CE
:105560007095809590959B01AC01BD01CF01089588
:10557000A29FB001B39FC001A39F700D811D112494
:10558000911DB29F700D811D1124911D089587FBFF
:10559000082E062687FD819567FD61950E94FE2AEB
:1055A0000EF4919507FC8195089597FB072E16F44C
:1055B000009407D077FD09D00E94652907FC05D02B
:1055C0003EF4909581959F4F0895709561957F4F1A
:1055D0000895EE0FFF1F0590F491E02D09940E94AD
:1055E000B82A332312F48A1B9B0B0C94F92A0E94CD
:1055F000B82AB7FF0895821B930B0895991B79E091
:1056000004C0991F961708F0961B881F7A95C9F752
:10561000809508950F931F93CF93DF938230910568
:1056200010F482E090E0E0914B06F0914C0620E00F
:1056300030E0A0E0B0E0309719F140815181028163
:10564000138148175907C8F08417950769F4109714
:1056500031F012960C93129713961C9327C0009367
:105660004B0610934C0622C02115310519F0421744
:10567000530718F49A01BD01EF01DF01F801DBCFF8
:1056800021153105F9F0281B390B2430310580F440
:105690008A819B816115710521F0FB0193838283CF
:1056A00004C090934C0680934B06FE01329644C092
:1056B000FE01E20FF31F8193919322503109398348
:1056C00028833AC02091490630914A06232B41F4A1
:1056D000209106013091070130934A062093490634
:1056E00020910401309105012115310541F42DB7B8
:1056F0003EB74091080150910901241B350BE09100
:105700004906F0914A06E217F307A0F42E1B3F0B5F
:105710002817390778F0AC014E5F5F4F2417350723
:1057200048F04E0F5F1F50934A06409349068193FD
:10573000919302C0E0E0F0E0CF01DF91CF911F91A3
:105740000F910895CF93DF93009709F481C0FC0176
:10575000329713821282A0914B06B0914C0610979B
:1057600081F420813181820F931F2091490630916D
:105770004A062817390751F5F0934A06E09349067F
:1057800067C0ED0120E030E0CE17DF0740F44A812A
:105790005B819E0141155105F1F0EA01F5CFD383FC
:1057A000C28340815181840F951FC817D90759F4CE
:1057B00088819981840F951F0296918380838A81C5
:1057C0009B81938382832115310529F4F0934C0644
:1057D000E0934B063DC0E901FB83EA83499159916F
:1057E000C40FD51FEC17FD0761F480819181840FF0
:1057F000951F0296E90199838883828193819B8317
:105800008A83E0E0F0E012968D919C9113970097C7
:1058100019F0FD01DC01F7CF8D919C9111979D014D
:105820002E5F3F4F820F931F2091490630914A0609
:105830002817390769F4309729F410924C06109212
:105840004B0602C013821282B0934A06A093490607
:10585000DF91CF910895FC014150504030F001900C
:105860000616D1F73197CF01089588279927089513
:10587000FB01DC0104C08D910190801921F441509D
:0E5880005040C8F7881B990B0895F894FFCF8D
:10588E000100000000004D0620009E04A401012D21
:10589E002450243124D30ACE0ACD0A012000011946
:1058AE001A1B1C1D1E1F2021220102014022476DC2
:1058BE00CA01A8016101F4001C02350255026E02F4
:1058CE0065614A704B2F52414F643400818283E2EE
:1058DE0000E900EA00B500B600B700CD008301CCA8
:1058EE00008A01920194012102230224022502263C
:1058FE000227022A02B300B4006F007000000102FA
:10590E000202020606060909090909090F0F0F0FFF
:10591E000F0F15151518191919191919191919190A
:02592E00232430
:00000001FF
