:100000000C949C020C94B9020C94B9020C94B902A1
:100010000C94B9020C94B9020C94B9020C94B90274
:100020000C94B9020C94B9020C94EA140C942614A2
:100030000C944B180C94B9020C94B9020C94B902AC
:100040000C94B9020C94B9020C94B9020C94B90244
:100050000C94B9020C94D9170C94B9020C94B902FF
:100060000C94B9020C94B9020C94B9020C94B90224
:100070000C94B9020C94B9020C94B9020C94B90214
:100080000C94B9020C94B9020C94B9020C94B90204
:100090000C94B9020C94B9020C94B9020C94B902F4
:1000A0000C94B9020C94B9020C94B902A006A006F3
:1000B000DE06DE06270747071B097409890775084E
:1000C00087088708700A730A760A790A7C0A7F0A09
:1000D000820AC10EC60ED00EC40EC90ECE0ECC0EB4
:1000E00037125E12FE135E12FE13A612C912FE1321
:1000F000C713DA13741E741E871E871E7D1E871E8B
:10010000871E871E741E741E821E871E871E821EF7
:1001100029002B003500E100015100001E001400F1
:1001200004001D64E00003511F001A0016001B00AC
:10013000E200060120000800070006005000E3006E
:1001400021001500090019004F0035082200170092
:100150000A0005000000500805532F0200002F0080
:100160000000E0042E0030020000300000004B00D0
:1001700023001C000B00110000004F082400180091
:100180000D00100051004E0025000C000E0036003E
:1001900052002C00260012000F00370023022A0014
:1001A0002700130033003874210226022D0031008D
:1001B0003400280002510000290001000100010064
:1001C0000100000001000100500001000451010085
:1001D000010052005100010003512C0001000100F8
:1001E0004F000601500CE300010001000901190154
:1001F0004F0C4D0001000100010001000000B6009D
:10020000010001000000010000004A00010002534B
:100210000000010000004B0001000100010001008E
:100220000000B7000100240021001E0027004E003E
:100230002E00250022001F0001002C005400260083
:100240002300200037002A00550056005700010007
:10025000010028002E00300230000A0201000000D8
:10026000A6000100FF00FE00FD0000003A00FA00B9
:10027000F20001000100F6003B00F000F100010077
:100280000100F5003C00F900F30001000100F4005A
:100290003D00010001000100010001003E000100DD
:1002A00001000100000001003F000100000001000A
:1002B0000000010040000100000001000000A90052
:1002C0004100010001000100000001004200240083
:1002D00021001E002700AA004300250022001F0065
:1002E0003700B70044002600230020005800B60065
:1002F00045005500570031002E00A8000100010004
:100300000100035101000000010001000100010093
:1003100001000000010007050805500D0100010063
:100320000100180550050D050100350801005205B2
:10033000060551050100280501000C054F050E05B5
:100340000100010001000A0517054F0D0000010022
:100350000100010000000100000001000100010097
:100360000000010000000100010001005000010038
:100370000000010001000100510001000100010026
:10038000010001005200010001001A0801000100F3
:100390004F00010001000100010001000100010007
:1003A00001000100005C01000100010001000000EB
:1003B00005010902A10185020901A1000509190130
:1003C0002905150025019505750181029501750323
:1003D00081010501093009311581257F95027508D4
:1003E000810609381581257F950175088106050C60
:1003F0000A38021581257F950175088106C0C00560
:10040000010980A10185031A81002A8300160100D9
:10041000260300950175108100C0050C0901A1019A
:1004200085041A01002A9C02160100269C029501EF
:1004300075108100C005010906A101850505071990
:10044000E029E715002501950875018102050719C6
:100450000029EF1500250195F075018102050819A5
:10046000012905950575019102950175039101C05A
:1004700005010906A101050719E029E71500250175
:10048000950875018102950175088101050719001C
:1004900029FF150026FF009506750881000508193B
:1004A000012905950575019102950175039101C01A
:1004B00009023B00020100A0FA0904000001030147
:1004C00001000921110100012240000705810308F4
:1004D000000A0904010001030000000921110100C4
:1004E0000122C0000705820320000A12011001004A
:1004F000000008EDFE0713010001020301040330B0
:1005000000000016034500720067006F0044006F92
:10051000007800200045005A0000001603450072D4
:100520000067006F0044006F007800200045005A0B
:10053000000000040309040011241FBECFEFDAE01D
:10054000DEBFCDBF11E0A0E0B1E0EEE0F9E402C013
:1005500005900D92AC3BB107D9F722E0ACEBB1E0CE
:1005600001C01D92A43FB207E1F70E94C51B0C9485
:1005700085240C9400008F929F92AF92BF92CF92ED
:10058000DF92EF92FF920F931F93CF93DF93CDB73C
:10059000DEB728970FB6F894DEBF0FBECDBFFC01C3
:1005A000F080118183819481892B09F4E6C61F3F75
:1005B00021F40FEFF01609F4E0C66F0185E0DE01CB
:1005C000119601900D928A95E1F7F60122818981B9
:1005D0009A81222349F00E94A819082F682F898147
:1005E0009A810E94211A03C00E94F419082F26E064
:1005F000129FF001112434E5039FE00DF11D112439
:10060000EF0DF11DEE0FFF1FE05FFE4F05911491FE
:100610000E3F8CE5180709F040C0F601828188235F
:10062000E1F19091AF0281E0890F8770987F85306A
:1006300020F4892B8093AF0202C09093AF02809187
:10064000AF028770FFEF8F9FC001112495958795AA
:10065000959587959927909389008093880090932A
:100660008B0080938A0090938D0080938C00409142
:10067000AF025091B0026091B1027091B2028FE06E
:1006800090E00E94082360919802709199028091F5
:100690009A0290919B020E94620EF6018281882349
:1006A00019F1033EFCE51F07C1F050F4013E3CE5A3
:1006B000130781F0023E8CE51807B1F481E010C009
:1006C000043E9CE5190759F0053EECE51E0761F470
:1006D00084E006C01092AB0205C082E001C083E056
:1006E0008093AB020E94E30B17FF73C0F601828177
:1006F000882309F4BEC08091DA018093BC01109276
:10070000DA018091AB02813071F048F08230D1F093
:100710008430F1F486EE0E94FF2088E117C082EE5B
:100720000E94122115C083E29AE00E940F1188E115
:100730000E94122188E10E94982083E19AE00E94A1
:100740000F1106C082EE0E94122187E50E94FF2051
:100750008FE39CE90197F1F700C000007801E8946D
:10076000F7F85CE0A52EB12CC7010A2C02C09695C3
:1007700087950A94E2F7282F2F7041F0822F90E09E
:100780002A3010F44D9604C0069702C087E290E02C
:100790000E94FF2094E0A91AB108ECEFAE16EFEF2B
:1007A000BE0611F78091AB02813039F040F0823003
:1007B00031F0843051F488E206C08CE204C082EE4D
:1007C0000E94982002C00E94FF208091BC0180936B
:1007D000DA01003FFCE51F07B1F180F4083D3CE57C
:1007E0001307C9F0093D8CE51807C9F1073D9CE5E1
:1007F0001907C1F526E241EE61EE10C0023FECE5BB
:100800001E0749F120F1033F2CE5120759F527E2B5
:1008100045EE66EE03C027E245EE65EEC60128967A
:100820000FB6F894DEBF0FBECDBFDF91CF911F9101
:100830000F91FF90EF90DF90CF90BF90AF909F907F
:100840008F900C94D60F26E241EE60EEE7CF27E2C0
:1008500045EE64EEE3CF26E241EE62EEDFCF28E222
:1008600041E0DBCFF6018281882309F419C210929E
:10087000BD010631FCE51F07A9F59091DA01F601EB
:100880008281882381F09A7A81E009F480E0809364
:10089000BE01811102C069E201C065E389E092E016
:1008A0000E949F180BC08091BE01811102C069E2B5
:1008B00001C065E389E092E00E94741828960FB6A3
:1008C000F894DEBF0FBECDBFDF91CF911F910F9186
:1008D000FF90EF90DF90CF90BF90AF909F908F9060
:1008E0000C94621907312CE5120708F08BC1013016
:1008F0003CE5130771F4F6018281882309F43DC5B4
:100900008091DE02982F909590FB80F98093DE0213
:1009100034C502308CE5180708F42CC1F601828139
:10092000882309F4AEC180E090E00E94F0228F3E5F
:100930009E4F11F00E94E8180E94D7189093C202AF
:100940008093C1020F302CE5120709F4CDC008F0E6
:1009500042C008308CE5180709F4A8C0F0F4043050
:10096000ECE51E0709F490C068F402302CE512078C
:1009700009F486C003301C4509F0D9C08091C1023A
:100980008260D3C006308CE5180709F487C008F0F0
:1009900089C08091C1028860C8C00B30ECE51E0799
:1009A00009F493C068F409302CE5120709F482C0F9
:1009B0000A301C4509F0BBC08091C10288607EC02E
:1009C0000D308CE5180709F484C008F085C08091CB
:1009D000C1028D7FAAC0073FECE51E0709F457C08E
:1009E00050F502312CE5120709F486C068F4003195
:1009F0008CE5180709F47CC001311C4509F097C04B
:100A00008091C1028F7B91C00431ECE51E0709F48F
:100A100083C008F475C005311C4509F088C0809179
:100A2000C10282FB222720F991E0922790FB82F9F4
:100A300090FB83F97AC00A3F3CE5130709F450C0E4
:100A400058F4083F9CE5190729F1093F1C4509F0B6
:100A50006EC08091C2025CC00C3FFCE51F0709F428
:100A600054C070F10D3F1C4509F061C08091C20275
:100A7000982F909591708E7F892B90FB81F949C0BA
:100A80008091C102816051C08091C10217C08091E4
:100A9000C20219C08091C20282603BC08091C10233
:100AA000806143C08091C10280623FC08091C102D9
:100AB00080643BC08091C102806837C0846035C0CB
:100AC0008091C2028260816024C08091C1028E7FC9
:100AD0002CC08091C10217C08091C102877F25C0C0
:100AE0008091C2028D7F15C08091C1028F7E1DC092
:100AF0008091C1028F7D19C08091C1028F7715C08E
:100B00008091C102877F8B7F10C08091C2028D7F50
:100B10008E7F8093C2020BC08091C10287FB222787
:100B200020F991E0922790FB87F98093C1026091B0
:100B3000C1021091C20284E090E00E94F622612F6F
:100B400081E290E00E94F6221092DA0128960FB618
:100B5000F894DEBF0FBECDBFDF91CF911F910F91F3
:100B6000FF90EF90DF90CF90BF90AF909F908F90CD
:100B70000C94702001151C4509F083C0F601828198
:100B8000882309F4FAC31092DA010E947020FFEF63
:100B900004E31CE0F15000401040E1F700C0000009
:100BA000F89481E08093E00080E28093D800109276
:100BB000C9008FE19EE40197F1F700C000001DBA63
:100BC000109268001CBC10BE1FBA10927A001092DE
:100BD0006E0010926F0010927100109272001092CD
:100BE000C9001092BC0014B817B81AB81DB810BAD2
:100BF0001092BC0015B818B81BB81EB811BA0C94E6
:100C0000003FBBC30E3DECE51E07C9F4F60182812F
:100C1000882309F4B2C328960FB6F894DEBF0FBE3E
:100C2000CDBFDF91CF911F910F91FF90EF90DF909B
:100C3000CF90BF90AF909F908F900C94E8180F3D8D
:100C4000FCE51F07C0F40C3D2CE5120741F4F6014A
:100C50008281882309F491C31092ED028EC30D3D69
:100C60001C4579F4F6018281882309F486C382E069
:100C70008093ED0282C3C801875F9C45079708F403
:100C80004DCEF6018281008111818823F1F0C801E7
:100C90000E94A819F82E682FC8010E94211A19C0B5
:100CA0000631FCE51F0709F4E8CD08F04FC3013019
:100CB0003CE5130709F41FCE08F030CE01151C45A2
:100CC00009F45CCFF60100811181C8010E94F4197A
:100CD000F82EB8018F2D0E94E90B182F382FF6013E
:100CE000258122952F700281011110929E02809120
:100CF0009C028770A9F0002399F080E2810F883070
:100D000078F082E02F8338879E830E94821A809138
:100D10009C028770EE24E3942F8138859E81811197
:100D2000E12CA92EA2944FE0A422B12CFCE0AF1636
:100D3000B10408F0D9C2F501EA5AFF4F0C945223CE
:100D4000892F807F9F70F92E882319F0F29480EF0D
:100D5000F8220023B9F0FF2009F457C280E2810F86
:100D6000883010F0311106C09091DA01F92AF09222
:100D7000DA0105C090919E02F92AF0929E020E942B
:100D8000621943C2812F38870E9498203885FF203E
:100D900009F4AAC2105EF094183010F0311106C0A8
:100DA0009091DA01F922F092DA0105C090919E0249
:100DB000F922F0929E020E94621996C2492F407F4A
:100DC000892F8F70403211F08295807F332319F084
:100DD0003130E9F025C0002381F030919F022223B9
:100DE00051F0213041F4982F932B391709F47CC22C
:100DF00090939F0279C2832B17C0222319F02130D0
:100E000009F472C28E830E945C198E811DC000237A
:100E100021F0223008F068C207C0211165C214C059
:100E2000002329F02111F1C10E948E205DC22223EE
:100E300059F0193309F0FBC10FEF27EE33E00150F1
:100E400020403040E1F7F1C10E9483204DC2292F9C
:100E500026952695237030E02115310521F02130AB
:100E6000310559F041C2002319F0812F937002C05F
:100E700080E090E00E94C10B40C2002319F0812F56
:100E8000937002C080E090E00E94AB0B36C200235A
:100E9000F9F0153F51F0163F71F0143FA9F480911D
:100EA000BF019091C00181600BC08091BF01909102
:100EB000C001826005C08091BF019091C001846033
:100EC0009093C0018093BF01812F0E9471171EC0B3
:100ED000153F51F0163F71F0143FA9F48091BF0106
:100EE0009091C0018E7F0BC08091BF019091C00195
:100EF0008D7F05C08091BF019091C0018B7F909341
:100F0000C0018093BF01812F0E94AB160E9435184B
:100F1000F4C1892F837009F070C00111ECC1812FD9
:100F2000829586958770880F880F412F4F7050E00B
:100F300060E070E04A015B01082E04C0880C991C37
:100F4000AA1CBB1C0A94D2F714FF12C00FE010E0D9
:100F500020E030E004C0000F111F221F331F8A95CC
:100F6000D2F7B901A801409550956095709503C0DE
:100F700040E050E0BA01969596959370892F90E0E5
:100F80008230910529F183309105C9F00091A002CA
:100F90001091A1022091A2023091A302019759F071
:100FA000482959296A297B29CB01BA016023712379
:100FB000822393230AC0802A912AA22AB32ACB0132
:100FC000BA01682979298A299B290E94BC1A93C1F0
:100FD000482959296A297B298091A0029091A10270
:100FE000A091A202B091A3028A019B0108271927B0
:100FF0002A273B27C901B801E8CF002319F0892F20
:10100000817001C08695882309F475C1812F82956E
:1010100086958770880F880F412F4F7050E060E0F1
:1010200070E04A015B01082E04C0880C991CAA1CC0
:10103000BB1C0A94D2F714FF12C00FE010E020E0AE
:1010400030E004C0000F111F221F331F8A95D2F712
:10105000B901A801409550956095709503C040E096
:1010600050E0BA01969596959370892F90E0823062
:101070009105E9F08330910579F100919802109182
:10108000990220919A0230919B02019759F04829C8
:1010900059296A297B29CB01BA0160237123822354
:1010A000932320C0802A912AA22AB32A15C0482956
:1010B00059296A297B298091980290919902A091DF
:1010C0009A02B0919B028A019B01082719272A27BF
:1010D0003B27C901B80106C0CB01BA0168297929AB
:1010E0008A299B290E94511A06C19F70F92E00235C
:1010F00039F0892F0E949B1A812F0E948E20FBC0FD
:10110000812F0E9483208F2D0E945D1AF4C0812FB1
:10111000323FC9F128F4303F49F0313F79F170C0D6
:10112000333FC1F1343F09F44DC06AC0002311F1CF
:101130002111DAC0292F2F7181E090E0A0E0B0E00A
:10114000AC01BD0104C0440F551F661F771F2A95CF
:10115000D2F78091980290919902A0919A02B09151
:101160009B028A019B01082719272A273B27C901CF
:10117000B80125C0223008F0B7C0DCCF002329F029
:10118000892F8F712EC00023D9F3892F8F710E9470
:101190005D1AAAC0002381F0292F2F7181E090E011
:1011A000A0E0B0E0BC01CD0104C0660F771F881F2E
:1011B000991F2A95D2F703C060E070E0CB010E942E
:1011C000511A92C0002381F0192F1F71812F0E94A4
:1011D0009B1A28E0129FC0011124836080939C0217
:1011E000812F0E949B1A80C081E02F830E94821A67
:1011F0002F81223008F478C082E00E94821A74C0E5
:10120000002339F0222309F4BBCF812F0E94122141
:101210006BC0222309F4B9CF893349F43FEF87EE3D
:1012200093E0315080409040E1F700C00000812FF2
:101230000E94982059C0323FB1F028F4303F49F065
:10124000313FF9F028C0343FB9F058F0353F71F024
:1012500022C0002309F451C09091EF0281E0892758
:1012600008C081E008270093EF0247C0011145C084
:1012700081E08093EF0241C001113FC01092EF0264
:101280003CC0002329F08091EE02882329F329C075
:10129000222311F332C08091EE022223C1F0882371
:1012A00041F09091EF0281E089278093EF02109244
:1012B000EE02812F002319F00E9412211EC00E940D
:1012C000982086E0F60111928A95E9F716C08823E6
:1012D000A1F0011112C09091EF0281E08927809363
:1012E000EF021092EE0209C0F8E0AF1AB10804E074
:1012F000A016B10410F40E94D70BEE20F1F18091FA
:101300009C0280FD3AC0F6011282859585958595EF
:101310000E949B1AC6010E94BB0280919C02859587
:101320008595859528960FB6F894DEBF0FBECDBF84
:10133000DF91CF911F910F91FF90EF90DF90CF90B1
:10134000BF90AF909F908F900C945D1A0E3DECE58E
:101350001E0709F45BCC50F40C3D2CE5120709F490
:1013600076CC0D3D1C4509F47DCCACCCC801875F23
:101370009C45079708F4D2CAA5CC28960FB6F894D6
:10138000DEBF0FBECDBFDF91CF911F910F91FF90B8
:10139000EF90DF90CF90BF90AF909F908F90089587
:1013A0009091C10292FF0DC0282F2871283019F4A6
:1013B000877F846006C0282F2471243011F48B7F2E
:1013C000886093FF0DC0282F2871283119F4877E7B
:1013D000846106C0282F2471243111F48B7E88612A
:1013E0002091C20220FF0DC0382F3871383019F417
:1013F000877F816006C0382F3171313011F48E7FC4
:10140000886021FF0DC0282F2871283119F4877EAC
:10141000816106C0282F2171213111F48E7E8861EF
:1014200094FD877E0895282F277081E090E001C009
:10143000880F2A95EAF7809590919E0289238093E0
:101440009E020C946219282F277081E090E001C061
:10145000880F2A95EAF790919E02892B80939E022D
:101460000C946219CF93E82F873080F580910701A3
:1014700090910801892B09F047C0CE2F64E670E0F7
:1014800080E40E9432229093080180930701892B07
:10149000D1F464E670E082E10E9489229093080111
:1014A00080930701892B79F481E090E001C0880FD7
:1014B000CA95EAF764E670E080950E9489229093CD
:1014C000080180930701CF910C94DE2290E0FC018B
:1014D0003797E730F105C0F4EE59FF4F0C945223D3
:1014E000209A289811C0219A29980EC0229A2A98E9
:1014F0000BC0239A2B9808C0529A5A9805C0539A49
:101500005B9802C03E9A4698CF910895CF9387305A
:1015100008F03FC08091070190910801892B09F0E4
:1015200041C064E670E080E40E943222909308019A
:1015300080930701892B11F0C0E027C064E670E0BA
:1015400083E10E9489229093080180930701892BEF
:1015500099F764E670E081E40E94322290930801DA
:1015600080930701892B41F784E690E00E94B9221D
:1015700097FF05C09093080180930701DDCFC82F26
:10158000C09510920801109207010E94DE228C2F54
:101590000AC09FB18FB1807F869586959370892B05
:1015A000809501C080E0CF910895EF92FF920F9354
:1015B0001F93CF93DF93CDB7DEB767970FB6F8943D
:1015C000DEBF0FBECDBF4B8B5C8B6D8B7E8B8F8B4D
:1015D0000E891F8901151105C1F15F3F11F44F3FBD
:1015E000A1F1E42EF12CA1E0B0E0042E01C0AA0F7D
:1015F0000A94EAF7852F90E0662319F02091EF0214
:1016000006C09C0125533E4FF90120812A23222345
:10161000A9F046E0489F9001499F300D1124F70141
:10162000E20FF31FEE0FFF1FED5EFE4F4081518171
:10163000FC01E553FE4F9081A92B06C0FC01E55348
:10164000FE4FA0958081A823A08386E0FE013D96F1
:10165000DF01982F1D929A95E9F74D875E876F8776
:10166000198B088BDE01179601900D928A95E1F790
:10167000CE0107960E948B1E811137C086E0FE01C5
:101680003796DE01119601900D928A95E1F7FF8160
:10169000E8856A857B856115710539F1EF3F11F4A5
:1016A000FF3F19F120912F0230E0C90101968770A8
:1016B00099274091600250E08417950779F1F983EA
:1016C000EA837D836C8396E0929FD001939FB00D57
:1016D0001124A05DBD4FFE01319601900D929A95A7
:1016E000E1F780932F020E94C61A16E080916002F3
:1016F00090912F02891711F1189FC0011124805D6C
:101700009D4F0E948B1E8823C9F08091600290E05B
:1017100001968770992780936002E8CF1092DA01D2
:101720000E94702010922F0210926002E9E2F2E013
:1017300086E0DF011D928A95E9F7D7CF67960FB64D
:10174000F894DEBF0FBECDBFDF91CF911F910F91F7
:10175000FF90EF9008952091C9013091CA0182173E
:10176000930771F09093CA018093C901E091C3027D
:10177000F091C402309721F00084F185E02D0994A6
:1017800008952091C7013091C8018217930771F025
:101790009093C8018093C701E091C302F091C40205
:1017A000309721F00680F781E02D09940895E091AB
:1017B000C302F091C402309721F00190F081E02D36
:1017C000099480E008956091AB028CE090E00C9465
:1017D000F622CF93DF9326E0729FF001112434E5C7
:1017E000839FE00DF11D1124E60FF11DEE0FFF1F89
:1017F000E05FFE4FC591D491CE01C238D10569F1A9
:10180000B0F4C133D10509F475C048F4C932D1052B
:1018100009F469C0CA32D10509F473C079C0C5336F
:10182000D10509F459C0C933D105B9F071C0C33E1F
:10183000D10571F138F4C03ED105B1F0C23ED105F9
:1018400011F166C0C63ED105B9F1C73ED105C9F157
:10185000C43ED10509F05CC024C02091C10220FD26
:1018600029C221FD27C22BC22091C10220FD1CC22A
:101870002091C20220FF23C28091C10284FDC6C113
:1018800083EE90E01CC22091C10222FF18C2F4CF67
:101890008091C10282FD0BC28091C20280FD0AC20A
:1018A000EBCF2091C20221FF0AC28091C10284FDC8
:1018B000ADC187EE90E003C22091C10223FFFFC1BA
:1018C000F4CF8091C10283FDF8C18091C20281FFF3
:1018D000ECCF84EE90E0F3C12091C10225FFEFC16F
:1018E00089E290E0ECC12091C10225FFE8C185E3C7
:1018F00090E0E5C12091C10226FFE1C18AE290E0BB
:10190000DEC12091C10226FFDAC181E390E0D7C198
:10191000C11540E5D40708F047C0C11520E4D2073F
:1019200008F034C1C83ED10518F5C03ED10508F015
:10193000C6C1C83AD10570F4C53AD10508F0B1C0A6
:10194000C130D10509F4BBC108F460C1249708F483
:101950005DC1B5C1CF3BD10508F4AEC0C03CD105D7
:1019600008F454C1FE01EE0FFF1FE05DFD4F03C1FF
:10197000C11530E2D30760F4C11541E0D40708F087
:101980009EC1C03FD10508F441C1CE01906597C109
:10199000C11580E3D80708F0F1C0FE01FF70EE0F1B
:1019A000FF1FE055FC4FE7C0C11595E5D90708F0CA
:1019B00044C0C11524E5D20708F002C1C11532E5C3
:1019C000D30710F5C11541E5D40708F0E4C08C2F0A
:1019D000837021E030E002C0220F331F8A95E2F7C6
:1019E0003C68CE0174E0969587957A95E1F783700F
:1019F000382BEC2FEF70E695E69540E2E49FC001AE
:101A00001124822B932B5BC12C2F26952695AE019A
:101A100043705527C115D34508F0C3C080E2289F05
:101A20009001112481E090E002C0880F991F4A952F
:101A3000E2F7822B932B9C6842C1C1159AE5D90726
:101A4000A8F4C11529E5D20708F0C9C0C11536E5CB
:101A5000D30708F4BBC0C11548E5D40708F4D6C0C5
:101A6000FC2FEE27CF01806F906A29C1C1158BE54D
:101A7000D80708F4CBC0C1159CE5D90708F4C2C04B
:101A8000CE0190568115904208F0C0C08D2F8F7105
:101A90000E94D009FE01FF27F0628F719F01382B51
:101AA000AFC0C53AD10509F4B4C0C63AD10509F0B2
:101AB000B3C082E890E403C1C83AD10509F4AFC0CD
:101AC000C93AD10509F4AEC0CA3AD10509F4ADC08E
:101AD000CB3AD10509F4ACC0CC3AD10509F4ABC07E
:101AE000CB3BD10509F4AAC0CC3BD10509F4A9C070
:101AF000CD3AD10509F4A8C0C03BD10509F4A7C06F
:101B0000CE3AD10509F4A6C0CF3AD10509F4A5C053
:101B1000C13BD10509F4A4C0C23BD10509F4A3C05F
:101B2000C33BD10509F4A2C0C43BD10509F4A1C04F
:101B3000C53BD10509F4A0C0C63BD10509F49FC03F
:101B4000C73BD10509F49EC0C83BD10509F49DC02F
:101B5000C93BD10509F49CC0CD3BD10509F49BC01C
:101B6000CE3BD10509F49AC0CA3BD10509F499C00E
:101B700080E094E4A4C085919491A1C0CE019927FE
:101B8000D3FF02C0986C9BC0906C99C0FE01FF709F
:101B9000CF01906A94C0FC2FEE27CF01816F906A2D
:101BA0008EC090E2299F9001112481E090E002C054
:101BB000880F991F4A95E2F7822B932B9A687FC072
:101BC000FC2FEE27CF01846F906A79C08C2F0E9482
:101BD000D0098F7190E0982F8827906270C08C2F69
:101BE0008F700E94D009FE0194E0F695E7959A95D2
:101BF000E1F7EF70F0E0FE2FEE27F0699F01282B50
:101C0000C9015DC0CE019927906659C080E090E07F
:101C100056C081E890E453C083E890E450C082EE5F
:101C200094E44DC089EE94E44AC08AEE94E447C03F
:101C300085EB94E444C086EB94E441C083EB94E4E8
:101C40003EC084EB94E43BC087EB94E438C08CEC5A
:101C500094E435C08DEC94E432C083E895E42FC061
:101C60008AE895E42CC082E995E429C084E995E4EA
:101C700026C081E296E423C083E296E420C084E299
:101C800096E41DC085E296E41AC086E296E417C089
:101C900087E296E414C08FE694E411C080E794E4F0
:101CA0000EC08AE296E40BC089E390E008C082EEA1
:101CB00090E005C080EE90E002C086EE90E0DF91FB
:101CC000CF910895CF92DF92EF92FF920F931F93DF
:101CD0006C01EE24FF24C114D104E104F10411F0DD
:101CE000E0E103C06B017C01E0E033272F2D1E2DC6
:101CF0000D2D011511052105310519F0E85F680169
:101D0000790197018601F4E0369527951795079597
:101D1000FA95D1F7011511052105310519F0EC5F90
:101D2000680179019701860152E03695279517954C
:101D300007955A95D1F7011511052105310519F0BF
:101D4000EE5F680179019701860136952795179511
:101D50000795012B022B032B09F0EF5F56985E9835
:101D600025982D9826982E9827982F980E2F10E0BA
:101D7000F8013197E730F105A8F4E759FF4F0C94CB
:101D80005223259A2D9A0EC0259A2D9A269A2E9A7C
:101D900009C0259A2D9A04C0259A2D9A269A2E9A22
:101DA000279A2F9A1F910F91FF90EF90DF90CF907D
:101DB000089580E290E0909308018093070180915C
:101DC000C40181110EC00E942C2281E08093C401C5
:101DD0002FEF83ED90E3215080409040E1F700C069
:101DE000000064E670E080E40E94322290930801D3
:101DF00080930701892B09F04EC064E670E080E013
:101E00000E9489229093080180930701892B09F091
:101E100042C064E670E080E00E948922909308014D
:101E200080930701892BB9F564E670E08FE30E9487
:101E300089229093080180930701892B61F50E9404
:101E4000DE2264E670E080E40E9432229093080172
:101E500080930701892BF9F464E670E08CE00E941E
:101E600089229093080180930701892BA1F464E6ED
:101E700070E080E00E94892290930801809307011E
:101E8000892B49F464E670E08FE30E9489229093E5
:101E90000801809307010E94DE22809107010895C6
:101EA000CF93DF9356985E9825982D9826982E9874
:101EB00027982F98C8E8D0E08FEF90E09983888327
:101EC000AAE8B0E011969C938E93ECE8F0E0918341
:101ED0008083259A2D9A2FEF80E792E02150804051
:101EE0009040E1F700C00000269A2E9A2FEF80E77D
:101EF00092E0215080409040E1F700C00000279A16
:101F00002F9A2FEF80E792E0215080409040E1F738
:101F100000C0000025982D982FEF80E792E0215017
:101F200080409040E1F700C0000026982E982FEFE7
:101F300080E792E0215080409040E1F700C000002F
:101F400027982F988091AF0287702FEF829FC00152
:101F500011249595879595958795992799838883D9
:101F600011969C938E939183808356985E982598C2
:101F70002D9826982E9827982F98DF91CF91089525
:101F800084B1807F84B985B1807F85B98AB1837F30
:101F90008AB98BB1837F8BB93E984698089580B3F8
:101FA0008C7080BB81B3836F81BB08950F931F93A7
:101FB000CF93DF93C62FD42F022FFC018281882379
:101FC000C9F06093BD010E9429189093C6018093C7
:101FD000C50180E28C0F883008F050C0C77081E0E6
:101FE00001C0880FCA95EAF7DF91CF911F910F9139
:101FF0000C948E201091BD01161330C08091C50144
:102000009091C6010E94FF17883C910538F5C0E207
:10201000CD0F1D17B9F080E2810F883040F41770A2
:1020200081E001C0880F1A95EAF70E948320C8302A
:1020300048F481E09D2F977001C0880F9A95EAF7C8
:102040000E948E20802F0E94FF20C830B8F4D770E5
:1020500081E001C0880FDA95EAF70AC080E28C0FB0
:10206000883060F4C77081E001C0880FCA95EAF734
:10207000DF91CF911F910F910C948320DF91CF912D
:102080001F910F9108959F92AF92BF92CF92DF92CE
:10209000EF92FF920F931F93CF93DF9380910701ED
:1020A00090910801892B91F08091C3018F5F8093FB
:1020B000C30181110BC00E94D90E90E090930801DA
:1020C00080930701892B11F40E94500F03EB12E05B
:1020D0002AEBE22E22E0F22E6801C0E0912C97E07C
:1020E000A92EAC0E8C2F0E94320A8A2D0E94320A31
:1020F0008C2F0E94860AF6019081981721F0808328
:10210000BB24B39401C0B12C8A2D0E94860AF7012A
:102110009081981719F0808381E001C080E0B82A8F
:102120009B280E94C00FCF5FFFEFCF1ADF0A8FEF0F
:10213000E81AF80AC73099F60E9429186AEF70E089
:102140000E942A239C01682F8091C2018823E9F113
:102150001092C201E091A902F091AA02DF011E963D
:1021600090E07BEF8AEFE82EF12C80818B3FA9F085
:10217000482F50E0681728F0E901C41BD50BAE01C9
:1021800006C06701C41AD50AA601420F531F4A3080
:10219000510514F0708301C091E03196EA17FB07F6
:1021A00021F79093C201911002C0911110C01092BA
:1021B000C101A091A902B091AA029091C201E6ECDE
:1021C000F2E080E03EE03E0F07C09110F0CF80913A
:1021D000C1018111ECCF16C0E80129918E01408127
:1021E000421741F04C914B3F21F46C93208391E0D6
:1021F00001C081E0119631963E13EECF9093C2015B
:102200008093C101892DDF91CF911F910F91FF9094
:10221000EF90DF90CF90BF90AF909F900895CF93B5
:10222000DF93EC0180EEFE01099581EEFE01DF9166
:10223000CF910994CF92DF92FF920F931F93CF9388
:10224000DF931F92CDB7DEB7F82E8B0199830E94E2
:10225000D01A998181111CC0CF2CD92E01151105DE
:10226000B1F08091E80085FD0AC08091E8008E778A
:102270008093E8000E94D01A882381F309C0F601F8
:1022800081916F018093F10001501109E7CF80E047
:102290000F90DF91CF911F910F91FF90DF90CF9022
:1022A00008951F93CF93DF93CDB7DEB7AA970FB6EC
:1022B000F894DEBF0FBECDBFE1E0F2E088E08E0F04
:1022C0009091F10091938E13FBCF809102028330A5
:1022D00009F460C030F4813071F0823009F49CC0A0
:1022E000B3C08A3009F488C08B3009F46BC08930E0
:1022F00009F0AAC020C080910102813A09F0A4C06F
:102300008091E800877F8093E8008091050290919A
:102310000602892B21F460E28DED91E003C060E0BC
:1023200080E090E070E00E94561B8091E8008B777F
:102330008093E80089C080910102813209F084C055
:102340008091050290910602029708F07DC080916D
:10235000E800877F8093E8008091E80082FD05C057
:102360008091FF018111F8CF6FC02091F30080911F
:10237000F20090E0922B029729F48091F1008B7F7C
:10238000813021F48091F1008093DC018091E8009C
:102390008B7756C080910102813A09F055C0809137
:1023A000050290910602892B09F04EC08091E80049
:1023B000877F8093E8008091E80080FFFCCF8091C8
:1023C000060139C0809101028132F1F58091050248
:1023D00090910602892BC1F58091E800877F809358
:1023E000E8000E94021B8091030280930601109274
:1023F000DA010E94702028C080910102813221F50B
:102400008091E800877F8093E8000E94021B809102
:1024100004028093DB0118C080910102813AA1F48B
:102420008091E800877F8093E8008091E80080FF3A
:10243000FCCF8091DB018093F1008091E8008E77E2
:102440008093E8000E94021B8091E80083FFD6C1C0
:102450008091010290910202492F50E04A305105CB
:1024600008F0CCC1FA01E059FF4F0C945223803898
:1024700021F0823809F0C2C108C08091FD0190911D
:10248000FE01992389F082600FC0809105028F7050
:10249000873008F0B3C18093E9008091EB0085FBA1
:1024A000882780F91092E9009091E800977F909337
:1024B000E8008093F1001092F10074C1282F2D7F65
:1024C00009F09CC1882319F0823061F097C1809196
:1024D0000302813009F092C1933009F080E08093CB
:1024E000FE012EC08091030281112AC08091050255
:1024F0008F702FEF280F263008F080C18093E900FD
:102500002091EB0020FF1CC0933021F48091EB0060
:10251000806214C09091EB0090619093EB0021E0F9
:1025200030E0A90102C0440F551F8A95E2F740939D
:10253000EA001092EA008091EB0088608093EB0043
:102540001092E9008091E800877F2FC1811156C168
:10255000109103021F778091E3008078812B809394
:10256000E3008091E800877F8093E8000E94021BCF
:102570008091E80080FFFCCF8091E3008068809329
:10258000E300111102C082E001C083E08093FF01EB
:1025900035C18058823008F031C18091030290919A
:1025A00004028C3D53E0950779F583E08A838AE243
:1025B00089834FB7F894DE01139620E03EE051E2A4
:1025C000E32FF0E050935700E49120FF03C0E29521
:1025D000EF703F5FEF708E2F90E0EA3010F0C796FB
:1025E00001C0C0968D939D932F5F243149F74FBF53
:1025F0008091E800877F8093E8006AE270E0CE0176
:1026000001960E94561BBDC04091050250910602E2
:10261000292F332723303105B9F06CF421303105EF
:1026200009F4FBC02230310509F0E8C08BE390E0EB
:10263000E0EBF4E054C02132310509F433C022321A
:10264000310509F43CC0DAC0992781309105D1F0F9
:102650005CF4892B09F0D2C0E3E3F5E0E4918E2F1E
:1026600090E0E3E3F5E038C08230910599F00397FC
:1026700009F0C4C0EDEFF4E0E4918E2F90E0EDEFAF
:10268000F4E02AC0EBE1F5E0E4918E2F90E0EBE17D
:10269000F5E022C0E3E0F5E0E4918E2F90E0E3E086
:1026A000F5E01AC04115510509F4BCC0413051058F
:1026B00009F0A4C089E090E0EBEDF4E010C0411512
:1026C000510509F4B4C04130510509F097C080ECC0
:1026D00090E0E0EBF3E003C0009709F48FC0209195
:1026E000E800277F2093E80020910702309108023C
:1026F0002817390708F4C90140E0009789F12091B3
:10270000FF01222309F43DC02530D9F12091E800D2
:1027100023FD37C02091E80022FD2FC02091E80062
:1027200020FFEBCF4091F3002091F20030E0342BFA
:10273000009759F02830310540F444914093F1005E
:10274000319601972F5F3F4FF3CF41E0283031059D
:1027500009F040E02091E8002E772093E800CDCFEB
:102760004111CDCF0AC08091FF01882351F08530FF
:1027700041F08091E80083FD04C08091E80082FF71
:10278000F2CF8091E8008B778093E80037C08038E3
:10279000A9F58091E800877F8093E800809100028E
:1027A0008093F1008091E8008E778093E8000E948A
:1027B000021B24C0811122C0109103021230F0F4D8
:1027C0008091E800877F8093E800109300020E94C8
:1027D000021B111106C08091E30087FD02C081E059
:1027E00001C084E08093FF0142E061EC81E00E943F
:1027F000211B42E261EC82E00E94211B8091E800F3
:1028000083FF1AC08091E800877F8093E800809161
:10281000EB0080628093EB000FC082E190E0EBEE72
:10282000F4E05DCF89E090E0E2ECF4E058CF80E4A2
:1028300090E0E0E7F4E053CFAA960FB6F894DEBF3D
:102840000FBECDBFDF91CF911F9108951F920F92C0
:102850000FB60F9211242F933F934F935F936F9373
:102860007F938F939F93AF93BF93CF93DF93EF9318
:10287000FF93C091E900CF708091EC00D82FD17008
:1028800080FDD0E81092E9008091F000877F80936E
:10289000F00078940E9451111092E9008091F000AC
:1028A00088608093F000CD2BCF70C093E900FF913A
:1028B000EF91DF91CF91BF91AF919F918F917F91D8
:1028C0006F915F914F913F912F910F900FBE0F909D
:1028D0001F901895E8EDF0E080818E7F8083109244
:1028E000E2001092DA001092E100A0EEB0E08C91CC
:1028F00081608C9380818F77808319BCA7EDB0E0D5
:102900008C918E7F8C9380818F7E80831092D901F1
:102910000895CF92DF92EF92FF920F931F93CF9380
:10292000DF93C8EDD0E088818F7E8883E7EDF0E00B
:1029300080818160808384E082BF81E08093D901BF
:1029400088818E7F888302EE10E0F8011082109259
:10295000DA0081EEC82ED12CF601108288818F77A3
:10296000888388818068888388818F7D888319BC6B
:102970001092FF01109200021092FE011092FD01D0
:1029800090EEE92EF12CF70180818B7F8083888186
:102990008160888342E060E080E00E94211BF601B4
:1029A00080818E7F8083F801808181608083808137
:1029B00088608083F70180818E7F80838881806139
:1029C0008883DF91CF911F910F91FF90EF90DF905F
:1029D000CF9008951F920F920FB60F9211242F934C
:1029E0003F934F935F936F937F938F939F93AF9397
:1029F000BF93EF93FF938091E10082FF09C0809124
:102A0000E20082FF05C08091E1008B7F8093E100AE
:102A10008091DA0080FF2AC08091D80080FF26C014
:102A20008091DA008E7F8093DA008091D90080FF58
:102A300018C080E189BD82E189BD09B400FEFDCFE7
:102A400081E08093FF018091D90181110FC00E9424
:102A50006A140E9489148091E20084608093E200ED
:102A600005C019BC1092FF011092D9018091E100BC
:102A700080FF17C08091E20080FF13C08091E200C8
:102A80008E7F8093E2008091E20080618093E2007B
:102A90008091D80080628093D80019BC85E0809333
:102AA000FF018091E10084FF34C08091E20084FF47
:102AB00030C080E189BD82E189BD09B400FEFDCF4F
:102AC0008091D8008F7D8093D8008091E1008F7E27
:102AD0008093E1008091E2008F7E8093E2008091FC
:102AE000E20081608093E20080910002882311F06F
:102AF00084E007C08091E30087FD02C081E001C04F
:102B000083E08093FF011092DA010E9470200E94FE
:102B1000D70B8091E10083FF27C08091E20083FF03
:102B200023C08091E100877F8093E10082E0809361
:102B3000FF01109200028091E1008E7F8093E100FE
:102B40008091E2008E7F8093E2008091E2008061BC
:102B50008093E20042E060E080E00E94211B8091CF
:102B6000F00088608093F000FF91EF91BF91AF91EA
:102B70009F918F917F916F915F914F913F912F9195
:102B80000F900FBE0F901F9018958091DC01089553
:102B9000CF93DF9300D01F92CDB7DEB72091FF0116
:102BA000243031F523E02983805891099B838A835F
:102BB00082E08093E9008FEF9091E800815095FDCD
:102BC00006C095ED9A95F1F700008111F5CF80913F
:102BD000E80085FF0DC040E050E063E070E0CE010A
:102BE00001960E941A118091E8008E778093E80088
:102BF0000F900F900F90DF91CF9108950F931F9337
:102C0000CF93DF9300D01F92CDB7DEB78C010E9427
:102C1000B91B823011F0843021F584E089831B8355
:102C20000A8382E08093E9008FEF9091E800815061
:102C300095FD06C095ED9A95F1F700008111F5CF4D
:102C40008091E80085FF0DC040E050E063E070E057
:102C5000CE0101960E941A118091E8008E77809330
:102C6000E8000F900F900F90DF91CF911F910F917F
:102C70000895CF93DF93EC010E94B91B823011F0CD
:102C80008430F9F482E08093E9009FEF8091E800BE
:102C9000915085FD06C085ED8A95F1F700009111F0
:102CA000F5CF8091E80085FF0CC040E050E066E081
:102CB00070E0CE010E941A118091E8008E77809317
:102CC000E800DF91CF910895CF93DF93EC010E944C
:102CD000B91B823011F08430D9F580910601882328
:102CE00039F08091C10287FF03C060E282E002C038
:102CF00068E081E08093E9008FEF9091E8008150D7
:102D000095FD06C095ED9A95F1F700008111F5CF7C
:102D10008091E80085FF1CC080910601811105C0EB
:102D200040E050E068E070E003C070E040E050E058
:102D3000CE010E941A118091E8008E778093E800FE
:102D400080E2FE01ADEDB1E001900D928A95E1F7D0
:102D5000DF91CF910895803F39F48091D70287FFAA
:102D60006CC01092D70269C0813F29F48091D702CC
:102D70001816BCF362C09091D602823F29F497FFE7
:102D80005CC01092D60259C0833F19F41916CCF3D7
:102D900054C0893F41F48091D80218160CF04DC000
:102DA0001092D8024AC08A3F29F48091D80287FF46
:102DB00044C0F6CF8B3F39F48091D90287FF3DC0E4
:102DC0001092D9023AC08C3F29F48091D90218168A
:102DD000BCF333C0843F21F48091D5028E7F17C0AD
:102DE000853F21F48091D5028D7F11C0863F21F46B
:102DF0008091D5028B7F0BC0873F21F48091D50253
:102E0000877F05C0883F31F48091D5028F7E809303
:102E1000D50213C08D3F21F48091A8028E7F0BC094
:102E20008E3F21F48091A8028D7F05C08F3F29F449
:102E30008091A8028B7F8093A8028091D602811195
:102E40000EC08091D70281110AC08091D8028111F1
:102E500006C08091D902811102C01092DA02089551
:102E60008091A80280FD18C081FD14C082FD16C0AB
:102E70008091DA02882381F0883280F424E0829FF6
:102E8000C001112468E270E00E943E23862F672B68
:102E900019F005C082E0089581E0089584E0089566
:102EA0008091A80280FD19C081FD15C082FD17C068
:102EB0008091DA02882389F0893188F424E1829FA5
:102EC000C001112469E170E00E943E23862F672B28
:102ED00039F481E008958AE0089585E0089584E159
:102EE0000895803F21F40E945017819504C0813FCE
:102EF00029F40E9450178093D7020895823F21F44D
:102F00000E945017819504C0833F29F40E945017F6
:102F10008093D6020895893F19F40E94301705C0A6
:102F20008A3F31F40E94301781958093D80208952A
:102F30008B3F21F40E943017819504C08C3F29F407
:102F40000E9430178093D9020895843F21F4809124
:102F5000D502816017C0853F21F48091D50282603F
:102F600011C0863F21F48091D50284600BC0873F59
:102F700021F48091D502886005C0883F31F48091AA
:102F8000D50280618093D50208958D3F21F4809110
:102F9000A80281600BC08E3F21F48091A80282605C
:102FA00005C08F3F29F48091A80284608093A80215
:102FB000089578941F920F920FB60F9211248F9359
:102FC0009F93AF93BF938091A4029091A502A0918B
:102FD000A602B091A7020196A11DB11D8093A40283
:102FE0009093A502A093A602B093A702BF91AF91C0
:102FF0009F918F910F900FBE0F901F901895CF92B9
:10300000DF92EF92FF920F931F932FB7F8944091A6
:10301000A4025091A5026091A6027091A7022FBF51
:103020006A017B01EE24FF248C0120E030E0C01611
:10303000D106E206F30610F4415051099A01281B0B
:10304000390BC9011F910F91FF90EF90DF90CF9046
:1030500008952FB7F8948091A4029091A502A091B1
:10306000A602B091A7022FBF0895E091C302F0918C
:10307000C402309749F082E08093D4020480F58145
:10308000E02D84ED92E009950E9429189093DC02CE
:103090008093DB0208951F920F920FB60F921124B6
:1030A0008F939F93AF93BF938091C502811113C0FB
:1030B0008091A4029091A502A091A602B091A702CE
:1030C0004196A11DB11D8093A4029093A502A093E7
:1030D000A602B093A702BF91AF919F918F910F90DD
:1030E0000FBE0F901F90189520910601222321F00A
:1030F0002091C10227FD04C0FC013296089619C038
:10310000262F2695269526952E31C0F4FC01E20F38
:10311000F11D677081E090E001C0880F6A95EAF7C1
:10312000809592818923828308953196E817F90763
:1031300029F020812613F9CF1082F7CF089520912E
:103140000601222321F02091C10227FD05C0FC01C8
:1031500032962FEF30E019C0262F2695269526951A
:103160002E3120F5FC01E20FF11D677081E090E047
:1031700001C0880F6A95EAF79281892B82830895AE
:103180002F3F39F03F5F363041F041914613F8CF81
:103190000DC04111F7CF232FF5CF2F3F39F0FC01A0
:1031A000E20FF11D27FDFA95628308950895CF93EC
:1031B00084E090E00E94E222C82F81E290E00E9429
:1031C000E2222C2F30E0A901582BCA01CF9108959B
:1031D0006FEE7EEF80E090E00E94142360E082E0DA
:1031E00090E00E94F62260E083E090E00E94F622E8
:1031F0001092A0021092A1021092A2021092A302B9
:1032000060E084E090E00E94F62260E081E290E0DD
:103210000E94F62260E085E090E00E94F62260E0E5
:1032200086E090E00E94F6226FEF87E090E00E9437
:10323000F62240E050E0BA0188E090E00E940823C6
:1032400060E08DE090E00E94F62240E050E0BA019C
:1032500088E190E00E94082360E087E190E00E940E
:10326000F62240E050E0BA018CE190E00E94082391
:1032700060E080E290E00E94F6221092AF0210928D
:10328000B0021092B1021092B20284E08061809389
:10329000AF024091AF025091B0026091B1027091C3
:1032A000B2028FE090E00E94082340E050E0BA01B3
:1032B00083E190E00C94082380919F028111109289
:1032C0009F02089590919E028091DA01892B2091AE
:1032D0009D02982F922B9093090280919F02882340
:1032E000D9F0892B8093090280910601882331F05F
:1032F0008091C10287FF02C08EE101C086E0EBE051
:10330000F2E090E0815028F021912223D9F39F5FD1
:10331000F9CF91110E945C19E091C302F091C402AF
:103320003097A9F080910601882359F08091C1025D
:1033300087FF07C08091090280930A0285E080938D
:1033400009020280F381E02D89E092E0099408955A
:10335000BF92CF92DF92EF92FF920F931F93CF9382
:10336000DF938C01C090A002D090A102E090A20255
:10337000F090A3028091980290919902A0919A02F4
:10338000B0919B02C82AD92AEA2AFB2ACFE1D0E0D1
:10339000D701C6010C2E04C0B695A79597958795C1
:1033A0000A94D2F780FF07C0BC2EB8018C2F0E9470
:1033B000E90B019719F4219758F7B12C8B2DDF9168
:1033C000CF911F910F91FF90EF90DF90CF90BF9022
:1033D0000895CF93DF93EC010E94A819BE010E94CB
:1033E000E90BDF91CF910895292F220F920F990FAA
:1033F000890F682F669566956695982F977085E07A
:10340000689FB001112440E050E080E0FA01E60F2F
:10341000F71FEF59FD4F208130E0092E02C036958D
:1034200027950A94E2F721703327042E01C0220F5A
:103430000A94EAF7822B4F5F5F4F4530510531F711
:103440000895292F220F920F990F890FA82FA69563
:10345000A695A695877051E001C0550F8A95EAF7A9
:1034600085E0A89FD001112420E030E070E0F90150
:10347000EA0FFB1FEF59FD4F4081CB01022E02C026
:10348000969587950A94E2F781709927819584270C
:103490008523842780832F5F3F4F2530310539F7FF
:1034A00008950E94620E609398027093990280932F
:1034B0009A0290939B020C9455200F931F9341E026
:1034C00050E060E070E004C0440F551F661F771F96
:1034D0008A95D2F7409550956095709580919802A5
:1034E00090919902A0919A02B0919B028A019B014E
:1034F000082319232A233B23C901B8011F910F91E7
:103500000C94511A20919C028095822380939C02F6
:10351000982F977079F430E0482F082E000C550B47
:103520002417350739F08595859585950E945D1A94
:1035300010929C0208950F931F9341E050E060E0C9
:1035400070E004C0440F551F661F771F8A95D2F79D
:103550008091980290919902A0919A02B0919B0259
:103560008A019B01082B192B2A2B3B2BC901B8017F
:103570001F910F910C94511A6093A0027093A102B5
:103580008093A2029093A3020C9455208091600234
:1035900090912F02891719F08F5F8770FBCF0895E4
:1035A0002091E4003091E50095E64091EC00842FF5
:1035B000817040FF22C08091E80080FD1CC0809196
:1035C000FF01882391F0853091F08091EB0085FD1B
:1035D00010C04091E4005091E5004217530729F3D1
:1035E0009A01915011F784E0089582E0089583E0F4
:1035F000089581E0089580E008954091E80042FF39
:10360000DECF08958091010287FF11C08091E8000C
:1036100082FD05C08091FF018111F8CF11C080911A
:10362000E8008B770BC08091FF01882349F08091DF
:10363000E80080FFF8CF8091E8008E778093E80063
:103640000895982F973058F59093E900981739F01E
:103650007091EC002091ED005091F00003C0242FF8
:10366000762F50E021FF19C03091EB003E7F309360
:10367000EB003091ED003D7F3093ED003091EB0099
:1036800031603093EB007093EC002093ED00509389
:10369000F0002091EE0027FF07C09F5FD3CF8F700F
:1036A0008093E90081E0089580E008952091070269
:1036B000309108022617370748F06115710539F473
:1036C0002091E8002E772093E80001C0B90140E086
:1036D00061157105A9F12091FF01222309F443C06E
:1036E000253009F442C02091E80023FD40C020911C
:1036F000E80022FD32C02091E80020FFE9CF409190
:10370000F3002091F20030E0342BFC01CF01611571
:10371000710559F02830310540F481918093F10012
:10372000615071092F5F3F4FF1CF41E028303105E3
:1037300009F040E02091E8002E772093E800C8CF00
:103740004111C9CF0AC08091FF01882361F0853003
:1037500061F08091E80083FD0AC08091E80082FF5B
:10376000F2CF80E0089582E0089583E0089581E03B
:1037700008958091ED02811107C08091FF0184308E
:1037800011F081E0089582E00895CF93DF93CDB7E3
:10379000DEB72A970FB6F894DEBF0FBECDBF84B751
:1037A000877F84BF0FB6F894A895809160008861E8
:1037B00080936000109260000FBE80E880936100EB
:1037C0001092610085B7806885BF85B7806885BF26
:1037D0000E946A140E9489148091E20084608093A0
:1037E000E20078948091FF018823A1F01091E90014
:1037F0001F709091EC00892F817090FD80E8182B4C
:103800001092E9008091E80083FD0E9451111F7021
:103810001093E90082E084BD93E095BD9AEF97BDD7
:1038200080936E000E94D90E90E0909308018093DF
:1038300007010E94C00F0E94CF0FA3EBB2E0E6EC9D
:10384000F2E01EE0F12EFE0E11921D92FE12FCCF50
:103850008EE090E00E9458238093A9029093AA02E0
:10386000FC010E962BEF2193E817F907E1F780E0B2
:1038700090E00E94F0228F3E9E4F11F00E94E818C7
:103880008CE090E00E94E22290E0A0E0B0E0809323
:10389000AB029093AC02A093AD02B093AE0289EA62
:1038A0008093800089E08093810024982C983F9831
:1038B0008AB18F7C8AB96E98479A8BB180638BB935
:1038C000769A8FE090E00E94EA226093AF027093B4
:1038D000B0028093B1029093B20267703FEF639F92
:1038E000B001112475956795759567957727709345
:1038F00089006093880070938B0060938A007093B6
:103900008D0060938C000E94500F80E090E00E9438
:10391000F0228F3E9E4F11F00E94E81882E090E066
:103920000E94E2228093DE020E94D7189093C20286
:103930008093C10283E090E00E94E222682F70E051
:1039400080E090E00E94BC1A89E091E09093C4026C
:103950008093C30299249394EE24EA94CC24C394D4
:10396000D12C50E1452E62E1562E78E1A72EB12CE4
:10397000E0E48E2E8091FF01853009F043C08091F4
:10398000FF01843009F11092C5020FB6F894A89592
:10399000A09260000FBE8092600083B7817F846038
:1039A00083BF83B7816083BF7894889583B78E7F08
:1039B00083BF0FB6F894A8958091600088618093CA
:1039C0006000109260000FBE8091FE01882391F28A
:1039D0000E94D90E90E090930801809307010E9405
:1039E000C00F0E94CF0FE6ECF2E01192FE12FDCF65
:1039F0000E944310E6ECF2E081918111F2C0FE12C8
:103A0000FBCFB8CF0E944310EFEDF2E0A6ECB2E09E
:103A100000E010E0702F6D9121912627B1F180E038
:103A200090E030E0782EA901082E02C05595479508
:103A30000A94E2F740FF25C089837A83C60102C059
:103A4000880F991F7A94E2F73C01862F90E0862137
:103A5000972121E0892B09F420E02B830E9429186B
:103A60008160782F9D838C8349815A816B818D8100
:103A70000E94D50AF801E152FD4F808168266082DC
:103A800019C001968630910569F60F5F1F4F0E3001
:103A9000110509F0BFCFEE82EF8218860E94291827
:103AA0008160782F9A8789874E815F8168858A85B2
:103AB0000E94D50A8091DB029091DC020E94FF17E0
:103AC0009C019091DA02992321F02431310508F408
:103AD0007CC08091D6021091D70281110BC01111C8
:103AE00094C02091D802211190C02091D9022111B7
:103AF0008CC06BC09F3F19F09F5F9093DA0218163D
:103B000024F40E9450178093D6028091D60287FF3A
:103B100005C00E94501781958093D602111624F497
:103B20000E9450178093D7028091D70287FF05C06B
:103B30000E94501781958093D7023091D60233238B
:103B400001F12091D7022223E1F045EB3403C001BB
:103B50001124892F990F990B009719F08093D602A1
:103B600002C09092D60235EB2303C0011124892FA5
:103B7000990F990B009719F08093D70202C0909289
:103B8000D7028091D802181624F40E94301780932F
:103B9000D8028091D80287FF05C00E943017819516
:103BA0008093D8028091D902181624F40E9430170D
:103BB0008093D9028091D90287FF05C00E943017F7
:103BC00081958093D9020E9435181091DD020E94E0
:103BD000D70B181709F4CECE0E94D70B8093DD02C5
:103BE000C9CE49BC59BC09B400FEFDCF8091D800B4
:103BF0008F7D8093D8008091E00082608093E00008
:103C00008091E00081FDFCCFB5CE9F3F09F074CFDD
:103C10007CCF80912E0282958F7009F054C08091E4
:103C20002B02882309F44FC080916002A0912F02DB
:103C30006091290270912A0240912C0250912D022C
:103C4000B6E08A1709F43FC090E041155105C1F173
:103C50007F3F11F46F3FA1F1B89FF001B99FF00DC4
:103C60001124E05DFD4F218172132AC0208162136F
:103C700027C02281211124C02381348124173507D4
:103C800010F421503109241B350B283C3105C0F4B8
:103C900020912E022F70206120932E0226E0289F73
:103CA000F001299FF00D1124EB5CFD4F80818F7096
:103CB0008061808389E292E00E94BB020C94C61A64
:103CC00001968770BECF08950E94E919292F2F70A1
:103CD00092959F70E92FF0E03297EE30F105B8F43D
:103CE000E658FF4F0C945223803F99F018F4883E19
:103CF00070F40FC0843F59F40CC0883E50F0813FEF
:103D000031F407C0822F869586958695089580E0C8
:103D1000089581E00895BF92CF92DF92EF92FF92D3
:103D20000F931F93CF93DF93CDB7DEB761970FB695
:103D3000F894DEBF0FBECDBF8C0185E0F801DE0137
:103D40001D9601900D928A95E1F7D8013C9111964C
:103D50002C9111971296EC9012971396CD90DC90BF
:103D600014975091290260912A0280912C0290911F
:103D70002D02009709F44FC16F3F19F45F3F09F41A
:103D80004AC1B0902B02BB2009F4ECC040912E0236
:103D9000C816D90628F0F601E81BF90BCF0104C0BC
:103DA000809590958C0D9D1DFF24F394883C910582
:103DB00048F0F12C407F09F09FC089E292E00E9418
:103DC000BB0221C1842F807F09F044C0621312C05E
:103DD000531310C0E1100EC04F70406140932E028B
:103DE00089E292E00E94BB0280912E02D8011596D2
:103DF0008C932EC0CD2819F12F3F11F43F3FF9F0DD
:103E0000FE2CE1101CC08091600240912F0256E010
:103E1000841709F458C090E0589FF001599FF00DA5
:103E20001124E05DFD4F6181261306C060813613C9
:103E300003C06281611103C001968770E9CFFE2C37
:103E4000EE2009F421C180912E02816080932E0220
:103E5000F12C1AC162130AC0531308C0E11006C046
:103E600080912E02D80115968C93B0C03D872E8785
:103E70008D859E850E94641E8823D1F1EE20C1F1BC
:103E800020912E02822F82958F7090E0029774F01D
:103E90008091290290912A0298878F831986DB8668
:103EA000CA862C87CE0107960E94BB0286E0F801E5
:103EB000A9E2B2E001900D928A95E1F70E94091EF5
:103EC000FF24F394E1C03D872E878D859E850E9457
:103ED000E919292F22952F7030E0223031050CF09E
:103EE000C7C09F7009F0C1C0805E883008F4CCC0A4
:103EF000C8010E94BB02E4CF621314C0531312C066
:103F0000E11010C080912E02F8018583C8010E9443
:103F1000BB0286E0E9E2F2E0DF011D928A95E9F753
:103F2000FB2CB2C03D872E878D859E850E94641E26
:103F30008823F1F2EE20E1F220912E02822F829569
:103F40008F7090E002970CF4B1CF8091290290918C
:103F50002A029A8389831B82DD82CC822E83CE0142
:103F60000196A2CFC816D90638F0C81AD90AB8ECFB
:103F7000CB16D10450F007C0809590958C0D9D1DF7
:103F8000883C910510F0F12C3EC0FE2CEE2009F487
:103F9000AFCF621327C0531325C020912E0220FDFE
:103FA00018C0822F82958F70482F50E0411551051F
:103FB00081F0F80125834F30510541F08F5F982F34
:103FC0009295907F822F8F70892B8583C8010E94E4
:103FD000BB0286E0F801A9E2B2E001900D928A9559
:103FE000E1F752C03D872E878D859E850E94641E15
:103FF00081115CCF80912E02816080932E02C801D6
:104000000E94BB0241C0E9E2F2E086E0DF011D92BE
:104010008A95E9F739C0EE2009F46ACF3D872E87EB
:104020008D859E850E94641EF82E882309F460CF3A
:1040300086E0F801A9E2B2E001900D928A95E1F7DD
:104040008091290290912A020E94E91992959F700D
:10405000963041F48091EF0291E089278093EF023E
:104060009093EE020E94091E0FC081113DCF0CC03B
:10407000243031050CF03CCF9F7009F435CFF801A6
:104080009581907F09F030CF8F2D61960FB6F8940F
:10409000DEBF0FBECDBFDF91CF911F910F91FF907B
:1040A000EF90DF90CF90BF90089510929E021092F3
:1040B0009D020E946219E4EDF2E086E0DF011D92AC
:1040C0008A95E9F71092DA021092A8020E94351838
:1040D00080E090E00E94C10B80E090E00C94AB0B7C
:1040E00080910601882331F08091C10287FF02C0D0
:1040F0008EE101C086E0EBE0F2E0DF011D928A95DF
:10410000E9F70C945520882341F080959091DA01CD
:1041100089238093DA010C9462190895882339F079
:104120009091DA01892B8093DA010C946219089539
:10413000882309F463C0823869F40E94D70B81FF99
:104140005DC069E389E092E00E949F180E946219B5
:1041500069E30EC0833891F40E94D70B80FF4EC0F4
:1041600063E589E092E00E949F180E94621963E56E
:1041700089E092E00E9474180C946219843869F402
:104180000E94D70B82FF3AC067E489E092E00E9468
:104190009F180E94621967E4EBCF9CEF980F913A49
:1041A00010F4682FE5CF90E2980F983088F487706C
:1041B00021E030E0A90102C0440F551F8A95E2F7C3
:1041C000CA0180959091DA0189238093DA01D4CFD6
:1041D0009BE5980F933020F480E090E00C94C10BA5
:1041E00098E5980F973120F480E090E00C94AB0BA9
:1041F000803F20F00E94AB160C9435180895CF93A1
:10420000C82F0E941221C93349F42FEF87EE93E0A3
:10421000215080409040E1F700C000008C2FCF91EA
:104220000C949820882309F416C18238B1F40E94B6
:10423000D70B81FD10C169E389E092E00E949F18CD
:104240000E9462192FEF41EE54E02150404050404F
:10425000E1F700C0000069E317C08338D9F40E9479
:10426000D70B80FDF8C063E589E092E00E949F18BB
:104270000E9462198FEF91EE24E08150904020401F
:10428000E1F700C0000063E589E092E00E94741845
:104290000C9462198438B1F40E94D70B82FDDBC004
:1042A00067E489E092E00E949F180E9462194FEF34
:1042B00051EE84E0415050408040E1F700C00000E2
:1042C00067E4E2CF9CEF980F913A30F4682F89E0D1
:1042D00092E00E949F18DCCF90E2980F983080F413
:1042E000877021E030E0A90102C0440F551F8A9574
:1042F000E2F7CA019091DA01892B8093DA01C8CFE5
:104300009BE5980F933070F4853A29F0863A31F0A6
:1043100083E890E005C081E890E002C082E890E088
:104320000C94C10B98E5980F973108F08EC0883A2D
:1043300009F445C0893A09F445C08A3A09F445C0F0
:104340008B3A09F445C08C3A09F445C08B3B09F41B
:1043500045C08C3B09F445C08D3A09F445C0803B0B
:1043600009F445C08E3A09F445C08F3A09F445C0B6
:10437000813B09F445C0823B09F445C0833B09F405
:1043800045C0843B09F445C0853B09F445C0863BE4
:1043900009F445C0873B09F445C0883B09F445C092
:1043A000893B09F445C08D3B09F445C08E3B09F4B7
:1043B00045C08A3B09F445C080E090E044C082EEED
:1043C00090E041C089EE90E03EC08AEE90E03BC0B4
:1043D00085EB90E038C086EB90E035C083EB90E051
:1043E00032C084EB90E02FC087EB90E02CC08CECC7
:1043F00090E029C08DEC90E026C083E891E023C0D6
:104400008AE891E020C082E991E01DC084E991E052
:104410001AC081E292E017C083E292E014C084E205
:1044200092E011C085E292E00EC086E292E00BC0FD
:1044300087E292E008C08FE690E005C080E790E058
:1044400002C08AE292E00C94AB0B803F20F00E9405
:1044500071170C94351808951092B9008CE0809370
:10446000B8000895EF92FF920F931F93CF93DF93BD
:10447000182FEB011092BC0084EA8093BC000E94CC
:1044800029187C019091BC0097FD0EC0CF3F8FEFA3
:10449000D807C1F30E9429188E199F098C179D0710
:1044A00088F38EEF9FEF2EC09091B900987F9830DF
:1044B00041F09091B900987F903119F08FEF9FEF04
:1044C00021C01093BB0084E88093BC000E9429188F
:1044D0008C019091BC0097FD0CC0CF3F8FEFD807A7
:1044E000C1F30E942918801B910B8C179D0788F33C
:1044F000D8CF8091B900887F883111F08034F1F6EF
:1045000080E090E0DF91CF911F910F91FF90EF90AD
:1045100008950F931F93CF93DF93EB018093BB001C
:1045200084E88093BC000E9429188C019091BC0003
:1045300097FD0EC0CF3F8FEFD807C1F30E94291817
:10454000801B910B8C179D0788F38EEF9FEF0CC09B
:104550002091B900287F81E090E0283211F480E0BA
:1045600090E0919581959109DF91CF911F910F91E5
:1045700008950F931F93CF93DF93EC0184E880930A
:10458000BC000E9429188C019091BC0097FD0EC0C0
:10459000CF3F8FEFD807C1F30E942918801B910BE2
:1045A0008C179D0788F38EEF9FEF03C08091BB00AF
:1045B00090E0DF91CF911F910F91089584E980934E
:1045C000BC000895F999FECF92BD81BDF89A992754
:1045D00080B50895A6E1B0E044E050E00C941C23BF
:1045E000A8E1B0E042E050E00C941C23262FF9999A
:1045F000FECF92BD81BDF89A019700B4021639F042
:104600001FBA20BD0FB6F894FA9AF99A0FBE089512
:104610000396272F0E94F7220E94F622252F0E9440
:10462000F722242F0C94F7220196272F0E94F722BD
:104630000C94F622DC01CB01FC01F999FECF06C0F7
:10464000F2BDE1BDF89A319600B40D924150504050
:10465000B8F70895AA1BBB1B51E107C0AA1FBB1FD7
:10466000A617B70710F0A61BB70B881F991F5A95FE
:10467000A9F780959095BC01CD01089597FB072E71
:1046800016F4009407D077FD09D00E942A2307FC76
:1046900005D03EF4909581959F4F08957095619552
:1046A0007F4F0895EE0FFF1F0590F491E02D0994C0
:1046B000CF93DF938230910510F482E090E0E09197
:1046C000F202F091F30220E030E0C0E0D0E0309759
:1046D00011F14081518148175907C0F04817590717
:1046E00061F482819381209719F09B838A832BC088
:1046F0009093F3028093F20226C02115310519F040
:104700004217530718F49A01BE01DF01EF0102803E
:10471000F381E02DDCCF2115310509F1281B390B80
:104720002430310590F412968D919C911397611568
:10473000710521F0FB019383828304C09093F302FF
:104740008093F202FD01329644C0FD01E20FF31F97
:1047500081939193225031092D933C933AC020913B
:10476000F0023091F102232B41F4209102013091AB
:1047700003013093F1022093F00220910001309167
:1047800001012115310541F42DB73EB740910401D7
:1047900050910501241B350BE091F002F091F102DC
:1047A000E217F307A0F42E1B3F0B2817390778F008
:1047B000AC014E5F5F4F2417350748F04E0F5F1F67
:1047C0005093F1024093F0028193919302C0E0E094
:1047D000F0E0CF01DF91CF9108950F931F93CF9316
:1047E000DF93009709F48CC0FC0132971382128288
:1047F0000091F2021091F3020115110581F420815C
:104800003181820F931F2091F0023091F10228171D
:10481000390779F5F093F102E093F00271C0D80105
:1048200040E050E0AE17BF0750F412962D913C9136
:104830001397AD012115310509F1D901F3CF9D0180
:10484000DA013383228360817181860F971F82177B
:10485000930769F4EC0128813981260F371F2E5FF9
:104860003F4F318320838A819B8193838283452BB1
:1048700029F4F093F302E093F20242C01396FC9302
:10488000EE931297ED01499159919E01240F351F26
:10489000E217F30771F480819181840F951F0296CE
:1048A00011969C938E938281938113969C938E9301
:1048B0001297E0E0F0E0D80112968D919C91139749
:1048C000009719F0F8018C01F6CF8D919C91980119
:1048D0002E5F3F4F820F931F2091F0023091F10223
:1048E0002817390769F4309729F41092F3021092CF
:1048F000F20202C0138212821093F1020093F002BE
:0E490000DF91CF911F910F910895F894FFCF92
:10490E000000F4022000012000C51564163916C8F7
:10491E0015FE15000D010D020D030D040D050D0004
:10492E000C010C020C030C040C050C000B010B0209
:10493E000B030B040B050B000A010A020A030A04FF
:10494E000A050A00090109020903090409050900FB
:10495E0008010802080308040805080007010702F9
:10496E0007030704070507000601060206030604EF
:10497E0006050600050105020503050405050500EB
:10498E0004010402040304040405040003010302E9
:10499E0003030304030503000201020202030204DF
:1049AE0002050200010101020103010401050100DB
:0C49BE00000100020003000400050000DE
:00000001FF
