:100000000C9422040C943F040C943F040C943F0481
:100010000C943F040C943F040C943F040C943F0454
:100020000C943F040C943F040C94D1120C941312C2
:100030000C9445270C943F040C943F040C943F040B
:100040000C943F040C943F040C943F040C943F0424
:100050000C943F040C9404270C943F040C943F042C
:100060000C943F040C943F040C943F040C943F0404
:100070000C943F040C943F040C943F040C943F04F4
:100080000C943F040C943F040C943F040C943F04E4
:100090000C943F040C943F040C943F040C943F04D4
:1000A0000C943F040C943F040C943F048007800799
:1000B000B307B3071E083C08460946094708BB08B2
:1000C000CC08CC0826104D10FB114D10FB119910D7
:1000D000BC10FB11B111C1113A193D194019431956
:1000E00048194D194B19FD1A001B031B061B091B50
:1000F0000C1B0F1B1E0F0500047F3F1F643214648E
:100100003214783C1E1E140A0505010980A10185E0
:100110000319012AB700150126B700950175108152
:1001200000C0050C0901A101850419012AA00215CE
:100130000126A002950175108100C005010906A1E4
:10014000018506050719E029E715002501950875C1
:100150000181020507190029EF1500250195F075A9
:10016000018102050819012905950575019102957E
:100170000175039101C005010902A1010901A10056
:100180000509190129081500250195087501810245
:100190000501093009311581257F95027508810611
:1001A00009381581257F950175088106050C0A38E7
:1001B000021581257F950175088106C0C00660FF84
:1001C0000961A1010962150026FF009520750881CB
:1001D000020963150026FF00952075089102C005ED
:1001E000010906A101050719E029E7150025019578
:1001F000087501810295017508810105071900291B
:10020000FF150026FF0095067508810005081901F5
:100210002905950575019102950175039101C009A4
:10022000027400040100A0FA0904000001030101A6
:100230000009211101000122400007058103080087
:10024000010904010002030000000921110100015D
:100250002222000705830320000107050403200074
:10026000010904020001030102000921110100013A
:100270002247000705820308000109040300010367
:10028000000000092111010001226D00070585030E
:100290002000011201000200000008973275490198
:1002A000000102000122034500720067006F004454
:1002B000006F007800200045005A002000530068BD
:1002C0000069006E006500000028035A00530041D9
:1002D00000200054006500630068006E006F006C31
:1002E000006F006700790020004C0061006200731D
:1002F00000000004030904000101010101010101E2
:1003000001020202020202020202030303030303C8
:100310000303040404040404040505050505060696
:100320000606060707070707080808080909090954
:100330000A0A0A0B0B0B0C0C0C0D0D0D0E0E0E0FFA
:100340000F0F10101111111212131314141515168A
:10035000161717181819191A1A1B1B1C1D1D1E1EFB
:100360001F2020212222232424252626272829294C
:100370002A2B2C2D2D2E2F30313232333435363777
:1003800038393A3B3C3D3E3F404142434445464775
:1003900048494A4C4D4E4F50515354555658595A4E
:1003A0005B5D5E5F616264656668696B6C6D6F70F2
:1003B00072737577787A7B7D7E8082838587888A61
:1003C0008C8E8F91939596989A9C9EA0A2A3A5A798
:1003D000A9ABADAFB1B3B5B7BABCBEC0C2C4C6C994
:1003E000CBCDCFD1D4D6D8DBDDDFE2E4E7E9EBEE4D
:1003F000F0F3F5F8FAFDFFFFAA7F554029002B0026
:100400003500E100015100001E00140004001D64CD
:10041000E000000F1F001A0016001B00E20006019A
:1004200020000800070006005000E300210015002E
:10043000090019004F003508220017000A000500C6
:100440000000900026022F0200002F000000045040
:1004500027023002000030000000000723001C00CB
:100460000B00110000009100240018000D00100086
:1004700051004B0025000C000E00360052002C00ED
:10048000260012000F00370023022A002700130065
:100490003300387421024E002D0031003400280052
:1004A00002510000010001000100010001000000F4
:1004B0000100045D5000010002510100075D52007F
:1004C00051000100035101000100065D4F000601CB
:1004D000500C010001000100090119014F0C4D00F1
:1004E00001000100010001000000B6000100010050
:1004F0000000010000004A000100010000000100AE
:100500000000010001000100010001000000B7002F
:100510000100240021001E00270001002E002500FC
:1005200022001F00010001005400260023002000CB
:10053000370001005500560057000100010001007E
:100540002E00300230000A0201000000A600010067
:10055000FF000100FD0000003A00FC00EF00010078
:100560000100F3003B00ED00EE0001000100F2008D
:100570003C00FC00F00001000100F1003D00F9002A
:10058000FA000100010001003E000100010001002D
:10059000000001003F000100000001000000010018
:1005A00040000100000001000000A900410001001E
:1005B00001000100000001004200010001000100F3
:1005C000AA00AA004300010001000100A900B70031
:1005D0004400010001000100A800B6004500010030
:1005E000010031000100A8000100010001000351D9
:1005F00001000000010001000100010001000000F5
:10060000900007050805500D010001009100180534
:1006100050050D05010035089200520506055105EB
:100620000100280593000C054F050E05010001008F
:1006300094000A0517054F0D00000100010001009C
:1006400000000100000001000100010000000100A5
:1006500000000100950001005000010000000100B1
:100660009600010051000100010001009700010007
:100670005200010001001A08980001004F0001001B
:100680000100010001000100010001000100010062
:10069000005C0100C35C01000100000001000100DA
:1006A00001000100E00000000100010001001D0048
:1006B000E200E1000100010001000100E30001008F
:1006C000010001000100010001002C0001000100F7
:1006D0000100010001000100010001000100010012
:1006E000000001003A0001000000010000000100CC
:1006F00001004A0000004C00000000500100010011
:1007000001000100000001000100010001000100E2
:1007100001000100010001000100010001000100D1
:1007200001000100010001000100010001000100C1
:10073000010038000100E300010001000100010098
:10074000010000002223252628292A2C2D2F3032B3
:10075000333536383A3B3D3E4042434547494A4CA3
:100760004E5051535557595A5C5E606264666869D1
:100770006B6D6F71737577797B7D7F8183858789D9
:100780008A8C8E90929496989A9C9E9FA1A3A5A7DE
:10079000A8AAACAEAFB1B3B4B6B8B9BBBCBEBFC10A
:1007A000C2C3C5C6C7C9CACBCCCDCED0D1D2D2D395
:1007B000D4D5D6D7D7D8D9D9DADADBDBDBDCDCDCA9
:1007C000DCDCDDDDDDDDDCDCDCDCDCDBDBDBDADA6C
:1007D000D9D9D8D7D7D6D5D4D3D2D2D1D0CECDCCE3
:1007E000CBCAC9C7C6C5C3C2C1BFBEBCBBB9B8B6F8
:1007F000B4B3B1AFAEACAAA8A7A5A3A19F9E9C9A83
:1008000098969492908E8C8A89878583817F7D7B50
:1008100079777573716F6D6B6968666462605E5C31
:100820005A5957555351504E4C4A494745434240F7
:100830003E3D3B3A3836353332302F2D2C2A29288D
:100840002625232211241FBECFEFDAE0DEBFCDBF65
:1008500011E0A0E0B1E0ECECF7E502C005900D92EC
:10086000A83AB107D9F726E0A8EAB1E001C01D9285
:10087000A638B207E1F70E9488090C94E42B0C9487
:100880000000A5E2B0E0E7E4F4E00C941F29FC01CD
:100890008081918123813481232B31F09F3F31F47A
:1008A00091E08F3F19F403C091E001C090E090FD0A
:1008B0002BC57F0185E0DE01919601900D928A950E
:1008C000E1F7D70112962C9189A19AA1222349F030
:1008D0000E948A1B182F682F89A19AA10E94B81D17
:1008E00003C00E94841D182F69A17AA1812F0E9444
:1008F0007B1F8C018091AA04811149C0F70182817C
:100900008111A8C00530FDE51F0731F1A0F40430C6
:100910008DE5180709F09EC00E94661B0E94351ED7
:1009200080E00E94ED1D8AEA91E090931F0580937C
:100930001E0581E01FC007309DE51907F1F0083062
:10094000ADE51A0709F086C060910A0170910B01AC
:100950004FEF84EA94E018C00E94661B0E94351E87
:1009600080E00E94ED1D84EA94E090931F0580933F
:100970001E0582E08093AA04B7C460910C017091B7
:100980000D0141E08AEA91E00E94CF27ADC49801B1
:1009900024503D452330310508F045C091E0063034
:1009A000BDE51B0709F490E0F7012281291709F43E
:1009B0009BC4813069F0823099F500911E05109139
:1009C0001F051092DE05809171060E94231920C038
:1009D00000911E0510911F051092DE058091710691
:1009E0000E942319F1E00A3A1F0739F0F8013697FF
:1009F0008281882311F08F01F5CF10930D010093B0
:100A00000C010EC0F80136968281882329F08F01EF
:100A100024E0043A1207B1F710930B0100930A0186
:100A20001092AA0461C4813059F0823099F4609127
:100A30000C0170910D0197014FEF84EA94E008C01A
:100A400060910A0170910B01970141E08AEA91E0FF
:100A50000E941E0F90912005D70112968C91992328
:100A600009F44DC0811140C4E091AB04E330A0F41F
:100A700081E08E0F8093AB04F0E0EE0FFF1FEC518E
:100A8000FB4FD7018D919C919183808382E0898374
:100A9000CE0101960E940514BFEFE3EDF0E3B150E3
:100AA000E040F040E1F700C000008091AB048330EB
:100AB00009F01AC41092AB04EAEEF4E0A4EEB4E03C
:100AC00080EF94E0318111962C91119732132EC052
:100AD00030812C9132132AC0329612968E179F07BE
:100AE00089F784E0898381E0809321058EEF8A83F2
:100AF00010922005CE0101960E940514F5C3909135
:100B000021059923C1F0882311F086E001C087E018
:100B10008983D7018C918A8311968C918B838EEF78
:100B20008C83CE0101960E94051405C083E0898361
:100B300010922105DBCFF7018281033BFDE51F0702
:100B4000D1F5882309F44DC09091AF0481E0890F5D
:100B50008770987F853020F4892B8093AF0402C082
:100B60009093AF048091AF048770BFEF8B9FC0015B
:100B70001124959587959595879599279093890048
:100B80008093880090938B0080938A0090938D00CF
:100B900080938C004091AF045091B0046091B104F7
:100BA0007091B2048FE090E00E94F129809171066B
:100BB0000E94231916C0043BEDE51E0741F0053BDA
:100BC000FDE51F0771F4882309F48EC326C088232E
:100BD00009F48AC39091AC0481E089278093AC0426
:100BE00083C3D70112968C918111D1C08091D40515
:100BF00082720D3C2CE5120709F4AEC0B8F0023D3C
:100C0000BCE51B0709F4B5C008F062C00F3CFCE569
:100C10001F0709F4A8C008F04EC081E004C081603D
:100C200080936C0686950E941C185EC3073CACE559
:100C30001A0709F47DC0D8F4043CECE51E0709F45A
:100C40006DC030F4033C2CE5120709F460C00BC101
:100C5000053C9CE5190709F466C0063CACE51A079B
:100C600009F001C14AE956E164EA76E179C00A3C3B
:100C7000BCE51B0709F466C078F4083CFCE51F07D7
:100C800009F45BC0093C2CE5120709F0ECC04DE803
:100C900056E160E876E164C00B3C9CE5190709F475
:100CA00056C00C3CACE51A0709F0DDC04BEF54E12F
:100CB0006DE075E155C0003D8CE5180709F456C09C
:100CC000013D9CE5190709F0CEC06EE089E05CC0EB
:100CD000053DACE51A0709F452C060F4033DECE5AC
:100CE0001E0709F449C0043DFCE51F0709F0BBC01D
:100CF00088E199CF063D2CE5120709F443C00F3572
:100D00008DE5180709F0AFC06AE285E23DC0809129
:100D10006C0680FF84CF0E941F15E6C240E258E1B6
:100D20006AE278E11DC04AE258E160E278E118C069
:100D300044EA56E16AE976E113C040E856E16DE81D
:100D400076E10EC046E656E163E776E109C043E787
:100D500056E166E676E104C04DE055E16BEF74E1E3
:100D60000E942D28C1C265E082E00EC068E086E0E6
:100D70000BC064E18FE008C067E185E105C062E275
:100D800089E102C083E24FCF0E941A28ADC20C3520
:100D90009DE5190709F462C060F40115BCE51B0765
:100DA000A9F00F3DECE51E0709F05DC00E9430215F
:100DB0004AC00E35FDE51F0709F448C008F450C0CD
:100DC000093A8DE5180709F43EC04DC00E94351E52
:100DD0009FEFA4E3BCE09150A040B040E1F700C019
:100DE0000000F89481E08093E00080E28093D800D6
:100DF0001092C900EFE1FEE43197F1F700C0000066
:100E00001DBA109268001CBC10BE1FBA10927A0066
:100E100010926E0010926F0010927100109272008A
:100E20001092C9001092BC0014B817B81AB81DB8B7
:100E300010BA1092BC0015B818B81BB81EB811BA79
:100E40000C94003F51C20E940D194EC280917E0643
:100E500082FB882780F991E0892703C081E001C0E7
:100E600080E00E942522F701828100811181882380
:100E700049F0C8010E948A1BD82E682FC8010E9421
:100E8000B81D04C0C8010E94841DD82EB8018D2D44
:100E90000E947B1F0E94941FB82E192F982EF701D5
:100EA0000281A580A2949FE0A9228091B20587705B
:100EB000B9F00023A9F0812F807F803421F080E2F7
:100EC0008B0D883068F080917E0682FF09C082E039
:100ED0000E9408228091B2058770DD24D39481118D
:100EE000D12CC12EC2948FE0C8228C2D90E08C3082
:100EF000910508F0CBC1FC01EA5AFF4F0C94942AEB
:100F0000812F807F1F70882311F01295107F00239E
:100F1000B9F0112309F4A8C180E28B0D883010F0DC
:100F2000911006C08091D405182B1093D40505C0EC
:100F30008091D305182B1093D3050E94B32194C13F
:100F40008B2D0E945C1E112309F4A0C180E28B0D41
:100F5000883080F1992071F110958091D305182384
:100F60001093D3052AC0812F807F1F70803211F02B
:100F70001295107F8B2D992021F0F1E09F16D9F169
:100F800047C080917E0682FD1BC0002369F01123BB
:100F900039F08091D405182B1093D4050E94B32109
:100FA00080E00E94911E72C180E00E945C1E1123AD
:100FB00009F46CC1812F0E94AC210E94B32166C14B
:100FC000002381F08091D505AA2051F021E0A212E2
:100FD00007C0182B181709F459C11093D50556C12D
:100FE000812B10C0AA2021F081E0A81609F44EC17F
:100FF0000E94A6211FC0002341F091E09A1508F439
:1010000045C1812F0E94521E41C1A1103FC112C093
:10101000002319F0AA20A9F327C1AA2059F0893387
:1010200009F031C1AFEFB7EEE3E0A150B040E040CE
:10103000E1F727C1812F0E944B1E28C1812F869581
:101040008695837019F0813061F020C1002321F072
:101050008B2D912F937002C080E090E00E94AC270E
:101060001BC1002321F08B2D912F937002C080E0D3
:1010700090E00E94962710C18B2D002319F00E944A
:10108000631702C00E94AE160E94351805C1812F59
:101090008370A9F50111FEC04B2D4295469547700E
:1010A000440F440F8B2D8F7090E09C01042E01C0E3
:1010B000220F0A94EAF7B4FE08C08FE090E001C066
:1010C000880F4A95EAF7809501C080E0169516953D
:1010D0001370123069F088F49091D605113019F030
:1010E000822B892302C0922B892B0E94301ED2C0F2
:1010F000822B9091D6058927F8CF822BF6CF00233B
:1011000019F0812F817001C08695882309F4C2C02F
:101110004B2D429546954770440F440F8B2D8F7091
:1011200090E09C01042E01C0220F0A94EAF7B4FE5D
:1011300008C08FE090E001C0880F4A95EAF78095DB
:1011400001C080E0169516951370123059F078F4AE
:1011500090917106113019F0822B892309C0922BCE
:10116000892B06C0822B90917106892701C0822BA2
:101170000E94ED1D8FC01F70002339F0812F0E9447
:10118000241E8B2D0E94521E85C08B2D0E944B1E4B
:10119000812F0E94171E7EC08B2DF2EF9F1669F1E2
:1011A000F91538F020EF921659F091EF991601F1E8
:1011B00057C0A3EF9A1641F1B4EF9B16A9F050C0A7
:1011C000002369F0A11062C01F7181E090E001C0AE
:1011D000880F1A95EAF79091710689271FC0E1E000
:1011E000EA1508F453C0F0CF80917E0682FD19C045
:1011F000002329F0812F8F7126C00023D9F3812F7E
:101200008F710E94171E42C0002339F01F7181E0C8
:1012100001C0880F1A95EAF701C080E00E94ED1D19
:1012200035C0002399F01F71812F0E94241E8091E8
:101230007E0682FF07C0F8E01F9FC0011124836073
:101240008093B205812F0E94241E20C081E00E945D
:10125000082221E02A15D0F482E00E94082216C05C
:10126000002321F0AA2031F28B2D9BCEAA2039F247
:10127000893349F48FEF97EEA3E081509040A0406E
:10128000E1F700C000008B2D0E945C1E88EF8C0DE2
:10129000843010F40E94C227DD20A9F08091B205AD
:1012A00080FD11C0F70112828595859585950E9474
:1012B000241EC7010E9441048091B2058595859541
:1012C00085950E94171E85E0F701DE0111960190B9
:1012D0000D928A95E1F709811A81C8010E94841D47
:1012E000B8010E947B1F10C08091B205877061F029
:1012F000D70112968C91882339F080917E0682FF67
:1013000003C082E00E940822A596EBE00C943B29E2
:10131000ACE5B0E0EEE8F9E00C941C2985B78068F4
:1013200085BF85B7806885BF84B7877F84BF0FB6C8
:10133000F894A89580916000886180936000109275
:1013400060000FBE90E080E80FB6F89480936100D3
:10135000909361000FBE86E39FE19093A901809373
:10136000A8010E9457120E9476128091E2008460C8
:101370008093E2007894809123058823A1F0109156
:10138000E9001F709091EC00892F817090FD80E83A
:10139000182B1092E9008091E80083FD0E94430F12
:1013A0001F701093E90082E084BD93E095BD9AEF31
:1013B00097BD80936E000E94D81990E090931D0114
:1013C00080931C010E94131B0E94591BE3EBF4E065
:1013D000A6ECB4E011921D9224E0E13CF207D1F7B3
:1013E0008EE090E00E94A92A8093AD049093AE0411
:1013F000FC010E961192E817F907E1F789EA80934C
:10140000800089E08093810024982C983F988AB1CD
:101410008F7C8AB96E98479A8BB180638BB9769A24
:101420008FE090E00E94C3296093AF047093B004F2
:101430008093B1049093B20467703FEF639FB00153
:101440001124759567957595679577277093890031
:101450006093880070938B0060938A0070938D0076
:1014600060938C000E944F1A80E090E00E94C9298E
:10147000883E9E4F11F00E94302182E090E00E9451
:10148000BB298093D40484E090E00E94BB29182FEC
:1014900082E290E00E94BB29212F30E0382B30936C
:1014A0007E0620937D0683E090E00E94BB290E9487
:1014B000301E809171060E9423198091C104811110
:1014C00035C080E090E00E94C929883E9E4F21F0FF
:1014D0000E9430210E94381588E090E00E94C329C4
:1014E00060936C0670936D0680936E0690936F0602
:1014F0006E7F71F40E94381588E090E00E94C32945
:1015000060936C0670936D0680936E0690936F06E1
:101510000E94D5141092380580916C0680FF03C09C
:1015200086950E940F1881E08093C1048091710616
:101530000E9423198EE091E09093750680937406C3
:1015400008E1E02EF12C80E4D82E8091230585302F
:1015500009F07BC0CC24C39400E112E18091230503
:10156000853009F065C080912305843009F43DC0C1
:10157000109238058091C304811116C0C092C30433
:1015800080916C06982F91709093C2048E7F809307
:101590006C06FFEF20E732E0F15020403040E1F7E9
:1015A00000C000000E943114109278060FB6F89423
:1015B000A895E09260000FBED092600083B7817F53
:1015C000846083BF83B7816083BF7894889583B735
:1015D0008E7F83BF0FB6F894A895809160008861D4
:1015E00080936000109260000FBE809114058823E4
:1015F00009F4B4CF0E94D81990E090931D01809314
:101600001C010E94131B0E94591BE6ECF4E011928E
:1016100044E0E43DF407D9F70E94B422E6ECF4E09C
:10162000819181112FC384E0E43DF807C9F796CF7B
:101630000E94351E0E94C2271092C3048091C204EA
:1016400081110E9413180E94BE170E94B42215ED4A
:10165000A12E14E0B12E23EE34E0A6ECB4E0F501A7
:1016600091918D9189272E173F0719F08823C1F397
:1016700032C0811130C00E9439278C018091C4048E
:101680009091C5040817190709F473C08FEF649689
:101690008FAF649765968FAF659766961FAE669716
:1016A0000E9439278160782F68969FAF8EAF689728
:1016B00064964FAD649765965FAD659766966FAD1E
:1016C000669768968FAD68970E945C181093C50462
:1016D0000093C4044EC0B6EC8B2EB4E09B2E10E0F9
:1016E000F40161904F01F5017080762481F100E0F2
:1016F000CC24C394872D8C2121F169960FAF699773
:101700006A961FAF6A9791E0862D8C2109F490E0CC
:101710006B969FAF6B970E9439278160782F6D96EB
:101720009FAF8EAF6D9769964FAD69976A965FAD23
:101730006A976B966FAD6B976D968FAD6D970E94A4
:101740005C180F5FCC0C0630A9F6F50160821F5FB4
:10175000FFEFAF1ABF0A1E3009F0C2CF8FB7F8945F
:101760004091790650917A0660917B0670917C06D3
:101770008FBF80913805882309F4A5C08091370573
:10178000E0916C06E695E81BE0933305823059F44E
:10179000F0E0EB5FFE4FE4910E2F10E0A5ECAA2ED7
:1017A000A6E2BA2E6BC0863059F4F0E0EE5FFE4F31
:1017B000E4910E2F10E0F5EBAF2EF6E2BF2E5EC0E7
:1017C000893061F4E695F0E0E150FF4FE4910E2F8F
:1017D00010E0E1E5AE2EE6E2BE2E50C08F3061F49F
:1017E000E695F0E0E450FF4FE4910E2F10E07BEE21
:1017F000A72E75E2B72E42C0853159F4F0E0E750CC
:10180000FF4FE4910E2F10E06BE9A62E65E2B62E95
:1018100035C08831F9F0833249F4E7EFF0E0059103
:1018200014915BE7A52E56E2B52E28C08432C9F08C
:101830008532F1F48E2F63E00E94662AE92FF0E0F2
:10184000EC50FF4FE4910E2F10E042E5A42E44E24D
:10185000B42E14C008E210E030E2A32E35E2B32E1D
:101860000DC004EF11E028EEA22E24E2B22E06C035
:1018700000ED17E091EFA92E93E2B92E8091340587
:10188000882361F0109234050E9439279093320525
:101890008093310510923605109235050E94392744
:1018A000E0913105F09132058E1B9F0B8F3F9F47D2
:1018B00050F40E0F1F1F109332050093310581E382
:1018C00095E0F501099585E0EBE2F5E0DE01119682
:1018D00001900D928A95E1F710922C0510922D053A
:1018E00010922E0510922F051A81111104C08B81C0
:1018F000882309F452C08091290590912A050E94FD
:101900002A279C0190912505992309F4D1C12531FD
:10191000310508F442C09F3F19F09F5F9093250561
:10192000112361F00E944517111614F491E001C0D3
:101930009FEF899F802D112480932C051B811123FB
:1019400061F00E944517111614F491E001C09FEF59
:10195000899F802D112480932D0530912C053323F0
:10196000E1F020912D052223C1F045EB3403C001A5
:101970001124992319F090932C0503C081E08093E2
:101980002C0535EB2303C0011124992319F0909302
:101990002D0503C081E080932D051C81111104C029
:1019A0008D81882309F452C08091270590912805E4
:1019B0000E942A279C0190912405992309F47CC157
:1019C0002531310508F442C09F3F19F09F5F909385
:1019D0002405112361F00E942517111614F491E0DB
:1019E00001C09FEF899F802D112480932E051D81BA
:1019F000112361F00E942517111614F491E001C023
:101A00009FEF899F802D112480932F0530912E0503
:101A10003323E1F020912F052223C1F045EB34035D
:101A2000C0011124992319F090932E0503C081E081
:101A300080932E0535EB2303C0011124992319F05F
:101A400090932F0503C081E080932F0545E050E07F
:101A5000BE016F5F7F4F8BE295E00E94D72B892BF1
:101A6000A9F480912C0581110FC080912D05811161
:101A70000BC080912E05811107C081E090912F0548
:101A8000911103C080E001C081E080FD0E94351803
:101A900085E0FE013196ABE2B5E001900D928A95AA
:101AA000E1F70E94C2279091E304891769F08093BF
:101AB000E3048FB7F8944091790650917A066091CB
:101AC0007B0670917C068FBF80912305843009F0DE
:101AD0003CCD8093E9008091E80082FF36CD809173
:101AE000E80085FF22C00E94A81381111CC000E2FB
:101AF00010E05E0141E2A40EB11C08C08091F1002B
:101B0000F50181935F010150110969F08091E800AE
:101B100085FDF4CF8091E8008B778093E8000E94E8
:101B2000A813882399F391E001C090E08091E80028
:101B30008B778093E800992309F407CD89A182303F
:101B4000B9F060F48823C9F1813009F0FECC0AEEC7
:101B500014E080EFA82E84E0B82E3CC0853009F454
:101B600088C0863009F485C0843009F0EECC75C099
:101B70008BA19AA19093E4048093E5048DA19CA18C
:101B80009093E6048093E7048FA19EA19093E804CC
:101B90008093E90442E150E063E270E0CE018F5BA4
:101BA0009F4F0E94AB2984E0898381E080932105C7
:101BB0008EEF8A831092200560C019828CE0ECE2DF
:101BC000F1E0DE01129601900D928A95E1F78EEF19
:101BD0008D8753C00E94FA27F801819391938F015A
:101BE000AE16BF06B9F781E089839091EA049A8323
:101BF0009091EB049B839091EC049C839091ED0475
:101C00009D839091EE049E839091EF049F839EEFBD
:101C1000988780932005CE0101960E94051442E129
:101C200050E063E270E0CE0101960E94AB29FE0114
:101C3000319682E183301CF09189928B01C0128A27
:101C4000815031978F3FB1F742E150E063E270E09D
:101C5000CE0101960E94CF2978CC8091210588235E
:101C600009F473CC80E00E94ED1D8AA10E94241E1D
:101C70006CCC8FEF898384E08A83CE0101960E9429
:101C8000051463CC09BD19BD09B400FEFDCF8091D8
:101C9000D8008F7D8093D8008091E000826080938F
:101CA000E0008091E00081FDFCCF0E94351E56CC03
:101CB000232B09F032CE71CE2139314008F086CE87
:101CC000C5CE8091160587FF11C08091E80082FD86
:101CD00005C0809123058111F8CF11C08091E800E3
:101CE0008B770BC080912305882349F08091E80011
:101CF00080FFF8CF8091E8008E778093E800089508
:101D0000982F973068F59093E900981739F0709103
:101D1000EC002091ED005091F00003C0242F762FAD
:101D200050E021FD02C09F5FECCF3091EB003E7F81
:101D30003093EB003091ED003D7F3093ED0030911A
:101D4000EB0031603093EB007093EC002093ED00DA
:101D50005093F0002091EE0027FDE5CF80E008953C
:101D60008F708093E90081E0089520911C053091E7
:101D70001D052617370748F06115710539F42091C4
:101D8000E8002E772093E80001C0B901FC0120E0B3
:101D90006115710579F1809123058823F1F1853072
:101DA000F1F18091E80083FD3CC08091E80082FD64
:101DB0002EC08091E80080FFEBCF2091F30080914E
:101DC000F20090E0922B6115710551F08830910579
:101DD00038F421912093F100615071090196F3CFFD
:101DE00021E0089709F020E08091E8008E77809349
:101DF000E800CECF2111CFCF0AC0809123058823E0
:101E000061F0853061F08091E80083FD0AC0809127
:101E1000E80082FFF2CF80E0089582E0089583E039
:101E2000089581E008950895BC0184E00E94D926B8
:101E30000895BC0183E00E94D9260895F90122810A
:101E4000A0911E05B0911F05211103C0A817B90765
:101E5000C9F086E04802A0011124CD01841B950B36
:101E60006817790779F086E001900D928A95E1F77D
:101E700080911E0590911F05480F591F50931F0513
:101E800040931E050895AAE2B0E0E9E4FFE00C9457
:101E90002729E6E1F5E08EE195E02091F10021931C
:101EA0008E179F07D1F780911705833009F463C01F
:101EB00030F4813071F0823009F49DC0B4C08A30B2
:101EC00009F489C08B3009F46EC0893009F0ABC0C9
:101ED00020C080911605813A09F0A5C08091E800E4
:101EE000877F8093E80080911A0590911B05892BCC
:101EF00021F460E283EF94E003C060E080E090E0D2
:101F000070E00E94B50E8091E8008B778093E80026
:101F10008AC080911605813209F085C080911A052A
:101F200090911B05009719F0039709F07CC08091F0
:101F3000E800877F8093E8008091E80082FD05C07B
:101F4000809123058111F8CF6EC02091F30080911C
:101F5000F20090E0922B029731F48091F1008130F1
:101F600011F0863021F48091F1008093F204809189
:101F7000E8008B7754C080911605813A09F053C070
:101F800080911A0590911B05892B09F04CC0809116
:101F9000E800877F8093E8008091E80080FFFCCF15
:101FA00080911A0137C0809116058132E1F5809148
:101FB0001A0590911B05892BB1F58091E800877F68
:101FC0008093E8000E94610E8091180580931A01A9
:101FD0000E94351E28C080911605813221F580911E
:101FE000E800877F8093E8000E94610E80911905C8
:101FF0008093F10418C080911605813AA1F4809174
:10200000E800877F8093E8008091E80080FFFCCFA4
:102010008091F1048093F1008091E8008E778093A5
:10202000E8000E94610E8091E80083FFE4C1809186
:10203000160590911705492F50E04A30510508F0D8
:10204000DAC1FA01EE59FF4F0C94942A803821F03E
:10205000823809F0D0C108C0809113059091140511
:10206000992389F082600FC080911A058F708730A4
:1020700008F0C1C18093E9008091EB0085FB8827BF
:1020800080F91092E9009091E800977F9093E80022
:102090008093F1001092F10070C1282F2D7F09F07C
:1020A000AAC1882319F0823061F0A5C1809118057A
:1020B000813009F0A0C1933009F080E080931405CD
:1020C0002EC08091180581112AC080911A058F7049
:1020D0002FEF280F263008F08EC18093E900209161
:1020E000EB0020FF1CC0933021F48091EB00806254
:1020F00014C09091EB0090619093EB0021E030E0F0
:10210000A90102C0440F551F8A95E2F74093EA00E7
:102110001092EA008091EB0088608093EB001092AF
:10212000E9008091E800877F8093E8000E94610EBB
:1021300062C1811160C1109118051F778091E30081
:102140008078812B8093E3008091E800877F8093E3
:10215000E8000E94610E8091E80080FFFCCF809132
:10216000E30080688093E300111102C082E001C0A7
:1021700083E0809323053FC18058823008F03BC143
:1021800020911805309119052C3D53E0350779F55C
:1021900083E08A838AE289834FB7F894DE0113963D
:1021A00020E03EE051E2E32FF0E050935700E4914D
:1021B00020FF03C0E295EF703F5FEF708E2F90E03D
:1021C000EA3010F0C79601C0C0968D939D932F5FA3
:1021D000243149F74FBF8091E800877F8093E80062
:1021E0006AE270E0CE0101960E94B50EB4C0809103
:1021F0001A0590911B05432F552743305105A9F02F
:1022000068F44130510509F405C14230510509F027
:10221000F2C084E790E0EFE1F2E04BC041325105BB
:1022200029F14232510589F1E6C0C901992781306F
:102230009105A1F058F0029709F0DDC0E5EAF2E05F
:10224000E4918E2F90E0E5EAF2E030C0E3EFF2E0B7
:10225000E4918E2F90E0E3EFF2E028C0E9ECF2E0A9
:10226000E4918E2F90E0E9ECF2E020C084309105FB
:1022700008F0C1C0880F991FFC01EC5BFE4F019074
:10228000F081E02D89E090E014C08430910508F0E1
:10229000B2C0FC01EE0FFF1FE45CFE4F0190F08125
:1022A000E02DDC01A85CBE4F8C9190E0009709F412
:1022B000A2C02091E800277F2093E80020911C0510
:1022C00030911D052817390708F4C90140E000972F
:1022D00089F120912305222309F43DC02530D9F14D
:1022E0002091E80023FD37C02091E80022FD2FC097
:1022F0002091E80020FFEBCF4091F3002091F20005
:1023000030E0342B009759F02830310540F44491E7
:102310004093F100319601972F5F3F4FF3CF41E09B
:102320002830310509F040E02091E8002E77209315
:10233000E800CDCF4111CDCF0AC08091230588237D
:1023400051F0853041F08091E80083FD04C0809118
:10235000E80082FFF2CF8091E8008B778093E8005D
:102360004AC0803809F047C08091E800877F809399
:10237000E800809115058093F1008091E8008E7748
:10238000D3CE811138C080911805909119059927F5
:1023900002978CF58091E800877F8093E800109188
:1023A0001805109315050E94610E111106C0809149
:1023B000E30087FD02C081E001C084E08093230533
:1023C00042E061EC81E00E94800E42E061EC82E03C
:1023D0000E94800E42E261EC85E00E94800E42E2A3
:1023E00061EC83E00E94800E42E260EC84E00E9497
:1023F000800E809123058091E80083FF10C08091BA
:10240000E800877F8093E8008091EB0080628093F2
:10241000EB0005C082E190E0E3E9F2E04ACFAA9642
:10242000E3E00C9443291F920F920FB60F921124F0
:102430002F933F934F935F936F937F938F939F93CC
:10244000AF93BF93CF93DF93EF93FF93C091E900D6
:10245000CF708091EC00D82FD17080FDD0E8109221
:10246000E9008091F000877F8093F00078940E94CB
:10247000430F1092E9008091F00088608093F00093
:10248000CD2BCF70C093E900FF91EF91DF91CF91F9
:10249000BF91AF919F918F917F916F915F914F917C
:1024A0003F912F910F900FBE0F901F901895E8ED60
:1024B000F0E080818E7F80831092E2001092DA003B
:1024C0001092E100A0EEB0E08C9181608C9380814D
:1024D0008F77808319BCA7EDB0E08C918E7F8C93B1
:1024E00080818F7E80831092F0040895A0E0B0E098
:1024F000ECE7F2E10C942229C8EDD0E088818F7ED0
:102500008883E7EDF0E080818160808384E082BF92
:1025100081E08093F00488818E7F888302EE10E052
:10252000F80110821092DA0081EEC82ED12CF6014B
:10253000108288818F7788838881806888838881EA
:102540008F7D888319BC1092230510921505109277
:1025500014051092130590EEE92EF12CF7018081FD
:102560008B7F808388818160888342E060E080E0A7
:102570000E94800EF60180818E7F8083F801808129
:1025800081608083808188608083F70180818E7F75
:102590008083888180618883CDB7DEB7E8E00C94C2
:1025A0003E291F920F920FB60F9211242F933F9343
:1025B0004F935F936F937F938F939F93AF93BF934B
:1025C000EF93FF938091E10082FF09C08091E200C8
:1025D00082FF05C08091E1008B7F8093E1008091B4
:1025E000DA0080FF2AC08091D80080FF26C0809149
:1025F000DA008E7F8093DA008091D90080FF18C0C6
:1026000080E189BD82E189BD09B400FEFDCF81E092
:10261000809323058091F00481110FC00E9457120E
:102620000E9476128091E20084608093E20005C0EF
:1026300019BC109223051092F0048091E10080FFF4
:1026400017C08091E20080FF13C08091E2008E7F6E
:102650008093E2008091E20080618093E2008091AB
:10266000D80080628093D80019BC85E08093230550
:102670008091E10084FF30C08091E20084FF2CC093
:1026800080E189BD82E189BD09B400FEFDCF809162
:10269000D8008F7D8093D8008091E1008F7E809359
:1026A000E1008091E2008F7E8093E2008091E20061
:1026B00081608093E20080911505882311F084E009
:1026C00007C08091E30087FD02C081E001C083E084
:1026D00080932305809123058091E10083FF27C02B
:1026E0008091E20083FF23C08091E100877F809387
:1026F000E10082E080932305109215058091E100AE
:102700008E7F8093E1008091E2008E7F8093E200D3
:102710008091E20080618093E20042E060E080E02E
:102720000E94800E8091F00088608093F000FF91FD
:10273000EF91BF91AF919F918F917F916F915F9139
:102740004F913F912F910F900FBE0F901F901895B2
:102750002091E4003091E50095E64091EC00842F53
:10276000817040FF23C08091E80080FD1DC08091F2
:102770002305882399F0853099F08091EB0085FD41
:1027800011C04091E4005091E5002417350729F36A
:10279000915011F09A01E1CF84E0089582E008950C
:1027A00083E0089581E0089580E008954091E80075
:1027B00042FFDDCF0895EF92FF920F931F93CF93C7
:1027C000DF937C018B010E94A813811119C0E701DE
:1027D00001151105A1F08091E80085FD0AC08091E6
:1027E000E8008E778093E8000E94A813882381F385
:1027F00007C089918093F10001501109E9CF80E071
:10280000CDB7DEB7E6E00C944029CF9320912305A5
:10281000243029F5C091E900CF703091EC00232FCE
:10282000217030FD20E8C22B23E02093E9002091A5
:10283000E80020FF11C040E050E060E270E00E943C
:10284000DB13882321F0109220051092210580913E
:10285000E8008E778093E800CF70C093E900CF91B5
:102860000895EF92FF920F931F93CF93DF93809180
:102870006C0680FF08C005EE15E081E2E82E86E0D8
:10288000F82EF8011BC0E5EEF5E081E296E011823A
:1028900010821282138234968E179F07C1F7EBCFF6
:1028A000381708F4832F8383381B3183281B208338
:1028B000981B92833496EE16FF0641F09281208198
:1028C0003181892F291760F7822FEACF8091300557
:1028D000882381F180911C0190911D01892B51F574
:1028E00080911B01882331F165E070E084E80E944B
:1028F0003A28892B19F010921B011AC0C5EED5E0B9
:1029000065E070E088810E94AD2865E070E0898113
:102910000E94AD2865E070E08A810E94AD2865E0E4
:1029200070E08B810E94AD282496EC16FD0641F7DD
:102930000E940029579A8BB18F779BB190682FB76F
:10294000F894E016F10699F0F80131918F0148E012
:102950009BB9000000C037FF8BB9330F000000C0E7
:1029600000C000C08BB900C04A9591F7EACF2FBFD5
:102970008FE594E00197F1F700C00000CDB7DEB716
:10298000E6E00C94402990916C0690FF0DC0E5EEB6
:10299000F5E08183608342831382349696E0E132CE
:1029A000F907B9F70E943114089580916C06282F19
:1029B000269530E02115310519F48170826005C03B
:1029C0002B32310524F08170846580936C06089564
:1029D000CF92DF92EF92FF926B017C010E94D5149F
:1029E000B701A60188E090E00E94F129FF90EF90E6
:1029F000DF90CF90089580917006882319F0815060
:102A00008093700660916C0670916D0680916E06E1
:102A100090916F060E94E8140895809170068330AB
:102A200018F48F5F8093700660916C0670916D064C
:102A300080916E0690916F060E94E8140895ECE66E
:102A4000F6E080818E7F80836081718182819381B5
:102A50000E94E814109238052FEF80E792E0215091
:102A600080409040E1F700C000000E9431140895BA
:102A7000ECE6F6E083E0808311828FEF828383832C
:102A8000148260817181828193810E94E81408958B
:102A9000A0E0B0E0EEE4F5E10C942029E82EF62E5B
:102AA000E901E42FF0E0611106C0E950FD4FE49127
:102AB0004E2F2E2F71C0062F10E0E950FD4F44918C
:102AC000F42FC42ED12C26E0829FC00111242FEFB9
:102AD00030E0B9010E9404295BEA5603C001579F08
:102AE000900D11248E0D911D8E0D911D582F550F97
:102AF000580FD901A01BB10BAC9DC001AD9D900D2D
:102B0000BC9D900D1124E92FF59ED0011124AB2F0F
:102B1000BB277901EA1AFB0AEC9CD001ED9CB00DB1
:102B2000FC9CB00D11245901A51AB108A09E70019A
:102B3000A19EF00CB09EF00C1124EF2CFF242E1956
:102B40003F092C9D80012D9D100D3C9D100D1124E1
:102B5000212F6230710591F048F461157105E1F0A3
:102B600061307105B9F4242F4B2F16C06430710504
:102B700069F040F06630710579F00CC0242F492FC0
:102B8000E12F0AC0492FEF2F2B2F06C0292FE42F4A
:102B9000412F02C0292FEB2F49832883EA831B8210
:102BA000CDB7DEB7EAE00C943C29A4E0B0E0EBED51
:102BB000F5E10C94282990916C0690FF0AC09E01C3
:102BC0002F5F3F4F0E9448154B8169818A810E9487
:102BD000C3142496E2E00C944429A4E0B0E0E3EFAF
:102BE000F5E10C941B29F82E762EE42E622E90919E
:102BF0006C0690FF67C0E92FE695AE2FB0E0A45BAE
:102C0000BE4F8C91809337059E7F923061F49E0178
:102C10002F5F3F4F8F2D0E9448154B8169818A811C
:102C20000E94C3143DC0823019F4E0906F0638C092
:102C3000863019F4F0906D0633C08930D9F38931AC
:102C400079F5E9518E2F8170582EE695F0E0E95024
:102C5000FC4FE4910E2F10E085EEC82E85E0D82EB3
:102C6000A12CB12C9FE0892E912CC501B4010E94AA
:102C700004298F2D511002C0860F01C0861B9601BA
:102C80004E2D672D0E944815A00EB11E84E0C80E7F
:102C9000D11C81E2C81686E0D80639F70E943114AB
:102CA000F0926D0670926E06E0926F06662051F00B
:102CB00060916C0670916D0680916E0690916F0622
:102CC0000E94E8142496EFE00C943729ECE6F6E035
:102CD00043812CE0421B08F440E021E062818181C5
:102CE0000E94ED150895ECE6F6E043812CE0420FDA
:102CF00008F44FEF21E0628181810E94ED15089573
:102D0000ECE6F6E062812FEF621B08F460E021E060
:102D1000438181810E94ED150895ECE6F6E0628121
:102D20002FEF620F08F46FEF21E0438181810E9451
:102D3000ED150895ECE6F6E0818121E043816281A2
:102D40008C500E94ED150895ECE6F6E0818121E0BB
:102D500043816281845F0E94ED1508958D3E39F4B0
:102D600090912D0597FF35C010922D0559C08E3ECC
:102D700029F490912D051916BCF32BC090912C05C8
:102D80008F3E29F497FF25C010922C0549C0803F43
:102D900019F41916CCF31DC090912E05893F29F422
:102DA0001916BCF410922E053BC08A3F19F497FF08
:102DB00010C0F8CF8B3F39F490912F0597FF09C0D1
:102DC00010922F052DC08C3F21F490912F051916DC
:102DD000BCF39FE0980F983080F421E030E0A90127
:102DE00002C0440F551F9A95E2F7CA018095909151
:102DF0002B05892380932B0513C08D3F21F48091EF
:102E000026058E7F0BC08E3F21F4809126058D7F95
:102E100005C08F3F29F4809126058B7F809326057E
:102E200080912C05811106C080912D05811102C071
:102E30001092250580912E05811106C080912F05E5
:102E4000811102C01092240508958091260580FD0D
:102E500018C081FD14C082FD16C08091240588230E
:102E600081F0893180F424E0829FC001112469E15E
:102E700070E00E94802A862F672B19F005C082E03F
:102E8000089581E0089584E008958091260580FDED
:102E900016C081FD12C082FD14C0809125058823D3
:102EA00071F0893170F420E2829FC001112469E140
:102EB00070E00E94802A862F089580E1089588E0BE
:102EC000089580E208958D3E21F40E944517819572
:102ED00004C08E3E29F40E94451780932D05089565
:102EE0008F3E21F40E944517819504C0803F29F44C
:102EF0000E94451780932C050895893F19F40E947C
:102F0000251705C08A3F31F40E94251781958093CB
:102F10002E0508958B3F21F40E942517819504C04A
:102F20008C3F29F40E94251780932F0508959FE078
:102F3000980F983078F421E030E0A90102C0440FE6
:102F4000551F9A95E2F7CA0190912B05892B809322
:102F50002B0508958D3F21F48091260581600BC0DB
:102F60008E3F21F480912605826005C08F3F29F4B1
:102F700080912605846080932605089560916C06F3
:102F8000669570E04BE050E08EE191E00E94CA2B24
:102F9000892B19F481E0809338050E94392790939A
:102FA000320580933105089590916C0690FF36C0EC
:102FB0009170811102C0926006C08B3210F094654E
:102FC00002C0880F982B90936C06662351F0609195
:102FD0006C0670916D0680916E0690916F060E944E
:102FE000E81460916C06669570E04BE050E08EE16D
:102FF00091E00E94CA2B892B19F01092380502C06B
:103000000E94BE1781E08093340520E040916F0656
:1030100060916E0680916D060E94ED15089560E046
:103020000E94D4170895ECE6F6E0808181608083E9
:1030300086950E940F18089561E00E94D4170895A4
:1030400080916C068695815009F48AE261E00E94C5
:10305000D417089580916C0686958F5F8B3208F0A7
:1030600081E061E00E94D41708950E9439272091E1
:103070002C05211104C020912D05222321F09093CD
:103080002A058093290520912E05211104C0209145
:103090002F05222321F09093280580932705E091A6
:1030A0007406F0917506309731F00480F581E02DBB
:1030B0008BE295E009950895A7E1B0E0E2E6F8E13A
:1030C0000C9427294B8B5C8B6D8B7E8B8F8B6111C6
:1030D0001092D30586E09E01235F3F4FD901E82F70
:1030E0001D92EA95E9F795E0FE017396D9010190EA
:1030F0000D929A95E1F79C894E895F897B897D873E
:103100009E876F87598B488BF901DE0117960190D6
:103110000D928A95E1F7CE0107960E94FD1B811161
:103120003EC086E0FE013796DE01119601900D92B9
:103130008A95E1F7FF81E8856A857B8561157105D0
:1031400031F0EF3F31F481E0FF3F19F403C081E03B
:1031500001C080E080FD23C02091800530E0C901DE
:103160000196877099274091B10550E08417950723
:1031700079F1F983EA837D836C8396E0929FD00195
:10318000939FB00D1124AF57BA4FFE0131960190B5
:103190000D929A95E1F7809380050E94412216E0F6
:1031A0008091B105909180058917F9F0189FC001B1
:1031B00011248F579A4F0E94FD1B8823B1F08091F4
:1031C000B10590E00196877099278093B105E8CF0B
:1031D0000E94351E109280051092B105EAE7F5E0D5
:1031E00086E0DF011D928A95E9F76796E3E00C948B
:1031F0004329982F92959F7019F0892F24E001C0E0
:1032000020E0982F9695969511F02E5F892F982F94
:10321000969509F02F5F822F08950E94351E2FEF9B
:1032200084E39CE0215080409040E1F700C0000022
:103230009AE088E10FB6F894A895809360000FBEDD
:1032400090936000FFCFCF93C82F0E94F918569833
:103250005E9825982D9826982E9827982F98482F75
:1032600050E0FA013197E730F105E0F4E459FF4FFF
:103270000C94942A259A2D9A32C0269A2E9A3EC0F2
:10328000279A2F9A4AC0259A2D9A269A2E9A54C088
:10329000259A2D9A04C0259A2D9A269A2E9A279A15
:1032A0002F9A5BC0823051F128F4882349F0813095
:1032B000B1F053C0833089F1843009F43DC04DC072
:1032C0008091AC04811171C00E94131881E00E94AA
:1032D0000F1820E040916F066FEF88E93BC08091A6
:1032E000AC04811162C00E94131881E00E940F1883
:1032F00020E040916F066EED84E62CC08091AC0416
:10330000811153C00E94131881E00E940F1820E021
:1033100040916F0669EE8BE21DC08091AC04811173
:1033200044C00E94131881E00E940F1820E04091D1
:103330006F0661EF87ED0EC08091AC04811135C03E
:103340000E94131881E00E940F1820E040916F0640
:103350006AEE87E90E94ED1528C08091AC048111C6
:1033600024C088E090E00E94C32960936C067093AB
:103370006D0680936E0690936F06862F60FF13C0D4
:10338000816080936C0686950E941C1880916C0663
:1033900086950E941C1821E040916F0660916E0690
:1033A00080916D06D7CF0E941F158C2FCF91089565
:1033B00080E290E090931D0180931C018091300584
:1033C00081110EC00E94342881E0809330052FEFD8
:1033D00083ED90E3215080409040E1F700C0000071
:1033E00060E570E080E40E943A2890931D0180938C
:1033F0001C01892B09F04EC060E570E080E00E945E
:10340000AD2890931D0180931C01892B09F042C0C7
:1034100060E570E080E00E94AD2890931D018093EC
:103420001C01892BB9F560E570E08FE30E94AD289F
:1034300090931D0180931C01892B61F50E94002946
:1034400060E570E080E40E943A2890931D0180932B
:103450001C01892BF9F460E570E08CE00E94AD2836
:1034600090931D0180931C01892BA1F460E570E00D
:1034700080E00E94AD2890931D0180931C01892B50
:1034800049F460E570E08FE30E94AD2890931D0140
:1034900080931C010E94002980911C010895CF9304
:1034A000DF9356985E9825982D9826982E98279801
:1034B0002F98C8E8D0E08FEF90E099838883AAE83E
:1034C000B0E011969C938E93ECE8F0E091838083BA
:1034D000259A2D9A2FEF80E792E02150804090406E
:1034E000E1F700C00000269A2E9A2FEF80E792E0C5
:1034F000215080409040E1F700C00000279A2F9AA9
:103500002FEF80E792E0215080409040E1F700C02B
:10351000000025982D982FEF80E792E02150804001
:103520009040E1F700C0000026982E982FEF80E72A
:1035300092E0215080409040E1F700C000002798C1
:103540002F988091AF0487702FEF829FC0011124C4
:103550009595879595958795992799838883119651
:103560009C938E939183808356985E9825982D988E
:1035700026982E9827982F98DF91CF910895CF9372
:10358000E82F873080F580911C0190911D01892BD7
:1035900009F047C0CE2F60E570E080E40E943A2831
:1035A00090931D0180931C01892BD1F460E570E09C
:1035B00082E10E94AD2890931D0180931C01892B0C
:1035C00079F481E090E001C0880FCA95EAF760E5E0
:1035D00070E080950E94AD2890931D0180931C019E
:1035E0000E9400291EC090E0FC013797E730F105EA
:1035F000C0F4ED58FF4F0C94942A209A289811C0DB
:10360000219A29980EC0229A2A980BC0239A2B98A7
:1036100008C0529A5A9805C0539A5B9802C03E9AC5
:103620004698CF9108952098289821982998229813
:103630002A9823982B9852985A9853985B983E98BA
:1036400046980895CF93873040F580911C01909162
:103650001D01892B59F560E570E081E40E943A284C
:1036600090931D0180931C01892B11F0C0E011C0C3
:1036700080E590E00E94DC2897FF05C090931D0133
:1036800080931C01F3CFC82FC09510921D0110929A
:103690001C010E9400298C2F0AC09FB18FB1807F2E
:1036A000869586959370892B809501C080E0CF9197
:1036B00008958098889A8198899A84988C9A859898
:1036C0008D9A86988E9A87988F9A089581E0809334
:1036D000DE050E943927259A2D9A089580E090E012
:1036E0000E94AC2780E090E00E9496271092D305BC
:1036F0000E94B321EBE2F5E085E0DF011D928A959F
:10370000E9F71092250510922405109226050E94D3
:1037100035180895CF92DF92FF920F931F93CF93A6
:10372000DF936C01009171068091D605082BC7E0EC
:10373000D0E010E0C8010C2E02C0959587950A9440
:10374000E2F780FD04C02197A8F7F12C09C0FC2EF8
:10375000B6018C2F0E947B1F0E94941F019799F342
:103760008F2DDF91CF911F910F91FF90DF90CF9020
:103770000895CF93DF93EC010E948A1BBE010E9443
:103780007B1F0E94941FDF91CF910895CF93FC017E
:103790008081918123813481232B31F09F3F31F44B
:1037A00091E08F3F19F403C091E001C090E0C92F70
:1037B000C17090FD1CC0808191810E94B91B9295BF
:1037C0009F70963079F010F4925001C09A50923068
:1037D00088F4803F71F018F4883E60F40AC0843F9A
:1037E00049F407C0883E28F0813F21F402C0C0E0C0
:1037F00001C0C1E08C2FCF910895A1E1B0E0E3E0DA
:10380000FCE10C941F298C0185E0F801DE011D9676
:1038100001900D928A95E1F7F801E28090917A0586
:1038200060917B0540917D0550917E0541155105C4
:1038300031F06F3F31F481E09F3F19F403C081E024
:1038400001C080E0F82FF1709F2E80FD1BC1F801B0
:1038500030812181C380D4808AE7A82E85E0B82EEC
:10386000F0907C05F601E41BF50BFF2009F4C7C0BE
:1038700080917F05E03CF10508F092C0482F407F21
:1038800009F051C0621311C093130FC0FE2CE11058
:103890000CC08F70806180937F05C5010E94410438
:1038A00080917F05F80185832AC1C114D10431F0CC
:1038B0002F3F31F481E03F3F19F403C081E001C0A4
:1038C00080E080FD03C081E08E2502C080E090E0B2
:1038D000F82FF170FF2E80FF1CC08091B105409140
:1038E000800556E0841709F4E8C090E0589FF00185
:1038F000599FF00D1124EF57FA4F6181261306C02E
:103900006081631303C06281E61203C00196877071
:10391000E9CFFE2CEE2009F4F2C080917F05816092
:1039200080937F0549C0621306C0931304C0E11061
:1039300002C0F80186C0C8010E94C61B882351F14D
:10394000EE2041F120917F05822F82958F7090E0CB
:10395000029774F080917A0590917B0598878F8308
:103960001986DB86CA862C87CE0107960E94410401
:1039700086E0F801AAE7B5E001900D928A95E1F79B
:103980000E944B220AC06217C9F0C8010E94C61BE0
:1039900081111EC0C8010E944104FF24F394AFC0EE
:1039A000482F407F81F78AE795E00E94410486E036
:1039B000F50111928A95E9F7F12CA1C09313E5CF97
:1039C000E110E3CFF8018583C8010E94410454C08F
:1039D000EE2001F320917F05822F82958F7090E079
:1039E000029734F280917A0590917B059A838983BE
:1039F0001B82DD82CC822E83CE010196B7CFE03CC4
:103A0000F105D0F5FE2CEE2029F2621327C09313A6
:103A100025C020917F0520FD18C0822F82958F70D0
:103A2000482F50E04115510581F0F80125834F30B2
:103A3000510541F08F5F982F9295907F822F8F7064
:103A4000892B8583C8010E94410486E0F801AAE71A
:103A5000B5E001900D928A95E1F751C0C8010E942E
:103A6000C61B811185CF80917F05816080937F0582
:103A7000C8010E94410443C086E0F50111928A9575
:103A8000E9F73DC0EE2009F485CFC8010E94C61BAE
:103A9000F82E882309F47ECF86E0F801AAE7B5E086
:103AA00001900D928A95E1F780917A0590917B05BE
:103AB0000E94B91B0E944B2222C03D872E878D8514
:103AC0009E850E94B91B292F22952F70223028F441
:103AD0009F7039F0811105C00BC0243028F49F700D
:103AE00049F4805E883020F0C8010E9441049F2C78
:103AF000F92C05C0F8019581907F99F7F9CF8F2DAA
:103B00006196EBE00C943B29292F9E3078F58630A6
:103B100068F590E036E0239F800D911D1124682FF9
:103B2000677023E0969587952A95E1F7FC01EE0FE3
:103B3000FF1FE80FF91FE75CFA4F40E050E080E01C
:103B4000219130E0062E02C0369527950A94E2F7BF
:103B500021703327042E01C0220F0A94EAF7822B2A
:103B60004F5F5F4F4330510559F7089580E0089546
:103B7000292F9E3088F5863078F590E036E0239F37
:103B8000800D911D1124282F277051E001C0550F81
:103B90002A95EAF723E0969587952A95E1F7FC01A7
:103BA000EE0FFF1FE80FF91FE75CFA4F20E030E04F
:103BB00070E04081CB01022E02C0969587950A9451
:103BC000E2F78170819584278523842781932F5F75
:103BD0003F4F2330310569F70895A0E2B0E0E3EFED
:103BE000FDE10C9427290E942319182F80912105AB
:103BF0008823A9F02FEF80E792E021508040904089
:103C0000E1F700C0000085E08983812F0E94F91848
:103C10008A838EEF8B83CE0101960E940514109348
:103C200071060E946E1BA096E3E00C94432921E0EC
:103C300030E001C0220F8A95EAF720958091710645
:103C400082230E94ED1D089521E030E001C0220F83
:103C50008A95EAF780917106822B0E94ED1D0895E6
:103C60008093D6050E946E1B08951092D405809112
:103C70001A01882331F080917D0687FF02C08EE112
:103C800001C086E0ECE5F5E0DF011D928A95E9F7D9
:103C90000E946E1B0895882321F00E94AC210E948F
:103CA000B3210895882339F09091D405892B80930E
:103CB000D4050E94B3210895882391F19CEF980FB9
:103CC000913A30F4682F8AE595E00E946E270DC086
:103CD00090E2980F983060F4877091E001C0990FDE
:103CE0008A95EAF7892F0E94AC210E94B32108959A
:103CF0009BE5980F933028F480E090E00E94AC2779
:103D0000089598E5980F973128F480E090E00E949C
:103D1000962708958D3E20F00E94AE160E94351819
:103D20000895CF93882309F49FC0C82F8CEF8C0F80
:103D3000813A08F05BC080911A018823E1F08091FC
:103D40007D0687FF18C0EC2FE695E695E695F0E036
:103D5000E65AFA4F8281282F30E04C2F477081E0DD
:103D600090E002C0880F991F4A95E2F782239323BF
:103D7000892B59F411C0ECE5F5E08191C81729F0C1
:103D800085E0E236F807C9F707C06C2F8AE595E0B1
:103D90000E946E270E94B32180911A018823B1F0FE
:103DA00080917D0687FF12C0EC2FE695E695E6959B
:103DB000F0E0E65AFA4FC77081E090E001C0880F4A
:103DC000CA95EAF79281892B828320C0ACE5B5E0E1
:103DD000EFEF80E09D91C917C9F0EF3F19F4911101
:103DE00001C0E82F8F5F8630A9F735C080E28C0FC5
:103DF000883078F4C77081E090E001C0880FCA95E0
:103E0000EAF79091D405892B8093D4050E94B321C1
:103E10002BC0EBE5EC0FE33040F4F0E0E958FE4F47
:103E2000808190E00E94AC271FC0E8E5EC0FE731ED
:103E300050F4F0E0EE0FFF1FE658FE4F80819181B5
:103E40000E94962711C0CD3E78F08C2F0E946317F8
:103E50000E94351809C0EF3FC9F20E2E000CFF0B6F
:103E6000E65AFA4FC283D2CFCF91089580E00895E9
:103E700090917D0692FF0DC0282F2871283019F4EB
:103E8000877F846006C0282F2471243011F48B7F33
:103E9000886093FF0DC0282F2871283119F4877E80
:103EA000846106C0282F2471243111F48B7E88612F
:103EB00020917E0620FF0DC0382F3871383019F45C
:103EC000877F816006C0382F3171313011F48E7FC9
:103ED000886021FF0DC0282F2871283119F4877EB2
:103EE000816106C0282F2171213111F48E7E8861F5
:103EF00094FD877E08957E30A0F4663090F494E5BA
:103F0000899FF001112486E0789FE00DF11D1124B6
:103F1000E60FF11DEE0FFF1FE450FC4F85919491C9
:103F2000089580E090E00895CF93DF938238910563
:103F300069F1B0F48133910509F477C048F489320E
:103F4000910509F469C08A32910509F473C092C0E1
:103F50008533910509F45BC089339105B9F08AC0B6
:103F6000833E910591F138F4803E9105D1F0823E77
:103F7000910531F17FC0863E9105D9F1873E9105CB
:103F8000E9F1843E910509F075C028C020917D06B5
:103F900020FD5BC021FD59C020917E0623FD61C03C
:103FA00069C080917D0680FD4AC080917E0680FFB9
:103FB0004CC080917D0684FD4EC183EE90E04DC1E2
:103FC00080917D0682FF3EC0F4CF80917D0682FD08
:103FD00039C080917E0680FD38C0EBCF80917E068F
:103FE00081FF39C080917D0684FD35C187EE90E068
:103FF00034C180917D0683FF2BC0F4CF80917D0674
:1040000083FD26C080917E0681FD25C0EBCF809187
:104010007D0685FD26C022C080917D0685FD1EC0DF
:1040200080917E0683FF1DC00AC080917D0686FDBB
:104030001BC01DC080917D0686FD19C015C089E397
:1040400090E00BC182EE90E008C180EE90E005C1E7
:1040500086EE90E002C184EE90E0FFC085E390E040
:10406000FCC089E290E0F9C08AE290E0F6C081E30A
:1040700090E0F3C0811531E5930708F061C0811528
:1040800020E59207B0F09C012370332741E050E017
:1040900002C0440F551F2A95E2F7282F2695269532
:1040A00080E2289F90011124CA01822B932B9D68E6
:1040B000D4C0883E910568F5803E910508F0CDC0DA
:1040C000883A9105B8F4853A910548F0855AE82F69
:1040D000F0E0E958FE4F808190E09064BEC08130EE
:1040E000910509F4B5C008F4B6C08430910508F410
:1040F000B2C0B3C08F3B910508F0ADC0885AE82F1D
:10410000F0E0EE0FFF1FE658FE4F8081918194642E
:10411000A4C0811530E2930758F4811521E092077D
:1041200008F09BC08D3E910508F495C0906595C040
:10413000811530E4930708F48EC09F70906A8DC09B
:10414000811525E5920708F042C0811534E59307F3
:1041500028F0982F8827846F906A7FC0811523E507
:104160009207B0F09C012370332741E050E002C079
:10417000440F551F2A95E2F7282F2695269580E2B1
:10418000289F90011124CA01822B932B9A6865C045
:10419000811532E5930728F4982F8827816F906A5C
:1041A0005CC09C012370332741E050E002C0440F03
:1041B000551F2A95E2F7282F2695269580E2289FFD
:1041C00090011124CA01822B932B9C6846C0EC01FC
:1041D000C11589E5D807B0F4C11528E5D20728F044
:1041E0009C2F8827806F906A38C0C11536E5D307A9
:1041F00090F58C2F0E94381F8F7190E0982F8827A0
:1042000090622BC0C1158AE5D80790F48C2F8F706F
:104210000E94381F94E0D695C7959A95E1F7CF7024
:10422000D0E0DC2FCC27D0699E01282BC90115C016
:10423000CE0190568115904270F48D2F8F710E949F
:10424000381F282F2F71CE0199279062922B05C01D
:1042500081E090E002C080E090E0DF91CF9108958E
:1042600068EE7EEF80E090E00E94FD2960E082E051
:1042700090E00E94DF2960E083E090E00E94DF2967
:104280001092D60560E084E090E00E94DF2964E0AF
:1042900082E290E00E94DF2960E085E090E00E94E9
:1042A000DF2960E086E090E00E94DF296FEF87E081
:1042B00090E00E94DF2940E050E0BA0188E090E001
:1042C0000E94F12960E08DE090E00E94DF2940E04B
:1042D00050E0BA0188E190E00E94F12960E087E1B6
:1042E00090E00E94DF2940E050E0BA018CE190E0CC
:1042F0000E94F12960E070E080E290E00E94FD29D8
:1043000040E050E0BA0188E190E00E94F12910926B
:10431000AF041092B0041092B1041092B20484E081
:104320008093AF044091AF045091B0046091B10408
:104330007091B2048FE090E00E94F12940E050E0DB
:10434000BA0183E190E00E94F12908958091D5059A
:1043500081111092D505089580959091D4058923F7
:104360008093D40508959091D4058091D305982B1E
:1043700090935A058091D5058823D9F0892B809395
:104380005A0580911A01882331F080917D0687FFBC
:1043900002C08EE101C086E0ECE5F5E090E08150DE
:1043A00028F021912223D9F39F5FF9CF91110E9428
:1043B000A62140E250E063EB75E08AE595E00E94BB
:1043C000D72B892B21F180E2EAE5F5E0A3EBB5E0FC
:1043D00001900D928A95E1F7E0917406F0917506CF
:1043E0003097A9F080911A01882359F080917D06B9
:1043F00087FF07C080915A0580935B0586E0809314
:104400005A050280F381E02D8AE595E0099508952B
:104410002091B205809582238093B205982F9770E2
:1044200099F430E0482F082E000C550B241735075F
:1044300059F090917E0692FF07C0859585958595E8
:104440000E94171E1092B2050895CF93C0917E0668
:10445000C2FB992790F9981791F080FBC2F9C0939D
:104460007E0660917D0684E090E00E94DF296C2F3B
:1044700082E290E00E94DF2982E00E940822CF9130
:1044800008958091B10590918005891719F08F5F8B
:104490008770FBCF08950F931F93CF93DF93809185
:1044A0007F0582958F7009F05AC080917C05882322
:1044B00009F455C08091B1051091800560917A058D
:1044C00070917B05C0917D05D0917E0591E06F3F95
:1044D00009F090E0292F06E0811709F440C02097E9
:1044E00021F07F3F21F030E003C031E001C0322FE6
:1044F00090E030FD31C0089FF001099FF00D1124BC
:10450000DF01AF57BA4F11963C911197371324C072
:104510003C91361321C012963C91129731111CC068
:1045200013964D915C9114974C1B5D0B403C5105CB
:1045300098F480917F058F70806180937F05EA57A2
:10454000FA4F80818F70806180838AE795E00E94B6
:1045500041040E94412203C001968770BDCFDF91C4
:10456000CF911F910F910895A0E0B0E0EAEBF2E245
:104570000C94222980911C0190911D01892BB9F086
:104580008091D7058F5F8093D705811110C00E945D
:10459000D81990E090931D0180931C01892B39F468
:1045A0000E944F1A81E080931B010E94311403EB9B
:1045B00014E07801D0E0C0E087E0C82ECC0E8C2F4C
:1045C0000E94BF1A8C2D0E94BF1A8C2F0E94221BA2
:1045D0008F73F7019081891721F08083DD24D394B4
:1045E00001C0D12C8C2D0E94221B8F73F701978163
:1045F000891719F0878381E001C080E0D82ADD297E
:104600000E94131BCF5FFFEFEF1AFF0AC730A1F61E
:104610001092DC05C091DB05CC2309F4D5C00E94C3
:1046200039272091D9053091DA05AC01421B530B93
:104630009A019093DA058093D9054F3F510509F00F
:1046400018F4452B19F102C02FEF30E01092DB0572
:104650001092D805E091AD04F091AE04AF01425F35
:104660005F4F90E030E08081882341F0281718F0F8
:1046700010829C2F03C0821B80833C2F3196E4174D
:10468000F50789F73093DB059093D805DD2309F40E
:104690008CC0E091AD04F091AE048091DC05909166
:1046A000DB05A6ECB4E0AF01425F5F4F6EE1E801CD
:1046B00028813C91321779F0308131110CC0608330
:1046C0002C9398819227282F30E0292B81E0232BEF
:1046D00009F480E091E0319611960F5F1F4FE417C7
:1046E000F50729F78093DC059093DB05C091DC0585
:1046F000209120058091E0059091E1052223C9F1E8
:10470000892B31F425982D9826982E9827982F9844
:104710008091E0059091E1059170892B79F4809169
:10472000DF05882319F026982E9802C0269A2E9A23
:104730009091DF0581E089278093DF058091E00576
:104740009091E1058130984750F0109220058091BA
:1047500071060E9423191092E1051092E0058091E4
:10476000E0059091E10501969093E1058093E005C5
:104770000AC0892B41F01092E1051092E00580916A
:1047800071060E9423198091DE05882309F125987E
:104790002D988091DD058F5F8093DD05853610F0C3
:1047A000259A2D9A0E94392713C081E09091D8054F
:1047B000992309F49BCF81116CCF0E9439279093E4
:1047C000DA058093D90565CFD111F7CF80E0EECF20
:1047D0008C2FCDB7DEB7E8E00C943E298091F2042F
:1047E0000895089522E02093E9002FEF3091E8002A
:1047F000215035FD06C035ED3A95F1F70000211145
:10480000F5CF2091E80025FF0BC040E050E065E0C7
:1048100070E00E94DB138091E8008E778093E800BF
:104820000895CF93DF9320911A01222339F020912C
:104830007D0627FF03C060E225E002C068E021E0BA
:104840002093E9002FEF3091E800215035FD06C09C
:1048500035ED3A95F1F700002111F5CF2091E800F0
:1048600025FF1DC0EC0180911A01811105C040E0B7
:1048700050E068E070E003C070E040E050E0CE013E
:104880000E94DB138091E8008E778093E80080E23D
:10489000FE01A3EFB4E001900D928A95E1F7DF915C
:1048A000CF910895A0E0B0E0E8E5F4E20C941F2970
:1048B000FC01A280948081E08483E4E4F7E0B4907A
:1048C000E3ECF7E0E491C1E2D6E0F5EEEF2EF5E09F
:1048D000FF2ECC24CA94D12CEB190E2F10E022E02D
:1048E0002A1530F080916D06888380916E06898349
:1048F000911003C01B821A8255C08B818823F9F066
:1049000081508B832FEF829FC00111246C8170E056
:104910000E940429FB01FF27EC5BF84F8491E82FEC
:10492000EB192FEFE29FC0011124B8010E94042966
:1049300080916F06689FB00111247A8333C00E9472
:104940009B2920916F062695215830E0A901440F3C
:10495000551F322F2227240F351F232F332782176D
:10496000930704F582E08A1588F40E949B29B6011A
:104970000E94802A88830E949B2920916E0626959A
:10498000622F70E00E94802A280F29831A8280916A
:104990006F06843120F0893C18F088EC01C084E176
:1049A0008C838B8397014A81698188810E94481595
:1049B000259624E0E20EF11C86E0CC36D80709F0FB
:1049C0008ECF0E943114CDB7DEB7EBE00C943B29BB
:1049D000EF92FF920F931F93CF93DF938C01C5EE5D
:1049E000D5E0E12CF12CF8018481F7E0EF16F10419
:1049F0001CF4882339F002C0811104C09E0140914B
:104A00006F0602C09E0140E060916E0680916D06C7
:104A10000E9448158FEFE81AF80A24969FE0E916DD
:104A2000F10409F70E943114F801848190E00196A5
:104A3000817099278483CDB7DEB7E6E00C944029D6
:104A4000A0E0B0E0E6E2F5E20C941E29EC014C8116
:104A5000042F10E09801D8010E94572A9B01AC0155
:104A60000E94222A6B017C01E0E2F0E0E01BF10BE6
:104A7000A5E5B0E09B01AC010E94222A4B015C013C
:104A80009F01DF010E949A2A9B01AC010E942D2AFE
:104A90009B01AC012C0D3D1D4E1D5F1DC501B401D8
:104AA0000E94352A822FF22E99E2921728F093E085
:104AB000299F900111240DC025E530E0281B310904
:104AC000C901880F991F280F391F37FF02C02F5FB8
:104AD0003F4F35952795122F109595EEC92E95E0ED
:104AE000D92E00E085E5E82EEF1801FD02C08E2DDD
:104AF00001C08F2D9601412F60916E060E944815CE
:104B00000F5F84E0C80ED11C0F3079F70E9431147A
:104B10008C81811102C091E003C0803219F49FEFB3
:104B200090932B0190912B01890F8C83CDB7DEB729
:104B3000ECE00C943A290F931F93CF93DF93C5EECB
:104B4000D5E0FE011182108212821382349686E033
:104B5000E132F807B9F700E010E08091E305082E94
:104B6000000C990B0817190794F080912A01082E60
:104B7000000C990B8017910754F09E0140916F062D
:104B800060916E0680916D060E94481504C01982DE
:104B900018821A821B820F5F1F4F24960F30110557
:104BA000E1F60E943114809129019091E305980F5C
:104BB0009093E30520912A01280F20932A011216D1
:104BC00014F49E301CF0819580932901DF91CF91E0
:104BD0001F910F910895A0E0B0E0E1EFF5E20C9491
:104BE0002129FC01828180FF03C0DD24DA9402C008
:104BF000DD24D39405EE15E0C0E0D0E02FE0B22E26
:104C0000F801118210821282138294E0E92EF12CB5
:104C1000C12C8091E2058C0D80312CF06B2D0E940F
:104C2000722A892F02C087FD815F082E000C990B24
:104C3000C817D90791F480916F068E9DA0018F9DB2
:104C4000500D1124559547955595479598016091BC
:104C50006E0680916D060E944815CD0CF1E0EF1AAA
:104C6000F108B9F621960C5F1F4FCF30D10541F600
:104C70000E9431148091E20591E0D91206C08111A1
:104C800002C08EE007C0815005C090E00196BE01D1
:104C90000E94802A8093E205CDB7DEB7E9E00C944C
:104CA0003D29EF92FF921F93CF93DF93EC0185EEA6
:104CB000E82E85E0F82E10E08C81970140916F0678
:104CC00060916E06810F0E9448151F5E84E0E80E19
:104CD000F11C1F3F89F70E9431149A818C8190FF4B
:104CE00002C08F5F01C081508C83DF91CF911F91F3
:104CF000FF90EF900895A4E0B0E0E1E8F6E20C94B4
:104D000026298C018091E40581110AC09E012F5F44
:104D10003F4F4FEF6FEF0E9448158A818093E40563
:104D2000F8018481813051F028F0823061F44091A3
:104D3000E4050AC08091E40540E007C06091E40505
:104D400040E080E003C040E080E060E00E94C314E7
:104D5000F801848190E0019663E070E00E94802A6F
:104D600084832496E4E00C944229CF93DF93EC01F2
:104D7000ECE6F6E0438162818C810E94D5158C813E
:104D80008F5F8C83DF91CF910895CF93DF93EC01F8
:104D9000EC81F0E0EC5BF84F4491ECE6F6E06281E8
:104DA00081810E94D5158C818F5F8C83DF91CF919B
:104DB000089580937F0670938106609380068091AA
:104DC0002305843001F585E08093E9008FEF909111
:104DD000E800815095FD06C095ED9A95F1F7000029
:104DE0008111F5CF8091E80085FF0DC040E050E0D3
:104DF00063E070E08FE796E00E94DB138091E800AB
:104E00008E778093E800089578941F920F920FB6E2
:104E10000F9211248F939F93AF93BF938091790644
:104E200090917A06A0917B06B0917C060196A11D17
:104E3000B11D8093790690937A06A0937B06B09378
:104E40007C06BF91AF919F918F910F900FBE0F90F5
:104E50001F9018959C014FB7F89480917906909116
:104E60007A06A0917B06B0917C064FBF821B930B04
:104E700008952FB7F8948091790690917A06A091C1
:104E80007B06B0917C062FBF08951F920F920FB63C
:104E90000F9211248F939F93AF93BF9380917806C5
:104EA000811113C08091790690917A06A0917B06BA
:104EB000B0917C064196A11DB11D80937906909317
:104EC0007A06A0937B06B0937C06BF91AF919F9129
:104ED0008F910F900FBE0F901F90189520911A017F
:104EE0002223C9F020917D0627FF15C0262F269585
:104EF000269526952E31C8F4FC01E20FF11D67704E
:104F000081E090E001C0880F6A95EAF78095928170
:104F1000892382830895FC0106962281621301C0D1
:104F200012823196E817F907C1F7089520917606A5
:104F3000309177062817390771F0909377068093A0
:104F40007606E0917406F0917506309721F00084A2
:104F5000F185E02D09950895209172063091730630
:104F60002817390771F09093730680937206E091C9
:104F70007406F0917506309721F00680F781E02DD8
:104F800009950895E0917406F0917506309729F01F
:104F90000190F081E02D0995089580E00895CF9269
:104FA000DF92FF920F931F93CF93DF93EC016B017E
:104FB000042FF09071060E94351E80E00E94ED1DC6
:104FC00086E0080280011124CC15DD0531F0CE0108
:104FD0000E944104C00FD11FF7CF0E94351E8F2DB4
:104FE0000E94ED1DDF91CF911F910F91FF90DF90F7
:104FF000CF900895CF93DF930E949B2966E070E0E5
:105000000E94802AD82F0E949B296EE070E00E94A7
:10501000802AC82F6D2F782F80E00E947B1F049775
:10502000C59718F48D2F9C2F02C00E94FA27DF919C
:10503000CF91089590916C0690FF04C096959817B3
:1050400048F003C0811106C090E0961718F40E9442
:105050002A1808950E941C180895882311F0FA0157
:1050600001C0FB01099508951092B9008CE080936E
:10507000B8000895A0E0B0E0E0E4F8E20C941F2945
:10508000B82EEB010E9439276C01C431D10558F0CC
:10509000CF3F8FEFD80759F0CE0164E170E00E9456
:1050A00004297B0107C0EE24E394F12C03C025E022
:1050B000E22EF12C84E8A82E94EA992E1092BC00DE
:1050C0009092BC000E9439278C018091BC0087FD22
:1050D00007C0C8010E942A27E816F906B0F729C0C0
:1050E0008091B900887F883041F08091B900887F35
:1050F000803119F00FEF1FEF1EC0B092BB00A092DD
:10510000BC000E9439278C018091BC0087FD07C03C
:10511000C8010E942A27E816F906B0F70AC0809154
:10512000B900887F883111F0803421F700E010E069
:105130000EC00EEF1FEFCF3F8FEFD80709F4BECFA1
:10514000C6010E942A27C817D90708F0B7CFC8019F
:10515000CDB7DEB7EBE00C943B290F931F93CF93B1
:10516000DF93EB018093BB0084E88093BC000E9436
:1051700039278C018091BC0087FD0DC0CF3F8FEF98
:10518000D807C1F3C8010E942A27C817D90790F78A
:105190008EEF9FEF0CC02091B900287F81E090E056
:1051A000283211F480E090E0919581959109DF918A
:1051B000CF911F910F9108950F931F93CF93DF937A
:1051C000EC0184E88093BC000E9439278C01809117
:1051D000BC0087FD0DC0CF3F8FEFD807C1F3C801DA
:1051E0000E942A27C817D90790F78EEF9FEF03C0B8
:1051F0008091BB0090E0DF91CF911F910F910895B6
:1052000084E98093BC000895AA1BBB1B51E107C031
:10521000AA1FBB1FA617B70710F0A61BB70B881F46
:10522000991F5A95A9F780959095BC01CD010895D5
:105230002F923F924F925F926F927F928F929F92A6
:10524000AF92BF92CF92DF92EF92FF920F931F9394
:10525000CF93DF93CDB7DEB7CA1BDB0B0FB6F89445
:10526000DEBF0FBECDBF09942A88398848885F8485
:105270006E847D848C849B84AA84B984C884DF80F6
:10528000EE80FD800C811B81AA81B981CE0FD11DDA
:105290000FB6F894DEBF0FBECDBFED0108958F921B
:1052A0009F92AF92BF92CF92DF92EF92FF92CF93F5
:1052B000DF93EC01688179818A819B816115710599
:1052C0008105910521F464E279ED8BE597E02DE10C
:1052D00033EF41E050E00E94032A49015A019B014B
:1052E000AC01A7EAB1E40E94222A6B017C01ACEE7A
:1052F000B4EFA50194010E94302ADC01CB018C0D92
:105300009D1DAE1DBF1DB7FF03C00197A109B04889
:1053100088839983AA83BB839F77DF91CF91FF9086
:10532000EF90DF90CF90BF90AF909F908F900895B7
:105330000E944F29089580E091E00E944F2908952E
:10534000A0E0B0E08093000190930101A0930201DE
:10535000B09303010895DC01CB01FC01F999FECF64
:1053600006C0F2BDE1BDF89A319600B40D924150ED
:105370005040B8F70895F999FECF92BD81BDF89AD3
:10538000992780B50895A6E1B0E044E050E00C9480
:10539000AD29A8E1B0E042E050E00C94AD29DC0179
:1053A000A40FB51F4150504048F0CB01840F951F0A
:1053B0002E910E94E02941505040D0F70895262FA9
:1053C000F999FECF92BD81BDF89A019700B40216FB
:1053D00039F01FBA20BD0FB6F894FA9AF99A0FBEA9
:1053E00008950396272F0E94E0290E94DF29252F88
:1053F0000E94E029242F0C94E0290196272F0E9477
:10540000E0290C94DF29052E97FB1EF400940E94DE
:105410001A2A57FD07D00E94352A07FC03D04EF404
:105420000C941A2A50954095309521953F4F4F4F37
:105430005F4F089590958095709561957F4F8F4F40
:105440009F4F08950E94572AA59F900DB49F900DDD
:10545000A49F800D911D11240895B7FF0C94222A5A
:105460000E94222A821B930B0895A1E21A2EAA1BE6
:10547000BB1BFD010DC0AA1FBB1FEE1FFF1FA21704
:10548000B307E407F50720F0A21BB30BE40BF50B01
:10549000661F771F881F991F1A9469F7609570958A
:1054A000809590959B01AC01BD01CF010895A29F0D
:1054B000B001B39FC001A39F700D811D1124911DE8
:1054C000B29F700D811D1124911D0895991B79E0E3
:1054D00004C0991F961708F0961B881F7A95C9F784
:1054E0008095089587FB082E062687FD819567FD28
:1054F00061950E94662A0EF4919507FC81950895A6
:1055000097FB072E16F4009407D077FD09D00E9470
:10551000042907FC05D03EF4909581959F4F08958E
:10552000709561957F4F0895EE0FFF1F0590F491E0
:10553000E02D09940E94572A332312F48A1B9B0BF7
:105540000C94A42A0E94572AB7FF0895821B930B3C
:1055500008950F931F93CF93DF938230910510F43A
:1055600082E090E0E0918406F091850620E030E052
:10557000A0E0B0E0309719F14081518102811381A0
:1055800048175907C8F08417950769F4109731F048
:1055900012960C93129713961C9327C000938406BF
:1055A0001093850622C02115310519F042175307C3
:1055B00018F49A01BD01EF01DF01F801DBCF2115DD
:1055C0003105F9F0281B390B2430310580F48A812C
:1055D0009B816115710521F0FB019383828304C0D7
:1055E0009093850680938406FE01329644C0FE01A6
:1055F000E20FF31F8193919322503109398328835D
:105600003AC02091820630918306232B41F42091E9
:105610000601309107013093830620938206209182
:105620000401309105012115310541F42DB73EB734
:105630004091080150910901241B350BE09182062D
:10564000F0918306E217F307A0F42E1B3F0B2817F7
:10565000390778F0AC014E5F5F4F2417350748F0EB
:105660004E0F5F1F50938306409382068193919360
:1056700002C0E0E0F0E0CF01DF91CF911F910F91E8
:105680000895CF93DF93009709F481C0FC0132970E
:1056900013821282A0918406B0918506109781F43E
:1056A00020813181820F931F2091820630918306E1
:1056B0002817390751F5F0938306E093820667C0F7
:1056C000ED0120E030E0CE17DF0740F44A815B8136
:1056D0009E0141155105F1F0EA01F5CFD383C28354
:1056E00040815181840F951FC817D90759F48881CB
:1056F0009981840F951F0296918380838A819B8173
:10570000938382832115310529F4F0938506E09374
:1057100084063DC0E901FB83EA8349915991C40F96
:10572000D51FEC17FD0761F480819181840F951FCF
:105730000296E90199838883828193819B838A837E
:10574000E0E0F0E012968D919C911397009719F08C
:10575000FD01DC01F7CF8D919C9111979D012E5F8A
:105760003F4F820F931F20918206309183062817A6
:10577000390769F4309729F410928506109284064F
:1057800002C013821282B0938306A0938206DF9137
:10579000CF910895FC014150504030F00190061621
:1057A000D1F73197CF010895882799270895FB01F4
:1057B000DC0104C08D910190801921F441505040CA
:0C57C000C8F7881B990B0895F894FFCFE0
:1057CC0001000000000086062000A404AA01EE23BC
:1057DC001124F223190F140F130F010120000119CA
:1057EC001A1B1C1D1E1F20212201020165614A701B
:1057FC004B2F3745307178004022476DDF01BD01DA
:10580C007601090131024A026A0283020001020296
:10581C0002020606060909090909090F0F0F0F0FE5
:10582C000F151515181919191919191919191923E9
:10583C0024252525252525818283E200E900EA001F
:10584C00B500B600B700CD008301CC008A019201EF
:10585C0094012102230224022502260227022A0295
:08586C00B300B4006F007000EE
:00000001FF
