:100000000C9463020C9480020C9480020C94800285
:100010000C9480020C9480020C9480020C94800258
:100020000C9480020C9480020C9498100C94541040
:100030000C942F200C9480020C9480020C9480026B
:100040000C9480020C9480020C9480020C94800228
:100050000C9480020C94A20C0C9480020C948002EC
:100060000C9480020C9480020C9480020C94800208
:100070000C9480020C9480020C9480020C948002F8
:100080000C9480020C9480020C9480020C948002E8
:100090000C9480020C9480020C9480020C948002D8
:1000A0000C9480020C9480020C94800229002B0096
:1000B0003500E100015100001E00140004001D6421
:1000C000E00003511F001A0016001B00E2000601A9
:1000D00020000800070006005000E3002100150082
:1000E000090019004F003508220017000A0005001A
:1000F0000000500826022F0200002F000000E0043C
:10010000270230020000300000004B0023001C00DA
:100110000B00110000004F08240018000D00100013
:1001200051004E0025000C000E00360052002C003D
:10013000260012000F00370023022A0027001300B8
:1001400033003874210226022D00310034002800CB
:10015000025100002900010001000100010000001F
:100160000100035D5000010004510100065D5200D2
:100170005100010003512C000100055D4F000601F4
:10018000500CE30001000100090119014F0C4D0062
:1001900001000100010001000000B60001000100A3
:1001A0000000010000004A000100025300000100AD
:1001B00000004B0001000100010001000000B70039
:1001C0000100240021001E0027004E002E00250003
:1001D00022001F0001002C005400260023002000F4
:1001E00037002A0055005600570001000100280082
:1001F0002E00300230000A0201000000A6000100BB
:10020000FF00FE00FD0000003A00FA00F2000100CD
:100210000100F6003B00F000F10001000100F500D4
:100220003C00F900F30001000100F4003D00010072
:1002300001000100010001003E0001000100010079
:10024000000001003F00010000000100000001006B
:1002500040000100000001000000A9004100010071
:1002600001000100000001004200240021001E00E6
:100270002700AA004300250022001F003700B70016
:1002800044002600230020005800B6004500550019
:10029000570031002E00A8000100010001000351A9
:1002A0000100000001000100010001000100000048
:1002B000010007050805500D0100010001001805A7
:1002C00050050D05010035080100520506055105D0
:1002D0000100280501000C054F050E050100010075
:1002E00001000A0517054F0D000001000100010083
:1002F00000000100000001000100010000000100F9
:100300000000010001000100500001000000010098
:100310000100010051000100010001000100010085
:100320005200010001001A08010001004F00010005
:1003300001000100010001000100010001000100B5
:10034000005C01000100010001000000050109023C
:10035000A10185020901A10005091901290515005E
:10036000250195057501810295017503810105013E
:10037000093009311581257F9502750881060938F4
:100380001581257F950175088106050C0A3802152F
:1003900081257F950175088106C0C005010980A1EE
:1003A0000185031A81002A830016010026030095A7
:1003B0000175108100C0050C0901A10185041A0115
:1003C000002A9C02160100269C02950175108100EE
:1003D000C005010906A1018505050719E029E715F2
:1003E0000025019508750181020507190029EF15FF
:1003F00000250195F075018102050819012905956F
:100400000575019102950175039101C00501090669
:10041000A101050719E029E71500250195087501D7
:1004200081029501750881010507190029FF150052
:1004300026FF009506750881000508190129059514
:100440000575019102950175039101C009023B00F8
:10045000020100A0FA0904000001030101000921C2
:10046000110100012240000705810308000A090468
:100470000100010300000009211101000122C00058
:100480000705820320000A1201100100000008ED98
:10049000FE071301000102030104033000000016EF
:1004A000034500720067006F0064006F0078002051
:1004B0000045005A00000008035A005300410000A4
:1004C00000040309040011241FBECFEFDAE0DEBFF1
:1004D000CDBF11E0A0E0B1E0EAEBF5E402C0059089
:1004E0000D92A03FB107D9F726E0A0EFB1E001C01F
:1004F0001D92AA32B207E1F70E94021E0C94B022AC
:100500000C940000E8EDF0E080818E7F80831092F3
:10051000E2001092DA001092E100A0EEB0E08C91BF
:1005200081608C9380818F77808319BCA7EDB0E0C8
:100530008C918E7F8C9380818F7E80831092F705C3
:1005400008952091E4003091E50095E6A9012091FD
:10055000EC00822F817020FF06C08091E80080FFB0
:1005600006C080E008952091E80022FD1AC0809125
:100570001C06882389F0853089F08091EB0085FD89
:100580000FC02091E4003091E50042175307F9F2C3
:100590009150E1F684E0089582E0089583E00895A3
:1005A00081E00895EF92FF920F931F93CF937C0108
:1005B0008B010E94A102C82F811117C08091E80011
:1005C00085FD0BC08091E8008E778093E8000E9443
:1005D000A102882399F3C82F08C0F70181917F01F8
:1005E0008093F1000150110949F78C2FCF911F9191
:1005F0000F91FF90EF90089580911E0687FF13C022
:100600008091E80082FF06C08091E8008B7780939C
:10061000E80004C080911C068111F2CF08958091FA
:100620001C068823D9F38091E80080FFF8CF8091E1
:10063000E8008E77ECCF982F9093E900242F762F47
:1006400050E0891731F07091EC002091ED0050914D
:10065000F00021FD07C09F5F973071F78093E9009C
:1006600081E008953091EB003E7F3093EB003091B4
:10067000ED003D7F3093ED003091EB003160309321
:10068000EB007093EC002093ED005093F00020916C
:10069000EE0027FDE0CF80E00895CF92DF92EF9249
:1006A000FF920F931F93CF93DF93C8EDD0E0888123
:1006B0008F7E8883E7EDF0E080818160808384E035
:1006C00082BF81E08093F70588818E7F888302EE68
:1006D00010E0F80110821092DA0081EEC82ED12CC1
:1006E000F601108288818F7788838881806888836B
:1006F00088818F7D888319BC10921C0610921D067C
:1007000010921B0610921A0690EEE92EF12CF701BA
:1007100080818B7F808388818160888342E060E074
:1007200080E00E941B03F60180818E7F8083F801A8
:10073000808181608083808188608083F7018081EF
:100740008E7F8083888180618883DF91CF911F9124
:100750000F91FF90EF90DF90CF900895FC01809172
:1007600024069091250686179707A0F0611571055C
:1007700029F49091E8009E779093E80090E061154D
:10078000710551F4911108C08091E80082FF34C0D6
:1007900080E00895BC01F2CF80911C068823C1F14E
:1007A0008530C1F18091E80083FD30C08091E80080
:1007B00082FDEACF8091E80080FFE1CF8091F300D5
:1007C0002091F200382F6115710519F0283031059C
:1007D00058F091E02830310509F090E02091E800D0
:1007E0002E772093E800CBCF81918093F100615068
:1007F00071092F5F3F4FE7CF80911C06882341F09E
:10080000853041F08091E80083FFBECF81E00895FC
:1008100082E0089583E0089580911C06843011F4ED
:1008200082E0089581E008958091F90508959091FE
:10083000E005803F41F48091E10587FD1092E105DC
:10084000992371F00895813F29F48091E1051816EC
:10085000ACF3F6CF823F81F497FFF2CF1092E00520
:100860008091E1059091E205892B9091E305892B18
:1008700049F71092E4050895833F19F4191674F3AB
:10088000DFCF893F39F48091E2051816CCF610923B
:10089000E205D6CF8A3F29F48091E20587FFD0CFC9
:1008A000F6CF8B3F39F48091E30587FFC9CF1092D3
:1008B000E305C6CF8C3F29F48091E3051816BCF3FD
:1008C000BFCF843F31F48091DF058E7F8093DF05B9
:1008D000B7CF853F21F48091DF058D7FF7CF863F2D
:1008E00021F48091DF058B7FF1CF873F21F4809148
:1008F000DF05877FEBCF883F21F48091DF058F7E76
:10090000E5CF8D3F31F48091B2058E7F8093B205A3
:1009100097CF8E3F21F48091B2058D7FF7CF8F3F27
:1009200009F08ECF8091B2058B7FF0CF8091B20518
:1009300080FD1AC081FD14C082FD14C08091E405C1
:10094000882391F0883270F424E0829FC001112442
:1009500068E270E00E942321862F672B29F008951A
:1009600082E0089584E0089581E008958091B205C1
:1009700080FD18C081FD14C082FD16C08091E40581
:10098000882381F0893180F424E1829FC001112401
:1009900069E170E00E942321862F672B39F00895CA
:1009A0008AE0089585E0089584E1089581E008953E
:1009B000803F31F40E94B60481958093E10508954B
:1009C000813F19F40E94B604F8CF823F31F40E94AF
:1009D000B60481958093E0050895833F19F40E9441
:1009E000B604F8CF893F29F40E9496048093E2056B
:1009F00008958A3F21F40E9496048195F7CF8B3F9A
:100A000031F40E94960481958093E30508958C3F0C
:100A100019F40E949604F8CF843F31F48091DF05E9
:100A200081608093DF050895853F21F48091DF0583
:100A30008260F7CF863F21F48091DF058460F1CF9B
:100A4000873F21F48091DF058860EBCF883F21F458
:100A50008091DF058061E5CF8D3F31F48091B20553
:100A600081608093B20508958E3F21F48091B20594
:100A70008260F7CF8F3FB9F78091B2058460F1CFE4
:100A8000CF92DF92EF92FF920F931F932FB7F894BC
:100A90004091AE055091AF056091B0057091B105E0
:100AA0002FBF6A017B01EE24FF248C0130E020E09F
:100AB000C016D106E206F30650F0481B590BCA01D6
:100AC0001F910F91FF90EF90DF90CF9008954150CC
:100AD0005109F3CF8091A90581111092A9050895BC
:100AE0008091A8059091A705892B9091A605892B47
:100AF0008093F0019091A9059923A1F0892B80930F
:100B0000F00180911601882341F18091CB0587FF88
:100B100024C08EE1E2EFF1E090E0815000F5911108
:100B20000E946A05E091CD05F091CE053097E1F085
:100B300080911601882359F08091CB0587FF07C06B
:100B40008091F0018093F10185E08093F0010280B3
:100B5000F381E02D80EF91E0099486E0DBCF2191D5
:100B60002223D9F29F5FD9CF08959091160199233E
:100B7000D1F09091CB0597FF16C0E82FE695E6954A
:100B8000E695EE31E0F4F0E0E051FE4F282F2770BB
:100B900081E090E001C0880F2A95EAF78095928164
:100BA000892382830895E2EFF1E09191891303C0D4
:100BB000DF0111971C9291E0E83FF907B1F7089522
:100BC000909116019923C1F09091CB0597FF14C025
:100BD000E82FE695E695E695EE31F8F4F0E0E05181
:100BE000FE4F877021E030E001C0220F8A95EAF7BE
:100BF0008281822B82830895A2EFB1E0EFEF90E033
:100C00002D91821751F0EF3F19F4211101C0E92F06
:100C10009F5F9630A9F7EF3F09F408950E2E000C60
:100C2000FF0BE051FE4FE6CFE92FEE0FE90FEE0F7D
:100C30008E0F982F977086958695869525E0829FD2
:100C4000F0011124E659FA4F50E040E080E0219194
:100C500030E0092E02C0369527950A94E2F72170FC
:100C60003327042E01C0220F0A94EAF7822B4F5F2C
:100C70005F4F4530510559F70895E92FEE0FE90F01
:100C8000EE0F8E0F982F977041E001C0440F9A9598
:100C9000EAF786958695869595E0899FF00111245F
:100CA000E659FA4F30E020E070E05191DF011197F2
:100CB000CB01022E02C0969587950A94E2F78170C7
:100CC00081958527842385278C932F5F3F4F25307F
:100CD000310559F708958091690590913805981369
:100CE00001C008958F5F8770FACF882341F0809507
:100CF0009091A70589238093A7050C94700508950A
:100D0000882339F09091A705982B9093A7050C9410
:100D100070050895882341F080959091A805892356
:100D20008093A8050C9470050895882339F090915C
:100D3000A805982B9093A8050C9470050895209110
:100D40001802309119022817390771F0909319028F
:100D500080931802E091CD05F091CE05309721F0F7
:100D60000084F185E02D09940895209116023091B8
:100D700017022817390771F0909317028093160213
:100D8000E091CD05F091CE05309721F00680F781F6
:100D9000E02D09940895E091CD05F091CE053097AE
:100DA00021F00190F081E02D099480E00895909168
:100DB000CB0592FF06C0282F28712830F9F4877FD1
:100DC000846093FF06C0282F28712831F1F4877EB4
:100DD00084612091CC0520FF06C0382F387138304F
:100DE000D9F4877F816021FF06C0282F2871283120
:100DF000D1F4877E816194FD877E0895282F247128
:100E00002430F9F68B7F8860DCCF282F24712431C1
:100E100001F78B7E8861DDCF382F3171313019F7C2
:100E20008E7F8860E0CF282F2171213121F78E7EBF
:100E30008861E1CFCF93DF93972F70E026E0929FF8
:100E4000600D711D1124FB0134E5839FE00DF11D40
:100E50001124EE0FFF1FE455FF4FC591D491CE0131
:100E6000C238D105B9F1E8F5C133D10509F499C00B
:100E700050F5C932D10509F48DC0CA32D10509F443
:100E800097C0C11542E5D40708F0C4C0C11521E5DB
:100E9000D20708F038C1C83ED10508F09DC0C03E59
:100EA000D10568F5C83AD10508F089C0C53AD10521
:100EB00008F005C1C130D10511F1209709F443C0F4
:100EC0002497E8F440C0C533D10509F45CC0C933A8
:100ED000D105B9F62091CB05237089F080EE90E022
:100EE0000EC0C33ED10591F168F4C03ED105F9F0C2
:100EF000C23ED10531F62091CB0522FD20C0DF9105
:100F0000CF910895C63ED10561F1C73ED10581F16B
:100F1000C43ED10509F0B5CF2091CC0521FFEFCF1C
:100F20008091CB0584FD0FC087EE90E0E8CF209143
:100F3000CB0520FD19C13091CC0530FFE0CF83EE09
:100F400090E024FFDCCF90E080E0D9CF2091CB056A
:100F500022FD0DC13091CC0530FDC0CF24FFCFCF95
:100F6000F2CF2091CB0523FFCACF24FDECCFDCCFFD
:100F70002091CB0523FDFEC03091CC0531FFEECF93
:100F800084EE90E0BCCF2091CB0525FFB8CF89E25D
:100F900090E0B5CF2091CB0525FFB1CF85E390E060
:100FA000AECF2091CB0526FFAACF8AE290E0A7CF53
:100FB0002091CB0526FFA3CF81E390E0A0CFCF3BCC
:100FC000D10508F6C85AD0E0CC0FDD1FCE53DE4F56
:100FD00088819981946493CFC11530E2D30760F47E
:100FE000C11541E0D40708F08ACFCE019065C03F1B
:100FF000D10508F084CFA7CFC11580E4D80708F445
:10100000A2CFC11590E5D90708F061C0CE019F704D
:10101000906A75CFC11526E5D20718F5C11535E5DB
:10102000D30708F086C0C11544E5D40708F07CC09A
:101030009C2F96959695AE0143705527C115D345C3
:1010400008F466C021E030E002C0220F331F4A9549
:10105000E2F740E2949FC0011124822B932B9A68FF
:101060004ECFC1159AE5D90778F4C11529E5D20705
:1010700008F069C0C11538E5D30708F464CF9C2F88
:101080008827806F906A3BCFC1154BE5D40708F4E1
:101090005ACFC1158CE5D80708F462C0CE0190562E
:1010A0008115904208F04FCF8D2F8F710E94D70687
:1010B00090E0982F882788279F718C2B42C0C55AB3
:1010C000D0E0C154DE4F888190E0906418CF9E013B
:1010D000E4E036952795EA95E1F723708C2F869505
:1010E0008695837030E2839FC0011124922BC370D8
:1010F00021E030E002C0220F331FCA95E2F7822BB5
:10110000932B9C68FCCE9C2F8827816F906AF7CE2A
:1011100021E030E002C0220F331F4A95E2F740E29F
:10112000949FC0011124EBCF9C2F8827846F906A75
:10113000E6CE8C2F0E94D70690E0982F882788272C
:101140009F719062DCCE8C2F8F700E94D70634E0A6
:10115000D695C7953A95E1F7CF709C2F9069CFCE81
:10116000CE0199279066CBCE89E390E0C8CE82EE7F
:1011700090E0C5CE86EE90E0C2CEBF92CF92DF92D5
:10118000EF92FF920F931F93CF93DF938C01C09048
:10119000A105D090A205E090A305F090A405809150
:1011A000AA059091AB05A091AC05B091AD05C82AF8
:1011B000D92AEA2AFB2ACFE1D0E0BC2ED701C6010A
:1011C0000C2E04C0B695A795979587950A94D2F7EB
:1011D00080FD0EC0219788F7B12C8B2DDF91CF9128
:1011E0001F910F91FF90EF90DF90CF90BF900895E7
:1011F000B8018C2F0E941A07019761F3EECFCF93AD
:10120000DF93EC010E94BD08BE01DF91CF910C94E9
:101210001A070E94FF08292F2F7092959F709250F5
:101220009E3078F4E92FF0E0EE54FD4D0C94372118
:10123000803F19F020F4883E20F481E00895843F37
:10124000E1F380E00895883EC0F3813FD1F7F5CF08
:10125000822F869586958695089527982F980895CC
:1012600026982E98089525982D98089556985E985A
:101270000895279A2F9A0895269A2E9A0895259AC6
:101280002D9A0895CF92DF92EF92FF92CF936B0148
:101290007C01C701AA27BB27C0E10097A105B105C2
:1012A00019F4D701CB01C0E0492F5A2F6B2F7727B4
:1012B000411551056105710519F0C85FDB01CA01CF
:1012C000AC01BD01E4E07695679557954795EA95A1
:1012D000D1F7411551056105710519F0CC5FDB01AE
:1012E000CA01AC01BD0132E07695679557954795E7
:1012F0003A95D1F7411551056105710519F0CE5F99
:10130000DB01CA01B695A79597958795892B8A2BFE
:101310008B2B09F0CF5F0E9436090E9433090E948F
:1013200030090E942D09C150C73040F4EC2FF0E085
:10133000E054FD4D0C9437210E943F09C701B601CE
:10134000CF91FF90EF90DF90CF9008950E943F09DA
:101350000E943C09F3CF0E943F090E943909EECF59
:101360000E943F090E943C09F8CF84B1807F84B974
:1013700085B1807F85B98AB1837F8AB98BB1837F3C
:101380008BB93E984698089580B38C7080BB81B32A
:10139000836F81BB0895CF9384E090E00E943D214C
:1013A000C82F81E290E00E943D21982F8C2FCF9191
:1013B0000895CF93DF9300D00F92CDB7DEB7909111
:1013C0001C06943019F589837B836A8382E08093BD
:1013D000E9008FEF9091E800815095FD06C095EDF2
:1013E0009A95F1F700008111F5CF8091E80085FF13
:1013F0000DC050E040E063E070E0CE0101960E9435
:10140000D2028091E8008E778093E8000F900F90D1
:101410000F90DF91CF910895CF93DF93EC010E945D
:101420000C04823011F0843031F4BE0184E0DF918D
:10143000CF910C94D909DF91CF910895BC016058E8
:10144000710983E00C94D909CF93DF93EC010E94DA
:101450000C04823011F08430F9F482E08093E900CA
:101460008FEF9091E800815095FD06C095ED9A951B
:10147000F1F700008111F5CF8091E80085FF0CC0E5
:1014800050E040E066E070E0CE010E94D202809120
:10149000E8008E778093E800DF91CF910895CF9395
:1014A000DF93EC010E940C04823011F08430B9F516
:1014B000809116018823B1F18091CB0587FF32C05E
:1014C00060E282E08093E9008FEF9091E800815024
:1014D00095FD06C095ED9A95F1F700008111F5CFC5
:1014E0008091E80085FF1BC08091160170E050E0FC
:1014F00040E0811104C050E040E068E070E0CE01BF
:101500000E94D2028091E8008E778093E80080E20A
:10151000FE01AAEFB5E001900D928A95E1F7DF9107
:10152000CF91089568E081E0CDCFEF92FF920F93C5
:101530001F93CF93DF930E9436090E9433090E94C4
:1015400030090E942D0988E8E82EF12C8FEF90E0F9
:10155000F701918380830AE810E0F801918380838A
:10156000CCE8D0E0998388830E943F09FFEF20E711
:1015700082E0F15020408040E1F700C000000E946E
:101580003C099FEFE0E7F2E09150E040F040E1F7E6
:1015900000C000000E9439092FEF80E792E021503F
:1015A00080409040E1F700C000000E943309EFEF57
:1015B000F0E722E0E150F0402040E1F700C00000F9
:1015C0000E9430098FEF90E7E2E081509040E040C8
:1015D000E1F700C000000E942D098091B9058770D5
:1015E000FFEF8F9FC001112495958795959587955D
:1015F0009927F70191838083F801918380839983F0
:1016000088830E9436090E9433090E943009DF91C5
:10161000CF911F910F91FF90EF900C942D09609145
:10162000B5058CE090E00C9451216FEE7EEF90E0D8
:1016300080E00E946F2160E082E090E00E945121F2
:1016400060E083E090E00E9451211092AA05109280
:10165000AB051092AC051092AD0560E084E090E01F
:101660000E94512160E081E290E00E94512160E0FF
:1016700085E090E00E94512160E086E090E00E94C9
:1016800051216FEF87E090E00E94512140E050E04F
:10169000BA0188E090E00E94632160E08DE090E074
:1016A0000E94512140E050E0BA0188E190E00E94A0
:1016B000632160E087E190E00E94512140E050E02A
:1016C000BA018CE190E00E94632160E080E290E04A
:1016D0000E9451211092B9051092BA051092BB05D3
:1016E0001092BC0584E080618093B9054091B905F2
:1016F0005091BA056091BB057091BC058FE090E0F8
:101700000E94632140E050E0BA0183E190E00C9434
:101710006321CF93C82F873070F580910A01909193
:101720000B01892B89F564E670E080E40E945C205F
:1017300090930B0180930A01892BD1F464E670E049
:1017400082E10E94B82090930B0180930A01892BBB
:1017500079F481E090E001C0880FCA95EAF764E669
:1017600070E080950E94B82090930B0180930A014D
:10177000CF910C940B218A30B9F040F4883071F08D
:10178000893079F0209A2898CF9108958C3091F083
:1017900070F08D30B9F73E9A4698F6CF219A299885
:1017A000F3CF229A2A98F0CF239A2B98EDCF529A12
:1017B0005A98EACF539A5B98E7CF80E290E09093F3
:1017C0000B0180930A018091130281110EC00E94C7
:1017D000562081E0809313022FEF83ED90E3215098
:1017E00080409040E1F700C0000064E670E080E4D3
:1017F0000E945C2090930B0180930A01892B09F0D1
:101800004EC064E670E080E00E94B82090930B0127
:1018100080930A01892B09F042C064E670E080E001
:101820000E94B82090930B0180930A01892BB9F58F
:1018300064E670E08FE30E94B82090930B018093E0
:101840000A01892B61F50E940B2164E670E080E4B7
:101850000E945C2090930B0180930A01892BF9F47C
:1018600064E670E08CE00E94B82090930B018093B6
:101870000A01892BA1F464E670E080E00E94B820A0
:1018800090930B0180930A01892B49F464E670E080
:101890008FE30E94B82090930B0180930A010E946D
:1018A0000B2180910A010895CF93873008F040C042
:1018B00080910A0190910B01C0E0892B71F464E6DC
:1018C00070E080E40E945C2090930B0180930A01F9
:1018D000892B31F0C0E00E940B218C2FCF9108950D
:1018E00064E670E083E10E94B82090930B0180933E
:1018F0000A01892B79F764E670E081E40E945C209C
:1019000090930B0180930A01892B21F784E690E0E4
:101910000E94E72097FF05C090930B0180930A0176
:10192000D9CFC82FC09510920B0110920A01D3CFC6
:10193000CFB18FB1869586958C73C3708C2BC82FD1
:10194000C095CBCF78941F921FB61F9211248F930E
:101950009F93AF93BF938091AE059091AF05A091F7
:10196000B005B091B1050196A11DB11D8093AE05E2
:101970009093AF05A093B005B093B105BF91AF911F
:101980009F918F911F901FBE1F9018952FB7F894AD
:101990008091AE059091AF05A091B005B091B105D1
:1019A0002FBF0895E091CD05F091CE05309749F015
:1019B00082E08093DE050480F581E02D8EED95E0D8
:1019C00009950E94C60C9093E6058093E50508955D
:1019D0001092A7051092A6050E94700586E0EEED14
:1019E000F5E0DF011D928A95E9F71092E405109267
:1019F000B2050E94D20C90E080E00E94B50690E013
:101A000080E00C949F060E9442096093A1057093A8
:101A1000A2058093A3059093A4050C94E80C0F9362
:101A20001F9341E050E060E070E004C0440F551F98
:101A3000661F771F8A95D2F7CB01BA016095709522
:101A4000809590950091A1051091A2052091A30584
:101A50003091A40560237123822393231F910F915A
:101A60000C94030D9091A505809589238093A5057D
:101A7000282F277071F4282F082E000C330B921793
:101A8000130639F08595859585950E940F0D109266
:101A9000A50508950F931F9341E050E060E070E0CA
:101AA00004C0440F551F661F771F8A95D2F7809197
:101AB000A1059091A205A091A305B091A4058A016A
:101AC0009B01082B192B2A2B3B2BC901B8011F9115
:101AD0000F910C94030D60E070E0CB010C94030DAA
:101AE0006093AA057093AB058093AC059093AD0508
:101AF0000C94E80C1092A80580911601E2EFF1E039
:101B0000882359F08091CB0587FF07C08EE1DF0164
:101B10001D928A95E9F70C94E80C86E0F8CF1F93A4
:101B2000CF93DF93CDB7DEB7AA970FB6F894DEBF99
:101B30000FBECDBF8EE196E02091F100FC01219314
:101B4000CF01F6E086329F07B9F780911F068330F8
:101B500009F46FC0B8F4813009F446C0823009F44A
:101B6000B0C08091E80083FF87C280911E069091EB
:101B70001F069A3008F080C2E92FF0E0E953FD4DCE
:101B80000C9437218A3009F48BC08B3009F46EC075
:101B9000893039F780911E06813219F7809122062B
:101BA000909123060297E8F68091E800877F809362
:101BB000E8008091E80082FF37C09091F3008091A7
:101BC000F200029729F48091F1008B7F813021F49B
:101BD0008091F1008093F9058091E8008B778093E4
:101BE000E8000E94FC02BDCF80911E06813A09F0F8
:101BF000B8CF8091E800877F8093E800809122062B
:101C000090912306892B61F460E28AEF95E070E001
:101C10000E94AE038091E8008B778093E800A1CF0B
:101C200060E090E080E0F3CF80911C068111C1CF8D
:101C300098CF80911E06813A09F093CF80912206B9
:101C400090912306892B09F08CCF8091E800877F43
:101C50008093E8008091E80080FFFCCF809116011E
:101C60008093F1008091E8008E77B9CF80911E06B5
:101C7000813209F076CF8091220690912306892B3C
:101C800009F06FCF8091E800877F8093E8000E9481
:101C9000FC0280912006809316010E947A0D61CF8C
:101CA00080911E06813209F05CCF8091E800877F29
:101CB0008093E8000E94FC02809121068093F80541
:101CC00050CF80911E06813A09F04BCF8091E800F9
:101CD000877F8093E8008091E80080FFFCCF8091AF
:101CE000F805BECF803899F0823809F0C5C18091DF
:101CF00022068F70873008F0BFC18093E900809181
:101D0000EB0085FB882780F91092E90006C08091DE
:101D10001A0690911B06911182609091E800977FBE
:101D20009093E8008093F1001092F1008091E80018
:101D30008E779EC1882309F48CC1823009F09CC142
:101D40008091200681118FC1809122068F702FEF24
:101D5000280F263008F090C18093E9002091EB0015
:101D600020FF81C1933031F48091EB008062809339
:101D7000EB0079C19091EB0090619093EB0021E032
:101D800030E001C0220F8A95EAF72093EA00109212
:101D9000EA008091EB008860EACF81116DC110915B
:101DA00020061F778091E3008078812B8093E300E9
:101DB0008091E800877F8093E8000E94FC02809178
:101DC000E80080FFFCCF8091E30080688093E3000F
:101DD00082E0111183E080931C064EC1805882304E
:101DE00008F04AC180912006909121068C3D23E0A5
:101DF0009207A1F583E08A838AE289834FB7F8943A
:101E0000DE01139620E03EE051E2E32FF0E0509334
:101E10005700E49120FF03C0E295EF703F5FEF7041
:101E20008E2F90E0EA30C0F0C7968D939D932F5F80
:101E3000243159F74FBF8091E800877F8093E800F5
:101E40006AE270E0CE0101960E94AE038091E80044
:101E50008B778093E80010C1C096E7CF40912206AF
:101E600050912306292F33272330310509F445C02B
:101E700078F52130310509F47BC08BE390E0ECE488
:101E8000F4E02230310509F0F7C02091E800277F07
:101E90002093E800209124063091250682179307AD
:101EA00008F49C0140E02115310509F070C0411192
:101EB0006EC08091E80082FDC9CF80911C06882306
:101EC00029F2853019F28091E80083FFF2CFBECF6E
:101ED0002132310509F440C02232310509F0CCC06D
:101EE0004115510509F44EC04130510509F0C4C0F7
:101EF00080EC90E0ECE4F3E0C8CF992781309105C5
:101F0000D9F0009771F082309105F1F0039709F054
:101F1000B3C0E9E9F4E0E4918E2F90E0E9E9F4E060
:101F200007C0E1ECF4E0E4918E2F90E0E1ECF4E006
:101F3000009709F4A1C0A9CFE7EBF4E0E4918E2F5C
:101F400090E0E7EBF4E0F4CFEFE9F4E0E4918E2FDA
:101F500090E0EFE9F4E0ECCF4115510571F041302C
:101F6000510509F089C089E090E0E7E7F4E08DCF02
:101F700082E190E0E7E8F4E088CF89E090E0EEE5E8
:101F8000F4E083CF80E490E0ECE0F4E07ECF809159
:101F90001C06882309F45ACF853009F457CF809165
:101FA000E80083FD53CF8091E80082FD82CF8091CD
:101FB000E80080FF78CF9091F3008091F200211526
:101FC000310519F08830910550F041E0089709F08B
:101FD00040E08091E8008E778093E80064CF4491E0
:101FE0004093F1003196215031090196E8CF8038B5
:101FF00009F042C08091E800877F8093E8008091DB
:102000001D068093F10092CE811136C010912006FA
:10201000123090F58091E800877F8093E80010935C
:102020001D060E94FC02112311F084E005C080917E
:10203000E30087FDFACF81E080931C0642E061EC6B
:1020400081E00E941B0342E261EC82E00E941B03DC
:1020500013C080912006813079F481E0933009F03B
:1020600080E080931B061092E9008091E800877F52
:102070008093E8000E94FC028091E80083FF0AC080
:102080008091E800877F8093E8008091EB00806278
:102090008093EB00AA960FB6F894DEBF0FBECDBFBB
:1020A000DF91CF911F9108951F920F920FB60F925B
:1020B00011242F933F934F935F936F937F938F934D
:1020C0009F93AF93BF93CF93DF93EF93FF93D09101
:1020D000E900DF708091EC00C82FC17080FDC0E87E
:1020E0001092E9008091F000877F8093F00078944F
:1020F0000E948F0D1092E9008091F000886080931B
:10210000F000CD2BCF70C093E900FF91EF91DF91EC
:10211000CF91BF91AF919F918F917F916F915F917F
:102120004F913F912F910F900FBE0F901F901895D8
:102130001F920F920FB60F9211242F933F934F933C
:102140005F936F937F938F939F93AF93BF93EF931F
:10215000FF938091E10082FF09C08091E20082FF3D
:1021600005C08091E1008B7F8093E1008091DA00CF
:1021700080FF24C08091D80080FF20C08091DA00C9
:102180008E7F8093DA008091D90080FF9FC080E12C
:1021900089BD82E189BD09B400FEFDCF81E0809355
:1021A0001C068091F705811109C00E9482020E94DD
:1021B0004D038091E20084608093E2008091E10011
:1021C00080FF17C08091E20080FF13C08091E20081
:1021D0008E7F8093E2008091E20080618093E20034
:1021E0008091D80080628093D80019BC85E08093EC
:1021F0001C068091E10084FF2DC08091E20084FFE5
:1022000029C080E189BD82E189BD89B5982F91708F
:1022100080FFFBCF8091D8008F7D8093D800809184
:10222000E1008F7E8093E1008091E2008F7E8093B9
:10223000E2008091E20081608093E20080911D06BF
:10224000882309F449C084E080931C060E947A0D1B
:102250000E94CB068091E10083FF27C08091E200BD
:1022600083FF23C08091E100877F8093E10082E0BB
:1022700080931C0610921D068091E1008E7F809352
:10228000E1008091E2008E7F8093E2008091E20085
:1022900080618093E20042E060E080E00E941B03E6
:1022A0008091F00088608093F000FF91EF91BF91E2
:1022B000AF919F918F917F916F915F914F913F91DE
:1022C0002F910F900FBE0F901F90189519BC109270
:1022D0001C061092F70572CF8091E30087FD93E012
:1022E00090931C06B3CF882309F459C0823871F447
:1022F0000E94CB0681FF53C089E30E94E0050E9443
:10230000700589E30E94B5050C947005833859F473
:102310000E94CB0680FF43C083E50E94E0050E9437
:10232000700583E5EFCF843859F40E94CB0682FF15
:1023300036C087E40E94E0050E94700587E4E2CF82
:102340009CEF980F913AF0F290E2980F983088F451
:10235000877021E030E0A90102C0440F551F8A9523
:10236000E2F7CA0180959091A80589238093A8057A
:10237000CBCF9BE5980F933020F490E080E00C9455
:10238000B50698E5980F973120F490E080E00C9422
:102390009F06803F20F00E9417040C94D20C0895F1
:1023A000882309F47BC08238B9F40E94CB0681FDF2
:1023B00075C089E30E94E0050E9470052FEF81EE51
:1023C00094E0215080409040E1F700C0000089E394
:1023D0000E94B5050C9470058338A1F40E94CB06C9
:1023E00080FD5CC083E50E94E0050E9470052FEF30
:1023F00081EE94E0215080409040E1F700C0000061
:1024000083E5E6CF8438A1F40E94CB0682FD46C066
:1024100087E40E94E0050E9470052FEF81EE94E0B2
:10242000215080409040E1F700C0000087E4D0CF09
:102430009CEF980F913A18F40E94E005CBCF90E200
:10244000980F983068F4877021E030E001C0220FC7
:102450008A95EAF78091A805822B8093A805BACFC8
:10246000EBE5E80FE33038F4F0E0E154FE4F808113
:1024700090E00C94B506E8E5E80FE73148F4F0E0A9
:10248000EE0FFF1FEE53FE4F808191810C949F064B
:10249000803F20F00E94D8040C94D20C0895CF9372
:1024A000C82F0E94D011C93349F42FEF87EE93E073
:1024B000215080409040E1F700C000008C2FCF9168
:1024C0000C9473110F931F93CF93DF93C62FD42FC8
:1024D000022FFC0182818823A1F060932C050E94C9
:1024E000C60C9093150280931402C77081E001C05E
:1024F000880FCA95EAF7DF91CF911F910F910C9445
:10250000950610912C05161335C0809114029091F8
:1025100015020E944005883C910560F5C0E2CD0F90
:102520001D17B9F080E2810F883040F4177081E008
:1025300001C0880F1A95EAF70E948A06C83048F44D
:1025400081E09D2F977001C0880F9A95EAF70E944D
:102550009506802F0E944F12C83098F4D77081E002
:1025600001C0880FDA95EAF7DF91CF911F910F91A3
:102570000C948A06C77081E001C0880FCA95EAF7FB
:10258000F3CFDF91CF911F910F9108954F925F92FA
:102590006F927F928F929F92AF92BF92CF92DF9273
:1025A000EF92FF920F931F93CF93DF9300D000D051
:1025B0000F92CDB7DEB76C01FC0183819481892B2A
:1025C00039F01081F180812F8F218F3F09F01CC7D6
:1025D0000F900F900F900F900F90DF91CF911F9160
:1025E0000F91FF90EF90DF90CF90BF90AF909F90B2
:1025F0008F907F906F905F904F9008950E94BD08DC
:10260000082F682F89819A810E943D06E12FF0E012
:1026100026E0F29EE00DF11D112434E5039FE00D4C
:10262000F11D1124EE0FFF1FE455FF4F059114918A
:1026300080912A05F601928181117CC19111F5C624
:102640000430FDE51F0709F443C108F00FC1033052
:102650003DE5130709F42EC10930EDE51E07F1F53C
:10266000F6018281882309F44EC08091B90591E07A
:10267000980F9770887F953008F4892B8093B9055F
:102680008091B9058770FFEF8F9FC0011124959548
:1026900087959595879599279093890080938800D1
:1026A00090938B0080938A0090938D0080938C0090
:1026B0004091B9055091BA056091BB057091BC0578
:1026C0008FE090E00E9463216091A1057091A205C6
:1026D0008091A3059091A4050E944209F601828190
:1026E000882389F0033EFCE51F0709F4B8C108F010
:1026F000A2C1013E3CE5130709F4AAC1023E8CE5E4
:10270000180709F4AAC117FFD7C1F60182818823EF
:1027100009F44DC08091A80580932B051092A8055F
:102720008091B505813009F4A2C1882309F49BC1C9
:10273000823009F4A9C1843009F4ADC18FE39CE96A
:102740000197F1F700C000005801E894B7F84CE099
:10275000E42EF12C95010E2C02C0369527950A9493
:10276000E2F72F7087E290E031F0822F90E02A307C
:1027700008F096C14D960E944F1294E0E91AF108B4
:10278000ECEFEE16EFEFFE0629F78091B5058130EC
:1027900009F48CC1882309F485C1823009F482C10F
:1027A000843009F487C180912B058093A805F60138
:1027B0008281882309F46EC610922C050230FCE554
:1027C0001F0708F43EC606312CE5120738F09801C1
:1027D0002A5F3C452730310508F033C60E94CB09FB
:1027E0009093CC058093CB050F303CE5130709F49B
:1027F0006CC208F0E6C108309CE5190709F44FC225
:1028000008F0BBC10430FCE51F0709F43CC208F026
:10281000A1C102303CE5130709F42DC203301C4569
:1028200009F42DC26091CB051091CC0584E090E0B5
:102830000E945121612F81E290E00E9451210F906E
:102840000F900F900F900F90DF91CF911F910F91EC
:10285000FF90EF90DF90CF90BF90AF909F908F90C0
:102860007F906F905F904F900C947A0D06308DE5BD
:102870001807D1F107309DE5190709F0EDCEA090BA
:102880000601B0900701C090A105D090A205E0908C
:10289000A305F090A4050E947A0D0E946B0D02E240
:1028A00015E0A016B106A9F1C8010E94C612065093
:1028B0001109F7CF0E947A0D0E946B0D88E292E019
:1028C000909329058093280581E080932A0580CE86
:1028D0000E947A0D0E946B0D82E295E0909329058B
:1028E0008093280582E0F1CFA0900801B090090103
:1028F000C090A105D090A205E090A305F090A4059A
:102900000E947A0D0E946B0D08E212E0A016B1063B
:1029100059F40E947A0DC092A105D092A205E092CE
:10292000A305F092A40554CEC8010E94C6120A5F06
:102930001F4FECCF0530EDE51E0791F5992309F403
:1029400047CE813029F08230B9F010922A0540CE6E
:102950008091280590912905F2E088329F0729F09F
:10296000FC0136972281211105C0909309018093C3
:102970000801EBCFCF01F0CF809128059091290578
:1029800025E08232920729F0FC013696228121113E
:1029900005C09093070180930601D7CFCF01F0CFF8
:1029A000813021F1823009F057CE20910801309119
:1029B0000901A0912805B0912905911105C095E064
:1029C000A232B90709F437C5CD0106962817390791
:1029D00009F442CE86E0F60101900D928A95E1F766
:1029E0008091280590912905069720C02091060125
:1029F00030910701A0912805B0912905911105C0DA
:102A000082E0A832B80709F47ECECD0106972817D8
:102A1000390709F421CE86E0F60101900D928A95DE
:102A2000E1F7809128059091290506969093290554
:102A30008093280511CE043E9CE5190791F084E0AF
:102A4000053EECE51E0709F05ECE8093B50502C099
:102A50001092B5050E940F0B56CE81E0F6CF82E0B2
:102A6000F4CF83E0F2CF82EE0E94D01167CE83E0F4
:102A70000E94800688E10E94D01188E10E947311B3
:102A800083E00E9475065ACE82EE0E94D01187E53F
:102A90000E944F1253CE86EE0E944F1288E1F8CF6B
:102AA000069769CE82EE0E9473117DCE8CE20E9461
:102AB0004F1279CE88E2FBCF033FFCE51F07D9F127
:102AC00040F5083D3CE5130791F1093D8CE51807F9
:102AD000F1F1073D9CE5190709F069CE26E241EEC8
:102AE00061EEC6010F900F900F900F900F90DF9145
:102AF000CF911F910F91FF90EF90DF90CF90BF90FB
:102B0000AF909F908F907F906F905F904F900C94BC
:102B10006212053FECE51E07B1F088F0063F2CE598
:102B2000120709F044CE27E245EE66EEDACF27E23F
:102B300045EE65EED6CF26E241EE60EED2CF27E23B
:102B400045EE64EECECF26E241EE62EECACF28E239
:102B500041E0EFCF8091CB05806106309CE51907FD
:102B600009F447C08091CB05886007301C4508F404
:102B700040C08091CB0580623CC00B30FCE51F0754
:102B800009F49BC068F409303CE5130709F48BC0D5
:102B90000A301C4509F046CE8091CB058C6029C0D7
:102BA0008091CB058B7F0D309CE5190711F1809149
:102BB000CB058D7F0E301C45E0F08091CB05877FE3
:102BC00018C00A3FFCE51F0709F461C060F5023137
:102BD0003CE5130709F481C078F400319CE519073E
:102BE00009F477C08091CB058F7B01311C4509F03A
:102BF00019CE8093CB0516CE0431FCE51F0709F4EE
:102C00007AC008F470C005311C4509F00BCE8091E4
:102C1000CB0582FB992790F921E0922790FB82F95E
:102C200090FB83F9E6CF0D3F8CE5180709F449C006
:102C300070F40B3FECE51E0771F18091CC058E7F9F
:102C40000C3F1C4509F0EECD8093CC05EBCD0F3F3A
:102C50002CE5120709F44BC060F101151D4509F080
:102C6000E1CD8091CC05982F909591708E7F892B26
:102C700090FB81F9E9CF8091CB058160BACF80913B
:102C8000CB058260B6CF8091CB058460B2CF8091B6
:102C9000CC058160D9CF8091CC058260D5CF809161
:102CA000CB058064A6CF0E947A0D8091CB05806809
:102CB000A0CF8091CC058360C7CF8091CB058E7F5C
:102CC00098CF8091CC058D7FBFCF8091CB058F7E33
:102CD00090CF8091CB058F7D8CCF0E947A0D809113
:102CE000CB058F7786CF8091CB05837F82CF809174
:102CF000CC058C7FA9CF0E947A0D9091CB05892FAE
:102D000097FB87F9805875CF85E3ABC385E3CBC3C9
:102D1000882349F001159CE5190709F443C00E3DCD
:102D20001C4509F47CC0F60100811181882309F457
:102D30008DC0C8010E94BD08F82E682FC8010E94EE
:102D40003D06B8018F2D0E941A078C01B82EF6019E
:102D5000E580E2943FE0E322F280F1101092A705B3
:102D60008091A505877079F0FF2069F080E2800FDF
:102D7000883048F082E00E94320D8091A50587706E
:102D8000AA24A3948111A12C912E92942FE0922237
:102D9000FBE0F91508F494C0E92DF0E0EF52FD4D89
:102DA0000C9437210E947A0DFFEF24E33CE0F150B0
:102DB00020403040E1F700C00000F89481E08093AB
:102DC000E00080E28093D8001092C9008FE19EE479
:102DD0000197F1F700C000001DBA109268001CBCFA
:102DE00010BE1FBA10927A0010926E0010926F00FF
:102DF00010927100109272001092C9001092BC00E3
:102E000014B817B81AB81DB810BA1092BC0015B88B
:102E100018B81BB81EB811BA0C94003FD9CB0F904C
:102E20000F900F900F900F90DF91CF911F910F9106
:102E3000FF90EF90DF90CF90BF90AF909F908F90DA
:102E40007F906F905F904F900C94150BC8010E947B
:102E50001406F82E76CF212F2F70E22E107F19F056
:102E6000E29490EFE922FF20C9F0EE2069F080E2C1
:102E7000800F883010F0B1100BC08091A805E82AAF
:102E8000E092A8050E947005802F0E94D01118C002
:102E90008091A705E82AE092A705F4CF802F0E9431
:102EA0007311EE2069F0E094005E083010F0B1106C
:102EB0003CC08091A805E822E092A8050E94700518
:102EC000292D2850330B2430310510F40E94CB06F5
:102ED000AA2009F47DCB8091A50580FD79CBF60170
:102EE00012828595859585950E944A0DC6010E949E
:102EF000C6128091A5058595859585950F900F90B3
:102F00000F900F900F90DF91CF911F910F91FF9035
:102F1000EF90DF90CF90BF90AF909F908F907F9079
:102F20006F905F904F900C940F0D8091A705E82251
:102F3000E092A705C3CF312F3F70832E107F103250
:102F400019F0829480EF8822802FBB2041F091E01D
:102F5000B91631F1FF2079F1EE2041F195CFFF2034
:102F600091F09091A905892F8829E11003C00E9452
:102F70009506A6CFE1E0EE12FACF981709F4A0CF9C
:102F80008093A9059DCFE11006C00E946A05882D97
:102F90000E948A0695CFF1E0EF1609F491CFF5CFA4
:102FA000FF2031F021E02E1508F48ACF882DDFCFE5
:102FB000E11086CFECCFEE2051F3893349F43FEF97
:102FC00087EE93E0315080409040E1F700C0000070
:102FD000802F0E94731174CF812F86958695837000
:102FE00061F0813009F06CCFC8019370F11002C01C
:102FF00090E080E00E949F0663CFC8019370F110BB
:1030000002C090E080E00E94B5065ACFFF2009F18F
:10301000053F99F0063FB9F0043F49F480912E0531
:1030200090912F05816090932F0580932E05802F1E
:103030000E94D8040E94D20C43CF80912E0590911B
:103040002F058260F0CF80912E0590912F0584602E
:10305000EACF053F89F0063FA9F0043F49F480918B
:103060002E0590912F058E7F90932F0580932E052E
:10307000802F0E941704DECF80912E0590912F059E
:103080008D7FF2CF80912E0590912F058B7FECCF15
:10309000812F837009F066C0F11012CF802F8295C6
:1030A00086958770880F880F602F6F70462E512C81
:1030B000712C612C082E04C0440C551C661C771C16
:1030C0000A94D2F740E050E0BA0104FF0FC04FE08D
:1030D00050E060E070E004C0440F551F661F771F8A
:1030E0008A95D2F74095509560957095812F869579
:1030F00086958370823019F1D8F40091AA05109159
:10310000AB052091AC053091AD05813069F04429C3
:10311000552966297729CB01BA01602371238223BF
:1031200093230E94700DCCCE402A512A622A732A22
:10313000CB01BA016429752986299729F2CF442940
:103140005529662977290091AA051091AB05209190
:10315000AC053091AD05CB01BA01602771278227FC
:103160009327DFCF8695FF2011F0812F8170882370
:1031700009F4A6CE802F829586958770880F880FD8
:10318000602F6F70462E512C712C612C082E04C0BC
:10319000440C551C661C771C0A94D2F740E050E0A2
:1031A000BA0104FF0FC04FE050E060E070E004C0DF
:1031B000440F551F661F771F8A95D2F7409550958B
:1031C00060957095812F869586958370823019F170
:1031D000D8F40091A1051091A2052091A30530918A
:1031E000A405813069F04429552966297729CB0146
:1031F000BA0160237123822393230E94030D60CEC2
:10320000402A512A622A732ACB01BA0164297529FE
:1032100086299729F2CF44295529662977290091D3
:10322000A1051091A2052091A3053091A405CB0121
:10323000BA016027712782279327DFCF1F70FF20F5
:1032400029F0812F0E944A0D802F91CE802F0E945D
:103250008A06812F0E940F0D33CE802FE2EFBE161B
:1032600009F44EC0EB1578F0F0EFBF1619F121EF1D
:10327000B21609F43DC0FF2009F464C0E11004CE89
:10328000812F8F713AC033EFB31609F43EC094EF2B
:10329000B912F1CFFF2009F44AC01F71812F0E949B
:1032A0004A0DF8E01F9FC001112483608093A5059B
:1032B000812F23C0FF20B9F0E11002CE1F7161E021
:1032C00070E080E090E004C0660F771F881F991FB0
:1032D0001A95D2F70091A1051091A2052091A3059E
:1032E0003091A405A6CFE1E0EE1508F4E9CDE6CFD4
:1032F000812F8F71FF2009F4ADCF0E944A0DE0CDE0
:10330000812F8F71FF20C9F3A5CFFF2069F01F71B6
:1033100061E070E080E090E004C0660F771F881FD6
:10332000991F1A95D2F769CF0E946B0DC9CD81E024
:103330000E94320D21E02E1508F0C2CD82E00E94DD
:10334000320DBECDE11039CE812F8F7183CFE2EFE8
:10335000BE16D1F1EB1500F1F0EFBF1649F121EFE8
:10336000B216D1F180913005EE2009F441C08823D6
:1033700041F08091310591E08927809331051092C9
:103380003005802FF11081CD0E94731186E0F60187
:1033900011928A95E9F794CD34EFB316C1F0B316C4
:1033A00088F085EFB812DECFF1108ACD81E007C03A
:1033B000FF2009F485CD8091310591E08927809324
:1033C00031057ECD81E0F826F092310579CDF110FE
:1033D00077CD1092310574CDFF2039F08091300502
:1033E000882349F3109230056BCDEE2021F368CD90
:1033F000882309F465CDF11063CD8091310591E00A
:10340000892780933105EECF85E0DE01119601908A
:103410000D928A95E1F7F601228189819A81211125
:10342000EDC80E941406082FF1C80930FDE51F07FA
:1034300009F058C91AC909302DE5120709F063C906
:103440000FC906313CE5130709F062CC8091A8054D
:103450008A7A91E009F490E090932D05811154CC83
:1034600089E20E94E0050F900F900F900F900F904F
:10347000DF91CF911F910F91FF90EF90DF90CF9050
:10348000BF90AF909F908F907F906F905F904F9084
:103490000C94700506311C4509F045CC80912D0532
:1034A000811134CC89E20E94B505DDCF1F93CF9303
:1034B000DF9380913705807FC1F4809134058823A4
:1034C000A1F080916905C091380560913205709135
:1034D00033054091350550913605D62FD723DA01B3
:1034E000A095B09516E0C81304C0DF91CF911F914D
:1034F000089590E04115510511F0DF3F31F4019638
:103500008770F1CF2A0F3B1F17C0189FF001199F3A
:10351000F00D1124E75CFA4F21812713F0CF2081B1
:103520002613EDCF22812111EACF23813481241784
:10353000350740F3241B350B283C310500F720915B
:1035400037052F7020612093370526E0289FF00172
:10355000299FF00D1124E25CFA4F80818F70806109
:10356000808382E395E00E94C612DF91CF911F9184
:103570000C946B06BF92CF92DF92EF92FF920F9363
:103580001F93CF93DF93CDB7DEB761970FB6F89453
:10359000DEBF0FBECDBF8C0185E0F801DE011D96B8
:1035A00001900D928A95E1F7D8012C9111963C91EA
:1035B00011971296EC9012978091350590913605EF
:1035C000009709F463C14091320550913305642F8F
:1035D00065236F3F09F45AC11396CD90DC90B090EB
:1035E0003405BB2009F413C1C816D906C0F1F60191
:1035F000E81BF90BCF01FF24F394883C910508F0F8
:10360000F12C80913705982F907FFF2009F4C1C0DD
:1036100091117DC0FE2C531327C0421325C0E11029
:1036200023C08F7080618093370582E395E00E940C
:10363000C61280913705D80115968C938F2D61960F
:103640000FB6F894DEBF0FBECDBFDF91CF911F91B3
:103650000F91FF90EF90DF90CF90BF9008958095ED
:1036600090958C0D9D1DC7CFCD2829F0822F8323E7
:103670008F3F09F035C180E0B82FB170DB2E80FF9D
:103680003CC0809169054091380556E0841315C00F
:103690002D873E878D859E850E94FF08292F2295C4
:1036A0002F702230F0F0243018F59F70F1F0F801FF
:1036B0009581907FD1F4D12C1EC090E0589FF001ED
:1036C000599FF00D1124E75CFA4F6181361306C053
:1036D0006081261303C06281E6120FC001968770D5
:1036E000D5CF9F7011F0882331F3805E883018F3B6
:1036F000C8010E94C612FD2CA1CFEE2009F49ECF76
:1037000080913705816080933705F12C97CF531353
:1037100013C0421311C0E1100FC0D80115968C934D
:10372000C8010E94C61286E0F801A2E3B5E001904C
:103730000D928A95E1F782CF2D873E878D859E85F4
:103740000E940909882309F1EE20F9F080913705DC
:10375000803270F0209132053091330538872F8305
:103760001986DB86CA868C87CE0107960E94C61210
:1037700086E0F801A2E3B5E001900D928A95E1F7A9
:103780000E94561AFF24F39459CFC8010E94C61212
:10379000F9CF91110CC082E395E00E94C61286E039
:1037A000E2E3F5E0DF011D928A95E9F747CF531375
:1037B00012C0421310C0E1100EC0F8018583C80189
:1037C0000E94C612E2E3F5E086E0DF011D928A95D1
:1037D000E9F7FB2C33CF2D873E878D859E850E9490
:1037E0000909882391F2EE2081F280913705803219
:1037F00008F4BECF20913205309133053A832983F6
:103800001B82DD82CC828E83CE010196AFCFC8169B
:10381000D90640F0C81AD90AB8ECCB16D10448F042
:10382000F12CBDCF809590958C0D9D1D883C910508
:10383000B8F7FE2CEE2009F4A8CF531316C042139C
:1038400014C08091370580FD6ECF982F907F09F4CA
:103850006ACFF8018583903F09F462CF982F907F5B
:10386000905F8F70892B85835BCF2D873E878D85F9
:103870009E850E94090981117BCF80913705816067
:1038800080933705C8010E94C612D8CEEE2009F4F5
:103890007CCF2D873E878D859E850E940909F82E55
:1038A000882309F472CF86E0F801A2E3B5E0019025
:1038B0000D928A95E1F780913205909133050E942F
:1038C000FF0892959F70963041F48091310591E008
:1038D000892780933105909330050E94561AAECE09
:1038E00081E08E25C9CE1F93CF93DF93CDB7DEB78E
:1038F00067970FB6F894DEBF0FBECDBF6D8B7E8B82
:103900008F8B8E899F89892BE1F0852F84238F3FB0
:1039100009F098C05FEF4FEF14C0309131053323A9
:1039200009F44EC0E42FF0E036E0539FE00DF11DA6
:103930001124EE0FFF1FE95EFE4F40815181822B63
:103940008C931A8A198A4B8B5C8B85E0FE017396E7
:10395000DE011D9601900D928A95E1F786E0FE0149
:103960003D96DE01179601900D928A95E1F7CE0102
:1039700007960E94BA1A811112C086E0FE0137969E
:10398000DE01119601900D928A95E1F78A859B855B
:10399000892B29F08F81988589238F3FC9F516E0FF
:1039A0008091690590913805891320C067960FB6FC
:1039B000F894DEBF0FBECDBFDF91CF911F91089568
:1039C00080958223BDCF96E0929FD001939FB00D4A
:1039D0001124A75CBA4FFE01319601900D929A9581
:1039E000E1F7809338050E946B06D9CF819FC00113
:1039F0001124875C9A4F0E94BA1A8823B9F28091E9
:103A0000690590E001968770992780936905C8CF72
:103A10002091380530E0C9010196877099274091BF
:103A200069054817190679F60E947A0D1092380533
:103A30001092690586E0E2E3F5E0DF011D928A95C8
:103A4000E9F7ADCF81E090E0042E01C0880F0A9421
:103A5000EAF7A52FB0E0A65EBD4F2C913D8931114C
:103A60005CCF322F38235BCF8F929F92AF92BF9261
:103A7000CF92DF92EF92FF920F931F93CF93DF933A
:103A800080910A0190910B01892B91F08091120293
:103A90008F5F8093120281110BC00E94DD0B90E0BA
:103AA00090930B0180930A01892B11F40E94950ACF
:103AB0000DEB15E07801C0E0912C37E0C32ECC0E61
:103AC0008C2F0E94890B8C2D0E94890B8C2F0E94B9
:103AD000540CD7019D917D01D12C891729F0FD014E
:103AE00031978083DD24D3948C2D0E94540CF701F0
:103AF0009681891709F466C0868381E08D29982A0A
:103B00000E94B509CF5FC730C1F60E94C60C6AEFAC
:103B100070E00E940F21882ED0911102DD2309F45C
:103B20005DC010921102E091B305F091B4057F01E0
:103B30002EE0E20EF11C40E0CBEF2AEFC22ED12C9A
:103B400051915B3F81F0652F70E0282D392F85174B
:103B5000D8F1261B370B2A303105E4F19F012150A3
:103B60003109D901CC93EE16FF0651F740931102AB
:103B7000911002C0411134C010921002A091B305FF
:103B8000B091B40520911102E0EDF5E04EED55E065
:103B900090E06191E80139918E01631751F06C91C9
:103BA0006B3FD1F48C93BF0161507109EB013883F5
:103BB00021E011964E175F0761F720931102909351
:103BC000100212C080E09ACFD601A61BB70B2A0FB5
:103BD0003B1FC1CF4D2FC7CF91E0EBCF9110CCCF82
:103BE000909110029111C8CF892DDF91CF911F9133
:103BF0000F91FF90EF90DF90CF90BF90AF909F908C
:103C00008F900895CDB7DEB72A970FB6F894DEBF30
:103C10000FBECDBF84B7877F84BF0FB6F894A89539
:103C200080916000886180936000109260000FBEF8
:103C300080E890E00FB6F894809361009093610063
:103C40000FBE85B7806885BF85B7806885BF0E9435
:103C500082020E944D038091E20084608093E20022
:103C6000789480911C068823A1F01091E9001F70C0
:103C70009091EC00892F817090FD80E8182B1092B4
:103C8000E9008091E80083FD0E948F0D1F70109362
:103C9000E90082E084BD93E095BD9AEF97BD8093E3
:103CA0006E000E94DD0B90E090930B0180930A015F
:103CB0000E94B5090E94C409ADEBB5E0E0EDF5E066
:103CC00011921D9225E0EE3DF207D1F78EE090E0D3
:103CD0000E9485218093B3059093B405FC010E9654
:103CE0002BEF2193E817F907E1F790E080E00E94BD
:103CF0004B218F3E9E4F11F00E94150B8CE090E0FF
:103D00000E943D2190E0B0E0A0E08093B505909343
:103D1000B605A093B705B093B80589EA80938000F3
:103D200089E08093810024982C983F988AB18F7CF9
:103D30008AB96E98479A8BB180638BB9769A8FE077
:103D400090E00E9445216093B9057093BA05809375
:103D5000BB059093BC0567708FEF689FB00111247D
:103D6000759567957595679577277093890060932A
:103D7000880070938B0060938A0070938D0060932D
:103D80008C000E94950A90E080E00E944B218F3EBB
:103D90009E4F11F00E94150B82E090E00E943D21A1
:103DA0008093E8050E94CB099093CC058093CB05C6
:103DB00083E090E00E943D21682F70E090E080E079
:103DC0000E94700D8CE091E09093CE058093CD051C
:103DD000DD24D394CC24CA9480E1B82E92E1A92E9C
:103DE00028E1E22EF12C30E4932E80911C068530E0
:103DF00009F458C00E94341DE9EEF5E0A0EDB5E0ED
:103E000010E000E0302F8D912191281709F497C020
:103E100090E0882483942827422F482109F48AC0FF
:103E200099833A83882191E009F490E09B830E9472
:103E3000C60C8160782F9D838C8349815A816B8168
:103E40008D810E94731CF801E751FA4F808188260A
:103E500080828091E5059091E6050E9440059C01D5
:103E60009091E405992319F02431310578F02091DF
:103E7000E0058090E1050091E2051091E305211134
:103E800074C0882D802B812B09F0E5C00E94CB06E1
:103E90009091E705891709F4A8CF0E94CB0680937B
:103EA000E705A3CF80911C06843009F11092CF055D
:103EB0000FB6F894A895E09260000FBE9092600053
:103EC00083B7817F846083BF83B7816083BF789429
:103ED000889583B78E7F83BF0FB6F894A89580919D
:103EE0006000886180936000109260000FBE809136
:103EF0001B06882309F479CF0E94DD0B90E0909394
:103F00000B0180930A010E94B5090E94C409E0EDEB
:103F1000F5E0119245E0EE3DF407D9F70E94341D1B
:103F2000E0EDF5E08191811182C085E0EE3DF8077A
:103F3000C9F75BCF9F5F880C963009F06DCF0F5F9C
:103F40001F4F0E30110509F05DCFCE82CF8218864B
:103F50000E94C60C8160782F9A8789874E815F8185
:103F600068858A850E94731C74CF9F3F19F09F5FFC
:103F70009093E405121624F40E94B6048093E005A1
:103F80008091E00587FF05C00E94B604819580936B
:103F9000E005181424F40E94B6048093E105809192
:103FA000E10587FF05C00E94B60481958093E10575
:103FB0003091E0053323A1F02091E105222381F027
:103FC00045EB3403C0011124992359F19093E00586
:103FD00045EB240390011124332331F13093E105A3
:103FE000101624F40E9496048093E2058091E20565
:103FF00087FF05C00E94960481958093E205111603
:1040000024F40E9496048093E3058091E30587FFE2
:1040100005C00E94960481958093E3050E94D20C0E
:1040200035CFD092E005D4CFD092E105D9CFB9BC3D
:10403000A9BC09B400FEFDCF8091D8008F7D80938C
:10404000D8008091E00082608093E0008091E000E1
:1040500081FDFCCFCACE9F3F09F089CF9ACF1F9236
:104060001FB61F9211248F939F93AF93BF9380919C
:10407000CF05811113C08091AE059091AF05A0913D
:10408000B005B091B1054196A11DB11D8093AE055B
:104090009093AF05A093B005B093B105BF91AF91D8
:1040A0009F918F911F901FBE1F9018951092B9007D
:1040B0008CE08093B8000895EF92FF920F931F93C6
:1040C000CF93DF93182FEB011092BC0084EA80930A
:1040D000BC000E94C60C7C018091BC0087FF27C0F9
:1040E0008091B900887F883029F08091B900887F5D
:1040F0008031D9F51093BB0084E88093BC000E9406
:10410000C60C8C018091BC0087FF24C02091B900AF
:10411000287F90E080E02831B1F081E090E0203409
:1041200011F490E080E09195819591090CC0CF3F0A
:10413000DC0791F20E94C60C8E199F098C179D070F
:1041400058F28EEF9FEFDF91CF911F910F91FF906B
:10415000EF900895CF3FDC07A9F20E94C60C801BA8
:10416000910B8C179D0770F2ECCF8FEF9FEFEBCF89
:104170000F931F93CF93DF93EB018093BB0084E8F1
:104180008093BC000E94C60C8C018091BC0087FF0C
:1041900011C02091B900287F81E090E0283211F40D
:1041A00090E080E0919581959109DF91CF911F91E9
:1041B0000F910895CF3FDC0741F30E94C60C801B8E
:1041C000910B8C179D0708F38EEF9FEFEECF0F93A7
:1041D0001F93CF93DF93EC0184E88093BC000E948F
:1041E000C60C8C018091BC0087FF08C08091BB0089
:1041F00090E0DF91CF911F910F910895CF3FDC07A1
:1042000089F30E94C60C801B910B8C179D0750F3FD
:104210008EEF9FEFEECF84E98093BC000895AA1B38
:10422000BB1B51E107C0AA1FBB1FA617B70710F0A1
:10423000A61BB70B881F991F5A95A9F780959095D3
:10424000BC01CD01089597FB072E16F4009407D00A
:1042500077FD09D00E940F2107FC05D03EF4909510
:1042600081959F4F0895709561957F4F0895EE0F4A
:10427000FF1F0590F491E02D0994F999FECF92BDAE
:1042800081BDF89A992780B50895A6E1B0E044E091
:1042900050E00C947721A8E1B0E042E050E00C94AB
:1042A0007721262FF999FECF92BD81BDF89A01970B
:1042B00000B4021639F01FBA20BD0FB6F894FA9A6E
:1042C000F99A0FBE08950396272F0E9452210E944B
:1042D0005121252F0E945221242F0C945221019606
:1042E000272F0E9452210C945121DC01CB01FC01AB
:1042F000F999FECF06C0F2BDE1BDF89A319600B43F
:104300000D9241505040B8F708950F931F93CF93EB
:10431000DF938230910510F482E090E0E09128066E
:10432000F091290630E020E0B0E0A0E0309799F469
:104330002115310509F447C0281B390B24303105FC
:10434000C0F58A819B816115710571F1FB01938331
:104350008283FE0111C0408151810281138148177F
:104360005907F8F04817590799F4109761F0129619
:104370000C93129713961C933296CF01DF91CF9135
:104380001F910F9108950093280610932906F4CFEA
:104390002115310519F04217530718F49A01BD0190
:1043A000EF01DF01F801C2CF909329068093280620
:1043B000D0CFFE01E20FF31F819391932250310978
:1043C00039832883DACF2091260630912706232BC4
:1043D00041F420910201309103013093270620938C
:1043E000260620910001309101012115310541F48B
:1043F0002DB73EB74091040150910501241B350BA8
:1044000040912606509127064217530708F0B5CF72
:10441000241B350B2817390708F4AFCFBC016E5F9A
:104420007F4F2617370708F4A8CF640F751F7093C6
:10443000270660932606FA01819391939ECFCF932E
:10444000DF930097E9F0FC01329713821282C0914A
:104450002806D0912906DE0130E020E02097A1F463
:1044600020813181820F931F2091260630912706EB
:104470002817390709F067C0F0932706E09326064E
:10448000DF91CF910895DA01AE17BF0708F040C061
:1044900012964D915C9113979D014115510599F725
:1044A000D9011396FC93EE9312974D915D91A40F51
:1044B000B51FEA17FB0779F4808191810296840F7A
:1044C000951FD90111969C938E93828193811396A7
:1044D0009C938E931297B0E0A0E08A819B81009715
:1044E000B9F5FE0181919191E80FF91F809126069F
:1044F000909127068E179F0719F6109761F5109275
:10450000290610922806D0932706C0932606B8CF16
:10451000B383A28340815181840F951FA817B907E7
:1045200071F44E5F5F4F8D919C911197480F591F09
:104530005183408312968D919C91938382832115A0
:10454000310509F0ADCFF0932906E093280698CF06
:10455000DE01EC01C2CF13961C921E921297D3CFAC
:10456000F894FFCF18091809210921092309210905
:1045700021092109180918092809210921092809EF
:104580009C09A809AD09A609AB09B209B009720EC8
:104590009A0E3C109A0E3C10CD0EEE0E3C10F70F0A
:1045A00004102B172B179B179B17EC170618A7192E
:0A45B000601748181E192D192D1967
:1045BA0000002A06200022052802200014044F0ABF
:1045CA00240A1E0A0C0A01000D010D020D030D0436
:1045DA000D050D000C010C020C030C040C050C005B
:1045EA000B010B020B030B040B050B000A010A0259
:1045FA000A030A040A050A0009010902090309044F
:10460A00090509000801080208030804080508004A
:10461A000701070207030704070507000601060248
:10462A00060306040605060005010502050305043E
:10463A00050505000401040204030404040504003A
:10464A000301030203030304030503000201020238
:10465A00020302040205020001010102010301042E
:10466A0001050100000100020003000400050081A9
:10467A008283E200E900EA00B500B600B700CD0087
:10468A008301CC008A0192019401210223022402AF
:10469A002502260227022A02B300B4006F00700026
:00000001FF
