:100000000C9463020C9480020C9480020C94800285
:100010000C9480020C9480020C9480020C94800258
:100020000C9480020C9480020C9493100C944F104A
:100030000C94231F0C9480020C9480020C94800278
:100040000C9480020C9480020C9480020C94800228
:100050000C9480020C94A20C0C9480020C948002EC
:100060000C9480020C9480020C9480020C94800208
:100070000C9480020C9480020C9480020C948002F8
:100080000C9480020C9480020C9480020C948002E8
:100090000C9480020C9480020C9480020C948002D8
:1000A0000C9480020C9480020C94800229002B0096
:1000B0003500E100015100001E00140004001D6421
:1000C000E00003511F001A0016001B00E2000601A9
:1000D00020000800070006005000E3002100150082
:1000E000090019004F003508220017000A0005001A
:1000F0000000500826022F0200002F000000E0043C
:10010000270230020000300000004B0023001C00DA
:100110000B00110000004F08240018000D00100013
:1001200051004E0025000C000E00360052002C003D
:10013000260012000F00370023022A0027001300B8
:1001400033003874210226022D00310034002800CB
:10015000025100002900010001000100010000001F
:100160000100010050000100045101000100520093
:100170005100010003512C00010001004F00060155
:10018000500CE30001000100090119014F0C4D0062
:1001900001000100010001000000B60001000100A3
:1001A0000000010000004A000100025300000100AD
:1001B00000004B0001000100010001000000B70039
:1001C0000100240021001E0027004E002E00250003
:1001D00022001F0001002C005400260023002000F4
:1001E00037002A0055005600570001000100280082
:1001F0002E00300230000A0201000000A6000100BB
:10020000FF00FE00FD0000003A00FA00F2000100CD
:100210000100F6003B00F000F10001000100F500D4
:100220003C00F900F30001000100F4003D00010072
:1002300001000100010001003E0001000100010079
:10024000000001003F00010000000100000001006B
:1002500040000100000001000000A9004100010071
:1002600001000100000001004200240021001E00E6
:100270002700AA004300250022001F003700B70016
:1002800044002600230020005800B6004500550019
:10029000570031002E00A8000100010001000351A9
:1002A0000100000001000100010001000100000048
:1002B000010007050805500D0100010001001805A7
:1002C00050050D05010035080100520506055105D0
:1002D0000100280501000C054F050E050100010075
:1002E00001000A0517054F0D000001000100010083
:1002F00000000100000001000100010000000100F9
:100300000000010001000100500001000000010098
:100310000100010051000100010001000100010085
:100320005200010001001A08010001004F00010005
:1003300001000100010001000100010001000100B5
:10034000005C01000100010001000000050109023C
:10035000A10185020901A10005091901290515005E
:10036000250195057501810295017503810105013E
:10037000093009311581257F9502750881060938F4
:100380001581257F950175088106050C0A3802152F
:1003900081257F950175088106C0C005010980A1EE
:1003A0000185031A81002A830016010026030095A7
:1003B0000175108100C0050C0901A10185041A0115
:1003C000002A9C02160100269C02950175108100EE
:1003D000C005010906A1018505050719E029E715F2
:1003E0000025019508750181020507190029EF15FF
:1003F00000250195F075018102050819012905956F
:100400000575019102950175039101C00501090669
:10041000A101050719E029E71500250195087501D7
:1004200081029501750881010507190029FF150052
:1004300026FF009506750881000508190129059514
:100440000575019102950175039101C009023B00F8
:10045000020100A0FA0904000001030101000921C2
:10046000110100012240000705810308000A090468
:100470000100010300000009211101000122C00058
:100480000705820320000A1201100100000008ED98
:10049000FE071301000102030104033000000016EF
:1004A000034500720067006F0064006F0078002051
:1004B0000045005A00000008035A005300410000A4
:1004C00000040309040011241FBECFEFDAE0DEBFF1
:1004D000CDBF11E0A0E0B1E0E2EAF3E402C0059094
:1004E0000D92AC3EB107D9F723E0ACEEB1E001C00C
:1004F0001D92A332B207E1F70E94F61C0C94A421CE
:100500000C940000E8EDF0E080818E7F80831092F3
:10051000E2001092DA001092E100A0EEB0E08C91BF
:1005200081608C9380818F77808319BCA7EDB0E0C8
:100530008C918E7F8C9380818F7E80831092F002CD
:1005400008952091E4003091E50095E6A9012091FD
:10055000EC00822F817020FF06C08091E80080FFB0
:1005600006C080E008952091E80022FD1AC0809125
:100570001503882389F0853089F08091EB0085FD93
:100580000FC02091E4003091E50042175307F9F2C3
:100590009150E1F684E0089582E0089583E00895A3
:1005A00081E00895EF92FF920F931F93CF937C0108
:1005B0008B010E94A102C82F811117C08091E80011
:1005C00085FD0BC08091E8008E778093E8000E9443
:1005D000A102882399F3C82F08C0F70181917F01F8
:1005E0008093F1000150110949F78C2FCF911F9191
:1005F0000F91FF90EF9008958091170387FF13C02C
:100600008091E80082FF06C08091E8008B7780939C
:10061000E80004C0809115038111F2CF0895809104
:1006200015038823D9F38091E80080FFF8CF8091EB
:10063000E8008E77ECCF982F9093E900242F762F47
:1006400050E0891731F07091EC002091ED0050914D
:10065000F00021FD07C09F5F973071F78093E9009C
:1006600081E008953091EB003E7F3093EB003091B4
:10067000ED003D7F3093ED003091EB003160309321
:10068000EB007093EC002093ED005093F00020916C
:10069000EE0027FDE0CF80E00895CF92DF92EF9249
:1006A000FF920F931F93CF93DF93C8EDD0E0888123
:1006B0008F7E8883E7EDF0E080818160808384E035
:1006C00082BF81E08093F00288818E7F888302EE72
:1006D00010E0F80110821092DA0081EEC82ED12CC1
:1006E000F601108288818F7788838881806888836B
:1006F00088818F7D888319BC109215031092160390
:10070000109214031092130390EEE92EF12CF701CE
:1007100080818B7F808388818160888342E060E074
:1007200080E00E941B03F60180818E7F8083F801A8
:10073000808181608083808188608083F7018081EF
:100740008E7F8083888180618883DF91CF911F9124
:100750000F91FF90EF90DF90CF900895FC01809172
:100760001D0390911E0386179707A0F06115710570
:1007700029F49091E8009E779093E80090E061154D
:10078000710551F4911108C08091E80082FF34C0D6
:1007900080E00895BC01F2CF809115038823C1F158
:1007A0008530C1F18091E80083FD30C08091E80080
:1007B00082FDEACF8091E80080FFE1CF8091F300D5
:1007C0002091F200382F6115710519F0283031059C
:1007D00058F091E02830310509F090E02091E800D0
:1007E0002E772093E800CBCF81918093F100615068
:1007F00071092F5F3F4FE7CF80911503882341F0A8
:10080000853041F08091E80083FFBECF81E00895FC
:1008100082E0089583E0089580911503843011F4F7
:1008200082E0089581E008958091F2020895909108
:10083000D902803F41F48091DA0287FD1092DA02FA
:10084000992371F00895813F29F48091DA021816F6
:10085000ACF3F6CF823F81F497FFF2CF1092D9022A
:100860008091DA029091DB02892B9091DC02892B36
:1008700049F71092DD020895833F19F4191674F3B5
:10088000DFCF893F39F48091DB021816CCF6109245
:10089000DB02D6CF8A3F29F48091DB0287FFD0CFDD
:1008A000F6CF8B3F39F48091DC0287FFC9CF1092DD
:1008B000DC02C6CF8C3F29F48091DC021816BCF311
:1008C000BFCF843F31F48091D8028E7F8093D802CD
:1008D000B7CF853F21F48091D8028D7FF7CF863F37
:1008E00021F48091D8028B7FF1CF873F21F4809152
:1008F000D802877FEBCF883F21F48091D8028F7E8A
:10090000E5CF8D3F31F48091AB028E7F8093AB02B7
:1009100097CF8E3F21F48091AB028D7FF7CF8F3F31
:1009200009F08ECF8091AB028B7FF0CF8091AB022C
:1009300080FD1AC081FD14C082FD14C08091DD02CB
:10094000882391F0883270F424E0829FC001112442
:1009500068E270E00E941720862F672B29F0089527
:1009600082E0089584E0089581E008958091AB02CB
:1009700080FD18C081FD14C082FD16C08091DD028B
:10098000882381F0893180F424E1829FC001112401
:1009900069E170E00E941720862F672B39F00895D7
:1009A0008AE0089585E0089584E1089581E008953E
:1009B000803F31F40E94B60481958093DA02089555
:1009C000813F19F40E94B604F8CF823F31F40E94AF
:1009D000B60481958093D9020895833F19F40E944B
:1009E000B604F8CF893F29F40E9496048093DB0275
:1009F00008958A3F21F40E9496048195F7CF8B3F9A
:100A000031F40E94960481958093DC0208958C3F16
:100A100019F40E949604F8CF843F31F48091D802F3
:100A200081608093D8020895853F21F48091D80297
:100A30008260F7CF863F21F48091D8028460F1CFA5
:100A4000873F21F48091D8028860EBCF883F21F462
:100A50008091D8028061E5CF8D3F31F48091AB0267
:100A600081608093AB0208958E3F21F48091AB02A8
:100A70008260F7CF8F3FB9F78091AB028460F1CFEE
:100A8000CF92DF92EF92FF920F931F932FB7F894BC
:100A90004091A7025091A8026091A9027091AA0208
:100AA0002FBF6A017B01EE24FF248C0130E020E09F
:100AB000C016D106E206F30650F0481B590BCA01D6
:100AC0001F910F91FF90EF90DF90CF9008954150CC
:100AD0005109F3CF8091A20281111092A2020895D0
:100AE0008091A1029091A002892B90919F02892B65
:100AF0008093EC019091A2029923A1F0892B80931D
:100B0000EC0180911201882341F18091C40287FF9A
:100B100024C08EE1EEEEF1E090E0815000F59111FD
:100B20000E946A05E091C602F091C7023097E1F099
:100B300080911201882359F08091C40287FF07C079
:100B40008091EC018093ED0185E08093EC010280BF
:100B5000F381E02D8CEE91E0099486E0DBCF2191CA
:100B60002223D9F29F5FD9CF089590911201992342
:100B7000D1F09091C40297FF16C0E82FE695E69554
:100B8000E695EE31E0F4F0E0E451FE4F282F2770B7
:100B900081E090E001C0880F2A95EAF78095928164
:100BA000892382830895EEEEF1E09191891303C0C9
:100BB000DF0111971C9291E0E43FF907B1F7089526
:100BC000909112019923C1F09091C40297FF14C033
:100BD000E82FE695E695E695EE31F8F4F0E0E4517D
:100BE000FE4F877021E030E001C0220F8A95EAF7BE
:100BF0008281822B82830895AEEEB1E0EFEF90E028
:100C00002D91821751F0EF3F19F4211101C0E92F06
:100C10009F5F9630A9F7EF3F09F408950E2E000C60
:100C2000FF0BE451FE4FE6CFE92FEE0FE90FEE0F79
:100C30008E0F982F977086958695869525E0829FD2
:100C4000F0011124ED59FD4F50E040E080E021918A
:100C500030E0092E02C0369527950A94E2F72170FC
:100C60003327042E01C0220F0A94EAF7822B4F5F2C
:100C70005F4F4530510559F70895E92FEE0FE90F01
:100C8000EE0F8E0F982F977041E001C0440F9A9598
:100C9000EAF786958695869595E0899FF00111245F
:100CA000ED59FD4F30E020E070E05191DF011197E8
:100CB000CB01022E02C0969587950A94E2F78170C7
:100CC00081958527842385278C932F5F3F4F25307F
:100CD000310559F70895809162029091310298137D
:100CE00001C008958F5F8770FACF882341F0809507
:100CF0009091A00289238093A0020C94700508951E
:100D0000882339F09091A002982B9093A0020C9424
:100D100070050895882341F080959091A102892360
:100D20008093A1020C9470050895882339F0909166
:100D3000A102982B9093A1020C9470050895209124
:100D40001402309115022817390771F0909315029B
:100D500080931402E091C602F091C702309721F00F
:100D60000084F185E02D09940895209112023091BC
:100D700013022817390771F090931302809312021F
:100D8000E091C602F091C702309721F00680F7810A
:100D9000E02D09940895E091C602F091C7023097C2
:100DA00021F00190F081E02D099480E00895909168
:100DB000C40292FF06C0282F28712830F9F4877FDB
:100DC000846093FF06C0282F28712831F1F4877EB4
:100DD00084612091C50220FF06C0382F3871383059
:100DE000D9F4877F816021FF06C0282F2871283120
:100DF000D1F4877E816194FD877E0895282F247128
:100E00002430F9F68B7F8860DCCF282F24712431C1
:100E100001F78B7E8861DDCF382F3171313019F7C2
:100E20008E7F8860E0CF282F2171213121F78E7EBF
:100E30008861E1CFCF93DF93972F70E026E0929FF8
:100E4000600D711D1124FB0134E5839FE00DF11D40
:100E50001124EE0FFF1FE455FF4FC591D491CE0131
:100E6000C238D105B9F1E8F5C133D10509F499C00B
:100E700050F5C932D10509F48DC0CA32D10509F443
:100E800097C0C11542E5D40708F0C4C0C11521E5DB
:100E9000D20708F038C1C83ED10508F09DC0C03E59
:100EA000D10568F5C83AD10508F089C0C53AD10521
:100EB00008F005C1C130D10511F1209709F443C0F4
:100EC0002497E8F440C0C533D10509F45CC0C933A8
:100ED000D105B9F62091C402237089F080EE90E02C
:100EE0000EC0C33ED10591F168F4C03ED105F9F0C2
:100EF000C23ED10531F62091C40222FD20C0DF910F
:100F0000CF910895C63ED10561F1C73ED10581F16B
:100F1000C43ED10509F0B5CF2091C50221FFEFCF26
:100F20008091C40284FD0FC087EE90E0E8CF20914D
:100F3000C40220FD19C13091C50230FFE0CF83EE1D
:100F400090E024FFDCCF90E080E0D9CF2091C40274
:100F500022FD0DC13091C50230FDC0CF24FFCFCF9F
:100F6000F2CF2091C40223FFCACF24FDECCFDCCF07
:100F70002091C40223FDFEC03091C50231FFEECFA7
:100F800084EE90E0BCCF2091C40225FFB8CF89E267
:100F900090E0B5CF2091C40225FFB1CF85E390E06A
:100FA000AECF2091C40226FFAACF8AE290E0A7CF5D
:100FB0002091C40226FFA3CF81E390E0A0CFCF3BD6
:100FC000D10508F6C85AD0E0CC0FDD1FC254DE4F61
:100FD00088819981946493CFC11530E2D30760F47E
:100FE000C11541E0D40708F08ACFCE019065C03F1B
:100FF000D10508F084CFA7CFC11580E4D80708F445
:10100000A2CFC11590E5D90708F061C0CE019F704D
:10101000906A75CFC11526E5D20718F5C11535E5DB
:10102000D30708F086C0C11544E5D40708F07CC09A
:101030009C2F96959695AE0143705527C115D345C3
:1010400008F466C021E030E002C0220F331F4A9549
:10105000E2F740E2949FC0011124822B932B9A68FF
:101060004ECFC1159AE5D90778F4C11529E5D20705
:1010700008F069C0C11538E5D30708F464CF9C2F88
:101080008827806F906A3BCFC1154BE5D40708F4E1
:101090005ACFC1158CE5D80708F462C0CE0190562E
:1010A0008115904208F04FCF8D2F8F710E94D70687
:1010B00090E0982F882788279F718C2B42C0C55AB3
:1010C000D0E0C554DE4F888190E0906418CF9E0137
:1010D000E4E036952795EA95E1F723708C2F869505
:1010E0008695837030E2839FC0011124922BC370D8
:1010F00021E030E002C0220F331FCA95E2F7822BB5
:10110000932B9C68FCCE9C2F8827816F906AF7CE2A
:1011100021E030E002C0220F331F4A95E2F740E29F
:10112000949FC0011124EBCF9C2F8827846F906A75
:10113000E6CE8C2F0E94D70690E0982F882788272C
:101140009F719062DCCE8C2F8F700E94D70634E0A6
:10115000D695C7953A95E1F7CF709C2F9069CFCE81
:10116000CE0199279066CBCE89E390E0C8CE82EE7F
:1011700090E0C5CE86EE90E0C2CEBF92CF92DF92D5
:10118000EF92FF920F931F93CF93DF938C01C09048
:101190009A02D0909B02E0909C02F0909D02809178
:1011A000A3029091A402A091A502B091A602C82A20
:1011B000D92AEA2AFB2ACFE1D0E0BC2ED701C6010A
:1011C0000C2E04C0B695A795979587950A94D2F7EB
:1011D00080FD0EC0219788F7B12C8B2DDF91CF9128
:1011E0001F910F91FF90EF90DF90CF90BF900895E7
:1011F000B8018C2F0E941A07019761F3EECFCF93AD
:10120000DF93EC010E94BD08BE01DF91CF910C94E9
:101210001A070E94FF08292F2F7092959F709250F5
:101220009E3078F4E92FF0E0EA55FE4D0C942B2027
:10123000803F19F020F4883E20F481E00895843F37
:10124000E1F380E00895883EC0F3813FD1F7F5CF08
:10125000822F869586958695089527982F980895CC
:1012600026982E98089525982D98089556985E985A
:101270000895279A2F9A0895269A2E9A0895259AC6
:101280002D9A0895CF92DF92EF92FF92CF936B0148
:101290007C01C701AA27BB27C0E10097A105B105C2
:1012A00019F4D701CB01C0E0492F5A2F6B2F7727B4
:1012B000411551056105710519F0C85FDB01CA01CF
:1012C000AC01BD01E4E07695679557954795EA95A1
:1012D000D1F7411551056105710519F0CC5FDB01AE
:1012E000CA01AC01BD0132E07695679557954795E7
:1012F0003A95D1F7411551056105710519F0CE5F99
:10130000DB01CA01B695A79597958795892B8A2BFE
:101310008B2B09F0CF5F0E9436090E9433090E948F
:1013200030090E942D09C150C73040F4EC2FF0E085
:10133000EC54FE4D0C942B200E943F09C701B601CE
:10134000CF91FF90EF90DF90CF9008950E943F09DA
:101350000E943C09F3CF0E943F090E943909EECF59
:101360000E943F090E943C09F8CF84B1807F84B974
:1013700085B1807F85B98AB1837F8AB98BB1837F3C
:101380008BB93E984698089580B38C7080BB81B32A
:10139000836F81BB0895CF9384E090E00E94312059
:1013A000C82F81E290E00E943120982F8C2FCF919E
:1013B0000895CF93DF9300D00F92CDB7DEB7909111
:1013C0001503943019F589837B836A8382E08093C7
:1013D000E9008FEF9091E800815095FD06C095EDF2
:1013E0009A95F1F700008111F5CF8091E80085FF13
:1013F0000DC050E040E063E070E0CE0101960E9435
:10140000D2028091E8008E778093E8000F900F90D1
:101410000F90DF91CF910895CF93DF93EC010E945D
:101420000C04823011F0843031F4BE0184E0DF918D
:10143000CF910C94D909DF91CF910895BC016058E8
:10144000710983E00C94D909CF93DF93EC010E94DA
:101450000C04823011F08430F9F482E08093E900CA
:101460008FEF9091E800815095FD06C095ED9A951B
:10147000F1F700008111F5CF8091E80085FF0CC0E5
:1014800050E040E066E070E0CE010E94D202809120
:10149000E8008E778093E800DF91CF910895CF9395
:1014A000DF93EC010E940C04823011F08430B9F516
:1014B000809112018823B1F18091C40287FF32C06C
:1014C00060E282E08093E9008FEF9091E800815024
:1014D00095FD06C095ED9A95F1F700008111F5CFC5
:1014E0008091E80085FF1BC08091120170E050E000
:1014F00040E0811104C050E040E068E070E0CE01BF
:101500000E94D2028091E8008E778093E80080E20A
:10151000FE01A3EFB2E001900D928A95E1F7DF9111
:10152000CF91089568E081E0CDCFEF92FF920F93C5
:101530001F93CF93DF930E9436090E9433090E94C4
:1015400030090E942D0988E8E82EF12C8FEF90E0F9
:10155000F701918380830AE810E0F801918380838A
:10156000CCE8D0E0998388830E943F09FFEF20E711
:1015700082E0F15020408040E1F700C000000E946E
:101580003C099FEFE0E7F2E09150E040F040E1F7E6
:1015900000C000000E9439092FEF80E792E021503F
:1015A00080409040E1F700C000000E943309EFEF57
:1015B000F0E722E0E150F0402040E1F700C00000F9
:1015C0000E9430098FEF90E7E2E081509040E040C8
:1015D000E1F700C000000E942D098091B2028770DF
:1015E000FFEF8F9FC001112495958795959587955D
:1015F0009927F70191838083F801918380839983F0
:1016000088830E9436090E9433090E943009DF91C5
:10161000CF911F910F91FF90EF900C942D09609145
:10162000AE028CE090E00C9445206FEE7EEF90E0EF
:1016300080E00E94632060E082E090E00E9445200C
:1016400060E083E090E00E9445201092A302109297
:10165000A4021092A5021092A60260E084E090E03D
:101660000E94452060E081E290E00E94452060E019
:1016700085E090E00E94452060E086E090E00E94D6
:1016800045206FEF87E090E00E94452040E050E069
:10169000BA0188E090E00E94572060E08DE090E081
:1016A0000E94452040E050E0BA0188E190E00E94AD
:1016B000572060E087E190E00E94452040E050E044
:1016C000BA018CE190E00E94572060E080E290E057
:1016D0000E9445201092B2021092B3021092B402FE
:1016E0001092B50284E080618093B2024091B20210
:1016F0005091B3026091B4027091B5028FE090E016
:101700000E94572040E050E0BA0183E190E00C9441
:101710005720CF93C82F873070F5809106019091A4
:101720000701892B89F564E670E080E40E94501F70
:101730009093070180930601892BD1F464E670E051
:1017400082E10E94AC1F9093070180930601892BD0
:1017500079F481E090E001C0880FCA95EAF764E669
:1017600070E080950E94AC1F909307018093060162
:10177000CF910C94FF1F8A30B9F040F4883071F09B
:10178000893079F0209A2898CF9108958C3091F083
:1017900070F08D30B9F73E9A4698F6CF219A299885
:1017A000F3CF229A2A98F0CF239A2B98EDCF529A12
:1017B0005A98EACF539A5B98E7CF80E290E09093F3
:1017C00007018093060180910F0281110EC00E94D3
:1017D0004A1F81E080930F022FEF83ED90E32150A9
:1017E00080409040E1F700C0000064E670E080E4D3
:1017F0000E94501F9093070180930601892B09F0E6
:101800004EC064E670E080E00E94AC1F9093070138
:1018100080930601892B09F042C064E670E080E005
:101820000E94AC1F9093070180930601892BB9F5A4
:1018300064E670E08FE30E94AC1F909307018093F1
:101840000601892B61F50E94FF1F64E670E080E4C9
:101850000E94501F9093070180930601892BF9F491
:1018600064E670E08CE00E94AC1F909307018093C7
:101870000601892BA1F464E670E080E00E94AC1FB1
:101880009093070180930601892B49F464E670E088
:101890008FE30E94AC1F90930701809306010E9482
:1018A000FF1F809106010895CF93873008F040C054
:1018B0008091060190910701C0E0892B71F464E6E4
:1018C00070E080E40E94501F90930701809306010E
:1018D000892B31F0C0E00E94FF1F8C2FCF9108951B
:1018E00064E670E083E10E94AC1F9093070180934F
:1018F0000601892B79F764E670E081E40E94501FAD
:101900009093070180930601892B21F784E690E0EC
:101910000E94DB1F97FF05C090930701809306018B
:10192000D9CFC82FC0951092070110920601D3CFCE
:10193000CFB18FB1869586958C73C3708C2BC82FD1
:10194000C095CBCF78941F921FB61F9211248F930E
:101950009F93AF93BF938091A7029091A802A0910B
:10196000A902B091AA020196A11DB11D8093A70200
:101970009093A802A093A902B093AA02BF91AF913D
:101980009F918F911F901FBE1F9018952FB7F894AD
:101990008091A7029091A802A091A902B091AA02F9
:1019A0002FBF0895E091C602F091C702309749F029
:1019B00082E08093D7020480F581E02D87ED92E0EC
:1019C00009950E94C60C9093DF028093DE02089571
:1019D0001092A00210929F020E94700586E0E7ED2F
:1019E000F2E0DF011D928A95E9F71092DD02109274
:1019F000AB020E94D20C90E080E00E94B50690E01D
:101A000080E00C949F060E94420960939A027093B2
:101A10009B0280939C0290939D020C94E80C0F9380
:101A20001F9341E050E060E070E004C0440F551F98
:101A3000661F771F8A95D2F7CB01BA016095709522
:101A40008095909500919A0210919B0220919C02A2
:101A500030919D0260237123822393231F910F9164
:101A60000C94030D90919E028095892380939E0291
:101A7000282F277071F4282F082E000C330B921793
:101A8000130639F08595859585950E940F0D109266
:101A90009E0208950F931F9341E050E060E070E0D4
:101AA00004C0440F551F661F771F8A95D2F7809197
:101AB0009A0290919B02A0919C02B0919D028A0192
:101AC0009B01082B192B2A2B3B2BC901B8011F9115
:101AD0000F910C94030D6093A3027093A402809362
:101AE000A5029093A6020C94E80C1092A10280919A
:101AF0001201EEEEF1E0882359F08091C40287FFD5
:101B000007C08EE1DF011D928A95E9F70C94E80C7D
:101B100086E0F8CF1F93CF93DF93CDB7DEB7AA97B8
:101B20000FB6F894DEBF0FBECDBF87E193E02091E2
:101B3000F100FC012193CF01F3E08F319F07B9F74A
:101B400080911803833009F46FC0B8F4813009F430
:101B500046C0823009F4B0C08091E80083FF87C29C
:101B600080911703909118039A3008F080C2E92FF2
:101B7000F0E0E554FE4D0C942B208A3009F48BC024
:101B80008B3009F46EC0893039F7809117038132A8
:101B900019F780911B0390911C030297E8F680913E
:101BA000E800877F8093E8008091E80082FF37C0DB
:101BB0009091F3008091F200029729F48091F10056
:101BC0008B7F813021F48091F1008093F20280912B
:101BD000E8008B778093E8000E94FC02BDCF8091E3
:101BE0001703813A09F0B8CF8091E800877F80938E
:101BF000E80080911B0390911C03892B61F460E243
:101C000083EF92E070E00E94AE038091E8008B7752
:101C10008093E800A1CF60E090E080E0F3CF809176
:101C200015038111C1CF98CF80911703813A09F034
:101C300093CF80911B0390911C03892B09F08CCFCB
:101C40008091E800877F8093E8008091E80080FF22
:101C5000FCCF809112018093F1008091E8008E7793
:101C6000B9CF80911703813209F076CF80911B03A1
:101C700090911C03892B09F06FCF8091E800877F3A
:101C80008093E8000E94FC02809119038093120166
:101C90000E94750D61CF80911703813209F05CCFEE
:101CA0008091E800877F8093E8000E94FC02809189
:101CB0001A038093F10250CF80911703813A09F003
:101CC0004BCF8091E800877F8093E8008091E80007
:101CD00080FFFCCF8091F102BECF803899F082382E
:101CE00009F0C5C180911B038F70873008F0BFC118
:101CF0008093E9008091EB0085FB882780F91092A2
:101D0000E90006C080911303909114039111826041
:101D10009091E800977F9093E8008093F1001092F3
:101D2000F1008091E8008E779EC1882309F48CC170
:101D3000823009F09CC18091190381118FC180917B
:101D40001B038F702FEF280F263008F090C180936F
:101D5000E9002091EB0020FF81C1933031F48091A4
:101D6000EB0080628093EB0079C19091EB00906171
:101D70009093EB0021E030E001C0220F8A95EAF752
:101D80002093EA001092EA008091EB008860EACF8D
:101D900081116DC1109119031F778091E300807844
:101DA000812B8093E3008091E800877F8093E80097
:101DB0000E94FC028091E80080FFFCCF8091E3004C
:101DC00080688093E30082E0111183E08093150323
:101DD0004EC18058823008F04AC180911903909119
:101DE0001A038C3D23E09207A1F583E08A838AE2FF
:101DF00089834FB7F894DE01139620E03EE051E26C
:101E0000E32FF0E050935700E49120FF03C0E295E8
:101E1000EF703F5FEF708E2F90E0EA30C0F0C79612
:101E20008D939D932F5F243159F74FBF8091E80028
:101E3000877F8093E8006AE270E0CE0101960E94FD
:101E4000AE038091E8008B778093E80010C1C096C4
:101E5000E7CF40911B0350911C03292F33272330D8
:101E6000310509F445C078F52130310509F47BC00E
:101E70008BE390E0ECE4F4E02230310509F0F7C0A8
:101E80002091E800277F2093E80020911D033091E6
:101E90001E038217930708F49C0140E021153105C9
:101EA00009F070C041116EC08091E80082FDC9CF79
:101EB00080911503882329F2853019F28091E8007A
:101EC00083FFF2CFBECF2132310509F440C0223268
:101ED000310509F0CCC04115510509F44EC041301F
:101EE000510509F0C4C080EC90E0ECE4F3E0C8CF09
:101EF000992781309105D9F0009771F082309105D2
:101F0000F1F0039709F0B3C0E9E9F4E0E4918E2F12
:101F100090E0E9E9F4E007C0E1ECF4E0E4918E2F11
:101F200090E0E1ECF4E0009709F4A1C0A9CFE7EB61
:101F3000F4E0E4918E2F90E0E7EBF4E0F4CFEFE9EA
:101F4000F4E0E4918E2F90E0EFE9F4E0ECCF41155E
:101F5000510571F04130510509F089C089E090E0E8
:101F6000E7E7F4E08DCF82E190E0E7E8F4E088CFA6
:101F700089E090E0EEE5F4E083CF80E490E0ECE0EF
:101F8000F4E07ECF80911503882309F45ACF853081
:101F900009F457CF8091E80083FD53CF8091E8008A
:101FA00082FD82CF8091E80080FF78CF9091F3008E
:101FB0008091F2002115310519F08830910550F01B
:101FC00041E0089709F040E08091E8008E77809327
:101FD000E80064CF44914093F100319621503109DB
:101FE0000196E8CF803809F042C08091E800877FF1
:101FF0008093E800809116038093F10092CE8111C6
:1020000036C010911903123090F58091E800877F57
:102010008093E800109316030E94FC02112311F034
:1020200084E005C08091E30087FDFACF81E08093D2
:10203000150342E061EC81E00E941B0342E261EC87
:1020400082E00E941B0313C080911903813079F450
:1020500081E0933009F080E0809314031092E9004E
:102060008091E800877F8093E8000E94FC028091C5
:10207000E80083FF0AC08091E800877F8093E80032
:102080008091EB0080628093EB00AA960FB6F894E3
:10209000DEBF0FBECDBFDF91CF911F9108951F927C
:1020A0000F920FB60F9211242F933F934F935F938C
:1020B0006F937F938F939F93AF93BF93CF93DF9350
:1020C000EF93FF93D091E900DF708091EC00C82F6F
:1020D000C17080FDC0E81092E9008091F000877F18
:1020E0008093F00078940E948A0D1092E90080910C
:1020F000F00088608093F000CD2BCF70C093E90092
:10210000FF91EF91DF91CF91BF91AF919F918F910F
:102110007F916F915F914F913F912F910F900FBEE3
:102120000F901F9018951F920F920FB60F921124C7
:102130002F933F934F935F936F937F938F939F93CF
:10214000AF93BF93EF93FF938091E10082FF09C0AB
:102150008091E20082FF05C08091E1008B7F809337
:10216000E1008091DA0080FF24C08091D80080FFD8
:1021700020C08091DA008E7F8093DA008091D900B0
:1021800080FF9FC080E189BD82E189BD09B400FE66
:10219000FDCF81E0809315038091F002811109C089
:1021A0000E9482020E944D038091E200846080932D
:1021B000E2008091E10080FF17C08091E20080FF83
:1021C00013C08091E2008E7F8093E2008091E20054
:1021D00080618093E2008091D80080628093D80073
:1021E00019BC85E0809315038091E10084FF2DC028
:1021F0008091E20084FF29C080E189BD82E189BD30
:1022000089B5982F917080FFFBCF8091D8008F7D8A
:102210008093D8008091E1008F7E8093E1008091CF
:10222000E2008F7E8093E2008091E20081608093E3
:10223000E20080911603882309F449C084E080936A
:1022400015030E94750D0E94CB068091E10083FF6B
:1022500027C08091E20083FF23C08091E100877F47
:102260008093E10082E08093150310921603809121
:10227000E1008E7F8093E1008091E2008E7F809369
:10228000E2008091E20080618093E20042E060E041
:1022900080E00E941B038091F00088608093F00032
:1022A000FF91EF91BF91AF919F918F917F916F912E
:1022B0005F914F913F912F910F900FBE0F901F9004
:1022C000189519BC109215031092F00272CF8091EC
:1022D000E30087FD93E090931503B3CF882309F4BF
:1022E00059C0823871F40E94CB0681FF53C089E344
:1022F0000E94E0050E94700589E30E94B5050C94D8
:102300007005833859F40E94CB0680FF43C083E5F3
:102310000E94E0050E94700583E5EFCF843859F4F0
:102320000E94CB0682FF36C087E40E94E0050E942F
:10233000700587E4E2CF9CEF980F913AF0F290E2BB
:10234000980F983088F4877021E030E0A90102C02E
:10235000440F551F8A95E2F7CA0180959091A1021A
:1023600089238093A102CBCF9BE5980F933020F473
:1023700090E080E00C94B50698E5980F973120F432
:1023800090E080E00C949F06803F20F00E941704AC
:102390000C94D20C0895882309F47BC08238B9F4D8
:1023A0000E94CB0681FD75C089E30E94E0050E9472
:1023B00070052FEF81EE94E0215080409040E1F7CE
:1023C00000C0000089E30E94B5050C9470058338B5
:1023D000A1F40E94CB0680FD5CC083E50E94E0056D
:1023E0000E9470052FEF81EE94E0215080409040D4
:1023F000E1F700C0000083E5E6CF8438A1F40E9435
:10240000CB0682FD46C087E40E94E0050E9470056D
:102410002FEF81EE94E0215080409040E1F700C022
:10242000000087E4D0CF9CEF980F913A18F40E94F7
:10243000E005CBCF90E2980F983068F4877021E0E8
:1024400030E001C0220F8A95EAF78091A102822B29
:102450008093A102BACFEBE5E80FE33038F4F0E067
:10246000E554FE4F808190E00C94B506E8E5E80F56
:10247000E73148F4F0E0EE0FFF1FE254FE4F808199
:1024800091810C949F06803F20F00E94D8040C9408
:10249000D20C0895CF93C82F0E94CB11C93349F4B1
:1024A0002FEF87EE93E0215080409040E1F700C08D
:1024B00000008C2FCF910C946E110F931F93CF932C
:1024C000DF93C62FD42F022FFC0182818823A1F035
:1024D000609325020E94C60C909311028093100213
:1024E000C77081E001C0880FCA95EAF7DF91CF91EC
:1024F0001F910F910C94950610912502161335C06B
:1025000080911002909111020E944005883C910533
:1025100060F5C0E2CD0F1D17B9F080E2810F883061
:1025200040F4177081E001C0880F1A95EAF70E9405
:102530008A06C83048F481E09D2F977001C0880F4B
:102540009A95EAF70E949506802F0E944A12C83099
:1025500098F4D77081E001C0880FDA95EAF7DF912F
:10256000CF911F910F910C948A06C77081E001C032
:10257000880FCA95EAF7F3CFDF91CF911F910F91A2
:1025800008954F925F926F927F928F929F92AF9237
:10259000BF92CF92DF92EF92FF920F931F93CF9350
:1025A000DF9300D000D00F92CDB7DEB76C01FC01F5
:1025B00083819481892B39F01081F180812F8F21C3
:1025C0008F3F09F003C60F900F900F900F900F9060
:1025D000DF91CF911F910F91FF90EF90DF90CF90FF
:1025E000BF90AF909F908F907F906F905F904F9033
:1025F00008950E94BD08082F682F89819A810E9442
:102600003D06E12FF0E026E0F29EE00DF11D1124E1
:1026100034E5039FE00DF11D1124EE0FFF1FE4557B
:10262000FF4F0591149109308DE51807F1F5F6017A
:102630008281882309F44EC08091B20291E0980F04
:102640009770887F953008F4892B8093B20280912F
:10265000B2028770FFEF8F9FC00111249595879577
:1026600095958795992790938900809388009093FA
:102670008B0080938A0090938D0080938C00409112
:10268000B2025091B3026091B4027091B5028FE032
:1026900090E00E94572060919A0270919B02809175
:1026A0009C0290919D020E944209F601828188233A
:1026B00089F0033EFCE51F0709F4D3C008F0BDC054
:1026C000013E3CE5130709F4C5C0023E8CE518073E
:1026D00009F4C5C017FFF2C0F6018281882309F40E
:1026E0004DC08091A102809324021092A10280919A
:1026F000AE02813009F4BDC0882309F4B6C082302F
:1027000009F4C4C0843009F4C8C08FE39CE9019780
:10271000F1F700C000005801E894B7F84CE0E42E4F
:10272000F12C95010E2C02C0369527950A94E2F7FC
:102730002F7087E290E031F0822F90E02A3008F08D
:10274000B1C04D960E944A1294E0E91AF108ECEFEC
:10275000EE16EFEFFE0629F78091AE02813009F404
:10276000A7C0882309F4A0C0823009F49DC084303A
:1027700009F4A2C0809124028093A102F601828113
:10278000882309F434C5109225020230FCE51F07A6
:1027900008F4BCC106312CE5120738F098012A5F15
:1027A0003C452730310508F0B1C10E94CB09909318
:1027B000C5028093C4020F303CE5130709F487C1BA
:1027C00008F001C108309CE5190709F46AC108F056
:1027D000D6C00430FCE51F0709F457C108F0BCC09F
:1027E00002303CE5130709F448C103301C4509F4E5
:1027F00048C16091C4021091C50284E090E00E943B
:102800004520612F81E290E00E9445200F900F90BB
:102810000F900F900F90DF91CF911F910F91FF902C
:10282000EF90DF90CF90BF90AF909F908F907F9070
:102830006F905F904F900C94750D043E9CE51907C6
:1028400091F084E0053EECE51E0709F043CF80934C
:10285000AE0202C01092AE020E940F0B3BCF81E08D
:10286000F6CF82E0F4CF83E0F2CF82EE0E94CB116C
:102870004CCF83E00E94800688E10E94CB1188E162
:102880000E946E1183E00E9475063FCF82EE0E9487
:10289000CB1187E50E944A1238CF86EE0E944A1279
:1028A00088E1F8CF06974ECF82EE0E946E1162CF7C
:1028B0008CE20E944A125ECF88E2FBCF033FFCE528
:1028C0001F07D9F140F5083D3CE5130791F1093D9B
:1028D0008CE51807F1F1073D9CE5190709F04ECF8B
:1028E00026E241EE61EEC6010F900F900F900F901F
:1028F0000F90DF91CF911F910F91FF90EF90DF909C
:10290000CF90BF90AF909F908F907F906F905F908F
:102910004F900C945D12053FECE51E07B1F088F076
:10292000063F2CE5120709F029CF27E245EE66EEB7
:10293000DACF27E245EE65EED6CF26E241EE60EE35
:10294000D2CF27E245EE64EECECF26E241EE62EE34
:10295000CACF28E241E0EFCF8091C4028061063007
:102960009CE5190709F447C08091C40288600730CC
:102970001C4508F440C08091C40280623CC00B300A
:10298000FCE51F0709F49BC068F409303CE5130718
:1029900009F48BC00A301C4509F02BCF8091C4028A
:1029A0008C6029C08091C4028B7F0D309CE5190793
:1029B00011F18091C4028D7F0E301C45E0F08091B2
:1029C000C402877F18C00A3FFCE51F0709F461C0F5
:1029D00060F502313CE5130709F481C078F4003159
:1029E0009CE5190709F477C08091C4028F7B0131FF
:1029F0001C4509F0FECE8093C402FBCE0431FCE5F9
:102A00001F0709F47AC008F470C005311C4509F0AD
:102A1000F0CE8091C40282FB992790F921E09227A1
:102A200090FB82F990FB83F9E6CF0D3F8CE5180708
:102A300009F449C070F40B3FECE51E0771F1809179
:102A4000C5028E7F0C3F1C4509F0D3CE8093C50292
:102A5000D0CE0F3F2CE5120709F44BC060F10115F1
:102A60001D4509F0C6CE8091C502982F90959170B2
:102A70008E7F892B90FB81F9E9CF8091C402816020
:102A8000BACF8091C4028260B6CF8091C4028460C4
:102A9000B2CF8091C5028160D9CF8091C50282609A
:102AA000D5CF8091C4028064A6CF0E94750D80911D
:102AB000C4028068A0CF8091C5028360C7CF809197
:102AC000C4028E7F98CF8091C5028D7FBFCF809149
:102AD000C4028F7E90CF8091C4028F7D8CCF0E94E4
:102AE000750D8091C4028F7786CF8091C402837F59
:102AF00082CF8091C5028C7FA9CF0E94750D9091E5
:102B0000C402892F97FB87F9805875CF06319CE561
:102B1000190709F077C38091A1028A7A91E009F43C
:102B200090E09093260281111AC089E20E94E0058C
:102B30000F900F900F900F900F90DF91CF911F91FA
:102B40000F91FF90EF90DF90CF90BF90AF909F904C
:102B50008F907F906F905F904F900C94700585E3FD
:102B6000E5CF85E34CC30E94750DEFEFF4E32CE055
:102B7000E150F0402040E1F700C00000F89481E00F
:102B80008093E00080E28093D8001092C9008FE12A
:102B90009EE40197F1F700C000001DBA1092680092
:102BA0001CBC10BE1FBA10927A0010926E001092D8
:102BB0006F0010927100109272001092C900109272
:102BC000BC0014B817B81AB81DB810BA1092BC00DF
:102BD00015B818B81BB81EB811BA0C94003FF3CC46
:102BE0000F900F900F900F900F90DF91CF911F914A
:102BF0000F91FF90EF90DF90CF90BF90AF909F909C
:102C00008F907F906F905F904F900C94150BC80140
:102C10000E941406F82E0DC3212F2F70E22E107F74
:102C200019F0E29490EFE922FF20C9F0EE2069F05C
:102C300080E2800F883010F0B1100BC08091A102AB
:102C4000E82AE092A1020E947005802F0E94CB1119
:102C500018C08091A002E82AE092A002F4CF802F51
:102C60000E946E11EE2069F0E094005E083010F0D2
:102C7000B1103CC08091A102E822E092A1020E9422
:102C80007005292D2850330B2430310510F40E9493
:102C9000CB06AA2009F497CC80919E0280FD93CCAC
:102CA000F60112828595859585950E944A0DC6018B
:102CB0000E94C11280919E028595859585950F9001
:102CC0000F900F900F900F90DF91CF911F910F9168
:102CD000FF90EF90DF90CF90BF90AF909F908F903C
:102CE0007F906F905F904F900C940F0D8091A00299
:102CF000E822E092A002C3CF312F3F70832E107FD5
:102D0000103219F0829480EF8822802FBB2041F08E
:102D100091E0B91631F1FF2079F1EE2041F195CF24
:102D2000FF2091F09091A202882D892BE11003C021
:102D30000E949506A6CFE1E0EE12FACF891709F4BA
:102D4000A0CF8093A2029DCFE11006C00E946A0529
:102D5000882D0E948A0695CFF1E0EF1609F491CFF5
:102D6000F5CFFF2031F021E02E1508F48ACF882D11
:102D7000DFCFE11086CFECCFEE2051F3893349F459
:102D80003FEF87EE93E0315080409040E1F700C084
:102D90000000802F0E946E1174CF812F869586953A
:102DA000837061F0813009F06CCFC8019370F1102D
:102DB00002C090E080E00E949F0663CFC80193703C
:102DC000F11002C090E080E00E94B5065ACFFF20CB
:102DD00009F1053F99F0063FB9F0043F49F48091AD
:102DE0002702909128028160909328028093270205
:102DF000802F0E94D8040E94D20C43CF80912702DA
:102E0000909128028260F0CF809127029091280251
:102E10008460EACF053F89F0063FA9F0043F49F4FA
:102E200080912702909128028E7F909328028093B0
:102E30002702802F0E941704DECF809127029091F5
:102E400028028D7FF2CF80912702909128028B7FFC
:102E5000ECCF812F837009F066C0F11012CF802F64
:102E6000829586958770880F880F602F6F70462E29
:102E7000512C712C612C082E04C0440C551C661C6E
:102E8000771C0A94D2F740E050E0BA0104FF0FC06B
:102E90004FE050E060E070E004C0440F551F661F33
:102EA000771F8A95D2F74095509560957095812F40
:102EB000869586958370823019F1D8F40091A3022B
:102EC0001091A4022091A5023091A602813069F0F0
:102ED0004429552966297729CB01BA01602371233A
:102EE000822393230E946B0DCCCE402A512A622A62
:102EF000732ACB01BA016429752986299729F2CF53
:102F000044295529662977290091A3021091A4022A
:102F10002091A5023091A602CB01BA01602771274A
:102F200082279327DFCF8695FF2011F0812F8170B4
:102F3000882309F4A6CE802F829586958770880F06
:102F4000880F602F6F70462E512C712C612C082E2B
:102F500004C0440C551C661C771C0A94D2F740E050
:102F600050E0BA0104FF0FC04FE050E060E070E0B5
:102F700004C0440F551F661F771F8A95D2F74095EE
:102F8000509560957095812F8695869583708230D7
:102F900019F1D8F400919A0210919B0220919C02A1
:102FA00030919D02813069F044295529662977299D
:102FB000CB01BA0160237123822393230E94030D66
:102FC00060CE402A512A622A732ACB01BA016429B1
:102FD000752986299729F2CF442955296629772909
:102FE00000919A0210919B0220919C0230919D02C7
:102FF000CB01BA016027712782279327DFCF1F708B
:10300000FF2029F0812F0E944A0D802F91CE802F22
:103010000E948A06812F0E940F0D33CE802FE2EF8F
:10302000BE1609F44EC0EB1578F0F0EFBF1619F19B
:1030300021EFB21609F43DC0FF2009F465C0E1108C
:1030400004CE812F8F713AC033EFB31609F43EC01E
:1030500094EFB912F1CFFF2009F44BC01F71812FFB
:103060000E944A0DF8E01F9FC001112483608093E5
:103070009E02812F23C0FF20B9F0E11002CE1F7104
:1030800061E070E080E090E004C0660F771F881F69
:10309000991F1A95D2F700919A0210919B022091E4
:1030A0009C0230919D02A6CFE1E0EE1508F4E9CD37
:1030B000E6CF812F8F71FF2009F4ADCF0E944A0D1A
:1030C000E0CD812F8F71FF20C9F3A5CF60E070E0C4
:1030D000CB01FF2009F472CF1F7161E070E080E046
:1030E00090E004C0660F771F881F991F1A95D2F7CA
:1030F00065CF81E00E94320D21E02E1508F0C1CD90
:1031000082E00E94320DBDCDE11038CE812F8F714B
:1031100082CFE2EFBE16D1F1EB1500F1F0EFBF1652
:1031200049F121EFB216D1F180912902EE2009F484
:1031300041C0882341F080912A0291E08927809341
:103140002A0210922902802FF11080CD0E946E1168
:1031500086E0F60111928A95E9F793CD34EFB31624
:10316000C1F0B31688F085EFB812DECFF11089CD2B
:1031700081E007C0FF2009F484CD80912A0291E00C
:10318000892780932A027DCD81E0F826F0922A02D9
:1031900078CDF11076CD10922A0273CDFF2039F050
:1031A00080912902882349F3109229026ACDEE20EA
:1031B00021F367CD882309F464CDF11062CD8091AD
:1031C0002A0291E0892780932A02EECF85E0DE0172
:1031D000119601900D928A95E1F7F601228189817D
:1031E0009A81211106CA0E941406082F0ACA0631C4
:1031F0001C4589F4809126028111B3CC89E20E949A
:10320000B50596CC01152CE5120709F4ACCC0E3DA2
:103210001C4509F4E5CCF60100811181882309F4ED
:10322000F6CCC8010E94BD08F82E682FC8010E9484
:103230003D06B8018F2D0E941A078C01B82EF601A9
:10324000E580E2943FE0E322F280F1101092A002C8
:1032500080919E02877079F0FF2069F080E2800FF4
:10326000883048F082E00E94320D80919E02877083
:10327000AA24A3948111A12C912E92942FE0922242
:10328000FBE0F91508F4FDCCE92DF0E0EB53FE4D21
:103290000C942B201F93CF93DF9380913002807F7B
:1032A000C1F480912D028823A1F080916202C09127
:1032B000310260912B0270912C0240912E025091AC
:1032C0002F02D62FD723DA01A095B09516E0C813A8
:1032D00004C0DF91CF911F91089590E041155105F1
:1032E00011F0DF3F31F401968770F1CF2A0F3B1FB9
:1032F00017C0189FF001199FF00D1124EE5CFD4FCF
:1033000021812713F0CF20812613EDCF22812111B7
:10331000EACF238134812417350740F3241B350B72
:10332000283C310500F7209130022F702061209356
:10333000300226E0289FF001299FF00D1124E95C5E
:10334000FD4F80818F70806180838BE292E00E94CC
:10335000C112DF91CF911F910C946B06BF92CF9257
:10336000DF92EF92FF920F931F93CF93DF93CDB72E
:10337000DEB761970FB6F894DEBF0FBECDBF8C01EC
:1033800085E0F801DE011D9601900D928A95E1F726
:10339000D8012C9111963C9111971296EC901297AE
:1033A00080912E0290912F02009709F463C1409101
:1033B0002B0250912C02642F65236F3F09F45AC1F0
:1033C0001396CD90DC90B0902D02BB2009F413C170
:1033D000C816D906C0F1F601E81BF90BCF01FF248E
:1033E000F394883C910508F0F12C80913002982FDD
:1033F000907FFF2009F4C1C091117DC0FE2C5313B2
:1034000027C0421325C0E11023C08F7080618093D4
:1034100030028BE292E00E94C11280913002D8010A
:1034200015968C938F2D61960FB6F894DEBF0FBE64
:10343000CDBFDF91CF911F910F91FF90EF90DF9063
:10344000CF90BF900895809590958C0D9D1DC7CF0E
:10345000CD2829F0822F83238F3F09F035C180E0EA
:10346000B82FB170DB2E80FF3CC08091620240918A
:10347000310256E0841315C02D873E878D859E85C9
:103480000E94FF08292F22952F702230F0F024305F
:1034900018F59F70F1F0F8019581907FD1F4D12C4F
:1034A0001EC090E0589FF001599FF00D1124EE5C72
:1034B000FD4F6181361306C06081261303C062810F
:1034C000E6120FC001968770D5CF9F7011F0882348
:1034D00031F3805E883018F3C8010E94C112FD2CC0
:1034E000A1CFEE2009F49ECF8091300281608093BD
:1034F0003002F12C97CF531313C0421311C0E110C7
:103500000FC0D80115968C93C8010E94C11286E0A5
:10351000F801ABE2B2E001900D928A95E1F782CF1B
:103520002D873E878D859E850E940909882309F194
:10353000EE20F9F080913002803270F020912B0261
:1035400030912C0238872F831986DB86CA868C87B8
:10355000CE0107960E94C11286E0F801ABE2B2E00C
:1035600001900D928A95E1F70E944A19FF24F39485
:1035700059CFC8010E94C112F9CF91110CC08BE242
:1035800092E00E94C11286E0EBE2F2E0DF011D92C0
:103590008A95E9F747CF531312C0421310C0E110C8
:1035A0000EC0F8018583C8010E94C112EBE2F2E06F
:1035B00086E0DF011D928A95E9F7FB2C33CF2D873A
:1035C0003E878D859E850E940909882391F2EE2011
:1035D00081F280913002803208F4BECF20912B021C
:1035E00030912C023A8329831B82DD82CC828E8328
:1035F000CE010196AFCFC816D90640F0C81AD90A35
:10360000B8ECCB16D10448F0F12CBDCF8095909545
:103610008C0D9D1D883C9105B8F7FE2CEE2009F419
:10362000A8CF531316C0421314C08091300280FDFE
:103630006ECF982F907F09F46ACFF8018583903F71
:1036400009F462CF982F907F905F8F70892B8583CC
:103650005BCF2D873E878D859E850E94090981114C
:103660007BCF80913002816080933002C8010E943C
:10367000C112D8CEEE2009F47CCF2D873E878D85F0
:103680009E850E940909F82E882309F472CF86E0EE
:10369000F801ABE2B2E001900D928A95E1F78091DA
:1036A0002B0290912C020E94FF0892959F709630F9
:1036B00041F480912A0291E0892780932A02909315
:1036C00029020E944A19AECE81E08E25C9CE1F93F1
:1036D000CF93DF93CDB7DEB767970FB6F894DEBF11
:1036E0000FBECDBF6D8B7E8B8F8B8E899F89892B73
:1036F000E1F0852F84238F3F09F098C05FEF4FEFF3
:1037000014C030912A02332309F44EC0E42FF0E0B4
:1037100036E0539FE00DF11D1124EE0FFF1FED5E0B
:10372000FE4F40815181822B8C931A8A198A4B8BD0
:103730005C8B85E0FE017396DE011D9601900D9273
:103740008A95E1F786E0FE013D96DE01179601902D
:103750000D928A95E1F7CE0107960E94AE1981116C
:1037600012C086E0FE013796DE01119601900D929F
:103770008A95E1F78A859B85892B29F08F81988529
:1037800089238F3FC9F516E0809162029091310242
:10379000891320C067960FB6F894DEBF0FBECDBF69
:1037A000DF91CF911F91089580958223BDCF96E040
:1037B000929FD001939FB00D1124AE5CBD4FFE01CE
:1037C000319601900D929A95E1F7809331020E9413
:1037D0006B06D9CF819FC00111248E5C9D4F0E9442
:1037E000AE198823B9F28091620290E00196877049
:1037F000992780936202C8CF2091310230E0C9013D
:10380000019687709927409162024817190679F648
:103810000E94750D109231021092620286E0EBE276
:10382000F2E0DF011D928A95E9F7ADCF81E090E0EB
:10383000042E01C0880F0A94EAF7A52FB0E0AA5E13
:10384000BD4F2C913D8931115CCF322F38235BCF96
:103850008F929F92AF92BF92CF92DF92EF92FF92A0
:103860000F931F93CF93DF938091060190910701EF
:10387000892B91F080910E028F5F80930E0281114F
:103880000BC00E94DD0B90E090930701809306012E
:10389000892B11F40E94950A06EB12E07801C0E032
:1038A000912C37E0C32ECC0E8C2F0E94890B8C2DCF
:1038B0000E94890B8C2F0E94540CD7019D917D0191
:1038C000D12C891729F0FD0131978083DD24D39411
:1038D0008C2D0E94540CF7019681891709F466C05B
:1038E000868381E08D29982A0E94B509CF5FC73071
:1038F000C1F60E94C60C6AEF70E00E940320882E79
:10390000D0910D02DD2309F45DC010920D02E0910B
:10391000AC02F091AD027F012EE0E20EF11C40E01E
:10392000CBEF2AEFC22ED12C51915B3F81F0652F56
:1039300070E0282D392F8517D8F1261B370B2A3038
:103940003105E4F19F0121503109D901CC93EE16E4
:10395000FF0651F740930D02911002C0411134C08F
:1039600010920C02A091AC02B091AD0220910D0218
:10397000E9ECF2E047ED52E090E06191E801399125
:103980008E01631751F06C916B3FD1F48C93BF01A2
:1039900061507109EB01388321E011964E175F07E2
:1039A00061F720930D0290930C0212C080E09ACF31
:1039B000D601A61BB70B2A0F3B1FC1CF4D2FC7CF78
:1039C00091E0EBCF9110CCCF90910C029111C8CF28
:1039D000892DDF91CF911F910F91FF90EF90DF9094
:1039E000CF90BF90AF909F908F900895CDB7DEB7E6
:1039F0002A970FB6F894DEBF0FBECDBF84B7877F7E
:103A000084BF0FB6F894A895809160008861809378
:103A10006000109260000FBE80E890E00FB6F8944E
:103A200080936100909361000FBE85B7806885BF69
:103A300085B7806885BF0E9482020E944D038091F5
:103A4000E20084608093E2007894809115038823DB
:103A5000A1F01091E9001F709091EC00892F817006
:103A600090FD80E8182B1092E9008091E80083FD1A
:103A70000E948A0D1F701093E90082E084BD93E0DC
:103A800095BD9AEF97BD80936E000E94DD0B90E08C
:103A900090930701809306010E94B5090E94C40912
:103AA000A6EBB2E0E9ECF2E011921D9222E0E73DD4
:103AB000F207D1F78EE090E00E9479208093AC026B
:103AC0009093AD02FC010E962BEF2193E817F907B6
:103AD000E1F790E080E00E943F208F3E9E4F11F082
:103AE0000E94150B8CE090E00E94312090E0B0E045
:103AF000A0E08093AE029093AF02A093B002B09387
:103B0000B10289EA8093800089E080938100249843
:103B10002C983F988AB18F7C8AB96E98479A8BB15E
:103B200080638BB9769A8FE090E00E943920609391
:103B3000B2027093B3028093B4029093B50267709F
:103B40008FEF689FB00111247595679575956795FE
:103B50007727709389006093880070938B0060933F
:103B60008A0070938D0060938C000E94950A90E00B
:103B700080E00E943F208F3E9E4F11F00E94150B67
:103B800082E090E00E9431208093E1020E94CB0904
:103B90009093C5028093C40283E090E00E9431209C
:103BA000682F70E090E080E00E946B0D88E091E06B
:103BB0009093C7028093C602DD24D394CC24CA9488
:103BC00080E1B82E92E1A92E28E1E22EF12C30E41A
:103BD000932E80911503853009F458C00E94281C4B
:103BE000E2EEF2E0A9ECB2E010E000E0302F8D91BF
:103BF0002191281709F497C090E0882483942827FE
:103C0000422F482109F48AC099833A83882191E0A0
:103C100009F490E09B830E94C60C8160782F9D83FD
:103C20008C8349815A816B818D810E94671BF801C9
:103C3000EE51FD4F8081882680828091DE02909136
:103C4000DF020E9440059C019091DD02992319F04A
:103C50002431310578F02091D9028090DA02009168
:103C6000DB021091DC02211174C0882D802B812B86
:103C700009F0E5C00E94CB069091E002891709F493
:103C8000A8CF0E94CB068093E002A3CF80911503BA
:103C9000843009F11092C8020FB6F894A895E0920A
:103CA00060000FBE9092600083B7817F846083BF05
:103CB00083B7816083BF7894889583B78E7F83BFF5
:103CC0000FB6F894A8958091600088618093600099
:103CD000109260000FBE80911403882309F479CFFD
:103CE0000E94DD0B90E090930701809306010E94F3
:103CF000B5090E94C409E9ECF2E0119242E0E73D07
:103D0000F407D9F70E94281CE9ECF2E081918111B7
:103D100082C082E0E73DF807C9F75BCF9F5F880C60
:103D2000963009F06DCF0F5F1F4F0E30110509F06F
:103D30005DCFCE82CF8218860E94C60C8160782F1C
:103D40009A8789874E815F8168858A850E94671B73
:103D500074CF9F3F19F09F5F9093DD02121624F4F9
:103D60000E94B6048093D9028091D90287FF05C0D2
:103D70000E94B60481958093D902181424F40E94FD
:103D8000B6048093DA028091DA0287FF05C00E94B0
:103D9000B60481958093DA023091D9023323A1F0E1
:103DA0002091DA02222381F045EB3403C001112473
:103DB000992359F19093D90245EB240390011124E2
:103DC000332331F13093DA02101624F40E94960462
:103DD0008093DB028091DB0287FF05C00E9496047E
:103DE00081958093DB02111624F40E94960480933F
:103DF000DC028091DC0287FF05C00E949604819559
:103E00008093DC020E94D20C35CFD092D902D4CF5D
:103E1000D092DA02D9CFB9BCA9BC09B400FEFDCF5B
:103E20008091D8008F7D8093D8008091E0008260DF
:103E30008093E0008091E00081FDFCCFCACE9F3FDF
:103E400009F089CF9ACF1F921FB61F9211248F932A
:103E50009F93AF93BF938091C802811113C080914B
:103E6000A7029091A802A091A902B091AA0241963E
:103E7000A11DB11D8093A7029093A802A093A9024F
:103E8000B093AA02BF91AF919F918F911F901FBED7
:103E90001F9018951092B9008CE08093B800089597
:103EA000EF92FF920F931F93CF93DF93182FEB01A5
:103EB0001092BC0084EA8093BC000E94C60C7C0176
:103EC0008091BC0087FF27C08091B900887F88302F
:103ED00029F08091B900887F8031D9F51093BB001B
:103EE00084E88093BC000E94C60C8C018091BC00C9
:103EF00087FF24C02091B900287F90E080E028311E
:103F0000B1F081E090E0203411F490E080E09195F0
:103F1000819591090CC0CF3FDC0791F20E94C60C3D
:103F20008E199F098C179D0758F28EEF9FEFDF9136
:103F3000CF911F910F91FF90EF900895CF3FDC0735
:103F4000A9F20E94C60C801B910B8C179D0770F282
:103F5000ECCF8FEF9FEFEBCF0F931F93CF93DF93B8
:103F6000EB018093BB0084E88093BC000E94C60CE8
:103F70008C018091BC0087FF11C02091B900287F7F
:103F800081E090E0283211F490E080E091958195F5
:103F90009109DF91CF911F910F910895CF3FDC07D9
:103FA00041F30E94C60C801B910B8C179D0708F3F0
:103FB0008EEF9FEFEECF0F931F93CF93DF93EC0124
:103FC00084E88093BC000E94C60C8C018091BC00E8
:103FD00087FF08C08091BB0090E0DF91CF911F91D7
:103FE0000F910895CF3FDC0789F30E94C60C801B18
:103FF000910B8C179D0750F38EEF9FEFEECF84E966
:104000008093BC000895AA1BBB1B51E107C0AA1FE7
:10401000BB1FA617B70710F0A61BB70B881F991F69
:104020005A95A9F780959095BC01CD01089597FB0D
:10403000072E16F4009407D077FD09D00E940320C4
:1040400007FC05D03EF4909581959F4F089570959B
:1040500061957F4F0895EE0FFF1F0590F491E02DBD
:104060000994F999FECF92BD81BDF89A992780B540
:104070000895A6E1B0E044E050E00C946B20A8E184
:10408000B0E042E050E00C946B20262FF999FECF6F
:1040900092BD81BDF89A019700B4021639F01FBA9B
:1040A00020BD0FB6F894FA9AF99A0FBE08950396B8
:1040B000272F0E9446200E944520252F0E9446203F
:1040C000242F0C9446200196272F0E9446200C9402
:1040D0004520DC01CB01FC01F999FECF06C0F2BD01
:1040E000E1BDF89A319600B40D9241505040B8F7B6
:1040F00008950F931F93CF93DF938230910510F4AF
:1041000082E090E0E0912103F091220330E020E092
:10411000B0E0A0E0309799F42115310509F447C0CB
:10412000281B390B24303105C0F58A819B8161152C
:10413000710571F1FB0193838283FE0111C04081FF
:1041400051810281138148175907F8F04817590720
:1041500099F4109761F012960C93129713961C9392
:104160003296CF01DF91CF911F910F910895009367
:10417000210310932203F4CF2115310519F04217C2
:10418000530718F49A01BD01EF01DF01F801C2CF16
:104190009093220380932103D0CFFE01E20FF31FFF
:1041A000819391932250310939832883DACF20916A
:1041B0001F0330912003232B41F420910201309101
:1041C00003013093200320931F03209100013091BD
:1041D00001012115310541F42DB73EB7409104018D
:1041E00050910501241B350B40911F035091200372
:1041F0004217530708F0B5CF241B350B2817390792
:1042000008F4AFCFBC016E5F7F4F2617370708F465
:10421000A8CF640F751F7093200360931F03FA01EA
:10422000819391939ECFCF93DF930097E9F0FC01A8
:10423000329713821282C0912103D0912203DE01B2
:1042400030E020E02097A1F420813181820F931F7C
:1042500020911F03309120032817390709F067C008
:10426000F0932003E0931F03DF91CF910895DA01CB
:10427000AE17BF0708F040C012964D915C9113979E
:104280009D014115510599F7D9011396FC93EE93C1
:1042900012974D915D91A40FB51FEA17FB0779F4B2
:1042A000808191810296840F951FD90111969C936C
:1042B0008E938281938113969C938E931297B0E094
:1042C000A0E08A819B810097B9F5FE0181919191CF
:1042D000E80FF91F80911F03909120038E179F070D
:1042E00019F6109761F51092220310922103D093D2
:1042F0002003C0931F03B8CFB383A28340815181B1
:10430000840F951FA817B90771F44E5F5F4F8D9109
:104310009C911197480F591F5183408312968D919C
:104320009C91938382832115310509F0ADCFF093E1
:104330002203E093210398CFDE01EC01C2CF139654
:104340001C921E921297D3CFF894FFCF1809180928
:10435000210921092309210921092109180918091D
:1043600028092109210928099C09A809AD09A609DC
:10437000AB09B209B0096D0E950E3710950E3710C6
:10438000C80EE90E3710F20FFF0F0C160C167C1634
:104390007C16CD16E716891841162917FF170E1837
:0243A0000E18F5
:1043A200000023032000200014044F0A240A1E0ADE
:1043B2000C0A01000D010D020D030D040D050D0087
:1043C2000C010C020C030C040C050C000B010B027B
:1043D2000B030B040B050B000A010A020A030A0471
:1043E2000A050A000901090209030904090509006D
:1043F200080108020803080408050800070107026B
:104402000703070407050700060106020603060460
:10441200060506000501050205030504050505005C
:10442200040104020403040404050400030103025A
:104432000303030403050300020102020203020450
:10444200020502000101010201030104010501004C
:104452000001000200030004000500818283E200E3
:10446200E900EA00B500B600B700CD008301CC0038
:104472008A019201940121022302240225022602CA
:0C44820027022A02B300B4006F00700093
:00000001FF
